:020000040000fa
:10000000f07f0020dd250100553401005934010046
:1000100000000000000000000000000000000000e0
:100020000000000000000000000000007ff200005f
:1000300000000000000000007ff200007ff20000de
:100040007ff200007ff200007ff200007ff20000ec
:100050005d0501007ff20000a5bf00007ff20000f7
:100060007ff200007ff200002db00000b5c200005a
:100070007ff200007ff20000ddaf00007ff20000a1
:100080007ff200007ff2000055030100ddff000059
:100090007ff2000000000000000000007ff200007e
:1000a0007ff200007ff200007ff200007ff200008c
:020000040000fa
:1000b000f8b5c046f8bc08bc9e46704775250100df
:1000c000f8b5c046f8bc08bc9e4670474d250100f7
:020000040000fa
:1000d00030ff000001000000a8070100010000003f
:020000040000fa
:1000e00070b582b06b469d1d2b0001224e2106008b
:1000f0000ef0b8fd6b46dc1d01224d2123003000bf
:100100000ef0b0fd2a7821780020130703d40323d2
:100110001340022b01d002b070bd0120c90841403c
:1001200001200840f7e7c046437802781b021343da
:100130005bba0b807047c04600b583b06b4607338f
:100140001970012276210ef0d1fd03b000bdc0462a
:10015000f0b5d64646464f46c0b582b06b46dd1d6b
:100160000123012298462b7076212b0007000ef008
:10017000bdfd6b460400053301227a2138000ef0e4
:1001800071fd6b460443063301227c2138000ef0da
:1001900069fd002304432b7001222b0076213800d7
:1001a0000ef0a4fd434601ae044333700122330038
:1001b000112138000ef09afd044306d0200002b051
:1001c0001cbc90469946a246f0bdfa2080000ef075
:1001d000b5f8434601222b7076212b0038000ef033
:1001e00085fd6b468146053301227a2138000ef0e9
:1001f0007dfd4b460343994601222b0076213800b2
:100200002c700ef073fd4b460343994601223300d8
:100210002d2138000ef026fd4b461022034399464f
:10022000337892461a424ed038000ef0e3fc434633
:1002300001222b7076212b0038000ef057fd4b4623
:10024000034399466b46012206337c2138000ef0a9
:100250004dfd4b4603439946012233007b21380074
:100260000ef000fd4b4606220343994633787b216e
:1002700093430222134333700122330038000ef0ff
:1002800035fd4b460343994601222b007621380069
:100290002c700ef02bfd4c463300044301224c2100
:1002a00038000ef0dffc5246337804431a40130046
:1002b000064abb543b7e022b00d07fe7fb68380028
:1002c000984704437ae70c24644277e76808000003
:1002d00010b50b00012275210ef0c4fc10bdc04604
:1002e000f0b583b06b46dc1d23000f0001224d21c9
:1002f00006000ef0b7fc23780500002f0bd1082272
:1003000093432370012223004d2130000ef0eefcb8
:10031000284303b0f0bd08221343f2e7f0b5454689
:10032000de4657464e46e0b583b06b465e1d330051
:1003300001224e21040003270ef094fc33780500bf
:1003400098461f40022f01d01b0755d50023994620
:1003500001ab9a4653460122522120000ef082fc46
:1003600053461a780f2313406c4a0543a25c52216e
:100370001343524620001370534601220ef0b6fc80
:100380003300054301224e2120000ef06bfc0322b6
:100390003378054393430222134333700122330021
:1003a0004e2120000ef0a2fc0543c8200df0c6ff30
:1003b000022f00d181e043461b0708d44b46c82bcf
:1003c00000d98ae000212000fff78aff0543544b43
:1003d000e358072b43d80022514be250002f03d1a2
:1003e000504be35c002b6fd1280003b03cbc90461f
:1003f0009946a246ab46f0bd06236b4499460122be
:10040000502120000ef02efc4b461a780f2313408b
:10041000013b05430e2b54d8434a9b009b589946f9
:1004200008212000fff75cff434605431b0700d06f
:100430008ee73c4b01aae35c9246002b52d1072386
:100440006b449b4601224c2120000ef00bfc5b46c6
:100450001a7810231340354a0543a3547ae76b46b4
:100460009e1d50213300012220000ef0fbfb0f23c4
:10047000994632780543134098460e3b591e8b41ee
:1004800049460d338a431343413101223370200022
:1004900033000ef02bfc0543c8200df04fff4a46f9
:1004a0003378502193434246134333700122330083
:1004b00020000ef01bfc05438de70022184be25094
:1004c00092e71b4b9946abe70df034ff86231b01e7
:1004d0009c4664442060616086e74846c8380df059
:1004e0002dff6fe713005f21012220000ef0bafb01
:1004f00053461a780323514613430b700d4b0543a3
:10050000e35c002b02d013231a430a7053460122e6
:100510005f2120000ef0eafb054390e7720800001f
:100520006c0800006a0800006824010068080000e8
:1005300000c4090069080000f0b54746ce4680b502
:1005400083b06b469d1d2b0001224e2104000ef04e
:1005500089fb052203262b786a4407001e4090463b
:10056000022e4ed01b0738d04346012252212000d4
:100570000ef078fb43461a780f231340464a074390
:10058000a25c5221134342462000137043460122cd
:100590000ef0acfb2b00074301224e2120000ef091
:1005a00061fb03222b780743934313432b700122f3
:1005b0002b004e2120000ef099fb0743c8200df0c0
:1005c000bdfe002e03d1354be35c002b3bd1380040
:1005d00003b00cbc90469946f0bd304be35c002b59
:1005e0003ad107236b44994601224c2120000ef09a
:1005f00039fb4b461a7810231340294a0743a3546a
:10060000b2e71b07b0d407236b4498460122502160
:1006100020000ef027fb43461a780f231340013bbe
:1006200007430e2b34d81f4a9b009b58984608213d
:100630002000fff755fe074340460df07ffe0523df
:100640006b44984690e70df075fe86231b019c468f
:10065000644420606160bae713005f21012220003a
:100660000ef000fb43461a780323414613430b70f8
:100670000d4b0743e35c002b02d013231a430a708f
:10068000434601225f2120000ef030fb0743a8e71c
:10069000064b9846cbe7c046740800006a08000085
:1006a00068080000682401006908000000c409000f
:1006b000f0b5ce4647466f4b80b5c418236883b06b
:1006c0000600013300d176e00df034fe2268636845
:1006d000994252d9801a9941002900d1c2e06b4653
:1006e0009c1d230001224e2130000ef0bbfa0c2588
:1006f00003232278804615401340022b60d06b46be
:100700005f1d130741d03b000122522130000ef043
:10071000a9fa43460f22034398463b78522193435c
:10072000554a3000b25c13433b7001223b000ef08f
:10073000ddfa47462300074301224e2130000ef028
:1007400091fa0c2223780743934313432370012229
:1007500023004e2130000ef0c9fa0743c8200df0e7
:10076000edfd002d03d1454bf35c002b51d138003a
:1007700003b00cbc90469946f0bd994245d0012487
:100780000025644200196941a4e73c4bf35c002b4f
:1007900047d1072301226b444c21300099460ef0cb
:1007a00061fa4346034398464b461a781023134098
:1007b000334ab354a7e76368002b00d084e78ee781
:1007c0006b465f1d13079ed407236b449946012295
:1007d000502130000ef046fa4b461a780f23474658
:1007e0001340013b07430e2b39d8264a9b009b58e8
:1007f000994608213000fff773fd074348460df086
:100800009dfd6b46b8465f1d7de7904200d961e7cc
:10081000b5e70df08ffd1c4b9c466644306071605f
:10082000a5e73b0001225f2130000ef01bfa434692
:100830000343984603233a7813433b70134bf35c0e
:10084000002b02d013231a433a703b0001225f2190
:1008500030000ef04bfa43460343984699e70c4ba1
:100860009946c6e70b4b984200d938e70a277f42e2
:100870007de7c04678080000750800006a0800009f
:10088000680800006824010058080000690800009a
:1008900000c40900f049020070b582b06b46dc1d4f
:1008a00023000122542106000ef0dcf902222378f5
:1008b0000500934313432370012223005421300089
:1008c0000ef014fa284302b070bdc04670b582b075
:1008d0006b46dc1d23000122542106000ef0c2f9f4
:1008e00002222378050093432370013a2300542108
:1008f00030000ef0fbf9284302b070bdf0b583b0b4
:100900006b46dc1d23000e000122542107000ef06f
:10091000a9f908222378050093431e43073a2300d0
:100920005421380026700ef0e1f9284303b0f0bde1
:100930000023f0b5ce4647469946002380b583b0e4
:1009400001ad2b804b46ab706b46df1c04230c00c3
:100950003b7001223b00762180460ef0c7f92b0048
:10096000060003224f2140460ef07cf94b46064319
:100970003b7001223b00762140460ef0b7f901237f
:100980002a783043511119402170d11019406170fb
:10099000911052101a40e2706a781940a17011113a
:1009a000194021715110194061719110d2101a40f3
:1009b000e271aa781940a1715111194021721111e7
:1009c00019406172d11019401340a172637303b0d2
:1009d0000cbc90469946f0bd0023f0b5ce46474684
:1009e0009946002380b583b001ad2b804b460c00a7
:1009f000ab7002222b00652180460ef033f96b4666
:100a0000df1c042306003b7001223b007621404698
:100a10000ef06cf96b460643063301224d21404629
:100a20000ef020f94b4606433b7001223b00762135
:100a300040460ef05bf901232a78304391111940aa
:100a40002170d11019406170911052101a40e2705b
:100a50006a781940a170d110194021711900114014
:100a60006171511092101a40e271aa781940a17177
:100a7000511119402172111119406172d1101940a0
:100a8000a17251101940e172911019401340217365
:100a9000637303b00cbc90469946f0bd0023f0b5db
:100aa000ce4647469946002380b583b001ad2b80e2
:100ab0004b460c00ab7002222b00682180460ef0e2
:100ac000d1f86b46df1c042306003b7001223b007b
:100ad000762140460ef00af96b46064306330122a2
:100ae0004e2140460ef0bef84b4606433b700122b5
:100af0003b00762140460ef0f9f801232a78304376
:100b0000911119402170d11019406170911052104b
:100b10001a40e2706a781940a170d1101940217111
:100b2000190011406171511092101a40e271aa78b7
:100b30001940a171511119402172111119406172ae
:100b4000d1101940a17251101940e1729110194051
:100b500013402173637303b00cbc90469946f0bdfb
:100b6000f0b5c646002300b582b001ad2b80ab7056
:100b70006b46de1c04230c00337001223300762107
:100b800080460ef0b3f82b00070003224f214046a9
:100b90000ef068f82e222b780743934322785bb23d
:100ba000002a01d0202213436278002a01d00822b3
:100bb0001343a278002a01d004221343e278002aca
:100bc00001d0022213431e222b706b7893432279ab
:100bd0005bb2002a01d0102213436279002a01d0af
:100be00002221343a279002a01d004221343e2799e
:100bf000002a01d0082213436b703923217aa87888
:100c00004a1e9141627a9843531e9a4113019c46b1
:100c1000a37a647b5a1e9341621e9441624640b29d
:100c20002043490101430a43db001343ab70032215
:100c30002b004f2140460ef059f800230743337034
:100c400001223300762140460ef050f8384302b0be
:100c500004bc9046f0bdc046f0b5d6464f46464669
:100c60000023c0b582b001ae0c003380b370022205
:100c70003300652180460df0f5ff6b46df1c042331
:100c800005003b7001223b00762140460ef02ef815
:100c90006b460543063301224d2140460df0e2ff2d
:100ca0004e2233780543934322785bb2002a01d069
:100cb000402213436278002a01d008221343a2780d
:100cc000002a01d004221343e278002a01d0022234
:100cd000134333700f2372789a43237952b2591e0b
:100ce0008b416179db00481e81410a431343a2799d
:100cf000002a01d002221343e279002a01d0042203
:100d0000134373703f23b078984343b2207a9946d7
:100d1000411e88414301607a9c46411e8841a17a68
:100d200000014a1e9141e27ac900531e9a415300c4
:100d30009a46237b647b5a1e9341621e94414a4625
:100d40001443624614435246204301430a439b0026
:100d50001343b3706b46012206334d2140460df01c
:100d6000c5ff002305433b7001223b00762140462e
:100d70000df0bcff330005430222652140460df013
:100d8000b5ff284302b01cbc90469946a246f0bd70
:100d9000f0b5d6464f4646460023c0b582b001aef8
:100da0000c003380b37002223300682180460df0be
:100db00059ff6b46df1c042305003b7001223b00fa
:100dc000762140460df092ff6b4605430633012223
:100dd0004e2140460df046ff4e22337805439343a3
:100de00022785bb2002a01d0402213436278002aa5
:100df00001d008221343a278002a01d00422134311
:100e0000e278002a01d00222134333700f23727854
:100e10009a43237952b2591e8b416179db00481ef7
:100e200081410a431343a279002a01d002221343cd
:100e3000e279002a01d00422134373703f23b07873
:100e4000984343b2207a9946411e88414301607a13
:100e50009c46411e8841a17a00014a1e9141e27ad6
:100e6000c900531e9a4153009a46237b647b5a1e45
:100e70009341621e94414a461443624614435246cb
:100e8000204301430a439b001343b3706b46012286
:100e900006334e2140460df029ff002305433b70e9
:100ea00001223b00762140460df020ff3300054330
:100eb0000222682140460df019ff284302b01cbcf5
:100ec00090469946a246f0bd70b58eb06b460122a1
:100ed00006332d2105000df0c5fe041e03d16b461f
:100ee0009b791b0702d420000eb070bd02ab02221a
:100ef0001d2128000df0b6fe3f4b0400eb5c102bcb
:100f000040d06a46128907ab5a8203ab06221f21e2
:100f100028000df0a7fe384e0443ab5d102b4cd0db
:100f20006a46928907abda806a46d2891a816a4694
:100f3000128a5a8105ab0622252128000df092fe67
:100f40002d4e0443ab5d102b22d06a46928a07ab2c
:100f50009a816a46d28ada816a46128b1a826b6a51
:100f6000002b01d007a8984702232a7e9a43bad1c2
:100f70006b4607331a707521013228000df0b6fe5a
:100f80000443b0e72e2102a86944fff7cdf8bce77f
:100f90000aa905a8fff7c8f8ab5d102b23d12a21b9
:100fa000162069446844fff7bff8ab5d102b20d1d1
:100fb0000ba906a8fff7b8f8d1e7222103a86944d6
:100fc000fff7b2f8ab5d102b11d10e2009a96844d0
:100fd000fff7aaf8ab5d102b07d1262104a86944be
:100fe000fff7a2f8a6e707abb3e707ab9fe707abae
:100ff0009ae707abb0e7c0466808000001380e2842
:1010000003d8034b8000c05870470248fce7c04635
:101010006824010000c40900f0b5c64600b582b0de
:101020006b46dc1d230001220f004e2105000df050
:1010300019fe0323227880461340022b1fd0114b48
:10104000eb5801330f4a5021ab506b469e1d3300c5
:10105000012228000df006fe0f223378040093438e
:101060001f430e3a33005021280037700df03efe2a
:1010700043462043184302b004bc9046f0bd002311
:10108000e0e7c0466c080000f0b583b06b46dc1d9d
:1010900023000e0001224f2107000df0e3fd0f2277
:1010a0002378050093431e430e3a23004f21380056
:1010b00026700df01bfe284303b0f0bdf0b583b0e1
:1010c0006b46dc1d23000e000122502107000df0ad
:1010d000c9fd1f232278050013401e43012223006f
:1010e0005021380026700df001fe284303b0f0bdfa
:1010f000f0b583b06b46dc1d23000e0001224f21aa
:1011000007000df0affd1f232278050013401e439a
:10111000012223004f21380026700df0e7fd2843ff
:1011200003b0f0bd30b50d4b83b0c35c0d00002b98
:1011300003d00b4bc35c012b0cd06b46dc1d230092
:10114000012250210df08efd1f22237893432b7036
:1011500003b030bd002300200b70f9e769080000e0
:101160006a08000030b50d4b83b0c35c0d00002b46
:1011700003d00b4bc35c012b0cd06b46dc1d230052
:1011800001224f210df06efd1f22237893432b7017
:1011900003b030bd002300200b70f9e769080000a0
:1011a0006a080000f0b5c64600b582b06b46dc1d8b
:1011b0000e0023000122522105000df053fd0f27e0
:1011c0008046237801223b40334323705221230081
:1011d00028000df08bfd43460343181e02d1034b3c
:1011e000be43ee5402b004bc9046f0bd720800004d
:1011f000f0b5c64600b582b06b46dc1d0e0023007c
:101200000122522105000df02dfd0f278046237885
:1012100001223b40334323705221230028000df06c
:1012200065fd43460343181e02d1034bbe43ee54f3
:1012300002b004bc9046f0bd74080000f0b5c6468c
:1012400000b582b06b46dc1d0f0023000122522145
:1012500005000df007fd0f26804623780122b343d9
:101260003b4323705221230028000df03ffd4346ed
:101270000343181e02d1034b3e40ee5402b004bc9f
:101280009046f0bd75080000f0b5c64600b582b0c6
:101290006b46dd1d01222b004e2106000df0e2fc05
:1012a0002a780700130703d003231340022b28d109
:1012b0006b4601220633162130000df0d3fc0523c6
:1012c0006b4498460023424604001370162143469f
:1012d000012230000df00afd6b4604430633012263
:1012e000162130000df002fd3c4304434346012229
:1012f000752130000df0b6fc204302b004bc9046ce
:10130000f0bd6b46022205331a704b21013a3000c2
:101310000df0ecfc3843f0e7f0b583b06b469d1d53
:101320002b0001224e2104000df09cfc0c222b7896
:101330001a421bd1224e093a9343a25d002a17d0cc
:101340000121204a2b70a1542b0001224d31200095
:101350000df0ccfc002105002000fef7c1ffa35dcd
:101360000543002b12d1280003b0f0bd03229343a4
:101370002b7001222b004e2120000df0b7fc002124
:1013800005002000fef7acff0543ece76b46df1dd0
:101390003b0001225f2120000df064fc13223b780a
:1013a000060093433b70123a3b005f2120000df092
:1013b0009dfc06432000fff767ff35430543d2e756
:1013c0006a0800006b080000f0b583b06b469d1df5
:1013d0002b0001224e2104000df044fc03232a7847
:1013e0000600134034d1404f0c339a43e35d002b89
:1013f00032d001213d4b2a70e15401222b004d31a6
:1014000020000df073fc304305000cf093ff384bc7
:10141000e31818605960e35d002b2dd06b46df1d8b
:101420003b0001225f2120000df01cfc13223b78c1
:10143000060093433b70123a3b005f2120000df001
:1014400055fc304305432000fff71eff054313e022
:10145000022b14d00c239a432b002a704e21012218
:1014600020000df043fc304305000cf063ff204bdf
:101470009c46644420606160280003b0f0bd0821f0
:101480002000fef72dff0c2207002b784e219343fe
:101490002b700b3a2b0020000df028fc3d0005437b
:1014a0000cf048ff124b0122e318186059606b469c
:1014b000df1d3b00502120000df0d4fb0f233a78b4
:1014c00035431340013b05430e2b0bd8094a9b00c3
:1014d000985840000cf032ff00212000fef700ff7a
:1014e0000543c9e70448f5e76a0800006b080000f7
:1014f000780800006824010000881300f0b5de467b
:10150000574645464e46e0b58fb004aa9446072399
:1015100063449a4600235246137063460122063301
:101520002d2104000df09efb051e04d1062204ab04
:101530009b791a4207d128000fb03cbc90469946cf
:10154000a246ab46f0bd06ab043a2e2120000df0ba
:1015500089fb002800d054e104ab1b890093002bc9
:10156000e9d0d94be35c002b00d04ce11023984626
:101570009946237e022b00d096e1009b27004d4622
:101580000026994644373b002a00302120000df008
:1015900069fb002800d0c6e10136b6b247444e458b
:1015a000f1d10023002507ae1f0017e1911c1000a8
:1015b000029144318b46111d039144316118019110
:1015c000c24944308846615c2018a344102900d1e8
:1015d00031e1a21840784432127800020243f280ce
:1015e0005a465178029a0902a218443212780a43e4
:1015f0003281019a5178039a0902a2184432127872
:101600000a4372810735adb29a062cd5aa1c443222
:10161000a21801922a1d2800029244329046ab4a39
:1016200044309346a25c2018a044102a00d120e147
:10163000621941784432127809020a43b281019a50
:101640005178aa1ca2184432127809020a43f28186
:10165000424651782a1da2184432127809020a43e0
:1016600032820635adb260221a421dd0503a1a427b
:1016700000d1cce02800954a4430a25c2018102a02
:1016800000d12be1621941784432127809020a43f1
:1016900072828f4a1220315e0235adb2914203d080
:1016a000102231680a4332600c221a421dd02800f1
:1016b000864a4430a25c2018102a00d1b5e0621995
:1016c00041784432127809020a43b280042202357a
:1016d000adb21a4206d07f49615c002902d131685f
:1016e0000a43326000217b4aa15410221a409346db
:1016f00059062ad576490622b05e884225d00822ae
:10170000b05e884221d00a22b05e88421dd05a467f
:10171000002a0ed0611908004430007800093075a5
:1017200008004631453000780978000909097075cc
:10173000b175862212019046a044424612680132d9
:1017400000d1dce05a0700d40ee199062cd560499f
:101750000c22b05e884227d00e22b05e884223d091
:101760001022b05e88421fd05a46002a11d060195c
:10177000010044310a780f210a40f275452294464f
:1017800084446246127846300a403276007801403e
:101790007176514a9046a04442461268013200d107
:1017a000b7e05b0700d4c3e05b46002b01d00335f4
:1017b000adb2636a002b01d0300098470222237e2d
:1017c000934305d15346013a752120000df08efa5e
:1017d0000137009bbfb2bb4200d188e000233360d9
:1017e0002b0044339946a1444b461b786a1c59b2de
:1017f00092b2002900da7ce0590600d5d6e6150041
:1018000002e7050097e6142398469946b1e6611968
:1018100044310978013549b27182adb2803100d1cd
:1018200042e731680a4332603ee708a9fef77cfcd4
:101830004b461b784ae704ab9c4602316144fef7f5
:1018400073fc4346e35c102b00d0ace009a958467a
:10185000fef76afc4346e35c102b00d0a0e004ab2b
:101860009c46162101986144fef75efc4b461b78ae
:10187000c8e60aa9fef758fc5b46e35c102b00d0d3
:1018800097e004ab9c461a2101986144fef74cfc9a
:101890005b46e35c102b00d088e00ba94046fef7c6
:1018a00043fc4b461b78dce64246009b30215a4302
:1018b0002300200044330df0d5f9051e00d170e659
:1018c0002000fff7e1fc36e6690800006808000028
:1018d0000080ffff6b0800005808000004ab9c4626
:1018e0001e216144fef720fc4b461b78d1e61d000b
:1018f00021e601252000fff7c7fc6d421be64246aa
:101900005268002a00d01de701213268114331607e
:101910001be742465268002a00d042e702233268a1
:101920001343336040e705002000fff7adfc02e6fb
:101930000cf000fd43461a685b68801a9941002943
:1019400002d11d4b984209d901220023414652423f
:101950000a604b6002233268134333604b46102207
:101960001b781a4093461fe70cf0e4fc43461a68c4
:101970005b68801a9941002902d1104b984209d91d
:1019800001220023414652420a604b600123326823
:10199000134333604b4610221b781a409346d4e61b
:1019a0004b461b7825e64b461b7819e64b461b78c1
:1019b0004ee64b461b7842e65fea00001f4e0000f1
:1019c000f0b5134e83b0835d04000025002b05d0d5
:1019d00028000f4a0133a35403b0f0bd6b46df1d4e
:1019e0003b00012254210df03df910223b78050007
:1019f000934313433b7001223b00542120000df020
:101a000075f90543c8200cf099fca35de0e7c046da
:101a100054080000f0b5114e0400835d83b000202f
:101a2000002b04d00d4a013ba35403b0f0bd6b461c
:101a3000df1d3b000122542120000df013f910227c
:101a40003b78050093433b700f3a3b005421200044
:101a50000df04cf9a35d2843e4e7c04654080000ac
:101a6000f0b5c646042300b582b001ad0e002b7060
:101a700001222b004b2180460df038f96b46df1c0c
:101a8000012304003b7001223b00762140460df00b
:101a90002df92b0004430322622140460df0e2f8a9
:101aa000002304433b7001223b00762140460df0a9
:101ab0001df9f0216b782a781b029b18aa7809037c
:101ac00012040a409b182043336002b004bc9046c5
:101ad000f0bdc046f0b5c64600b582b005006b4605
:101ae000002946d0df1d012301223b7076213b00f7
:101af0000df0fcf86b469e1d0400330001227b2193
:101b000028000df0aff806223378044393430422f3
:101b10009046424613433370012233007b21280054
:101b20000df0e4f8002304433b7001223b007621d2
:101b300028000df0dbf83300044301224d2128007a
:101b40000df090f804223378044393434246134344
:101b50003370012233004d2128000df0c7f8082111
:101b600004432800fef7cafe204302b004bc90469e
:101b7000f0bd9e1d330001224d210df073f80422ab
:101b80003378040093433370033a33004d21280027
:101b90000df0acf82043e8e710b582b06b46dc1dd1
:101ba000230001224d210df05df820784007c00f81
:101bb00002b010bd0122024bc25400207047c04643
:101bc000690800000022024bc25400207047c04642
:101bd00069080000f0b5c646002200b586b00023b3
:101be00090466a460293039304939382484b050000
:101bf0000f1ec15460d001295bd1d61d33000122d4
:101c00004c210df02ff8202233780400934340221a
:101c100013433370012233004c2128000df066f885
:101c200080230443337001223300162128000df075
:101c30005df8330004430122542128000df012f80e
:101c400001223378044313433370012233005421bb
:101c500028000df04bf83300044301225f212800d7
:101c60000df000f803223378044393432c221343ee
:101c70003370012233005f2128000df037f8330064
:101c8000012204436021280037700df02ff802a9cb
:101c900004432800fef7a0fe6b464246044302a917
:101ca00028005a72fef7d8ff204306b004bc9046c5
:101cb000f0bd01204042f8e74346d61d33700122b3
:101cc000330016210df012f83300040001225f21c9
:101cd00028000cf0c7ff03223378044393430c22ff
:101ce00013433370012233005f2128000cf0feff04
:101cf00002a904432800fef76ffe01236a4604434d
:101d000002a928005372fef7a7ff2043cde7c04683
:101d10006a080000f0b5de46454657464e46e0b537
:101d200017008822040089b012010d00002111f073
:101d3000cbfa230007cd07c307cd07c32a68e748be
:101d40001a600cf0fbfa04ab984601234246762158
:101d500013702000434601220cf0c8ff237e0600ca
:101d6000012b1ad0002b00d1e3e1022b00d1c5e1f9
:101d700000234246762113702000434601220cf0d6
:101d8000b5ff30430b2676420643300009b03cbc19
:101d900090469946a246ab46f0bd03ab9946022356
:101da0004a467a21137020004b4601220cf09eff18
:101db0000643002342467621137020004346012249
:101dc0000cf094ff0643e0d14246c54b67623c33ba
:101dd00023cb23c21b8820001380fef7b9f902af82
:101de0003b00050001224f2120000cf03bff054382
:101df000ab4609256d442b000122502120000cf038
:101e000031ff5b4603439b461f233a784f211a401c
:101e10003a702a7820001340402213432b7001228d
:101e20003b000cf063ff5f462b000743012250216b
:101e300020000cf05bff6b46dd1d2b0007430122e9
:101e4000162120002e700cf051ff2b0007430122b9
:101e5000622120000cf006ff70222b780743934389
:101e60002b706f3a2b00622120000cf03fff0743dc
:101e7000bb460a276f443b000122542120000cf08e
:101e8000f1fe5b46022203439b463b789246934316
:101e90003b70013a3b00542120000cf027ff5f46c5
:101ea000082107432000fef729fd012107432000f8
:101eb000fff790fe2b0007430122142120000cf0b5
:101ec000d1fe03222b78074313432b7001222b00f2
:101ed000142120000cf00aff414607432000fef7c2
:101ee000bbfe4246012341460743200053709670d3
:101ef000fef736fe2b0007430122642120000cf080
:101f0000b1fe10222b78074393432b700f3a2b001e
:101f1000642120000cf0eafe2b000743012251212e
:101f200020000cf09ffe0c222b7890469343042255
:101f300013432b7007432b000122512120000cf08a
:101f4000d5fe2b0007430122532120000cf08afe0e
:101f500018222b7807439343082213432b70012246
:101f60002b00532120000cf0c1fe5e4b4a46e65484
:101f700004230743137076214b46012220000cf006
:101f8000b5fe4a46584b074313800d234a219370f0
:101f900020004b4603220cf0a9fe0743b9460b274d
:101fa0006f443b000122762120003e700cf09efe23
:101fb0004b4603439946434601222b7057212b0081
:101fc00020000cf093fe4b46882203439846474b73
:101fd0005200e25260239b465a46454b7621e2541a
:101fe000032326643b705f3a3b0020000cf07efe2a
:101ff00043460343984601222b002e2120000cf07b
:1020000031fe43465246034398462b782e21934394
:102010002b70013a2b0020000cf068fe434603436e
:10202000984601222b00322120000cf01bfe434673
:102030005a46034398462b78322193432b705f3adc
:102040002b0020000cf052fe434603439846012229
:102050002b00372120000cf005fe43465a4603436f
:1020600098462b78372193432b705f3a2b00200042
:102070000cf03cfe43460343984601222b003c21d2
:1020800020000cf0effd43465a46034398462b7858
:102090003c2193432b705f3a2b0020000cf026fe6e
:1020a00045463b0005430122762120003e700cf09e
:1020b0001dfe104b0122e118002352420a604b60c2
:1020c0008621090161180a604b600b4905438c4663
:1020d00064442e002260636057e6c046b80b0000df
:1020e00068240100690800000d0d0000740800005c
:1020f00072080000580800007808000003ab9946f9
:1021000001227c2120000cf0adfd4b460c221b78f7
:10211000050013434a467c21137020004b460122e0
:102120000cf0e4fd28430643e3682000984706438b
:102130003fe603ab994601227c2120000cf092fd82
:102140004b4603221b78050093434a467c211370bb
:1021500020004b4601220cf0c9fd2843064328e627
:10216000f0b5de46454657464e46e0b591b002aa68
:102170000623944663441980090b9b460b03804653
:10218000029366d104af3900fef726fc08ae0400c6
:1021900031004046fef782fc0cad04432900404666
:1021a000fef7c6fbbb7804439a46b378524699467d
:1021b000ab7801934b46012a39d0012b41d0ab7843
:1021c000012b2cd05b460222602140460cf08efd94
:1021d000bb780443534506d0534639004046bb7094
:1021e000fef73afd0443b3784b4506d04b46310029
:1021f0004046b370fef7ccfd0443ab78019a93429e
:1022000005d029004046aa70fef7aafc044320002e
:1022100011b03cbc90469946a246ab46f0bd0023a7
:1022200029004046ab70fef79bfc0443cae7029bc3
:1022300039004046bb70fef70ffdb3780443012b15
:10224000bdd1002331004046b370fef7a1fd044329
:10225000b5e70b246442dae770b582b06b46012221
:102260000633542105000cf0fdfc002830db6b46e2
:1022700008269b7928001e40fdf732ff002812d067
:1022800080246404002e0bd06b46de1d3300012237
:102290004d2128000cf0e6fc337824015b071ad4aa
:1022a000200002b070bd6b46dc1d230001224d21d1
:1022b00028000cf0d7fc237804241c4063425c41c6
:1022c000064b64421c4080235b049c466444d9e76f
:1022d00001246442e4e7024ce2e7c0461111110018
:1022e0000080841e30b583b06b46dc1d23000122c4
:1022f0004d2105000cf0b6fc23785b0702d507489a
:1023000003b030bd2800fdf7ebfe431e9841044b9f
:1023100040421840034b9c466044f1e70080841e15
:10232000efeeeeff11111101004870476434010017
:020000040000fa
:10233000002820d00378002b1dd02123c35c013b53
:102340000d2b18d84123c35c002b0cd03f23c35c5a
:10235000012b13d0022b0ed12133c35c0020083b8c
:10236000382b0dd870474233c35c002beed143337a
:10237000c35c002bead10c204042f3e70020f1e7d8
:102380000c38efe7f0b514009bb02c2862d01b2866
:1023900000d16fe0062800d17ce00e2858d032280a
:1023a00000d187e03d2800d194e02f2800d1a1e0a2
:1023b000342800d1c5e0112800d1d4e0132800d181
:1023c000e7e0042800d1f6e0652800d105e10928fe
:1023d00000d1a4e02a2800d111e1272800d120e172
:1023e000202800d12fe11d2832d100230422694684
:1023f000200007f097fb00282ad16b46a04e5f888b
:102400001a88b36801ad6a80002b21d0f368002bd5
:102410001ed0338a002b1bd00de02b886a88df1971
:10242000d21a6a80f1682a001d30b36898476a881a
:10243000bfb2002a0cd0318a0123914201d20a0096
:1024400000233819f1682a8007f06cfb0028e4d0db
:102450001bb0f0bd0023042201a9200007f062fb9d
:102460000028f5d1864b1b68002bf1d001a92c3038
:102470009847ede70023082201a9200007f052fb4e
:102480000028e5d17e4b1b68002be1d001a91b3051
:102490009847dde70123302201a9200007f042fb25
:1024a0000028d5d1764b1b68002bd1d001a906306e
:1024b0009847cde70023182201a9200007f032fb3e
:1024c0000028c5d16e4b1b68002bc1d001a932304a
:1024d0009847bde7012300220021200007f022fbde
:1024e0000028b5d1664b1b68002bb1d000213d30d0
:1024f0009847ade76422002101a810f0e5fe002313
:10250000642201a9200007f00dfb0028a0d15c4b3c
:102510001b68002b9cd001a92f30984798e7012316
:10252000642201a9200007f0fdfa002800d08fe7ff
:10253000534b1b68002b00d18ae701a9093098474b
:1025400086e70023042201a9200007f0ebfa002807
:1025500000d07de74a4b1b68002b00d178e70021b3
:102560003430984774e70023454e01ad042229001a
:102570002000337107f0d6fa002800d068e72b78e6
:1025800073713368002b00d162e72900113098473e
:102590005ee700232c2201a9200007f0c3fa0028df
:1025a00000d055e7364b1b68002b00d150e701a93e
:1025b000133098474ce70023042201a9200007f0bc
:1025c000b1fa002800d043e72d4b1b68002b00d147
:1025d0003ee701a9043098473ae70023042201a905
:1025e000200007f09ffa002800d031e7244b1b6839
:1025f000002b00d12ce701a96530984728e701237b
:10260000042201a9200007f08dfa002800d01fe75e
:102610001b4b1b68002b00d11ae701a92a309847f1
:1026200016e70023042201a9200007f07bfa002806
:1026300000d00de7124b1b68002b00d108e701a961
:102640002730984704e70023082201a9200007f05b
:1026500069fa002800d0fbe66b4620001a89083092
:102660000123019907f05efa002800d0f0e6044b40
:102670001b68002b00d1ebe601a920309847e7e664
:102680009c220020f0b5c6462c3200b580460f00d3
:102690001d00069c96b2002b14d05b68002b11d055
:1026a0002b7a202b0ed8002c3ad0a01c2e220021f1
:1026b00010f00afe43462680012b2fd0002b0dd0b0
:1026c000022b05d00f256d42280004bc9046f0bdba
:1026d0000222a378134301221343a3706b7aff2bca
:1026e00003d0013bdbb20d2becd8e3707b1e032b38
:1026f000e8d82c23e7542a7a601d2271696810f00b
:10270000d9fd296800250029ded0252301222000db
:10271000e2542630053210f0cdfdd5e7a378dae794
:102720000c256d42d0e7c04610b50bf017f8041e1b
:1027300004d105f0dffd0122014b9a74200010bd89
:102740009c220020002300b585b00293ab239b00a0
:1027500001930090002300228321052007f032f826
:1027600005b000bd10b50bf013f8002802d101220e
:10277000014b9a7410bdc0469c22002070b58cb0ed
:1027800001236a46d37100282fd0194c03682360b7
:102790008368a360c368e360038a2382837c002b81
:1027a0000bd1002323716b46d81d0af0fdff0500f5
:1027b000061e05d028000cb070bd0423d371f0e7cd
:1027c00002230020a37406f0d3ff051e04d00020ce
:1027d000a6740bf01bf8ede70649012007f0ccf9d1
:1027e00002a80af005ff0500e4e70c256d42e1e7c9
:1027f0009c2200208523000010b504000af0c8ffc9
:10280000002805d10122034b20009a74fff7b6ff80
:1028100010bdc0469c220020002210b5044b0020b1
:102820009a7406f0bbff00200af0f0ff002010bdf4
:102830009c22002010b507f0d5f810bd10b58eb061
:1028400005ac24220021200010f03efdff23237060
:1028500000232200029301930093272124330120b7
:1028600006f0b0ff0eb010bd002300b585b0029396
:102870000193009300222921012006f0a3ff05b057
:1028800000bdc04610b590b004ac0b00009400220f
:102890000121fff7f7fe002801d010b010bd029013
:1028a00001900090302322003b21013006f08aff86
:1028b000f3e7c046102040427047c046f0b5454699
:1028c000de4657464e46e0b5150091b0002a00d1cd
:1028d00080e004ae0b0000966c220221fff7d2fece
:1028e000041e07d0200011b03cbc90469946a24679
:1028f000ab46f0bd01216c2010f021fc071e0bd06f
:102900002c686968002c0ad000291ed00f2464426c
:1029100038000ff0bbffe5e703246442e2e700293b
:10292000f4d02a7a402af1d80270013010f0c2fcab
:10293000302302933c33019300973c3b3200bb2190
:10294000012006f03fff0400e2e740230370431c30
:102950009b4621239c462023220059469a468444c4
:102960001378303bdbb2092b0ad955462b4331256e
:102970006d42a84698444546052dc7d8273bdbb293
:102980001b01dbb20b705578a84630256d42a94675
:10299000c8444546edb2a846092d0fd945465046d4
:1029a0000543a84631256d424544052daed827255f
:1029b0006d42a946c8444546edb2a84643440b7053
:1029c000013102328c45cbd13a782100584610f0c3
:1029d00071fcade70f24644284e7c04610b50029be
:1029e0001ad001284ad000281dd0022829d0032857
:1029f00016d1012a14d10b78012b57d0002b5cd0b3
:102a0000022b0dd108232e4a0020116899430b0098
:102a100004210b43136005e0002a01d1022820d0d5
:102a20000f20404210bd042afad10b68002b33d08e
:102a3000012bf5d1224a013311680020994311601e
:102a4000f0e7002a0dd0142aead140231c4a10686e
:102a500003431c4813601430142210f02bfc002098
:102a6000e0e74023164908689843086015490020ac
:102a70004a618a61ca610a624a62d3e7042acfd1f5
:102a80000b68002b0fd0012bcad10d4a0f331168f0
:102a900000200b431360c5e70223094a0020116898
:102aa0000b431360bee7064a1023c5e70c23044a14
:102ab000002011680b431360b4e7014a0c23bbe705
:102ac0002c2600209c22002010b50b1e16d00128b9
:102ad00017d0002821d002282cd003280ed111684d
:102ae00000290bd0012010601f4a116804220a40ff
:102af00033d00a0730d51870002001e00f20404283
:102b000010bd11680329f9d904211160164a126811
:102b10001209104018600020f2e711680329edd96e
:102b200004211160104a00201168012249088a43db
:102b30001a60e5e740200c490968014010d011688f
:102b40001329dbd91421116008491422143118000b
:102b500010f0b0fb0020d3e702221a700020cfe76c
:102b600011600020cce7c0462c2600209c220020cb
:102b7000f0b5d6464f464646c0b5140090b0002a80
:102b800000d17fe01268002a00d176e06368002b54
:102b900000d177e0a368002b00d173e0a589e2891a
:102ba000ad18642d00d96de08023228a5b009a4223
:102bb00068d82c35551904abadb2009398462a005d
:102bc0000b000421fff75efd061e06d0300010b09a
:102bd0001cbc90469946a246f0bd0121280010f089
:102be000aefa071e4bd0012306000370a37c2c36df
:102bf000b246002b01d081230370e37c002b03d06d
:102c000040223b7813433b702c233a00fb701f4b50
:102c10000c321b68d1467b621d4b143343cb43c23d
:102c200003cb03c2002321687b70002907d0237bdc
:102c3000504699461a007b7010f03cfbd144a27bb1
:102c400061684846ba7010f035fb5346b878228a5e
:102c50004844c61aa168be80fa8010f02bfb3023ce
:102c60000195029300974246bb21012006f0aafd80
:102c7000060038000ff00afea8e7a28186e70326c7
:102c80007642a3e70f267642a0e7c0462c26002016
:102c90009c220020f0b5de4657464e464546e0b53c
:102ca000140093b0002a00d1afe01368002b37d096
:102cb0006368002b00d1a8e0a368002b00d1a4e03a
:102cc000e368002b00d1a0e02369002b00d19ce039
:102cd000a68ae28ab618642e00d996e08023278b54
:102ce0005b009f4200d990e0c623628bdb009a42d2
:102cf00000d98ae02c3692197d005519adb206ae86
:102d00000b0000962a000421fff7bcfc071e09d027
:102d1000380013b03cbc90469946a246ab46f0bd85
:102d20009382c5e7638b0121ed1a9946abb2180077
:102d30009a4610f004fa051e64d002230497059702
:102d400007000370237f2c37bb46002b01d0822362
:102d50000370637f002b03d040222b7813432b702a
:102d60002c232a00eb70314b0c321b68d8466b6267
:102d70002f4b143383cb83c203cb03c200232168c0
:102d80006b70002907d0237d584698466b701a0057
:102d900010f090fad844a27d6168aa70404610f005
:102da00089faab785a46984443469b1aab80228beb
:102db000a168ea80404610f07dfaea88e168904414
:102dc000404610f077fa5a46eb88694643449b1a0e
:102dd0004a466a8101229bb20a748b822b814a4641
:102de0000823ca82029323690192009304aa08234c
:102df000bc21012006f0e6fc071e09d028000ff0d8
:102e000045fd85e703277f4282e70f277f427fe763
:102e10003023029353460095019332003023bb21a7
:102e2000012006f0cffc0700e8e7c0462c26002072
:102e30009c220020f0b5002689b000966e461c004a
:102e40000eab1d880fab1b7875725d426b41019014
:102e500031725d00202912d80f0000260139c9b255
:102e6000ff2908d0435c002bf8d10f000139c9b20b
:102e70000126ff29f6d1002e01d06b461f72022acf
:102e80001dd022d9032a27d0042a1ad1002c18d009
:102e9000270000231537200003930693079304941b
:102ea000059710f093f903aef081380010f08ef919
:102eb0003200308269462800fff75afe03e0002cfa
:102ec0000ed10f20404209b0f0bd012af9d1694668
:102ed0002800fff7d7fcf6e7604260411038f2e7c0
:102ee00000236a46200003930493137510f06ef9d3
:102ef00083b2402b08d06b460494187503aa694628
:102f00002800fff7dbfcdee70394f7e730b5002588
:102f100083b006ac248801950094fff78bff03b0c3
:102f200030bdc046002300b585b0029301930093e5
:102f300000222b21012006f045fc05b000bdc04653
:102f400000b587b00100062204a810f0b3f90023f1
:102f500004aa02930193009302210833012006f092
:102f600031fc07b000bdc046002300b585b00200ab
:102f70000293019300930a211833022006f022fce9
:102f800005b000bd00234142414100b585b00b3181
:102f90000293019300930022022006f013fc05b077
:102fa00000bdc046002300b585b002000293019326
:102fb000009339210433012006f004fc05b000bd64
:102fc00000b585b000280ed00378fa2b0bd800226c
:102fd00001330292019200928f210200012006f03b
:102fe000f1fb05b000bd0c204042fae700b585b00a
:102ff00000281ad00378002b17d043780a3bdbb2a5
:10300000f02b12d88378013b012b0ed8c3787f2b8d
:103010000bd900230200029301930093142104337f
:10302000012006f0cffb05b000bd0c204042fae7be
:10303000002300b587b0059301280cd86a466b21a0
:10304000107502930193009305aa0433012006f042
:10305000b9fb07b000bd0f204042fae7002300b5de
:1030600087b005aa108015210293019300930120d7
:10307000043306f0a7fb07b000bdc04610b5104ce6
:1030800086b02379002b18d1431e0d2b01d9ff28c0
:1030900010d1002305aa1070102102930193009310
:1030a0000120043306f08efb002801d10123237197
:1030b00006b010bd0f204042fae70e204042f7e76d
:1030c0009c22002010b5114c86b02379002b19d119
:1030d000431e0d2b01d9ff2811d1002305aa107022
:1030e000518001200293019300932321043306f0c1
:1030f00069fb002801d10123237106b010bd0f2008
:103100004042fae70e204042f7e7c0469c220020ea
:1031100030b51c4d87b02b79002b2fd1431e0d2bc2
:1031200024d8002924d00b78042b21d8002b23d0bd
:103130004a78202a1cd8012402e00a5d202a17d8e8
:103140000132013ba418dbb2a4b2002bf5d1042359
:1031500005aa1070009102930194a121012006f0ac
:1031600031fb002806d101232b7103e0ff28d8d0c2
:103170000f20404207b030bd0124e8e70e20404256
:10318000f8e7c0469c220020002210b50b4b88b007
:1031900005ac1a712070002804d11530083268443b
:1031a00010f088f8002322000293019300932f214e
:1031b0000c33012006f006fb08b010bd9c22002055
:1031c000002300b585b002930193009300223121c2
:1031d000012006f0f7fa05b000bdc0460020704798
:1031e0000020704700b587b00b2810d8094a01238a
:1031f000c24093430bd105aa10705b210293019347
:1032000000930120043306f0ddfa07b000bd0c2066
:103210004042fae742080000002300b585b002935f
:103220000193009300225c21012006f0cbfa05b047
:1032300000bdc04610b584b00400fff779f800283f
:103240000bd1942302900193009400230022c62105
:10325000013006f0b7fa04b010bd0c204042fae786
:1032600030b50400a7b001ad010041348822280028
:1032700010f020f82100042223a810f01bf82100f0
:10328000042224a810f016f8902300222800ea5403
:10329000fff7d0ff27b030bd00b585b000280bd0b8
:1032a00000230200029301930093222104330120a2
:1032b00006f088fa05b000bd0c204042fae7c0468f
:1032c000002300b585b002930193009300224721ab
:1032d000012006f077fa05b000bdc046002300b516
:1032e00085b002930193009300220321012006f090
:1032f00069fa05b000bdc04600b587b0002810d0ff
:1033000000290ed00e2305aa53800c33118002939e
:1033100001910090163b9c21012006f053fa07b062
:1033200000bd01204042fae770b504000d0006f030
:10333000e5f9002800d070bd2900200005f0cafa88
:103340000028f8d106f0fef9f5e7c04610b50400f4
:1033500006f0d4f9002800d010bd200005f0f6fae0
:103360000028f9d106f0eef9f6e7c046002300b5d3
:1033700087b005aa107012210293019300930120d7
:10338000043306f01ffa07b000bdc046014b587960
:10339000c0b270479c22002010b506f0c1f910bde4
:1033a000002330b587b005aa107051700400029355
:1033b000019300932d210433012006f003fa050048
:1033c000200006f0a7f9280007b030bd10b586b080
:1033d000040006f0a5f903000020042b01d006b07c
:1033e00010bd02900190009005aa3a210130059489
:1033f00006f0e8f9f3e7c04600b50a1c91b03029a1
:1034000000d9302201320100d2b204a80ff052ffdd
:10341000002304aa02930193009307213033012073
:1034200006f0d0f911b000bd70b50d008eb01600d9
:10343000202914d805ac0a00010020000ff03aff43
:10344000002321226355a654252102930193009362
:1034500022002433012006f0b5f90eb070bd0c2017
:103460004042fae710b504f0c3ff10bd70b5050087
:1034700006f044f9041e01d0200070bd28000af0b7
:10348000b7f8040006f05ef9f6e7c046f0b50400b0
:10349000bbb00e001700002827d0fef749ff051e1d
:1034a00023d18822210004a80ff004ff2100d92095
:1034b00088310c2268440ff0fdfe3378002b14d0c5
:1034c0003100402226a80ff0f5fe6a461021c823dd
:1034d0005218d754074b78311d7101200295019580
:1034e0000095d82306f06ef901e00c2040423bb075
:1034f000f0bdc0469c220020f0b50400a7b001ad8d
:103500000e00170001004134882228000ff0d2fe7f
:103510002100042223a80ff0cdfe2100042224a8bc
:103520000ff0c8fe902300223100ea5428003a0030
:10353000fff7acff27b0f0bd002300b585b00293c4
:103540000193009300220a21012006f03bf905b007
:1035500000bdc046002300b585b0029301930093df
:1035600000220521012006f02df905b000bdc0465e
:10357000002300b587b0059002930193009305aa3c
:1035800008330b21012006f01df907b000bdc0462d
:10359000002300b585b002930193009300221a2105
:1035a000012006f00ff905b000bdc04600234142de
:1035b000414100b585b00c31029301930093002284
:1035c000012006f0fff805b000bdc046002300b59d
:1035d00087b005aa10701621029301930093012071
:1035e000043306f0eff807b000bdc046002300b575
:1035f00087b005aa10701721029301930093012050
:10360000043306f0dff807b000bdc046002300b564
:1036100087b005aa10702621029301930093012020
:10362000043306f0cff807b000bdc046002300b554
:1036300087b005aa1070192102930193009301200d
:10364000043306f0bff807b000bdc046002300b544
:1036500087b005aa5380108018210293019300932c
:103660000120043306f0aef807b000bd002300b51a
:103670000b4a87b0059391420fd800280dd06a46b7
:1036800004909182012002930193009304aa0833cd
:103690009f2106f097f807b000bd0c204042fae7e2
:1036a0002c060000002300b585b0020002930193b0
:1036b000009324210c33012006f084f805b000bdee
:1036c00010b586b0002812d004aca171062201000a
:1036d00020000ff0effd00232200029301930093de
:1036e0001e210833012006f06df806b010bd0c2035
:1036f0004042fae7002804d0034bd860002019822a
:1037000070470c204042fbe79c220020002310b5ac
:10371000074c0020a37406f041f800200af076f868
:103720000af036f8002801d10123a37410bdc04669
:103730009c22002010b50400fff7e8ff002800d00d
:1037400010bd2000fff71af8fae7c04610b5fff7e2
:1037500015f810bd014b987cc0b270479c22002028
:1037600000b587b001236a46137501280cd80023e1
:103770005075692102930193009305aa0433012037
:1037800006f020f807b000bd0f204042fae7c0461f
:10379000002300b587b005aa137069210293019335
:1037a00000930120043306f00df807b000bdc046b9
:1037b00000b587b001280cd8002305aa10706a2133
:1037c0000293019300930120043305f0fbff07b03f
:0837d00000bd0f204042fae7a2
:020000040000fa
:1037d800002370b500240e4d2b606b6821019c46b8
:1037e800ab6861441819802210340af08df9302c26
:1037f800f3d10024eb68a00019192b6902229c461a
:10380800043460440af080f90c2cf3d170bdc04632
:10381800e4250020642343430248c018436b18780a
:103828007047c046600f0020642343430248c01815
:10383800436b58887047c046600f00206423434399
:103848000148c018406b7047600f00206423434351
:103858000248c018436b5b680b607047600f00201c
:103868006423434330b50e48c018436b5c685888de
:103878001b78012b0ad0002807d000230022e55826
:103888000132cd5004339042f9dc30bd00230028ca
:10389800fbd0e25cca5401339842fadcf5e7c04633
:1038a800600f00206423434330b50e48c018436bb3
:1038b8005c6858881b78012b0ad0002807d00023a1
:1038c8000022cd580132e55004339042f9dc30bd76
:1038d80000230028fbd0ca5ce25401339842fadc8a
:1038e800f5e7c046600f0020034b10b51b68002b9e
:1038f80001d0fff76dff10bde4250020f8b57d224b
:103908002f4b01241d005a660e3a9a66033a9c54be
:103918006c35643a6a801a00743280211a6704226e
:103928005a50284a0326101dd867002090611800b5
:103938007c30d06110002830506223485650106205
:10394800224814750169dc80d167010014311960bf
:1039580000211c814f3419551d4c87680434966723
:103968005767197119615961996119771c62194c66
:103978005d63dc63184c1c64184c5c64184c9c64d4
:10398800184cdc6414007c345c62140074349c624f
:103998001c006434dc62140014329a63242220343c
:1039a8001c63845c002c01d0d96081540368002b0f
:1039b80001d0fff70dff01210b4803f033faf8bde2
:1039c800600f0020e00f002013000001e425002014
:1039d80060100020eddf000041e0000095e00000ed
:1039e80005e2000041e2000064230020f0b56427ee
:1039f8003b00c64643431d4d00b5eb181b79060036
:103a08005f439846eb199b6a5a68002a0bdd00242d
:103a18001868220180180af0e5f8eb199b6a01344e
:103a28005a68a242f4dc434664275f43eb195b6a99
:103a38005a68002a0bdd00241868220180180af051
:103a4800d1f8eb195b6a01345a68a242f4dc6423aa
:103a58005e430023ad192a6b2b616b61ab612b7739
:103a68000120937004bc9046f0bdc046600f002052
:103a780064235843064b10b51b181a7a0020012af4
:103a880000d010bd587a03f043fb0120f9e7c04687
:103a9800600f002070b5051e074c07d064206843ee
:103aa8002418a36a18680af0b3f870bde16a200008
:103ab8000ff068faf2e7c046600f002010b5fff774
:103ac800e9ff012010bdc046642343430348c018e2
:103ad8000023026b037793707047c046600f002085
:103ae800642343430248c018036b98787047c04664
:103af800600f00206423434370b50e4deb181c6b18
:103b08001a7f21884a43002908d09300626800245c
:103b1800d2180023013310c29942fbdc64235843b6
:103b28002d18ab6a00221868002101230ef076fddb
:103b380070bdc046600f0020642242430a4930b578
:103b48008a18137f146b0133dbb21377e278551ea2
:103b5800ab4201d10125a570934204d36423584395
:103b6800002309180b7730bd600f002064234343fe
:103b7800034810b5c018c36c984780b210bdc04642
:103b8800600f002064234343034810b5c018836cba
:103b9800984780b210bdc046600f0020002300b5d2
:103ba80083b0019364334343034801a9c018436cad
:103bb800984703b000bdc046600f002064235343fc
:103bc80010b501000248c018c36b984710bdc04625
:103bd800600f002070b5010064244c4306480419a6
:103be800236c98470500012801d0280070bda36afe
:103bf80018680af009f8f8e7600f002030b5134c90
:103c080083b02379984201d003b030bd0028fbd09f
:103c18000020fff7dfff05000128f5d10020fff79e
:103c280069ff002301a901932000636c9847237f53
:103c3800216b0133dbb22377ca78501e834200d14f
:103c48008d709342e0d300232377dde7600f0020d7
:103c580064224243044b10b59b181b79834202d15e
:103c68001800fff7cbff10bd600f002010b56424cb
:103c780060430b4c24182000a36c984780b201289d
:103c88000bd1e36c20009847064b0004000cc318c6
:103c98005a1e93415b42184010bd01204042fbe789
:103ca800600f00200100fffff0b564245443284e44
:103cb80083b034190100e36b2000150098470028f1
:103cc80037d02800fff786ff012832d100272800c7
:103cd800fff710ff019701a92000636c984701289e
:103ce8002dd12000a36c984780b2012824d1e36c21
:103cf80020009847174b0004000cc3185a1e934124
:103d08005b42184064226a43b218137f116b013377
:103d1800dbb21377ca78541ea34201d101248c70f8
:103d2800934204d364235d4300237619337703b0a9
:103d3800f0bd01204042fae701204042e2e7236b50
:103d4800277728009f70fff7a5fe02204042eee784
:103d5800600f00200100ffff70b5642454433b4e00
:103d680082b034190100e36b200015009847002841
:103d780066d02800fff72eff012861d12800fff741
:103d8800b9fe002301a901932000636c984701281c
:103d980033d1236b9b78002b2fd02000a36c98473e
:103da80080b201284fd1e36c20009847284b0404c7
:103db800240ce3185a1e93415b421c4064236b4356
:103dc800f3181b799d4202d12800fff717ff6422e0
:103dd8006a43b218137f116b0133dbb21377ca78c9
:103de800501e834201d101208870934225d3642359
:103df8005d430023761933771fe023799d4202d172
:103e08002800fff7fbfe64226a43b218137f116b88
:103e18000133dbb21377ca78501e834201d10120e7
:103e28008870934204d364236b43f61800233377d6
:103e380028000224fff72efe6442200002b070bd65
:103e480001246442f9e701246442b7e7600f0020c7
:103e58000100ffff70b564245443424e82b0341908
:103e68000100e36b200015009847002838d028008f
:103e7800fff7b0fe012833d12800fff73bfe0023ef
:103e880001a901932000636c984701282ed1236b68
:103e98009a78002a4bd02000a36c984780b201285a
:103ea80021d1e36c200098472f4b0404240ce3181d
:103eb8005a1e93415b421c4064236b43f3181b79e1
:103ec8009d4209d064235d43002375192a6b2b7723
:103ed8009370200002b070bd2800fff78ffef1e755
:103ee80001246442f5e701246442e5e723799d4211
:103ef80002d12800fff782fe64226a43b218137fba
:103f0800116b0133dbb21377ca78501e834201d19b
:103f180001208870934204d364236b43f61800236e
:103f2800337702242800fff7b5fd6442d1e7227fea
:103f38000132d2b22277d9784c1ea24200d19870b1
:103f48008a4204d3642300226b43f3181a7764234c
:103f58006b43f61833799d42e3d12800fff74efef4
:103f6800dfe7c046600f00200100fffff8b5de461e
:103f780057464e4645469246e0b59b46002a20dd08
:103f88008bb298464b009946070000255b4664248f
:103f98005c430f4b40469c466444a26a2b0116685a
:103fa8000135f61809f09afd434682b2390030000f
:103fb80009f0dcfd00234f4423616361a361aa4536
:103fc800e4d13cbc90469946a246ab46f8bdc046f3
:103fd800600f002070b582b00500fff7fbfd0128d7
:103fe80036d164242800fff785fd00236c431b4e5f
:103ff8000193341901a92000636c9847012827d13f
:104008002000a36c984780b2012824d1e36c2000db
:104018009847134b0004000cc3185a1e93415b4287
:10402800184064226a43b218137f116b0133dbb264
:104038001377ca78541ea34201d101248c7093428d
:1040480004d364235d4300237619337702b070bd2f
:1040580001204042fae701204042e2e7600f0020d9
:104068000100fffff0b583b00500fff7b3fd0700bf
:10407800012836d164242800fff73cfd00236c4357
:104088002c4e0193341901a92000636c984701282c
:104098002ad12000a36c984780b2012844d1e36c50
:1040a80020009847244b0004000cc3185a1e934163
:1040b8005b42184064226a43b218137f116b0133c4
:1040c800dbb21377ca78541ea34201d101248c7045
:1040d800934204d364235d4300237619337703b0f6
:1040e800f0bd01204042fae7237f216b0133dbb2a8
:1040f8002377ca78501e834200d18f70934204d32d
:10410800642300226b43f3181a772800fff7c2fcd8
:1041180064236b43f61833799d4208d12800fff7d2
:104128006dfd02204042dae701204042c2e702204a
:104138004042d4e7600f00200100fffff0b583b0d4
:104148000500fff747fd012839d164242800fff74f
:10415800d1fc00236c432c4e0193341901a9200093
:10416800636c984701282ad1276b237ffa78511e60
:104178008b4227d12000a36c984780b201283dd1fb
:10418800e36c20009847214b0404240ce3185a1ec2
:1041980093415b421c4064236b43f3181b799d4297
:1041a80009d064235d43002375192a6b2b7793701c
:1041b800200003b0f0bd2800fff720fdf1e701243f
:1041c8006442f5e70133dbb22377994200d1b87036
:1041d8009a4204d8642300226b43f3181a77280004
:1041e800fff758fc64236b43f61833799d4208d1d6
:1041f80002242800fff702fd6442d9e70124644243
:10420800c9e702246442d3e7600f00200100ffffe2
:1042180010b504000020002c00d010bd044b586bd2
:104228004468587a13000a00210002f01ffef4e7e0
:10423800600f002010b504000020002c00d010bd35
:104248000248407a02f012fef9e7c046600f0020eb
:1042580000207047002070470020704770b5642424
:104268006043084c0d002418237a0020012b00d04d
:1042780070bd607a02f082ff636b28805b88012042
:104288006b80f5e7600f002010b564244443064bab
:104298001b191c7a0023012c01d0180010bd02f054
:1042a8000bff0123f9e7c046600f0020002804dc5b
:1042b80064235843024bc05870470020fce7c046af
:1042c800600f0020642343430348c018036b1a8817
:1042d800d87850437047c046600f0020642343439a
:1042e80030b50848c018036b1a88d878504300289e
:1042f80007d05c6800238200cd58e5500433934210
:10430800fad130bd600f0020642343430248c0182f
:10431800036b58687047c046600f0020642343430e
:104328000248c018036bd8787047c046600f002059
:104338006423434330b50848c018036b1a88d878fb
:104348005043002807d05c6800238200e558cd5010
:1043580004339342fad130bd600f002064234343f5
:10436800074ac000d3181218906e1a69196b944640
:10437800c978db8801394843604458437047c046d0
:10438800600f0020642343430148c0180069704748
:10439800600f0020642343430248c018836a5868aa
:1043a8007047c046600f0020f0b5de4657464e46bf
:1043b8004546e0b585b00393214b029298466423a5
:1043c8000022434343449b6a924601925a688146bd
:1043d8008b46002a2cdd5a46002a23dd5246170157
:1043e800019a02995500039a0c0094460a005a440f
:1043f8006544160004e064234a46534343449b6ad9
:1044080018682100c01909f0e7fb0134288002353b
:10441800b442f0d1019b4a465b4401936423534361
:1044280043449b6a012294465a68e2445245d2dcce
:1044380005b03cbc90469946a246ab46f0bdc04686
:10444800600f002064234343034810b5c018c36cb1
:1044580098470004000c10bd600f002064234343fc
:104468000148c018806b7047600f002064234343e5
:104478000148c01840697047600f00206423434317
:10448800064ac000d318196b1218c978906e013902
:1044980048435a69121ad88850437047600f002061
:1044a800642343430248c018503000787047c04620
:1044b800600f0020642343430a4830b5c018030046
:1044c80050331b78002b0cd0436b5c88002c08d031
:1044d80000230022406dc5580132cd500433a2425a
:1044e800f9db30bd600f0020642343430a4830b530
:1044f800c018030050331b78002b0cd0436b5c882a
:10450800002c08d000230022806dc5580132cd5000
:104518000433a242f9db30bd600f0020642343431b
:104528000548c018030050331b78002b01d0c06d1c
:1045380070470248fce7c046600f0020000080bfbb
:10454800642343430548c018030050331b78002bed
:1045580001d0006e70470020fce7c046600f0020c5
:020000040000fa
:10456800f0b50c009db0002907d0244d6b68002bd6
:1045780003d001280dd0062801d01db0f0bdcc22f3
:104588009b58002bf9d00a682800039203a9984782
:10459800f3e7d0229e58002eefd04b680f78019396
:1045a8008b686c3a002103a802930ef089fe052f50
:1045b800e3d8134abb00d3589f46e368039303ab81
:1045c80001aa39002800b047d7e70023f8e72100ff
:1045d80020220c3103a80ef069fe210020222c3184
:1045e8000ba80ef063fe2100e36c5031202214a8c2
:1045f80013930ef05bfe03abe2e7c046f81b002006
:10460800a8060100f0b5ce46474680b50c00ebb0d1
:10461800002923d0c84e7568002d1fd0031fdbb2b8
:104628002e2b1bd8c54a9b00d3589f46eb7b002beb
:1046380014d000230122eb738a56002a00d04ae1e5
:104648000b786b74002b00d06be18823ec58002c9e
:1046580004d00023002200213000a0476bb00cbc1e
:1046680090469946f0bd2b7b002b02d10122a13345
:10467800ea54637821781b020b43a17809040b43a1
:10468800e17809061943a423e9501433eb58002ba9
:10469800e4d030009847e1e700224e2398248a5658
:1046a800ea542b59002bd9d031003000984700220a
:1046b80073681a51d2e7212120000ef08ffd752270
:1046c8007568c3b20700ab54202bc7d8552398464a
:1046d800a844553a002140460ef0f2fdff22210081
:1046e8003a4040460ef0e2fd21232100e75c6333a7
:1046f800ef5422314a780b7812021a438b781b0444
:104708001a43cb7804311b061343ab677c239946c5
:10471800a944062248460ef0c9fd01238222ab5463
:104728002e3aab549333ed58002d97d0683be3569f
:104738004246019300974b4631003000a8478de769
:10474800c023eb58002b00d188e7212120000ef070
:1047580045fd2022c3b203ad0700ab54202b00d97e
:104768007ce7002128000ef0abfdff2221003a4033
:1047780028000ef09bfd6223e35c0eaf3b70022b1a
:1047880000d1dfe06323e35cc0245a4253417268de
:10479800dbb212592900904630003a00c047002287
:1047a80073681a515ae728000431062234300ef093
:1047b8007dfd01273a23ef54303b98462800a0445a
:1047c8002022414613300ef071fd212140460ef0a3
:1047d80005fd332388257168c85462780a33ca54a2
:1047e800a2780133ca54e2784c59033bca548f74f7
:1047f800002c00d132e70b004a7c097c13330131cd
:10480800c9b23000a0477368002866d1585125e71f
:1048180008000af0b7fe002800d11fe7902372684d
:10482800d358002b00d119e7010032e78c23ed584b
:10483800002d00d112e70a78853b1732d2b2032a3d
:1048480001d83f4b9b5c002231003000a84705e7a8
:104858000a78012a33d0002a02d15423aa73ea54d1
:104868008c23ed58002d00d1f8e663783100300034
:10487800a847f3e69c239846eb58002b00d1ede6b9
:1048880003ada71c28000af095fb212138000ef083
:10489800a5fc3900c2b228000af0a4fb6178280000
:1048a8000af0f4fb2378012b36d0022b21d04246a4
:1048b800736800219b58300000229847cee6a22357
:1048c800aa73eb5c002bcbd1a433eb58002bc7d0d9
:1048d800a123ea54c4e76b74c0e61c7c0134e4b23b
:1048e8001c74fef74ffd736884421ed300225a5190
:1048f800b4e62334412120000ef070fc0eafc2b2a2
:104908002100380008f0c0ff9c2372682900d358a2
:1049180030003a009847a1e60eaf380008f0acff27
:10492800f2e7287cfef71efd98e6187cfef71afdd4
:10493800002273689a7491e6f81b0020c0060100f3
:104948007c0701001f339846a04440460ef03afc0d
:104958003d236b44814638714022002118000ef037
:10496800affc3d236b444a46414618000ef09efcbe
:1049780008e7c046f0b545465746de464e46e0b520
:104988005e4d85b06c6888461700002c0cd0260058
:10499800d43600280fd0f823e458002c04d00300a4
:1049a800022231002800a04705b03cbc9046994639
:1049b800a246ab46f0bd0df0c9f9d422a35c002b8a
:1049c80002d10df0c7f9efe7013ba3540df0c2f98e
:1049d800f06900286ad07369bb4267d3002f44d0be
:1049e800326ab946974235d9002a7cd1d4239a46ef
:1049f8000023f3613362f8339b465a466b689b5831
:104a0800002b5ad00df0a2f953465246e35c01330d
:104a1800a3540df09ff95a466b6831009b58280043
:104a28009b4604220023d8470df090f95346e35cd7
:104a3800002bc6d05246013ba3540df08bf9f06908
:104a480000283ad0326a002a37d04b46002b0cd0c7
:104a58004a45c9d34a4641460ef028fc4a46f369fe
:104a68004b44f361336a9b1a3362d4233269984604
:104a780094467369db1b674473613761002b1ed052
:104a88000df064f943464246e35c0133a3540df04c
:104a980061f9f8236a683100d3582800029300238b
:104aa80000220193009307f0f3fc7de70df04ef927
:104ab800d422a35c0133a35483e7002373610df070
:104ac80045f9d422a35c0133a3540df043f9f8232c
:104ad8006a68d458002c00d166e70023022231000e
:104ae8002800a04760e74146f0690ef0dffb4a4620
:104af800336a9844d31a994678e7c046f81b0020d1
:104b080010b5114c6368002b0fd001280ed0002877
:104b18000bd0032809d8c8229a58002a02d02000ae
:104b280090476368c8220021995010bdc4229a5842
:104b3800002a02d02000904763680022a0215a541e
:104b480024315a50f1e7c046f81b0020f8b5474613
:104b5800ce46214d80b56c68070089469046002cea
:104b680007d00df0f3f8d422a35c002b05d10df08b
:104b7800f1f80cbc90469946f8bd013ba3540df0e2
:104b8800e9f8002f20d02600ff23d43673700023c5
:104b9800b361d4239846002333617361f3613362b0
:104ba8000df0d4f843464246e35c0133a3540df0bc
:104bb800d1f8f8236a68d458002cdad03b000122d7
:104bc80031002800a047d4e726004b46d43673703e
:104bd8004346b361dde7c046f81b0020f8b5144d25
:104be8006c68002c12d0f822a658002e0ed0270090
:104bf80003002800d425d437f53a3900b0470df022
:104c0800a5f8635d002b02d10df0a4f8f8bd013bb7
:104c180063550df09ff8ff237b700023bb610df0f7
:104c280095f8635d013363550df094f8eee7c046df
:104c3800f81b0020f8b50e0000281ad10e4c237876
:104c48002700002b13d101220c4d2361aa80fc32ce
:104c58002b65ab54002904d008680af0a5fb7368db
:104c6800ab600223ff33238000236560a370380004
:104c7800f8bd01277f42fae7f81b00200c1c002032
:104c8800431e70b50400033306d8002343700e4b4f
:104c9800834202d00023a37070bdfd234568eb5cfe
:104ca800002bf7d00df052f8fc22ab5c0133ab546b
:104cb8000df050f865680df049f8d422ab5c01336b
:104cc800ab540df047f8e5e7f81b00207047c046e5
:104cd800431e033307d80388012b02d0407840b223
:104ce80070470120fce701204042f9e7421e03001b
:104cf800033209d84268002a06d005201056002839
:104d080001d101201856704701204042fbe7c046f8
:104d1800f0b5431e87b00400033311d80125455769
:104d2800002d25d00edd012d11d0022d0cd1fc2532
:104d380046680df00bf8735d002b3ed10df00af8b4
:104d480007b0f0bd6b1cfbd0ff236370f8e7436826
:104d5800002b2fd00af0f0fa0028f5d0fdf7fefc62
:104d6800061e41d0f523626853710a336370e7e782
:104d78000378002be4d0fd224368995c002900d019
:104d88009d5401229a80fef7e1fc02280ed001f022
:104d980031fb0af019fb636898680ef06df80df0a6
:104da80049fd0df02ffd00232370c9e70020fdf712
:104db8002ffdece7ff334370c2e7013b73550cf05e
:104dc800c9ff0123e356022bbad163681b791b077d
:104dd800b6d4fdf72bfd0028b2d064680cf0b6fffe
:104de800635d01336355a9e7fef738fb000c15280e
:104df800b8d167680cf0aafffc23fe540cf0aaff98
:104e08006368200099680ef029f8374b01a80296cc
:104e18000396049605960193fdf7acfc071e05d092
:104e2800f423626853710b33637089e701f0c8faa1
:104e38002e4805f0c7fe3f232d4e2e4af5542e4b23
:104e4800f760336496235b007364de3bf7540633e4
:104e5800f7543433f7500433f7500433f75004331e
:104e6800f7500433f7500433f7500433f752023342
:104e7800f5540233f7500433f7500433f750043332
:104e8800f7500433f250ff220433f7500433f7503d
:104e98000433f7500433f7500433f7500433f75012
:104ea8000933f254154a1b33f750183bf250b774c4
:104eb800376513490433f15012490433f15012484d
:104ec80018330021f75005f097f90cf03fffd42371
:104ed800f5540cf03ffffd236068c5544830fef7d9
:104ee80031fa022363702be70d4600006945000084
:104ef8000c1c0020c0a80a01021e02d3554b00005a
:104f08007d490000e54b0000094b0000014b18618a
:104f18007047c046f81b002070b500280dd13748ef
:104f28004368002b09d00278002a06d08278002a2c
:104f380007d01b7904008b4201d001246442200071
:104f480070bd827a002a11d00400186019710b070d
:104f580002d401238370f2e70020fdf759fcfdf726
:104f6800dffb0028e9d10123a370e8e701243f25ee
:104f7800da609a745c55224d1d6496256d005d6457
:104f8800de3d5a5506351a655a5534355a51043599
:104f98005a5104355a5104355a5104355a51043579
:104fa8005a5104355a5302355c55a3341a51043406
:104fb8001a5104341a51134d04341a5104341d5132
:104fc800ff2504341a5104341a5104341a51043494
:104fd8001a5104341a5104341a5109341d550a4d12
:104fe8001b341a51183c1d51084d04341d51084ded
:104ff80004341d5118341a51a6e7c046f81b002086
:10500800021e02d3c0a80a01554b00007d490000ca
:10501800e54b0000431e03330bd84368002b08d030
:105028001a68824203d10022a1219a735a5400239c
:1050380083707047013810b50b00c21c09d80029cd
:1050480007d018000121fef737fb431e9841c00026
:1050580010bd0220fce7c046013810b50b00c21c89
:1050680009d8002907d018000021fef725fb431ea8
:105078009841c00010bd0220fce7c046421e10b592
:105088000b0003320bd84168002908d0002b06d04a
:105098004831062218000ef009f9002010bd022040
:1050a800fce7c046431e03330ad84368002b07d0e9
:1050b8001a7b002a06d0587b431e9841023070475d
:1050c8000020fce70120fae7431e03330ad84368af
:1050d800002b07d08278002a02d00020196570477b
:1050e8000120fce70220fae7431e033307d8436890
:1050f800002b04d08278002a01d0186d00e000202f
:105108007047c046431e033314d8002912d0837851
:105118000120002b00d1704700238b71cb710b72db
:105128004b728b72cb7213330b800c3b4b808b8092
:105138000020f0e70220eee730b5431e8bb01400e4
:1051480003332ad8002a28d08378002b22d06d4632
:105158002800002923d0fef785f9002823d11c2236
:105168000021a01d0ef0acf820000a212b790c229a
:1051780023806b7969446380ab790c30a3800ef08f
:1051880095f8200016211830092269440ef08ef88f
:10519800002000e001200bb030bd0220fbe705f045
:1051a800edf80028dbd00820f5e7c046431e10b50f
:1051b800033307d883780020002b00d110bdfef7f9
:1051c8004df9fbe70020f9e700b5431e83b0033330
:1051d80016d8002a14d08378002b0ed0002911d0bd
:1051e8006b461000d91dfef79bf8002803d16b46cb
:1051f800db79002b02d1082000e0012003b000bdbc
:105208000220fbe71000fef79df8431e9841c000fe
:10521800f4e7c046431e10b50c00033312d800292a
:1052280010d083780120002b00d110bd3021200040
:105238000df0d4ffc1b22000fef7daf8431e984102
:10524800c000f2e70220f0e7431e10b503330bd885
:1052580083780120002b00d110bd0800fef7d2f999
:10526800431e9841c000f7e70220f5e700b5431e4a
:1052780085b003331ad8152a18d88378002b18d08c
:105288000f4b684601930f4b0293032303730029c6
:1052980011d1012a0ad00c4b9a181379037201a86c
:1052a800fef7fcf9431e9841c00000e0022005b05b
:1052b80000bd0120fbe7044b9a1813794372eee70f
:1052c80005000100ffff0a057c0701004368002b69
:1052d80006d00278002a03d0fc215a5c01325a54c5
:0452e8007047c04605
:020000040000fa
:1052ec0070b5c26ac56d04002b7801320bd0026b0d
:1052fc00013208d0002b1fd0042028560cf02cfdb6
:10530c003e23e05470bd002b06d0042028560cf030
:10531c0023fd5b23e054f5e70cf016fd06006868ee
:10532c00431c2ed1a868431c22d1e868431c16d11b
:10533c0030000cf00dfde5e70cf006fd060010202a
:10534c0028560cf009fd3d23e054142028560cf08f
:10535c0003fd3c23e05430000cf0fafcd2e740b2e1
:10536c000cf0fafc5a23e05430000cf0f1fcc9e7c5
:10537c0040b20cf0f1fc5923e054e868431cd7d040
:10538c00ede740b20cf0e8fc5823e054a868431c4d
:10539c00cbd0ede770b5c26ac56d04002b78013235
:1053ac000bd0026b013208d0002b1fd03e23c15c06
:1053bc00042028560cf0ecfc70bd002b06d05b23af
:1053cc000420e15c28560cf0e3fcf5e70cf0bcfc87
:1053dc0006006868431c2ed1a868431c22d1e868db
:1053ec00431c16d130000cf0b3fce5e70cf0acfc20
:1053fc003d2306001020e15c28560cf0c9fc3c2330
:10540c001420e15c28560cf0c3fc30000cf0a0fc1e
:10541c00d2e75a2340b2e15c0cf0bafc30000cf03d
:10542c0097fcc9e7592340b2e15c0cf0b1fce86889
:10543c00431cd7d0ede7582340b2e15c0cf0a8fc3c
:10544c00a868431ccbd0ede7f8b54746ce4680b5ef
:10545c00ff277423050080694f4c020a3a405a43d7
:10546c003840a2188700d2683f18ff00bf183a884e
:10547c002969534390460022e3185a649a64ea68f7
:10548c00914200d27ae08a1a5a64434674265e43eb
:10549c00a619f36a2a00d8b2404906f0d1fc336b46
:1054ac002a00d8b23e4906f0cbfcbb69002b68d071
:1054bc00306b8021082b38d989000df02bf9802115
:1054cc00f06a89000df026f9434674265e432b6979
:1054dc00a719386b9946002b43d1002200210df0ff
:1054ec0007f94a46bb6cba643200386b4032a218da
:1054fc00b96bc0b206f0c4fb742643465e43ef683a
:10550c00a619f06a0022002f18d100210df0f0f836
:10551c002100f06a736c726b77647431c0b206f060
:10552c00affb0cbc90469946f8bd49000df0f2f863
:10553c008021f06a49000df0edf8c5e78021c90023
:10554c000df0d6f8b36c002b24d02b694246742195
:10555c0051436418e06a626ba968c0b206f090fb14
:10556c00dfe78022002112010df0c2f8386bb96b15
:10557c002b696a68c0b206f083fbbde7521a9a64c5
:10558c0083e7306b00210df0c5f8f06a00210df0b7
:10559c00c1f899e7eb68d9e744200020b155000029
:1055ac00dd570000ff2270b574248969104d0b0a79
:1055bc00134063430a40eb18d96893009b18db0037
:1055cc005b5a5c432c19636c002b00d170bd00221c
:1055dc000021e06a0df08cf82900e36a7431d8b22e
:1055ec00626b636c06f04cfb00236364eee7c04611
:1055fc0044200020ff22010002400a4883689a429e
:10560c000dd293009b18c068db001818436a9942ae
:10561c0005d1c3785a1e93415b4218407047002055
:10562c00fce7c04644200020f0b502680600ff20cd
:10563c0074272c4bc6469846130a03407b431040f4
:10564c0043448400db682418e400e418238800b584
:10565c009c467b4343449b6a86b09a423dd001a84a
:10566c00230002000c33a2cba2c222cb22c263467f
:10567c0074255d43636945442a6d9b009b586a6d94
:10568c008360236900219b009b58ea6c4360a369eb
:10569c009b009b58c3606b691b689847336800225a
:1056ac00ab622023e2541c23e3565a1c0ed00e4a44
:1056bc00012194461f2298b2134040099940637f00
:1056cc006044c001002b05d109f00eff06b004bcec
:1056dc009046f0bd09f006fff8e72023e35c002bb1
:1056ec00e1d0bce74420002088008200f8b50378a4
:1056fc000400002b39d01023c356022b35d1ff25c3
:10570c007421066ab269130a2b404b432e49c918ff
:10571c002b0013409d00ed18cb68ed00ed181c23f9
:10572c00eb56591c0fd0294a012194461f2298b2de
:10573c001340400999406b7f6044c001002b15d188
:10574c0009f0d0feb269696a236a914215d0002b28
:10575c0005d01a6a226200225a751a621a70256ada
:10576c00002d02d06b7d012b20d0f8bd09f0bcfec2
:10577c00b269696a236a9142e9d10122f1693275f1
:10578c00002b05d01a6a226200225a751a621a700e
:10579c006f68002fe3d02626a35d01200133a355ab
:1057ac00aa68b847a35d013ba355d8e72800183079
:1057bc00fff73aff022364696b756a682b69e96825
:1057cc00a8686468a047d0e74420002088008200c5
:1057dc00f8b557464e464546de46ff24e0b57425df
:1057ec0088468969534f0b0a23406b432140fb18b1
:1057fc008c00db686418e400e41823888246994620
:10580c006b43fd189b46ab6c2e00002b56d1736975
:10581c009b6898470028fad11c23e3565a1c0ed0db
:10582c00454a012194461f2298b2134040099940e1
:10583c00637f6044c001002b5bd109f053fe4246ec
:10584c005b46616a9269fd182b6a914213d0002b5a
:10585c0005d01a6a2a6200225a751a621a702c6aca
:10586c00002c02d0637d012b53d03cbc9046994652
:10587c00a246ab46f8bd5246012a45d0022a52d068
:10588c004246142010564246d169002b05d01a6aa4
:10589c002a6200225a751a621a706668002eded0cf
:1058ac004b4674225a43bf1826373b78a268013303
:1058bc003b70b0473b78013b3b70d0e700220021a6
:1058cc00286b0cf015ff5a462b6b4032ba18d8b225
:1058dc00a96bab6c06f0d4f9434699681b696a6beb
:1058ec00c918eb6ad8b2ab6c06f0caf90023ab64ea
:1058fc00bbe709f0f9fd42465b46616a9269fd1807
:10590c002b6a9142a3d1b6e742465146012011754c
:10591c00b9e720001830fff787fe022320006375db
:10592c00fff792fda1e7ff22414601200a75404294
:10593c00a9e7c0464420002088008200f8b5002862
:10594c0040d1224c2378002b3cd102207022ff3016
:10595c00a0526f3a8f382254c86a0e68a061886ac8
:10596c00cf68e06148692270e0608869a284a06019
:10597c00012025328d68a3544a6867630f69404241
:10598c00a763cf696661e7640f6a236227654f6a74
:10599c006360a0626370e26225636765096b606790
:1059ac00e1656421a3666354e366531c05d06b1c4c
:1059bc0003d0022300202374f8bdf36821000448af
:1059cc009847f6e701204042f6e7c0464420002005
:1059dc00f9560000002803d11020024b18567047ce
:1059ec000020fce744200020f0b5002804d17022f0
:1059fc002a4b9c5c012c02d001204042f0bd9854f3
:105a0c0010229a56022a1bd11a78002a18d05a78da
:105a1c00002a15d15f68002f18d19e68002e0fd078
:105a2c00da6800201400d5782834002d05d112e056
:105a3c002200d5782834002d0bd00130b042f7d19c
:105a4c0070220121012099544042d7e70a07e4d57e
:105a5c00f6e7ff3505400120d0700c0700d55870d3
:105a6c009c8c01372004284301345062a0b20c4caa
:105a7c005f60a04200d101209884012470201c5446
:105a8c00042319439170ff2100231177df395360f0
:105a9c009360506a53541380b0e7c04644200020f2
