:020000040000fa
:10000000f07f0020f59e010017a901001da9010045
:1000100000000000000000000000000000000000e0
:100020000000000000000000000000008b0c010038
:1000300000000000000000008b0c01008b0c010090
:100040008b0c01008b0c01008b0c01008b0c010050
:10005000317501008b0c01004d0301008b0c010078
:100060008b0c01008b0c010085350100912d0100e6
:100070008b0c01008b0c0100113501008b0c010071
:100080008b0c01008b0c0100017a0100f17701005b
:100090008b0c010000000000000000008b0c010030
:1000a0008b0c01008b0c01008b0c01008b0c0100f0
:020000040000fa
:1000b000f8b5c046f8bc08bc9e467047d59e010006
:1000c000f8b5c046f8bc08bc9e467047ad9e01001e
:020000040000fa
:1000d0004087010001000000a88c01000100000021
:020000040000fa
:1000e00080b582b000af78600a00fb1c1a70fb1c60
:1000f00078680122762116f0cefc03001800bd4678
:1001000002b080bd90b587b000aff860b9607a608a
:1001100000237b6188231a01fb68002118001af074
:1001200085fbfb68ba6813ca13c313ca13c31268ea
:100130001a601d4b180014f0f1f9fb68180002f06a
:100140001dff02007b6913437b617b69002b01d09b
:100150007b6924e0fb687a685a62fb68180002f049
:100160008bff02007b6913437b61fb680f4a9a187f
:1001700001235b42002413605460fa6886231b014c
:10018000d21801235b42002413605460fb68084ac4
:100190009a1801235b420024136054607b691800a5
:1001a000bd4607b090bdc046b80b0000580800001f
:1001b0007808000090b585b000af78600023fb6040
:1001c0007b6801211800fff78bff0200fb681343d7
:1001d000fb600a23fb18786801227a2116f0f3fbf2
:1001e0000200fb681343fb600923fb1878680122b7
:1001f0007c2116f0e8fb0200fb681343fb607b6880
:1002000000211800fff76cff0200fb681343fb603e
:100210000b217b1801221a707b18786801221121aa
:1002200016f039fc0200fb681343fb60fb68002bef
:1002300001d0fb6899e0fa239b00180014f06ef9d6
:100240007b6801211800fff74bff0200fb68134396
:10025000fb600a23fb18786801227a2116f01bfc48
:100260000200fb681343fb607b6800211800fff766
:1002700037ff0200fb681343fb600b243b197868cf
:1002800001222d2116f09ffb0200fb681343fb6047
:100290003b191b781a001023134002d10c235b4238
:1002a00063e07b68180016f02dfb7b6801211800c5
:1002b000fff716ff0200fb681343fb600923fb18de
:1002c000786801227c2116f0e6fb0200fb681343ec
:1002d000fb600b243b19786801227b2116f073fb2d
:1002e0000200fb681343fb603b191b780622934313
:1002f000dab23b191a703b191b7802221343dab2a7
:100300003b191a703b19786801227b2116f0c3fb58
:100310000200fb681343fb607b6800211800fff7b5
:10032000dffe0200fb681343fb603b197868012283
:100330004c2116f048fb0200fb681343fb603b199d
:100340001b7810221340d9b27b680a4a99547b6803
:100350001b7e022b08d17b68db687a681000984707
:100360000200fb681343fb60fb681800bd4605b044
:1003700090bdc0466808000080b582b000af7860cc
:1003800039603b6878680122752116f01cfb030078
:100390001800bd4602b080bd90b585b000af786052
:1003a0000a00fb1c1a700023fb600b243b197868c1
:1003b00001224d2116f007fb0200fb681343fb608e
:1003c000fb1c1b78002b07d13b191b780822934399
:1003d000dab23b191a7007e00b217b181b78082250
:1003e0001343dab27b181a700b23fb1878680122ca
:1003f0004d2116f050fb0200fb681343fb60fb68c5
:100400001800bd4605b090bd90b589b000af7860ca
:100410000023fb610023bb6111243b197868012292
:100420004e2116f0d0fa0200fb691343fb61200055
:100430003b181a7817243b1903210a401a703b18fd
:100440001a7816203b180c210a401a703b191b78a9
:10045000022b29d03b181b78002b03d03b181b78ac
:10046000042b21d110243b1978680122502116f069
:10047000aafa0200fb691343fb613b191a781520a5
:100480003b180f210a401a703b181b78180001f026
:10049000c9fe0300bb617b6808211800fff77cffe1
:1004a0000200fb691343fb611723fb181b78002b29
:1004b0004dd11623fb181b78002b48d17b68984a36
:1004c0009b5c002b30d012243b19786801225f21fd
:1004d00016f079fa0200fb691343fb6121007b18d7
:1004e0001b7801221343dab27b181a707b181b7831
:1004f00002221343dab27b181a707b68894a9b5c2c
:10050000002b06d07b181b7810221343dab27b181d
:100510001a701223fb18786801225f2116f0bbfacb
:100520000200fb691343fb610f243b197868012229
:100530004c2116f048fa0200fb691343fb613b199a
:100540001b7810221340d9b27b68774a9954122441
:100550003b1978680122522116f035fa0200fb6936
:100560001343fb6121007b181b780f221340dab282
:100570007b181a707b686d4a9a5c7b181b78134352
:10058000dab27b181a707b1878680122522116f0b3
:1005900082fa0200fb691343fb6111243b1978685e
:1005a00001224e2116f00ffa0200fb691343fb6192
:1005b00021007b181b7803229343dab27b181a7050
:1005c0007b181b7802221343dab27b181a707b184f
:1005d000786801224e2116f05efa0200fb6913438f
:1005e000fb61c82013f09aff1723fb181b78022b1e
:1005f00019d01622bb181b78002b03d0bb181b7810
:10060000042b10d1bb69c82b04d9bb69c83b1800a7
:1006100013f084ff7b6800211800fff7bdfe020085
:10062000fb691343fb611723fb181b78022b59d07e
:100630007b683f4a9b58072b54d910243b19786894
:100640000122502116f0bff90200fb691343fb6140
:100650003b191a7814203b180f210a401a703b18d6
:100660001b780e2b01d00e2200e00d2213203b1828
:100670001a7010217b181b780f229343dab27b1873
:100680001a707b181a783b181b781343dab27b1860
:100690001a700c007b1878680122502116f0fbf9c3
:1006a0000200fb691343fb61c82013f037ff2100f0
:1006b0007b181b780f229343dab27b181a707b18d1
:1006c0001a781423fb181b781343dab27b181a70bc
:1006d0007b1878680122502116f0ddf90200fb69d1
:1006e0001343fb617b68124a002199501723fb18c2
:1006f0001b78002b0ed17b68094a9b5c002b09d02c
:1007000013f002ff03000c007968862212018a1898
:1007100013605460fb691800bd4609b090bdc04627
:100720006a080000690800006808000072080000fc
:100730006c08000090b587b000af786000237b6143
:100740000a243b19786801224e2116f03cf9020078
:100750007b6913437b6120003b181a7813243b19f3
:1007600003210a401a703b181a7812203b180c21fa
:100770000a401a703b191b78022b2dd13b181b78ad
:10078000002b03d03b181b78042b25d109243b19df
:1007900078680122502116f016f902007b69134394
:1007a0007b613b191a7811203b180f210a401a70ff
:1007b0003b181b78180001f035fd0300fb607b68d7
:1007c00008211800fff7e8fd02007b6913437b61f5
:1007d000fb68180013f0a2fe1323fb181b78002bf4
:1007e0004dd11223fb181b78002b48d17b68574a48
:1007f0009b5c002b30d00b243b19786801225f21d1
:1008000016f0e1f802007b6913437b6121007b183d
:100810001b7801221343dab27b181a707b181b78fd
:1008200002221343dab27b181a707b68484a9b5c39
:10083000002b06d07b181b7810221343dab27b18ea
:100840001a700b23fb18786801225f2116f023f938
:1008500002007b6913437b6108243b1978680122fd
:100860004c2116f0b0f802007b6913437b613b1901
:100870001b7810221340d9b27b68364a99540b2456
:100880003b1978680122522116f09df802007b691d
:1008900013437b6121007b181b780f221340dab2cf
:1008a0007b181a707b682c4a9a5c7b181b78134360
:1008b000dab27b181a707b1878680122522116f080
:1008c000eaf802007b6913437b610a243b197868cc
:1008d00001224e2116f077f802007b6913437b61f9
:1008e00021007b181b7803229343dab27b181a701d
:1008f0007b181b7803221343dab27b181a707b181b
:10090000786801224e2116f0c6f802007b69134375
:100910007b61c82013f002fe1323fb181b78002b09
:100920000ed17b68094a9b5c002b09d013f0ecfdcb
:1009300003000c007968862212018a181360546043
:100940007b691800bd4607b090bdc0466a0800002c
:1009500069080000680800007408000090b587b0be
:1009600000af786000237b6100233b610e243b19bc
:10097000786801224e2116f026f802007b691343a5
:100980007b613b191a780f203b180c210a401a7022
:100990003b181b78002b0ad17b682c4a9b5c002bf0
:1009a00005d07b682a4a0121995401233b610e211d
:1009b0007b181b7803229343dab27b181a707b18da
:1009c0001a787b181a707b18786801224e2116f06d
:1009d00062f803007b617b6800211800fff7dcfcf4
:1009e00002007b6913437b613b69002b29d07b6844
:1009f000164a9b5c002b24d00d243b1978680122f9
:100a00005f2115f0e0ff02007b6913437b61210049
:100a10007b181b7813229343dab27b181a707b1869
:100a2000786801225f2116f036f802007b691343d3
:100a30007b617b68180001f04bfe02007b69134369
:100a40007b617b691800bd4607b090bd6a08000055
:100a50006b08000090b58bb000af786000237b621c
:100a60007b689e4a9b185c681b685a1c01d1002c4d
:100a700030d013f049fd03000c00bb61fc617b68c2
:100a8000964a9b185c681b68fa69a2420ed8fa69fc
:100a9000a24202d1ba699a4208d8bb69fc69012115
:100aa000494200225b185441bb61fc617b688b4a60
:100ab0009b185c681b68b969fa69c91aa2410b00e6
:100ac0001400002c06d102d1854a934202d80a2391
:100ad0005b42ffe00e243b19786801224e2115f09d
:100ae00072ff02007b6a13437b6220003b181a7876
:100af00017243b190c210a401a703b181a7816204b
:100b00003b1803210a401a703b181b78022b2dd189
:100b10003b191b78002b03d03b191b78042b25d1e4
:100b20000d243b1978680122502115f04cff02007a
:100b30007b6a13437b623b191a7815203b180f21ff
:100b40000a401a703b181b78180001f06bfb030079
:100b50003b617b6808211800fff71efc02007b6ade
:100b600013437b623b69180013f0d8fc1623fb1873
:100b70001b78002b4dd11723fb181b78002b48d175
:100b80007b68584a9b5c002b30d00f243b19786857
:100b900001225f2115f017ff02007b6a13437b627d
:100ba00021007b181b7801221343dab27b181a70dc
:100bb0007b181b7802221343dab27b181a707b6809
:100bc000494a9b5c002b06d07b181b7810221343ec
:100bd000dab27b181a700f23fb18786801225f21a4
:100be00015f059ff02007b6a13437b620c243b190a
:100bf000786801224c2115f0e6fe02007b6a13435f
:100c00007b623b191b7810221340d9b27b68374aac
:100c100099540f243b1978680122522115f0d3fe14
:100c200002007b6a13437b6221007b181b780f2232
:100c30009343dab27b181a707b682d4a9a5c7b1852
:100c40001b781343dab27b181a707b18786801227c
:100c5000522115f020ff02007b6a13437b620e24b1
:100c60003b19786801224e2115f0adfe02007b6a27
:100c700013437b6221007b181b780c229343dab26a
:100c80007b181a707b181b780c221343dab27b187e
:100c90001a707b18786801224e2115f0fcfe0200c4
:100ca0007b6a13437b62c82013f038fc1723fb18c0
:100cb0001b78002b0dd17b680a4a9b5c002b08d067
:100cc00013f022fc03000c007a680a4952181360e2
:100cd00054607b6a1800bd460bb090bd78080000d8
:100ce000f04902006a080000690800006808000076
:100cf000750800005808000090b587b000af786014
:100d000000237b6100233b610d243b19786801229d
:100d10004e2115f058fe02007b6913437b613b199d
:100d20001a780f203b1803210a401a703b181b78d1
:100d3000002b0ad17b68494a9b5c002b05d07b685d
:100d4000474a0121995401233b610f23fb181b786b
:100d5000022b08d17b6808211800fff71dfb020059
:100d60007b6913437b610d217b181b780c22934315
:100d7000dab27b181a707b181a787b181a707b18f5
:100d8000786801224e2115f086fe02007b6913432c
:100d90007b6113f0b9fb03000c007a6831495218eb
:100da000136054600f23fb181b78022b24d10b24f3
:100db0003b1978680122502115f005fe02007b697d
:100dc00013437b613b191a780e203b180f210a4010
:100dd0001a703b181b78180001f024fa03005b001e
:100de000180013f09bfb7b6800211800fff7d4fa72
:100df00002007b6913437b613b69002b29d07b6830
:100e0000164a9b5c002b24d00c243b1978680122e5
:100e10005f2115f0d8fd02007b6913437b6121003f
:100e20007b181b7813229343dab27b181a707b1855
:100e3000786801225f2115f02efe02007b691343c2
:100e40007b617b68180001f043fc02007b6913435f
:100e50007b617b691800bd4607b090bd6a08000041
:100e60006b0800007808000090b585b000af78608e
:100e70000023fb600b243b1978680122542115f0f4
:100e8000a2fd0200fb681343fb6021007b181b7866
:100e900002229343dab27b181a707b181b78022265
:100ea0001343dab27b181a707b1878680122542138
:100eb00015f0f1fd0200fb681343fb60fb681800ae
:100ec000bd4605b090bd90b585b000af78600023f9
:100ed000fb600b243b1978680122542115f073fd47
:100ee0000200fb681343fb6021007b181b78022281
:100ef0009343dab27b181a707b181a787b181a7031
:100f00007b1878680122542115f0c5fd0200fb68aa
:100f10001343fb60fb681800bd4605b090bd90b55b
:100f200085b000af78600a00fb1c1a700023fb60dc
:100f30000b243b1978680122542115f044fd02006e
:100f4000fb681343fb6021007b181b780822934346
:100f5000dab27b181a707b181a78fb1c1b781343c3
:100f6000dab27b181a707b1878680122542115f0c8
:100f700092fd0200fb681343fb60fb681800bd464e
:100f800005b090bd90b585b000af786039600023a2
:100f9000fb6008243b1900210a1c1a800222995484
:100fa0007b6804211800fff79bf80200fb681343dd
:100fb000fb603b19786803224f2115f004fd020005
:100fc000fb681343fb607b6800211800fff788f87b
:100fd0000200fb681343fb6021007b181b785b1148
:100fe00001221340dab23b681a707b181b78db10c1
:100ff00001221340dab23b685a707b181b789b10b1
:1010000001221340dab23b689a707b181b785b10a0
:1010100001221340dab23b68da707b185b781b114f
:1010200001221340dab23b681a717b185b785b10bf
:1010300001221340dab23b685a717b185b789b102f
:1010400001221340dab23b689a717b185b78db109f
:1010500001221340dab23b68da717b189b785b118e
:1010600001221340dab23b681a727b189b781b117d
:1010700001221340dab23b685a727b189b78db106e
:1010800001221340dab23b689a727b189b780122e6
:101090001340dab23b685a73fb681800bd4605b0ce
:1010a00090bd90b585b000af786039600023fb60db
:1010b00008243b1900210a1c1a80022299543b196a
:1010c00078680222652115f07efc0200fb6813435c
:1010d000fb607b6804211800fff702f80200fb6840
:1010e0001343fb603b190233786801224d2115f050
:1010f0006afc0200fb681343fb607b680021180058
:10110000fef7eeff0200fb681343fb6021007b1833
:101110001b789b1101221340dab23b681a707b18ce
:101120001b78db1001221340dab23b685a707b183f
:101130001b789b1001221340dab23b689a707b182f
:101140001b785b1001221340dab23b68da707b181f
:101150005b78db1001221340dab23b681a717b180e
:101160005b7801221340dab23b685a717b185b78d6
:101170005b1001221340dab23b689a717b185b78ee
:101180009b1001221340dab23b68da717b189b781e
:101190005b1101221340dab23b681a727b189b780c
:1011a0001b1101221340dab23b685a727b189b78fc
:1011b000db1001221340dab23b689a727b189b78ed
:1011c0005b1001221340dab23b68da727b189b781d
:1011d0009b1001221340dab23b681a737b189b788c
:1011e00001221340dab23b685a73fb681800bd460f
:1011f00005b090bd90b585b000af78603960002330
:10120000fb6008243b1900210a1c1a800222995411
:101210003b1978680222682115f0d5fb0200fb68b3
:101220001343fb607b6804211800fef759ff02009e
:10123000fb681343fb603b190233786801224e219f
:1012400015f0c1fb0200fb681343fb607b680021c3
:101250001800fef745ff0200fb681343fb60210006
:101260007b181b789b1101221340dab23b681a707d
:101270007b181b78db1001221340dab23b685a70ee
:101280007b181b789b1001221340dab23b689a70de
:101290007b181b785b1001221340dab23b68da70ce
:1012a0007b185b78db1001221340dab23b681a71bd
:1012b0007b185b7801221340dab23b685a717b18c5
:1012c0005b785b1001221340dab23b689a717b189d
:1012d0005b789b1001221340dab23b68da717b180d
:1012e0009b785b1101221340dab23b681a727b18bb
:1012f0009b781b1101221340dab23b685a727b18ab
:101300009b78db1001221340dab23b689a727b189b
:101310009b785b1001221340dab23b68da727b18cb
:101320009b789b1001221340dab23b681a737b183a
:101330009b7801221340dab23b685a73fb681800ad
:10134000bd4605b090bd90b585b000af78603960fe
:101350000023fb6008243b1900210a1c1a8002228a
:1013600099547b6804211800fef7bafe0200fb685e
:101370001343fb603b19786803224f2115f023fbd0
:101380000200fb681343fb603b191b782e2293433a
:10139000dab23b191a703b191b785ab23b681b78ba
:1013a000002b01d0202300e0002313435bb2dab20c
:1013b00008217b181a707b181b785ab23b685b783f
:1013c000002b01d0082300e0002313435bb2dab204
:1013d00008217b181a707b181b785ab23b689b78df
:1013e000002b01d0042300e0002313435bb2dab2e8
:1013f00008217b181a707b181b785ab23b68db787f
:10140000002b01d0022300e0002313435bb2dab2c9
:1014100008217b181a707b185b781e229343dab27e
:101420007b185a707b185b785ab23b681b79002b8b
:1014300001d0102300e0002313435bb2dab208218d
:101440007b185a707b185b785ab23b685b79002b2b
:1014500001d0022300e0002313435bb2dab208217b
:101460007b185a707b185b785ab23b689b79002bcb
:1014700001d0042300e0002313435bb2dab2082159
:101480007b185a707b185b785ab23b68db79002b6b
:1014900001d0082300e0002313435bb2dab2082135
:1014a0007b185a707b189b7839229343dab27b18e9
:1014b0009a707b189b785ab23b681b7a002b01d03c
:1014c000202300e0002313435bb2dab208217b182b
:1014d0009a707b189b785ab23b685b7a002b01d0dc
:1014e000102300e0002313435bb2dab208217b181b
:1014f0009a707b189b785ab23b689b7a002b01d07c
:10150000082300e0002313435bb2dab208203b1843
:101510009a703b189b785ab23b685b7b591e8b4193
:10152000dbb25bb213435bb2dab23b189a703b1882
:10153000786803224f2115f0aefa0200fb681343ce
:10154000fb607b6800211800fef7cafd0200fb6803
:101550001343fb60fb681800bd4605b090bd90b515
:1015600085b000af786039600023fb6008243b1928
:1015700000210a1c1a80022299543b197868022221
:10158000652115f020fa0200fb681343fb607b68bd
:1015900004211800fef7a4fd0200fb681343fb6062
:1015a0003b190233786801224d2115f00cfa020034
:1015b000fb681343fb603b191b784e229343dab25e
:1015c0003b191a703b191b785ab23b681b78002be9
:1015d00001d0402300e0002313435bb2dab20821bc
:1015e0007b181a707b181b785ab23b685b78002b0b
:1015f00001d0082300e0002313435bb2dab20821d4
:101600007b181a707b181b785ab23b689b78002baa
:1016100001d0042300e0002313435bb2dab20821b7
:101620007b181a707b181b785ab23b68db78002b4a
:1016300001d0022300e0002313435bb2dab2082199
:101640007b181a707b185b780f229343dab27b18f1
:101650005a707b185b785ab23b681b79002b01d01b
:10166000082300e0002313435bb2dab208203b18e2
:101670005a703b185b785ab23b685b79591e8b41b4
:10168000dbb25bb213435bb2dab23b185a703b1861
:101690005b785ab23b689b79002b01d0022300e0b3
:1016a000002313435bb2dab208217b185a707b180f
:1016b0005b785ab23b68db79002b01d0042300e051
:1016c000002313435bb2dab208217b185a707b18ef
:1016d0009b783f229343dab27b189a707b189b78f1
:1016e0005ab23b681b7a002b01d0202300e0002374
:1016f00013435bb2dab208217b189a707b189b788f
:101700005ab23b685b7a002b01d0102300e0002323
:1017100013435bb2dab208217b189a707b189b786e
:101720005ab23b689b7a002b01d0082300e00023cb
:1017300013435bb2dab208217b189a707b189b784e
:101740005ab23b68db7a002b01d0022300e0002371
:1017500013435bb2dab208217b189a707b189b782e
:101760005ab23b681b7b002b01d0042300e000230e
:1017700013435bb2dab208203b189a703b189b788f
:101780005ab23b685b7b591e8b41dbb25bb21343a1
:101790005bb2dab23b189a7004003b1802337868e7
:1017a00001224d2115f077f90200fb681343fb601d
:1017b0007b6800211800fef793fc0200fb681343ce
:1017c000fb603b1978680222652115f064f902007c
:1017d000fb681343fb60fb681800bd4605b090bd75
:1017e00090b585b000af786039600023fb600824b5
:1017f0003b1900210a1c1a80022299543b1978686f
:101800000222682115f0dff80200fb681343fb6039
:101810007b6804211800fef763fc0200fb68134399
:10182000fb603b190233786801224e2115f0cbf89a
:101830000200fb681343fb603b191b784e22934365
:10184000dab23b191a703b191b785ab23b681b7805
:10185000002b01d0402300e0002313435bb2dab237
:1018600008217b181a707b181b785ab23b685b788a
:10187000002b01d0082300e0002313435bb2dab24f
:1018800008217b181a707b181b785ab23b689b782a
:10189000002b01d0042300e0002313435bb2dab233
:1018a00008217b181a707b181b785ab23b68db78ca
:1018b000002b01d0022300e0002313435bb2dab215
:1018c00008217b181a707b185b780f229343dab2d9
:1018d0007b185a707b185b785ab23b681b79002bd7
:1018e00001d0082300e0002313435bb2dab20820e2
:1018f0003b185a703b185b785ab23b685b79591eab
:101900008b41dbb25bb213435bb2dab23b185a7065
:101910003b185b785ab23b689b79002b01d00223bd
:1019200000e0002313435bb2dab208217b185a703f
:101930007b185b785ab23b68db79002b01d004231b
:1019400000e0002313435bb2dab208217b185a701f
:101950007b189b783f229343dab27b189a707b18ee
:101960009b785ab23b681b7a002b01d0202300e001
:10197000002313435bb2dab208217b189a707b18fc
:101980009b785ab23b685b7a002b01d0102300e0b1
:10199000002313435bb2dab208217b189a707b18dc
:1019a0009b785ab23b689b7a002b01d0082300e059
:1019b000002313435bb2dab208217b189a707b18bc
:1019c0009b785ab23b68db7a002b01d0022300e0ff
:1019d000002313435bb2dab208217b189a707b189c
:1019e0009b785ab23b681b7b002b01d0042300e09c
:1019f000002313435bb2dab208203b189a703b18fd
:101a00009b785ab23b685b7b591e8b41dbb25bb261
:101a100013435bb2dab23b189a7004003b180233ee
:101a2000786801224e2115f036f80200fb68134356
:101a3000fb607b6800211800fef752fb0200fb6888
:101a40001343fb603b1978680222682115f023f8e4
:101a50000200fb681343fb60fb681800bd4605b03d
:101a600090bdb0b590b000af78600023fb633b231e
:101a7000fb18786801222d2114f0a5ff0200fb6bf2
:101a80001343fb63fb6b002b01d0fb6b90e03b230c
:101a9000fb181b781a000823134000d187e0382573
:101aa0007b19786802221d2114f08dff0300fb636f
:101ab0007b68414a985c0c243b1912331a007b194d
:101ac000190001f051fd30257b19786806221f218d
:101ad00014f079ff0200fb6b1343fb637b68364a0b
:101ae000985c3b199a1d7b19190001f03dfd7b683c
:101af000314a985c3b1908331a007b1902331900ec
:101b000001f032fd7b682c4a985c3b190a331a00bd
:101b10007b190433190001f027fd28257b1978680b
:101b20000622252114f04fff0200fb6b1343fb63d9
:101b30007b68214a985c3b190c331a007b19190009
:101b400001f012fd7b681c4a985c3b190e331a00a9
:101b50007b190233190001f007fd7b68164a985c77
:101b60003b1910331a007b190433190001f0fcfcf7
:101b70007b685b6a002b04d07b685b6a3a191000b3
:101b800098477b681b7e002b03d07b681b7e022b53
:101b90000dd10b217b1800221a707b187868012266
:101ba000752114f078ff0200fb6b1343fb63fb6ba2
:101bb0001800bd4610b0b0bd68080000b0b590b0c8
:101bc00000af78600023fb632e23fb1800221a70fd
:101bd0002a23fb1800221a803823fb1810221a80af
:101be0002f23fb18786801222d2114f0ecfe02004f
:101bf000fb6b1343fb63fb6b002b01d0fb6b01e31f
:101c00002f217b181b781a000423134006d17b1860
:101c10001b781a000223134000d1f0e22c23fb189a
:101c2000786802222e2114f0cefe0200fb6b1343d3
:101c3000fb63fb6b002b01d0fb6be3e22a243a1918
:101c40002c23fb181900002001f08efc3b191b8887
:101c5000002b00d1d3e23623fb1800221a807b68c8
:101c6000944a9b5c002b03d03823fb1814221a8063
:101c70007b681b7e022b32d13a23fb1800221a808c
:101c800024e03822bb1819883a23fb181b88ba189d
:101c90001288534340337a68d318043378680a00b3
:101ca000302114f090fe0200fb6b1343fb63fb6bcf
:101cb000002b05d07b68180000f00afdfb6ba1e249
:101cc0003a217b181a887b1801321a802a23fb18c4
:101cd0001b883a22ba1812889a42d2d31ae03823c3
:101ce000fb181b882a22ba18128853431a007b68f3
:101cf00044337868302114f066fe0200fb6b134316
:101d0000fb63fb6b002b05d07b68180000f0e0fc48
:101d1000fb6b77e23a23fb1800221a8066e20c2361
:101d2000fb1800221a6036217b181b8840337a6822
:101d3000d31804333b637b187a18128801321a8057
:101d40003b6b1b787f229343dbb2002b06d07b6872
:101d5000180000f0bdfc01235b4253e23b6b1b7893
:101d600040221340dbb2002b32d07b68524a985c91
:101d700036243b191b8840337a68d318191d0c256b
:101d80007b1906331a0001f0effb7b684a4a985c26
:101d90003b191b88023340337a68d318191d7b190d
:101da00008331a0001f0e0fb7b68434a985c3b195a
:101db0001b88043340337a68d318191d7b190a3302
:101dc0001a0001f0d1fb3b193a19128806321a8029
:101dd0003b6b1b7820221340dbb2002b32d07b6898
:101de000354a985c36243b191b8840337a68d318ef
:101df000191d0c257b190c331a0001f0b5fb7b680b
:101e00002d4a985c3b191b88023340337a68d318fb
:101e1000191d7b190e331a0001f0a6fb7b68264ab8
:101e2000985c3b191b88043340337a68d318191d1a
:101e30007b1910331a0001f097fb3b193a191288ed
:101e400006321a803b6b1b7840221340dbb2002b1a
:101e500006d13b6b1b7820221340dbb2002b4cd009
:101e60003b6b1b7810221340dbb2002b28d07b6821
:101e7000114a985c36257b191b8840337a68d31841
:101e8000191d0c243b1912331a0001f06dfb7b194c
:101e90007a19128802321a803b1912229b5e074a75
:101ea00093422ad03b191b6810221a433b191a602f
:101eb00023e0c04669080000680800000080ffffba
:101ec00036203b181b887a684421d3185b181b788e
:101ed0005bb21ab20c217b185a823b183a1812884e
:101ee00001321a807b1812229b5e803305d07b184a
:101ef0001b6810221a437b181a603b6b1b78082260
:101f00001340dbb2002b06d13b6b1b78042213403d
:101f1000dbb2002b2ad07b68bc4a985c36243b1984
:101f20001b8840337a68d318191d0c257b1904339c
:101f30001a0001f019fb3b193a19128802321a8073
:101f40003b6b1b7804221340dbb2002b0ad07b686a
:101f5000af4a9b5c002b05d17b191b6804221a43f6
:101f60007b191a607b68aa4a002199543b6b1b7845
:101f700040221340dbb2002b00d17fe00c203b1845
:101f800006229b5ea34a934200d177e03b180822c9
:101f90009b5ea04a934200d170e03b180a229b5ef0
:101fa0009c4a93426ad03b6b1b7810221340dbb2f1
:101fb000002b26d036243b191b887a684421d3187d
:101fc0005b181b781b09dbb25ab23b181a753b1918
:101fd0001b8801337a684421d3185b181b781b09ce
:101fe000dbb25ab23b185a753b191b8802337a6828
:101ff0004421d3185b181b781b09dbb25ab23b187b
:102000009a757a6886231b01d3185c681b685a1c72
:1020100009d1002c07d10c217b181b6801221a431f
:102020007b181a602ae03b6b1b7804221340dbb25a
:10203000002b23d112f068fa0a0001007868862389
:102040001b01c3185c681b68c91aa2410b0014006d
:10205000002c03d112d1704a93420fd97a6886239b
:102060001b01d21801235b420024136054600c2131
:102070007b181b6801221a437b181a603b6b1b7884
:1020800020221340dbb2002b00d17fe00c203b1854
:102090000c229b5e5f4a934200d177e03b180e22f0
:1020a0009b5e5c4a934200d170e03b1810229b5e1d
:1020b000584a93426ad03b6b1b7810221340dbb224
:1020c000002b29d036243b191b887a684421d31869
:1020d0005b181b785bb20f2213405ab23b18da75bb
:1020e0003b191b8801337a684421d3185b181b788d
:1020f0005bb20f2213405ab23b181a763b191b8869
:1021000002337a684421d3185b181b785bb20f2224
:1021100013405ab23b185a767b68404a9b185c6859
:102120001b685a1c09d1002c07d10c217b181b6895
:1021300002221a437b181a6028e03b6b1b780422aa
:102140001340dbb2002b21d112f0def90a000100ae
:102150007b6832481b185c681b68c91aa2410b00d7
:102160001400002c03d111d12d4a93420ed97b6863
:102170002a4a9a1801235b420024136054600c2100
:102180007b181b6802221a437b181a603b6b1b7872
:1021900010221340dbb2002b05d03622bb18ba1830
:1021a000128803321a807b685b6a002b05d07b683b
:1021b0005b6a0c22ba18100098477b681b7e002bc4
:1021c00003d07b681b7e022b0ad12e23fb18786874
:1021d0000122752114f05ffc0200fb6b1343fb63cb
:1021e0003a217b181a887b1801321a802a23fb189f
:1021f0001b883a22ba1812889a4200d28fe52a2305
:10220000fb181b881800bd4610b0b0bd6808000060
:102210006b0800000080ffff1f4e00005808000000
:102220005fea000080b582b000af78607b680f2b5a
:1022300024d87b689a00144bd3181b689f46202330
:102240001de03f231be07d2319e0fa2317e0fa236a
:102250005b0014e0fa239b0011e0fa23db000ee0a0
:102260000a4b0ce00a4b0ae00a4b08e00a4b06e076
:102270000a4b04e00a4b02e00a4b00e00a4b18004c
:10228000bd4602b080bdc046709c010088130000ae
:1022900010270000204e0000409c00008038010004
:1022a0000071020000e2040000c4090090b585b08e
:1022b00000af78600a00fb1c1a700023fb60092441
:1022c0003b19786801224e2114f07dfb0200fb6867
:1022d0001343fb603b191a780b203b1803210a407b
:1022e0001a703b181b78022b07d07b681a4a9b5840
:1022f0005a1c7b6818495a5003e07b68164a002133
:1023000099500a243b1978680122502114f05bfb94
:102310000200fb681343fb6021007b181b780f222f
:102320009343dab27b181a707b181a78fb1c1b785f
:102330001343dab27b181a707b1878680122502197
:1023400014f0a9fb0200fb681343fb60fb68180054
:10235000bd4605b090bdc0466c08000090b585b084
:1023600000af78600a00fb1c1a700023fb600b248e
:102370003b19786801224f2114f025fb0200fb680d
:102380001343fb6021007b181b780f229343dab2c2
:102390007b181a707b181a78fb1c1b781343dab26f
:1023a0007b181a707b18786801224f2114f073fb98
:1023b0000200fb681343fb60fb681800bd4605b0d4
:1023c00090bd90b585b000af78600a00fb1c1a7014
:1023d0000023fb600b243b1978680122502114f084
:1023e000f2fa0200fb681343fb6021007b181b78a4
:1023f0001f221340dab27b181a707b181a78fb1c64
:102400001b781343dab27b181a707b1878680122a4
:10241000502114f040fb0200fb681343fb60fb6893
:102420001800bd4605b090bd90b585b000af78608e
:102430000a00fb1c1a700023fb600b243b19786810
:1024400001224f2114f0bffa0200fb681343fb6026
:1024500021007b181b781f221340dab27b181a70f8
:102460007b181a78fb1c1b781343dab27b181a709e
:102470007b18786801224f2114f00dfb0200fb68e5
:102480001343fb60fb681800bd4605b090bd90b5d6
:1024900085b000af786039600023fb607b68124a2a
:1024a0009b5c002b08d07b68104a9b5c012b03d1fe
:1024b0003b6800221a7011e00b243b197868012256
:1024c000502114f080fa0200fb681343fb603b19b3
:1024d0001b781f229343dab23b681a70fb6818001e
:1024e000bd4605b090bdc046690800006a080000fe
:1024f00090b585b000af786039600023fb607b68e1
:10250000114a9b5c002b08d07b68104a9b5c012b16
:1025100003d13b6800221a7011e00b243b19786844
:1025200001224f2114f04ffa0200fb681343fb60b5
:102530003b191b781f229343dab23b681a70fb6881
:102540001800bd4605b090bd690800006a0800008b
:1025500090b585b000af78600a00fb1c1a700023ac
:10256000fb600b243b1978680122522114f02bfaee
:102570000200fb681343fb6021007b181b780f22cd
:102580001340dab27b181a707b181a78fb1c1b7880
:102590001343dab27b181a707b1878680122522133
:1025a00014f079fa0200fb681343fb60fb68002b10
:1025b00007d1fb1c1b780f229343d9b27b68034ad7
:1025c0009954fb681800bd4605b090bd7208000024
:1025d00090b585b000af78600a00fb1c1a7000232c
:1025e000fb600b243b1978680122522114f0ebf9af
:1025f0000200fb681343fb6021007b181b780f224d
:102600001340dab27b181a707b181a78fb1c1b78ff
:102610001343dab27b181a707b18786801225221b2
:1026200014f039fa0200fb681343fb60fb68002bcf
:1026300007d1fb1c1b780f229343d9b27b68034a56
:102640009954fb681800bd4605b090bd74080000a1
:1026500090b585b000af78600a00fb1c1a700023ab
:10266000fb600b243b1978680122522114f0abf96e
:102670000200fb681343fb6021007b181b780f22cc
:102680009343dab27b181a707b181a78fb1c1b78fc
:102690001343dab27b181a707b1878680122522132
:1026a00014f0f9f90200fb681343fb60fb68002b90
:1026b00007d1fb1c1b780f221340d9b27b68034a59
:1026c0009954fb681800bd4605b090bd7508000020
:1026d000b0b586b000af786000237b610f243b1952
:1026e000786801224e2114f06ef902007b691343d1
:1026f0007b6120003b181a7813243b190c210a40f7
:102700001a703b181a7812203b1803210a401a70dd
:102710003b191b78002b03d13b181b78002b13d0df
:102720001223fb181b78022b0ed011217b180222da
:102730001a707b18786801224b2114f0acf9020062
:102740007b6913437b612ce010257b19786801229b
:10275000162114f038f902007b6913437b611124c0
:102760003b1900221a703b1978680122162114f0d7
:1027700092f902007b6913437b617b19786801221f
:10278000162114f088f902007b6913437b613b1921
:1027900078680122752114f016f902007b69134351
:1027a0007b617b691800bd4606b0b0bd90b585b0b1
:1027b00000af78600023fb607b681c4a9b5c002ba9
:1027c00026d10b243b1978680122542114f0fbf820
:1027d0000200fb681343fb6021007b181b7810226a
:1027e0009343dab27b181a707b181b7810221343bc
:1027f000dab27b181a707b1878680122542114f021
:102800004af90200fb681343fb60c82011f086fe02
:102810007b68064a9b5c0133d9b27b68034a9954b2
:10282000fb681800bd4605b090bdc04654080000c6
:1028300090b585b000af78600023fb607b68194ad3
:102840009b5c002b20d10b243b197868012254217a
:1028500014f0b9f80200fb681343fb6021007b18f9
:102860001b7810229343dab27b181a707b181a78ff
:102870007b181a707b1878680122542114f00bf928
:102880000200fb681343fb607b68064a9b5c013bcc
:10289000d9b27b68034a9954fb681800bd4605b05d
:1028a00090bdc0465408000090b585b000af786078
:1028b00039600023fb6008243b1904221a703b197d
:1028c000786801224b2114f0e6f80200fb681343fc
:1028d000fb607b6801211800fdf702fc0200fb6829
:1028e0001343fb603b1978680322622114f06bf8f4
:1028f0000200fb681343fb607b6800211800fdf7b2
:10290000effb0200fb681343fb6021007b189b7800
:102910001a04f0231b031a407b185b781b02d318a0
:102920007a1812789a183b681a60fb681800bd463e
:1029300005b090bd90b585b000af78600a00fb1c73
:102940001a700023fb60fb1c1b78002b61d07b6896
:1029500001211800fdf7c4fb0200fb681343fb6074
:102960000b243b19786801227b2114f02cf802001b
:10297000fb681343fb603b191b7806229343dab2d2
:102980003b191a703b191b7804221343dab23b1926
:102990001a703b19786801227b2114f07cf8020040
:1029a000fb681343fb607b6800211800fdf798fb70
:1029b0000200fb681343fb603b19786801224d213c
:1029c00014f001f80200fb681343fb6021003b197f
:1029d0001b7804229343dab27b181a707b181b7899
:1029e00004221343dab27b181a707b18786801222c
:1029f0004d2114f050f80200fb681343fb607b6824
:102a000008211800fef78bfa0200fb681343fb60f5
:102a100020e00b243b19786801224d2113f0d3ffed
:102a20000200fb681343fb6021007b181b78042223
:102a30009343dab27b181a707b181a787b181a70d5
:102a40007b18786801224d2114f025f80200fb68fc
:102a50001343fb60fb681800bd4605b090bd90b500
:102a600085b000af78600023fb600b243b197868c9
:102a700001224d2113f0a7ff0200fb681343fb6006
:102a80003b191b781a000423134001d0012300e0f6
:102a900000231800bd4605b090bd80b582b000afe0
:102aa00078607b68034a0121995400231800bd46d1
:102ab00002b080bd6908000080b582b000af7860c8
:102ac0007b68044a0021995400231800bd4602b0d7
:102ad00080bdc04669080000b0b588b000af78601e
:102ae0000a00fb1c1a700023fb610c257b190022d5
:102af0001a605a609a609a817b68fa1c7d49127844
:102b00005a54fb1c1b78002b00d1a1e0012b00d0f4
:102b1000e8e01b243b19786801224c2113f053ff95
:102b20000200fb691343fb6121007b181b784022e4
:102b30001343dab27b181a707b181b782022934358
:102b4000dab20c003b191a703b19786801224c214b
:102b500013f0a1ff0200fb691343fb613b198022c4
:102b60001a703b1978680122162113f094ff0200b5
:102b7000fb691343fb613b1978680122542113f070
:102b800022ff0200fb691343fb6121007b181b78c5
:102b900001221343dab20c003b191a703b19786812
:102ba0000122542113f077ff0200fb691343fb61fc
:102bb0003b19786801225f2113f005ff0200fb69d1
:102bc0001343fb6121007b181b7803229343dab285
:102bd0007b181a707b181b780c221343dab27b180f
:102be0001a707b181b7820221343dab27b181a70f4
:102bf0000c007b18786801225f2113f04cff020063
:102c0000fb691343fb613b1901221a703b19786879
:102c10000122602113f03fff0200fb691343fb61b7
:102c20007a197b6811001800fef73bfa0200fb6975
:102c30001343fb617b1900225a707a197b681100db
:102c40001800fef78cfc0200fb691343fb614ce0ab
:102c50001b243b1900221a703b19786801221621a7
:102c600013f019ff0200fb691343fb613b197868fd
:102c700001225f2113f0a7fe0200fb691343fb61f1
:102c800021007b181b7803229343dab27b181a7059
:102c90007b181b780c221343dab27b181a707b184e
:102ca000786801225f2113f0f6fe0200fb691343ee
:102cb000fb610c243a197b6811001800fef7f1f94a
:102cc0000200fb691343fb613b1901225a703a1958
:102cd0007b6811001800fef742fc0200fb691343f9
:102ce000fb6102e001235b42fb61fb691800bd460a
:102cf00008b0b0bd6a080000f0b591b000af7860d0
:102d00000a00bb1c1a800023fb63bb1c1b881a0033
:102d1000f0231b02134002d00b235b42b1e02824b6
:102d20003a197b6811001800fef7bbf90200fb6b33
:102d30001343fb6318257a197b6811001800fef70e
:102d400059fa0200fb6b1343fb630826ba197b6830
:102d500011001800fef716f90200fb6b1343fb632a
:102d60003b23fb183a1992781a703a23fb187a1908
:102d700092781a703923fb18ba1992781a703b1995
:102d80009b78012b0cd13b1900229a703a197b6871
:102d900011001800fef7e3fb0200fb6b1343fb631b
:102da00018217b189b78012b0cd17b1800229a707c
:102db0007a187b6811001800fef712fd0200fb6b09
:102dc0001343fb6308217b189b78012b0cd17b18e4
:102dd00000229a707a187b6811001800fef7b3fa87
:102de0000200fb6b1343fb63bb1c7868022260216b
:102df00013f051fe0200fb6b1343fb6328217b1889
:102e00009b783b203a1812789a420dd07b183a18da
:102e100012789a707a187b6811001800fef79ffbf1
:102e20000200fb6b1343fb6318217b189b783a204d
:102e30003a1812789a420dd07b183a1812789a7084
:102e40007a187b6811001800fef7cafc0200fb6bc1
:102e50001343fb6308217b189b7839203a181278ba
:102e60009a420dd07b183a1812789a707a187b68bb
:102e700011001800fef767fa0200fb6b1343fb63b7
:102e8000fb6b1800bd4611b0f0bd80b586b000af39
:102e9000786000233b6180235b047b610e23fb1879
:102ea00078680122542113f08efd02003b69134320
:102eb0003b613b69002b02da01235b422de00e23cc
:102ec000fb181a780f23fb1808210a401a707b6838
:102ed000180000f0fffa031e07d17b681800fff707
:102ee000befd031e01d10f4b7b610f23fb181b7826
:102ef000002b01d17b6910e07b681800fff7affd64
:102f0000031e01d0084b08e00f23fb181b78082b89
:102f100002d17b691b0100e000231800bd4606b00a
:102f200080bdc046111111010080841e80b584b09f
:102f300000af786080235b04fb607b681800fff7bc
:102f40008efd031e01d0074b08e07b68180000f0df
:102f5000c1fa031e01d1044bfb60fb681800bd469b
:102f600004b080bd0080841e1111110180b500af36
:102f7000014b1800bd4680bdb09c010090b585b0e6
:102f800000af78600023fb607b6801211800fdf72b
:102f9000a7f80200fb681343fb607b681b7e012bd4
:102fa00048d0022b1fd0002b53d10b243b1978683b
:102fb00001227c2113f007fd0200fb681343fb6034
:102fc00021007b181b7803229343dab27b181a7016
:102fd0007b18786801227c2113f05dfd0200fb68fc
:102fe0001343fb603ae00b243b19786801227c21f3
:102ff00013f0e9fc0200fb681343fb6021007b181f
:103000001b780c221343dab27b181a707b1878688d
:1030100001227c2113f03ffd0200fb681343fb609b
:103020007b68db687a68100098470200fb681343ee
:10303000fb6013e00b217b1802221a707b18786862
:1030400001227a2113f027fd0200fb681343fb6085
:1030500004e0fb680b2252421343fb607b680021b3
:103060001800fdf73df80200fb681343fb60fb68a6
:103070001800bd4605b090bdf0b58bb000af7860cc
:1030800000237b620c26bb19fd4a13ca13c31288a6
:103090001a807b681800fdf78df802007b6a1343e5
:1030a0007b621f243b19786801224f2113f08bfcaf
:1030b00002007b6a13437b621e257b19786801221c
:1030c000502113f080fc02007b6a13437b623b19a2
:1030d0001b781f221340dab221007b181a707b186c
:1030e0001a787b181a707b191b781f221340dab2ea
:1030f0002c003b191a703b191b7840221343dab29b
:103100003b191a707b18786801224f2113f0c3fc19
:1031100002007b6a13437b623b19786801225021cd
:1031200013f0b9fc02007b6a13437b6223243b1932
:1031300000221a703b1978680122162113f0abfcab
:1031400002007b6a13437b623b197868012262218b
:1031500013f039fc02007b6a13437b623b191b7836
:1031600070229343dab23b191a703b197868012236
:10317000622113f090fc02007b6a13437b621d25e1
:103180007b1978680122542113f01dfc02007b6a30
:1031900013437b6229007b181b7802229343dab227
:1031a0007b181a707b1878680122542113f073fc85
:1031b00002007b6a13437b627b6808211800fdf7dd
:1031c000aefe02007b6a13437b627b68012118001c
:1031d000fff782fc02007b6a13437b623b1978682d
:1031e0000122142113f0effb02007b6a13437b6280
:1031f0003b191b7802221343dab23b191a703b19b0
:103200001b7801221343dab23b191a703b19786814
:103210000122142113f03ffc02007b6a13437b62fe
:10322000ba197b6811001800fef799f902007b6a51
:1032300013437b62bb1901225a70bb1900229a709a
:10324000ba197b6811001800fef77df802007b6a4e
:1032500013437b623b1978680122642113f0b3fbae
:1032600002007b6a13437b623b191b781022934355
:10327000dab23b191a703b191a783b191a703b19cc
:1032800078680122642113f006fc02007b6a134374
:103290007b623b1978680122512113f094fb0200f4
:1032a0007b6a13437b6221007b181b780c229343bb
:1032b000dab27b181a707b181b7804221343dab237
:1032c0000c003b191a703b1978680122512113f048
:1032d000e2fb02007b6a13437b623b1978680122a0
:1032e000532113f070fb02007b6a13437b623b198e
:1032f0001b7818229343dab23b191a703b191b78da
:1033000008221343dab23b191a703b19786801227c
:10331000532113f0c0fb02007b6a13437b627b687e
:103320001800fff7c9fb02007b6a13437b627b68ce
:1033300004211800fcf7d4fe02007b6a13437b6271
:1033400020217b180d221a707b180d225a707b18d1
:103350000d229a707b18786803224a2113f09bfb98
:1033600002007b6a13437b627b6800211800fcf734
:10337000b7fe02007b6a13437b623b190c221a7072
:103380003b1978680122572113f085fb02007b6a04
:1033900013437b627b683b4a102199547b683a4a0d
:1033a000012199547b68394a602199547b68002235
:1033b0001a647b6803211800fcf792fe02007b6a06
:1033c00013437b623b19786801222e2113f0fbfa2c
:1033d00002007b6a13437b623b191b7802229343f2
:1033e000dab23b191a703b19786801222e2113f0ca
:1033f00052fb02007b6a13437b623b19786801220f
:10340000322113f0e0fa02007b6a13437b62210051
:103410007b181b7860229343dab20c003b191a70b8
:103420003b1978680122322113f035fb02007b6ad8
:1034300013437b623b1978680122372113f0c3faea
:1034400002007b6a13437b6221007b181b78602299
:103450009343dab20c003b191a703b1978680122c9
:10346000372113f018fb02007b6a13437b623b1980
:10347000786801223c2113f0a6fa02007b6a07e07b
:10348000b89c010074080000750800007208000074
:1034900013437b6221007b181b7860229343dab2ce
:1034a0007b181a707b18786801223c2113f0f3fa1c
:1034b00002007b6a13437b627b6800211800fcf7e3
:1034c0000ffe02007b6a13437b627b6a1800bd46d5
:1034d0000bb0f0bdb0b586b000af786000237b6163
:1034e00010243b19786801224e2113f06cfa020077
:1034f0007b6913437b610f257b19786801224d217d
:1035000013f061fa02007b6913437b613b191a785f
:1035100013203b180c210a401a703b191a78122309
:10352000fb1803210a401a707b191a781123fb1823
:1035300008210a401a703b181b78002b03d03b1857
:103540001b78042b0bd11223fb181b78022b06d1fe
:103550001123fb181b78002b01d1012300e000236d
:103560001800bd4606b0b0bd80b584b000afb960ec
:103570007a600f217b18021c1a707b181b78102ba5
:103580000dd1bb681b781b021ab2bb6801331b78d4
:103590001bb213431bb29ab27b681a800ce0bb6863
:1035a00001331b781b021ab2bb681b781bb2134392
:1035b0001bb29ab27b681a80c046bd4604b080bd7b
:020000040000fa
:1035c000b0b5b0b000af3a60fb1d021c1a703b1dd5
:1035d0000a1c1a80fb1d1b782c2b15d1b02439191d
:1035e0003868002304220bf019fd031e00d007e207
:1035f000ca4b1b68002b00d102e2c84b1b683a196a
:1036000011002c209847fbe1fb1d1b781b2b15d1cb
:10361000a82439193868002308220bf0fffc031e88
:1036200000d0ede1bd4b1b68002b00d1e8e1bb4ba6
:103630001b683a1911001b209847e1e1fb1d1b781c
:10364000062b15d10c2439193868012330220bf0d0
:10365000e5fc031e00d0d3e1b04b1b68002b00d16a
:10366000cee1ae4b1b683a19110006209847c7e11e
:10367000fb1d1b780e2b00d1c2e1fb1d1b78322bea
:1036800015d1902439193868002318220bf0c6fc94
:10369000031e00d0b4e1a14b1b68002b00d1afe1a9
:1036a0009e4b1b683a19110032209847a8e1fb1d78
:1036b0001b783d2b13d138680123002200210bf029
:1036c000adfc031e00d09be1944b1b68002b00d186
:1036d00096e1924b1b6800213d20984790e1fb1d2d
:1036e0001b782f2b1bd10c243b19642200211800be
:1036f00017f09cf839193868002364220bf08efc0f
:10370000031e00d07ce1854b1b68002b00d177e1c4
:10371000824b1b683a1911002f20984770e1fb1d5e
:103720001b78342b14d18c23f91838680023042219
:103730000bf074fc031e00d062e1784b1b68002b79
:1037400000d15de1754b1b6800213420984757e19b
:10375000fb1d1b78112b1dd1714b00221a70882480
:1037600039193868002304220bf058fc031e00d0de
:1037700046e121007b181a786a4b1a70674b1b6868
:10378000002b00d13ce1654b1b687a181100112019
:10379000984735e1fb1d1b78132b15d10c243919e3
:1037a000386800232c220bf039fc031e00d027e1df
:1037b0005a4b1b68002b00d122e1584b1b683a1969
:1037c0001100132098471be1fb1d1b78042b15d11a
:1037d000b42439193868002304220bf01ffc031e9f
:1037e00000d00de14d4b1b68002b00d108e14b4b85
:1037f0001b683a1911000420984701e1fb1d1b7852
:10380000652b15d1b42439193868002304220bf034
:1038100005fc031e00d0f3e0404b1b68002b00d1d9
:10382000eee03e4b1b683a19110065209847e7e02f
:10383000fb1d1b78092b15d10c243919386801237d
:1038400064220bf0ebfb031e00d0d9e0334b1b6866
:10385000002b00d1d4e0314b1b683a19110009202c
:103860009847cde0fb1d1b782a2b15d184243919ec
:103870003868012304220bf0d1fb031e00d0bfe007
:10388000264b1b68002b00d1bae0244b1b683a1969
:1038900011002a209847b3e0fb1d1b78272b15d178
:1038a000802439193868002304220bf0b7fb031e6b
:1038b00000d0a5e0194b1b68002b00d1a0e0174bee
:1038c0001b683a1911002720984799e0fb1d1b78c7
:1038d000202b29d1782439193868002308220bf0cd
:1038e0009dfb031e00d08be03b68083318003b199a
:1038f00019683b199a8801230bf090fb031e00d036
:103900007ee0064b1b68002b00d179e0034b1b685f
:103910003a1911002020984772e0c046d4190020bf
:10392000d8190020d0190020fb1d1b781d2b00d0ba
:1039300066e0742439193868002304220bf06efb0a
:10394000031e5dd1bc23fb183a1952881a803b191b
:103950001a887023fb185a802b4b1b68002b4fd002
:103960002a4b1b68002b4bd0294b1b88002b47d0c0
:10397000bf217b1801221a7070203b185a88244bf3
:103980001b889a4207d97b1800221a70204b1a888c
:103990003b181a8004e070217b185a887b181a8023
:1039a000bc257b191a883b68d018184b19687024fd
:1039b0003b191a88bf23fb181b780bf02ffb031e43
:1039c0001dd120003b185a883b181b88d31a9ab285
:1039d0003b185a803b1819887b197a1912888a1863
:1039e0001a80094b1c68094b1b6805003a1819001e
:1039f0001d20a0477b195b88002bb9d100e0c04691
:103a0000c046bd4630b0b0bdf0190020f41900200a
:103a1000f819002090b583b000affb1d00221a708a
:103a2000fc1d0ef049fb03002370fb1d1b785bb2ed
:103a3000002b05d10af006f8054b01221a7000e0b0
:103a4000c046fb1d1b785bb21800bd4603b090bd9d
:103a5000d119002080b584b000af78600f217b18a9
:103a600000221a707b68002b03d17b18f4221a7095
:103a70005be07b681b78002b06d07b68180016f093
:103a800063fe0300202b04d90f23fb18f4221a70c5
:103a90004be07b6821229b5c0e2b04d87b682122a3
:103aa0009b5c002b04d10f23fb18f4221a703ce01e
:103ab0007b6841229b5c002b0ed17b6842229b5c81
:103ac000002b09d17b6843229b5c002b04d10f2380
:103ad000fb18f4221a7028e07b683f229b5c012bc4
:103ae00022d07b683f229b5c032b04d10f23fb1861
:103af000f4221a7019e07b683f229b5c022b0ed1e6
:103b00007b6823229b5c072b04d97b6823229b5c68
:103b1000402b0ad90f23fb18f4221a7005e00f235b
:103b2000fb18f4221a7000e0c0460f23fb181b7824
:103b30005bb21800bd4604b080bd80b584b000af54
:103b400078600f217b1800221a707b68002b03d14c
:103b50007b18f4221a702de07b681b78002b04d1af
:103b60000f23fb18f4221a7024e07b685b78092b82
:103b700003d97b685b78fa2b04d90f23fb18f42256
:103b80001a7017e07b689b78002b03d07b689b78ca
:103b9000022b04d90f23fb18f4221a700ae07b6869
:103ba000db785bb2002b04db0f23fb18f4221a70c6
:103bb00000e0c0460f23fb181b785bb21800bd461f
:103bc00004b080bdb0b588b004af78600f257b1914
:103bd000f4221a707c1900230293ab239b000193fb
:103be0007b68009300230022832105200af090fec9
:103bf000030023707b191b785bb21800bd4604b02c
:103c0000b0bd90b583b000affb1df4221a70fc1d4f
:103c10000ef082fa03002370fb1d1b785bb2002bb1
:103c200002d1054b01221a70fb1d1b785bb21800f4
:103c3000bd4603b090bdc046d1190020b0b58eb0ce
:103c400000af786037217b1800221a700b23fb1815
:103c500001221a707b68002b03d17b18f4221a70a2
:103c60004de07b681a682a4b1a607b689a68294b7a
:103c70001a607b68da68284b1a607b681a8a274bbf
:103c80001a807b689b7c002b03d00b23fb1804223b
:103c90001a70234b00221a7037257c190b23fb184e
:103ca00018000ef064fa030023707b191b785bb2d6
:103cb000002b23d11b4b02221a707c1900200af022
:103cc000c7fd030023707b191b785bb2002b0dd15d
:103cd000154b190001200bf01dfa7c190c23fb1861
:103ce00018000ef043f80300237008e0c0460d4ba7
:103cf00000221a7000200ef0c2fa00e0c0463723fe
:103d0000fb181b785bb21800bd460eb0b0bdc046b4
:103d1000d4190020f0190020f4190020f81900200f
:103d2000d8190020d1190020c1350000b0b584b0e9
:103d300000af78600f257b1900221a707c19fff7fd
:103d400060ff030023707b191b785bb2002b06d148
:103d50007c197b681800fff771ff030023700f23a5
:103d6000fb181b785bb21800bd4604b0b0bd80b52f
:103d700082b000af7860074b00221a7000200af072
:103d8000abfd00200ef07bfa00231800bd4602b008
:103d900080bdc046d119002080b500af0bf02cf9d2
:103da00003001800bd4680bd90b591b004af7860a7
:103db0000a00fb1c1a700c243b1924220021180055
:103dc00016f034fd21007b18ff221a707a180023a8
:103dd0000293002301930023009324232721012031
:103de0000af096fd03001800bd460db090bd80b5e9
:103df00084b004af002302930023019300230093b7
:103e000000230022292101200af082fd030018006e
:103e1000bd4680bd90b587b000af0400080011001a
:103e20003b60fb1d221c1a70bb1d021c1a703b1d3f
:103e30000a1c1a801723fb18f4221a7014243b1949
:103e40003a1d12882c321a803b68002b00d17fe08b
:103e50003b685b68002b00d17ae03b681b7a202b23
:103e600000d975e0bb6a002b00d16ce0bb6a3b61f6
:103e7000bb6a0433fb60bb6a30220021180016f0d5
:103e8000d5fc3b693a1912881a80fb1d1b78012b5f
:103e90000bd0022b02d0002b0ed05ee03b699b784a
:103ea00002221343dab23b699a703b699b78012284
:103eb0001343dab23b699a70c0463b685b7aff2bca
:103ec00004d13b685a7a3b69da700de03b685b7a53
:103ed0000e2b3fd83b685b7a002b3bd03b685b7a6c
:103ee000013bdab23b69da70bb1d1b78002b33d083
:103ef000bb1d1b78042b2fd8fb68ba1d2821127814
:103f00005a543b681a7afb681a70fb68581c3b6865
:103f100059683b681b7a1a0016f07efc3b681b68e8
:103f2000002b0cd0fb68212201219954fb6822331d
:103f300018003b681b680622190016f06dfc172359
:103f4000fb1800221a701723fb181b785bb206e0df
:103f5000c04602e0c04600e0c0460f235b421800a6
:103f6000bd4607b090bd80b582b000af0200fb1d1a
:103f70001a70fb1dfa1d1278303a1a70fb1d1b785f
:103f8000092b02d8fb1d1b7814e0fb1dfa1d1278cb
:103f900020210a431a70fb1dfa1d1278313a1a705b
:103fa000fb1d1b78052b04d8fb1d1b780a33dbb2e5
:103fb00000e0ff231800bd4602b080bdb0b586b05a
:103fc00000aff860b960fb1d1a7036e0bb685a1c80
:103fd000ba601b7817257c191800fff7c4ff03008f
:103fe00023707b191b780f2b02d90f235b422ce027
:103ff00017217b181b781b01dab2fb681a70bb68ab
:104000005a1cba601b780d007c181800fff7abff34
:10401000030023707b191b780f2b02d90f235b42ff
:1040200013e0fb681a781723fb181b78d318dab251
:10403000fb681a70fb680133fb60fb1d1b78fa1ddf
:10404000591e1170002bc1d100231800bd4606b0c7
:10405000b0bdf0b595b004af02003960fb1d1a7019
:104060003f257b19f1221a707c193a68fb1d1878dc
:104070000c26bb190093130000220121fff7cafe92
:10408000030023707b191b785bb2002b0ed17c19c7
:10409000ba190023029300230193002300933023d5
:1040a0003b2101200af034fc030023703f23fb185e
:1040b0001b785bb21800bd4611b0f0bd80b584b06e
:1040c00000afb9607a600f23fb18021c1a7010232e
:1040d0005b421800bd4604b080bdb0b598b004afd7
:1040e000b9607a600f217b18021c1a704f257b196a
:1040f000f1221a707b68002b00d18fe07c19ba681e
:104100007b1818781023fb18009313006c220221ef
:10411000fff780fe030023702c003b191b785bb275
:10412000002b00d07ae06c237b647b6c180015f0c8
:104130007ffc0300bb64bb6c002b6bd0bb6c6c22a0
:104140000021180016f072fb7b681b68002b25d03d
:104150007b685b68002b03d03b19f1221a703ce0ae
:10416000bb6c40221a70bb6c581c7b681968bb6c16
:104170001b785b08dbb21a00fff720ff031e03d099
:104180004f23fb18f1221a70bb6c581c7b6819680e
:10419000bb6c1b781a0016f03ffb1ee07b685b6867
:1041a000002b16d07b681b7a402b04d94f23fb18b9
:1041b000f1221a7011e07b681a7abb6c1a70bb6c22
:1041c000581c7b685968bb6c1b781a0016f024fbde
:1041d00003e04f23fb18f1221a704f22bb181b7803
:1041e0005bb2002b0fd1bc181023fa1830230293b6
:1041f0006c230193bb6c00933023bb2101200af098
:1042000087fb03002370bb6c3b643b6c180015f00c
:1042100065ff03e04f23fb18fd221a704f23fb18a4
:104220001b785bb21800bd4614b0b0bd80b584b039
:1042300000afb9607a600f23fb18021c1a70bb68cc
:10424000002b05d17b68002b02d00f235b42b4e02a
:104250000f23fb181b78012b00d164e002dc002b3c
:1042600006d0a6e0022b00d17ce0032b1fd0a0e0fb
:104270007b68042b02d00f235b429ee0bb681b6867
:10428000002b09d0012b0ed14e4b1b680222934309
:104290001a004c4b1a6009e04a4b1b6802221a4371
:1042a000484b1a6002e00f235b4286e084e07b68a3
:1042b000012b02d00f235b427fe0bb681b78012bf0
:1042c00012d0022b1dd0002b29d13e4b1b6804229b
:1042d00093431a003b4b1a603a4b1b6808229343e6
:1042e0001a00384b1a601de0364b1b6804221a4333
:1042f000344b1a60334b1b6808221a43314b1a6047
:1043000010e0304b1b6804221a432e4b1a602d4bd1
:104310001b68082293431a002a4b1a6002e00f23fd
:104320005b424ae048e07b68042b02d00f235b42eb
:1043300043e0bb681b68002b08d0012b0ed1214b3a
:104340001b6810221a431f4b1a600ae01d4b1b68a2
:10435000102293431a001b4b1a6002e00f235b42aa
:104360002be029e07b68002b11d07b68142b1cd13b
:10437000144b1b6840221a43124b1a60124abb6846
:104380001000190014231a0016f046fa10e00d4b25
:104390001b68402293431a000a4b1a600a4b1422ee
:1043a0000021180016f042fa02e00f235b4204e0fd
:1043b00002e00f235b4200e000231800bd4604b07a
:1043c00080bdc046a01b0020dc19002080b584b051
:1043d00000afb9607a600f23fb18021c1a70bb682b
:1043e000002b02d10f235b4275e00f23fb181b78d3
:1043f000012b3dd002dc002b05d068e0022b4ad017
:10440000032b15d063e07b681b68032b02d80f23b6
:104410005b4260e07b6804221a60314b1b68022219
:1044200013405a425341dbb21a00bb681a6051e094
:104430007b681b68002b02d10f235b424be07b683b
:1044400001221a60264b1b680422134003d1bb686b
:1044500000221a703ee0224b1b680822134003d052
:10446000bb6801221a7035e0bb6802221a7031e085
:104470007b681b68032b02d80f235b422be07b6811
:1044800004221a60164b1b681b091a0001231a40ec
:10449000bb681a601ee0124b1b684022134012d00a
:1044a0007b681b68132b02d80f235b4213e07b68e9
:1044b00014221a60ba680b4b1000190014231a005a
:1044c00016f0aaf906e07b6800221a6002e00f23ca
:1044d0005b4200e000231800bd4604b080bdc0462a
:1044e000a01b0020dc190020f0b59bb004afb96020
:1044f0007a600f23fb18021c1a705723fb18f12255
:104500001a707b68002b00d1e8e07b681b68002be9
:1045100002d17b6800229a817b685b68002b00d106
:10452000dce07b689b68002b00d1d7e07b689b892f
:104530001a007b68db89d318642b00d9cee07b6836
:104540001a8a80235b009a4200d9c7e07b689a8967
:104550007b68db89d3189ab27b681b8ad3189ab21e
:104560004e257b192c321a805726bc19b9687b1945
:104570001a880f23fb1818781023fb1800930b00e0
:104580000421fff747fc03002370bb191b785bb2c3
:10459000002b00d0a2e07b191b887b647b6c180089
:1045a00015f046fa0300bb64bb6c002b00d191e010
:1045b000bb6c2c333b657b191a88bb6c002118003f
:1045c00016f034f9bb6c01221a707b689b7c002bbf
:1045d00007d0bb6c1b78802252421343dab2bb6c0b
:1045e0001a707b68db7c002b06d0bb6c1b784022ea
:1045f0001343dab2bb6c1a70bb6c2c22da703b4be3
:104600001a68bb6c5a62bb6c0c331a00384b100032
:10461000190014231a0016f0fff8bb6c00225a7020
:104620007b681b68002b13d07b689b89dab2bb6c5c
:104630005a707b681968bb6c5b781a003b6d180078
:1046400016f0eaf8bb6c5b781a003b6d9b183b6573
:104650007b68db89dab2bb6c9a707b685968bb6c8b
:104660009b781a003b6d180016f0d6f8bb6c9b784f
:104670001a003b6d9b183b65bb6c2c333a6dd31a0b
:104680009ab2bb6c9a807b681a8abb6cda807b68b2
:104690009968bb6cdb881a003b6d180016f0bcf8fb
:1046a0005723fc181023fa18302302934e23fb18cb
:1046b0001b880193bb6c00933023bb2101200af0bf
:1046c00027f903002370bb6c3b643b6c180015f0aa
:1046d00005fd03e05723fb18fd221a705723fb1832
:1046e0001b785bb21800bd4617b0f0bda01b0020c0
:1046f000dc190020f0b59db004afb9607a600f23db
:10470000fb18021c1a705f23fb18f1221a707b68d9
:10471000002b00d14fe17b681b68002b02d17b6826
:1047200000229a827b685b68002b00d143e17b68a2
:104730009b68002b00d13ee17b68db68002b00d139
:1047400039e17b681b69002b00d134e17b689b8acf
:104750001a007b68db8ad318642b00d92be17b68b5
:104760001a8b80235b009a4200d924e17b685a8b24
:10477000c623db009a4200d91de17b689a8a7b68d8
:10478000db8ad3189ab27b681b8bdb189bb2d318d9
:104790009ab27b685b8bd3189ab256257b192c3260
:1047a0001a805f26bc19b9687b191a880f23fb1879
:1047b00018781023fb1800930b000421fff72afb45
:1047c00003002370bb191b785bb2002b00d0f2e012
:1047d0007b685a8b54243b19791909888a1a1a80e4
:1047e0003b191b88fb64fb6c180015f021f90300d2
:1047f0003b653b6d002b00d1d9e04023fb18002224
:104800001a605a603b6d2c33bb653b191a883b6daf
:104810000021180016f00af83b6d02221a707b681e
:104820001b7f002b07d03b6d1b7880225242134325
:10483000dab23b6d1a707b685b7f002b06d03b6d54
:104840001b7840221343dab23b6d1a703b6d2c2269
:10485000da705d4b1a683b6d5a623b6d0c331a007f
:104860005a4b1000190014231a0015f0d5ff3b6da8
:1048700000225a707b681b68002b13d07b689b8ad0
:10488000dab23b6d5a707b6819683b6d5b781a0031
:10489000bb6d180015f0c0ff3b6d5b781a00bb6d57
:1048a0009b18bb657b68db8adab23b6d9a707b68cc
:1048b00059683b6d9b781a00bb6d180015f0acff72
:1048c0003b6d9b781a00bb6d9b18bb653b6d2c3311
:1048d000ba6dd31a9ab23b6d9a807b681a8b3b6d86
:1048e000da807b6899683b6ddb881a00bb6d180025
:1048f00015f092ff3b6ddb881a00bb6d9b18bb6502
:104900007b68d9683b6ddb881a00bb6d180015f019
:1049100083ff3b6ddb881a00bb6d9b18bb653b6d4d
:104920002c33ba6dd31a9ab23b6d1a817b685a8bbd
:104930003b6d5a8140217b1801221a703b6d1a8908
:104940007b189a803b6d5a897b18da807b681b69db
:104950007a68528b5f257c197818082102910192a0
:10496000009308230200bc21012009f0d1ff0300bd
:1049700023707b191b785bb2002b11d17c1910239b
:10498000fa18302302935423fb181b8801933b6dc4
:1049900000933023bb21012009f0baff03002370ec
:1049a0003b6dbb64bb6c180015f098fb03e05f2304
:1049b000fb18fd221a705f23fb181b785bb21800ee
:1049c000bd4619b0f0bdc046a01b0020dc19002078
:1049d000b0b586b002aff860080011007b600b250f
:1049e0007b19021c1a700a203b180a1c1a707c687a
:1049f0003b181a787b191978f86800230193202353
:104a0000fb181b880093230000f005f80300180032
:104a1000bd4604b0b0bd90b595b000aff8600800d9
:104a200011007b600b243b19021c1a700a23fb182f
:104a30000a1c1a704f23fb18f1221a7038217b18b8
:104a400000221a607b18fa685a607b183a191278ab
:104a50001a726023fb181b88dab27b185a7264231f
:104a6000fb181b78002b01d0002200e002224e230d
:104a7000fb181a700b23fb181b78202b16d80de09f
:104a800038217b185a680b203b181b78d3181b78e9
:104a9000002b03d17b183a1812781a720b22bb181c
:104aa0001b78ba18591e1170002be9d10a23fb1884
:104ab0001b78022b16d002dc012b05d0a5e0032bbe
:104ac00047d0042b67d0a0e04f23fc183823fa18f6
:104ad0004e23fb181b7811001800fff7bafa0300e9
:104ae000237092e07b68002b00d189e02c243b19d5
:104af00000221a603b1900225a603b1900221a72e8
:104b00007b68180015f020fe02004c217b181a80eb
:104b10007b181b88402b03d13b197a681a6009e087
:104b20002c217b187a685a604c23fb181b88dab258
:104b30007b181a724f23fc182c23fa183823f91803
:104b40004e23fb181b781800fff7c7fa03002370e9
:104b500056e07b68002b55d07b68bb64bb6c9a1c0d
:104b600024217b181a60bb6c5b78013bdab27b189e
:104b70001a71bb6c1a787b185a714f23fc187a187b
:104b80003823f9184e23fb181b781800fff796fa04
:104b90000300237036e07b68002b35d07b687b6494
:104ba00010243b1900221a605a609a60da601a6178
:104bb0007a6c3b195a607b6c15331a003b199a606a
:104bc0007b6c180015f0c0fd03009ab23b19da8126
:104bd0007b6c1533180015f0b7fd03009ab2210065
:104be0007b181a824f23fc187a183823f9184e23a1
:104bf000fb181b781800fff777fc0300237003e015
:104c0000c04602e0c04600e0c0464f23fb181b78b8
:104c10005bb21800bd4615b090bd80b584b004af3e
:104c2000002302930023019300230093002300221a
:104c30002b21012009f06cfe03001800bd4680bd49
:104c400090b589b004af786008243a197b681000e9
:104c5000190006231a0015f0dffd3a19002302930c
:104c6000002301930023009308230221012009f06f
:104c70004ffe03001800bd4605b090bd80b586b05c
:104c800004af78607b689a687b689a607b685a6832
:104c90007b685a607b681a687b681a607b681a694f
:104ca0007b681a617a680023029300230193002332
:104cb000009318230a21022009f02afe030018009d
:104cc000bd4602b080bd80b588b004af0200fb1db8
:104cd0001a70fb1d1b78002b01d00b2200e00c2268
:104ce0000f217b181a707b18197800230293002378
:104cf00001930023009300230022022009f008fe04
:104d000003001800bd4604b080bd80b586b004af76
:104d100078607a68002302930023019300230093b4
:104d200004233921012009f0f3fd03001800bd46da
:104d300002b080bd90b589b004af78600f203b18f9
:104d4000f4221a707b68002b17d07b681b78fa2b33
:104d500013d87b681b789bb2013399b23c187a68f0
:104d60000023029300230193002300930b008f2163
:104d7000012009f0cdfd030023700f23fb181b78e1
:104d80005bb21800bd4605b090bd90b589b004afc8
:104d900078600f243b19f4221a707b681800fef724
:104da000ccfe031e0ed13c197a6800230293002327
:104db00001930023009304231421012009f0a8fd8e
:104dc000030023700f23fb181b785bb21800bd464d
:104dd00005b090bd90b589b004af0200fb1d1a70fc
:104de0000f203b18f4221a7008217b1800221a6049
:104df000fb1d1b78012b13d87b18fa1d12781a7033
:104e00003c187a1800230293002301930023009397
:104e100004236b21012009f07bfd0300237003e0d4
:104e20000f23fb18f1221a700f23fb181b785bb2bb
:104e30001800bd4605b090bdb0b588b004af020003
:104e4000bb1d1a800f257b19f4221a7008217b18cc
:104e5000ba1d12881a807c197a1800230293002345
:104e600001930023009304231521012009f050fd34
:104e7000030023707b191b785bb21800bd4604b099
:104e8000b0bdb0b588b004af0200fb1d1a700f238f
:104e9000fb1800221a70214b1b78dbb2002b2ed19d
:104ea000fb1d1b78002b03d0fb1d1b780e2b03d999
:104eb000fb1d1b78ff2b1dd108217b18fa1d1278d2
:104ec0001a700f257c197a1800230293002301938e
:104ed0000023009304231021012009f019fd030091
:104ee00023707b191b785bb2002b0dd10b4b012279
:104ef0001a7009e00f23fb18f1221a7005e00f2346
:104f0000fb18f2221a7000e0c0460f23fb181b7832
:104f10005bb21800bd4604b0b0bdc046d819002031
:104f2000b0b588b004af0200fb1d1a703b1d0a1c0f
:104f30001a800f23fb1800221a70234b1b78dbb258
:104f4000002b32d1fb1d1b78002b03d0fb1d1b78df
:104f50000e2b03d9fb1d1b78ff2b21d108217b18b9
:104f6000fa1d12781a707b183a1d12885a800f2584
:104f70007c197a18002302930023019300230093e5
:104f800004232321012009f0c3fc030023707b19b3
:104f90001b785bb2002b0dd10b4b01221a7009e07c
:104fa0000f23fb18f1221a7005e00f23fb18f222e1
:104fb0001a7000e0c0460f23fb181b785bb2180084
:104fc000bd4604b0b0bdc046d8190020b0b58ab007
:104fd00004af02003960fb1d1a701723fb18f12281
:104fe0001a703c4b1b78dbb2002b64d1fb1d1b7885
:104ff000002b03d0fb1d1b780e2b03d9fb1d1b7848
:10500000ff2b5ed13b68002b5bd014217b18002264
:105010001a807b181b883a68d21813203b18127824
:105020001a703b181b78042b4bd87b181a887b18f6
:1050300001321a801ae014217b181b883a68d318b1
:105040001b78202b3cd87b181b883a68d3181b7818
:105050009ab27b181b88d3189ab27b1801321a8037
:1050600013217b181a787b18013a1a701323fb1846
:105070001b78002bdfd10c217b18fa1d12781a70d7
:1050800017257c197a18042302931423fb181b8814
:1050900001933b6800930423a121012009f038fc0f
:1050a000030023707b191b785bb2002b09d1094bdd
:1050b00001221a7005e01723fb18f2221a7000e093
:1050c000c0461723fb181b785bb21800bd4606b01c
:1050d000b0bdc046d819002080b58ab004af020028
:1050e0003960fb1d1a70134b00221a700c217b18bb
:1050f000fa1d12781a70fb1d1b78002b07d17b1844
:10510000012239689b180822180015f085fb0c2332
:10511000fa180023029300230193002300930c2329
:105120002f21012009f0f4fb03001800bd4606b052
:1051300080bdc046d819002090b587b004affb1dd4
:1051400000221a70fc1d0023029300230193002308
:105150000093002300223121012009f0d9fb030034
:105160002370fb1d1b785bb21800bd4603b090bdd9
:1051700080b584b000af0200fb1d1a700f217b18b0
:1051800000221a707b181b785bb21800bd4604b071
:1051900080bd80b584b000af0200fb1d1a700f21e6
:1051a0007b1800221a707b181b785bb21800bd4672
:1051b00004b080bd90b589b004af0200fb1d1a7029
:1051c0000f23fb1800221a70fb1d1b78012b07d040
:1051d000fb1d1b78062b03d0fb1d1b780b2b15d159
:1051e00008217b18fa1d12781a700f23fc187a1800
:1051f00000230293002301930023009304235b21e7
:10520000012009f085fb0300237003e00f23fb1846
:10521000f4221a700f23fb181b785bb21800bd46ee
:1052200005b090bd90b587b004affb1d00221a7089
:10523000fc1d00230293002301930023009300230d
:1052400000225c21012009f063fb03002370fb1d99
:105250001b785bb21800bd4603b090bd90b5a9b0f5
:1052600000af78600c243a197b681000190088237d
:105270001a0015f0d1fa7b68413319003b198822d6
:105280009b180422180015f0c7fa7b6841331900f7
:105290003b198c229b180422180015f0bdfa3b190b
:1052a0009022002199543b19180000f005f80300e2
:1052b0001800bd4629b090bd90b589b004af7860a4
:1052c0000f243b19f4221a707b681800fef7c2fb0a
:1052d000031e0ed13c1900230293942301937b6893
:1052e000009300230022c621012009f011fb0300d6
:1052f00023700f23fb181b785bb21800bd4605b066
:1053000090bd90b589b004af78600f217b18f4226e
:105310001a707b68002b0ed07c187a6800230293e9
:10532000002301930023009304232221012009f08c
:10533000effa030023700f23fb181b785bb21800f1
:10534000bd4605b090bd90b587b004affb1d0022ef
:105350001a70fc1d00230293002301930023009385
:10536000002300224721012009f0d2fa0300237014
:10537000fb1d1b785bb21800bd4603b090bd90b515
:1053800087b004affb1d00221a70fc1d002302939e
:105390000023019300230093002300220321012016
:1053a00009f0b6fa03002370fb1d1b785bb21800ee
:1053b000bd4603b090bd90b589b004af78600a00d7
:1053c000bb1c1a800f203b18ff221a707b68002b31
:1053d0001bd0bb1c1b88002b17d008217b18ba1cc4
:1053e00012881a807b180e225a803c187a181a23c9
:1053f0000293bb1c1b8801937b68009304239c21b0
:10540000012009f085fa030023700f23fb181b7895
:105410005bb21800bd4605b090bdb0b584b000af1a
:10542000786039600f257b1900221a707c1909f009
:105430007ff9030023707b191b785bb2002b12d11c
:105440007c193a687b681100180009f039f80300ec
:1054500023707b191b785bb2002b04d17c1909f0f7
:10546000cbf9030023700f23fb181b785bb21800e5
:10547000bd4604b0b0bdb0b584b000af78600f25b4
:105480007b1900221a707c1909f052f9030023706d
:105490007b191b785bb2002b10d17c197b6818003c
:1054a00009f07ef8030023707b191b785bb2002b98
:1054b00004d17c1909f0a0f9030023700f23fb1815
:1054c0001b785bb21800bd4604b0b0bdb0b588b063
:1054d00004af0200fb1d1a700f257b1900221a7001
:1054e00008217b18fa1d12781a707c197a1800238b
:1054f000029300230193002300930423122101202f
:1055000009f006fa030023707b191b785bb21800c0
:10551000bd4604b0b0bd80b500af034b1b78dbb215
:105520001800bd4680bdc046d019002080b500af30
:1055300009f044f903001800bd4680bdb0b588b03d
:1055400004af0200fb1d1a70bb1d0a1c1a700f2548
:105550007b1900221a7008217b18fa1d12781a7024
:105560007b18ba1d12785a707c197a18002302939e
:10557000002301930023009304232d21012009f02f
:10558000c7f903002370fb1d1b78180009f006f90a
:105590007b191b785bb21800bd4604b0b0bdf0b5f6
:1055a00089b004af78600f257b1900221a700e268f
:1055b000bc1909f003f903002370bb191b78042bf5
:1055c00011d17b68bb607c190823fa180023029371
:1055d000002301930023009304233a21012009f0c2
:1055e00097f9030023700f23fb181b785bb2180098
:1055f000bd4605b0f0bd90b593b004af78600a0029
:10560000fb1c1a70fb1c1b782f2b02d9fb1c3022b1
:105610001a70fb1c1a78fb1c01321a70fb1c1a78da
:10562000796808243b19180015f0f6f83a19002398
:1056300002930023019300230093302307210120cc
:1056400009f066f903001800bd460fb090bd90b593
:1056500091b004af786008001100fb1c021c1a70a6
:10566000bb1c0a1c1a70fb1c1b78202b02d90c23b4
:105670005b421ee0fb1c1a7879680c243b19180069
:1056800015f0caf8fb1c1b783a190021d1543b19bc
:10569000ba1c212112785a543a190023029300238c
:1056a00001930023009324232521012009f030f9e0
:1056b00003001800bd460db090bd80b500af08f0e6
:1056c000adfa03001800bd4680bdb0b584b000af90
:1056d00078600f257b1900221a707c1909f028f8d0
:1056e000030023707b191b785bb2002b08d17c1957
:1056f0007b6818000cf03afb0300237009f07cf87b
:105700000f23fb181b785bb21800bd4604b0b0bd78
:1057100090b5abb000aff860b960fb1d1a701424ef
:105720003a19fb681000190088231a0015f074f864
:10573000fb68413319003b1988229b18042218008a
:1057400015f06af8fb68413319003b198c229b184d
:105750000422180015f060f83b199022002199549a
:10576000fb1d1a78b9683b19180000f005f8030012
:105770001800bd462bb090bdb0b5c0b004aff86006
:10578000b960fb1d1a70ef257b19f4221a70fb68b3
:10579000002b40d0fb681800fef75cf9031e3dd1da
:1057a000fb6814243a191000190088231a0015f018
:1057b00033f8fb68883319003b19c9229b180c2267
:1057c000180015f029f8bb681b78002b25d0bb68a2
:1057d000002b22d03b198822b9689b184022180060
:1057e00015f01af820003b19fa1dc82112785a54f6
:1057f0000e4b00221a707c193a18002302930023e2
:10580000019300230093d8238821012009f080f818
:105810000300237002e0c04600e0c046ef23fb18ff
:105820001b785bb21800bd463cb0b0bdd819002053
:1058300080b584b004af00230293002301930023ba
:105840000093002300220a21012009f061f80300df
:105850001800bd4680bd80b584b004af002302931c
:10586000002301930023009300230022052101203f
:1058700009f04ef803001800bd4680bd80b586b023
:1058800004af78603a1d00230293002301930023a4
:10589000009308230b21012009f03af803001800b7
:1058a000bd4602b080bd80b584b004af0023029332
:1058b0000023019300230093002300221a210120da
:1058c00009f026f803001800bd4680bd80b588b0f9
:1058d00004af0200fb1d1a70fb1d1b78002b01d0ca
:1058e0000c2200e00d220f217b181a707b1819780a
:1058f000002302930023019300230093002300223e
:10590000012009f005f803001800bd4604b080bd71
:10591000b0b588b004af0200fb1d1a700f257b19cb
:1059200000221a7008217b18fa1d12781a707c194f
:105930007a18002302930023019300230093042389
:105940001621012008f0e4ff030023707b191b7867
:105950005bb21800bd4604b0b0bdb0b588b004afae
:105960000200fb1d1a700f257b1900221a700821f6
:105970007b18fa1d12781a707c197a18002302938a
:10598000002301930023009304231721012008f032
:10599000bfff030023707b191b785bb21800bd4664
:1059a00004b0b0bdb0b588b004af0200fb1d1a70e2
:1059b0000f257b1900221a7008217b18fa1d127816
:1059c0001a707c197a180023029300230193002394
:1059d000009304232621012008f09aff030023707e
:1059e0007b191b785bb21800bd4604b0b0bdb0b5e2
:1059f00088b004af0200fb1d1a700f257b1900222e
:105a00001a7008217b18fa1d12781a707c197a18fe
:105a10000023029300230193002300930423192100
:105a2000012008f075ff030023707b191b785bb21f
:105a30001800bd4604b0b0bdb0b588b004af0200d8
:105a4000bb1d1a800f257b1900221a7008217b18b4
:105a500000221a607b18ba1d12881a807c197a18e5
:105a600000230293002301930023009304231821b1
:105a7000012008f04dff030023707b191b785bb2f7
:105a80001800bd4604b0b0bd90b58bb004af7860cf
:105a90000a00bb1c1a8017203b18f4221a700c2134
:105aa0007b1800221a605a60bb1c1b88114a934263
:105ab00018d87b68002b15d07b18ba1c12889a80e6
