:020000040000fa
:10000000f07f002091e1000089ec00008dec000001
:1000100000000000000000000000000000000000e0
:1000200000000000000000000000000037be0000db
:10003000000000000000000037be000037be0000d6
:1000400037be000037be000037be000037be0000dc
:1000500075ce000037be00003d94000037be0000a2
:1000600037be000037be0000a5950000299b0000a8
:1000700037be000037be00005595000037be0000b7
:1000800037be000037be00006dcc0000f5c8000090
:1000900037be0000000000000000000037be000076
:1000a00037be000037be000037be000037be00007c
:020000040000fa
:1000b000f8b5c046f8bc08bc9e46704729e1000070
:1000c000f8b5c046f8bc08bc9e46704701e1000088
:020000040000fa
:1000d00048c8000001000000c0d00000010000007e
:020000040000fa
:1000e00070b582b06b469d1d2b0001224e2106008b
:1000f0000bf06efc6b46dc1d01224d21230030000d
:100100000bf066fc2a7821780020130703d4032320
:100110001340022b01d002b070bd0120c90841403c
:1001200001200840f7e7c046437802781b021343da
:100130005bba0b807047c04600b583b06b4607338f
:100140001970012276210bf087fc03b000bdc04678
:10015000f0b5d64646464f46c0b582b06b46dd1d6b
:100160000123012298462b7076212b0007000bf00b
:1001700073fc6b460400053301227a2138000bf032
:1001800027fc6b460443063301227c2138000bf028
:100190001ffc002304432b7001222b007621380022
:1001a0000bf05afc434601ae044333700122330086
:1001b000112138000bf050fc044306d0200002b09f
:1001c0001cbc90469946a246f0bdfa2080000bf078
:1001d00059f8434601222b7076212b0038000bf092
:1001e0003bfc6b468146053301227a2138000bf037
:1001f00033fc4b460343994601222b0076213800fd
:100200002c700bf029fc4b46034399460122330026
:100210002d2138000bf0dcfb4b461022034399469e
:10022000337892461a424ed038000bf099fb434681
:1002300001222b7076212b0038000bf00dfc4b4671
:10024000034399466b46012206337c2138000bf0ac
:1002500003fc4b4603439946012233007b213800bf
:100260000bf0b6fb4b4606220343994633787b21bd
:1002700093430222134333700122330038000bf002
:10028000ebfb4b460343994601222b0076213800b5
:100290002c700bf0e1fb4c463300044301224c214f
:1002a00038000bf095fb5246337804431a40130094
:1002b000064abb543b7e022b00d07fe7fb68380028
:1002c000984704437ae70c24644277e76808000003
:1002d00010b50b00012275210bf07afb10bdc04652
:1002e000f0b583b06b46dc1d23000f0001224d21c9
:1002f00006000bf06dfb23780500002f0bd10822c0
:1003000093432370012223004d2130000bf0a4fb06
:10031000284303b0f0bd08221343f2e7f0b5454689
:10032000de4657464e46e0b583b06b465e1d330051
:1003300001224e21040003270bf04afb337805000d
:1003400098461f40022f01d01b0755d50023994620
:1003500001ab9a4653460122522120000bf038fb94
:1003600053461a780f2313406c4a0543a25c52216e
:100370001343524620001370534601220bf06cfbce
:100380003300054301224e2120000bf021fb032204
:100390003378054393430222134333700122330021
:1003a0004e2120000bf058fb0543c8200af06affdd
:1003b000022f00d181e043461b0708d44b46c82bcf
:1003c00000d98ae000212000fff78aff0543544b43
:1003d000e358072b43d80022514be250002f03d1a2
:1003e000504be35c002b6fd1280003b03cbc90461f
:1003f0009946a246ab46f0bd06236b4499460122be
:10040000502120000bf0e4fa4b461a780f231340da
:10041000013b05430e2b54d8434a9b009b589946f9
:1004200008212000fff75cff434605431b0700d06f
:100430008ee73c4b01aae35c9246002b52d1072386
:100440006b449b4601224c2120000bf0c1fa5b4615
:100450001a7810231340354a0543a3547ae76b46b4
:100460009e1d50213300012220000bf0b1fa0f2312
:10047000994632780543134098460e3b591e8b41ee
:1004800049460d338a431343413101223370200022
:1004900033000bf0e1fa0543c8200af0f3fe4a46a8
:1004a0003378502193434246134333700122330083
:1004b00020000bf0d1fa05438de70022184be250e3
:1004c00092e71b4b9946abe70af0d8fe86231b0147
:1004d0009c4664442060616086e74846c8380af05c
:1004e000d1fe6fe713005f21012220000bf070faac
:1004f00053461a780323514613430b700d4b0543a3
:10050000e35c002b02d013231a430a7053460122e6
:100510005f2120000bf0a0fa054390e7720800006d
:100520006c0800006a080000b4e0000068080000e1
:1005300000c4090069080000f0b54746ce4680b502
:1005400083b06b469d1d2b0001224e2104000bf051
:100550003ffa052203262b786a4407001e40904686
:10056000022e4ed01b0738d04346012252212000d4
:100570000bf02efa43461a780f231340464a0743de
:10058000a25c5221134342462000137043460122cd
:100590000bf062fa2b00074301224e2120000bf0e2
:1005a00017fa03222b780743934313432b7001223e
:1005b0002b004e2120000bf04ffa0743c8200af011
:1005c00061fe002e03d1354be35c002b3bd138009c
:1005d00003b00cbc90469946f0bd304be35c002b59
:1005e0003ad107236b44994601224c2120000bf09d
:1005f000eff94b461a7810231340294a0743a354b6
:10060000b2e71b07b0d407236b4498460122502160
:1006100020000bf0ddf943461a780f231340013b0d
:1006200007430e2b34d81f4a9b009b58984608213d
:100630002000fff755fe074340460af023fe05233e
:100640006b44984690e70af019fe86231b019c46ee
:10065000644420606160bae713005f21012220003a
:100660000bf0b6f943461a780323414613430b7047
:100670000d4b0743e35c002b02d013231a430a708f
:10068000434601225f2120000bf0e6f90743a8e76b
:10069000064b9846cbe7c046740800006a08000085
:1006a00068080000b4e000006908000000c4090008
:1006b000f0b5ce4647466f4b80b5c418236883b06b
:1006c0000600013300d176e00af0d8fd22686368a5
:1006d000994252d9801a9941002900d1c2e06b4653
:1006e0009c1d230001224e2130000bf071f90c25d6
:1006f00003232278804615401340022b60d06b46be
:100700005f1d130741d03b000122522130000bf046
:100710005ff943460f22034398463b7852219343a7
:10072000554a3000b25c13433b7001223b000bf092
:1007300093f947462300074301224e2130000bf076
:1007400047f90c2223780743934313432370012274
:1007500023004e2130000bf07ff90743c8200af038
:1007600091fd002d03d1454bf35c002b51d1380096
:1007700003b00cbc90469946f0bd994245d0012487
:100780000025644200196941a4e73c4bf35c002b4f
:1007900047d1072301226b444c21300099460bf0ce
:1007a00017f94346034398464b461a7810231340e3
:1007b000334ab354a7e76368002b00d084e78ee781
:1007c0006b465f1d13079ed407236b449946012295
:1007d000502130000bf0fcf84b461a780f234746a7
:1007e0001340013b07430e2b39d8264a9b009b58e8
:1007f000994608213000fff773fd074348460af089
:1008000041fd6b46b8465f1d7de7904200d961e728
:10081000b5e70af033fd1c4b9c46664430607160be
:10082000a5e73b0001225f2130000bf0d1f84346e1
:100830000343984603233a7813433b70134bf35c0e
:10084000002b02d013231a433a703b0001225f2190
:1008500030000bf001f943460343984699e70c4bef
:100860009946c6e70b4b984200d938e70a277f42e2
:100870007de7c04678080000750800006a0800009f
:1008800068080000b4e00000580800006908000093
:1008900000c40900f049020070b582b06b46dc1d4f
:1008a00023000122542106000bf092f80222237843
:1008b0000500934313432370012223005421300089
:1008c0000bf0caf8284302b070bdc04670b582b0c4
:1008d0006b46dc1d23000122542106000bf078f842
:1008e00002222378050093432370013a2300542108
:1008f00030000bf0b1f8284302b070bdf0b583b002
:100900006b46dc1d23000e000122542107000bf072
:100910005ff808222378050093431e43073a23001b
:100920005421380026700bf097f8284303b0f0bd2f
:100930000023f0b5ce4647469946002380b583b0e4
:1009400001ad2b804b46ab706b46df1c04230c00c3
:100950003b7001223b00762180460bf07df82b0096
:10096000060003224f2140460bf032f84b46064367
:100970003b7001223b00762140460bf06df80123cd
:100980002a783043511119402170d11019406170fb
:10099000911052101a40e2706a781940a17011113a
:1009a000194021715110194061719110d2101a40f3
:1009b000e271aa781940a1715111194021721111e7
:1009c00019406172d11019401340a172637303b0d2
:1009d0000cbc90469946f0bd0023f0b5ce46474684
:1009e0009946002380b583b001ad2b804b460c00a7
:1009f000ab7002222b00652180460af0e9ff6b46ae
:100a0000df1c042306003b7001223b007621404698
:100a10000bf022f86b460643063301224d21404677
:100a20000af0d6ff4b4606433b7001223b0076217d
:100a300040460bf011f801232a78304391111940f8
:100a40002170d11019406170911052101a40e2705b
:100a50006a781940a170d110194021711900114014
:100a60006171511092101a40e271aa781940a17177
:100a7000511119402172111119406172d1101940a0
:100a8000a17251101940e172911019401340217365
:100a9000637303b00cbc90469946f0bd0023f0b5db
:100aa000ce4647469946002380b583b001ad2b80e2
:100ab0004b460c00ab7002222b00682180460af0e6
:100ac00087ff6b46df1c042306003b7001223b00be
:100ad000762140460af0c0ff6b46064306330122ea
:100ae0004e2140460af074ff4b4606433b700122fc
:100af0003b00762140460af0afff01232a783043bd
:100b0000911119402170d11019406170911052104b
:100b10001a40e2706a781940a170d1101940217111
:100b2000190011406171511092101a40e271aa78b7
:100b30001940a171511119402172111119406172ae
:100b4000d1101940a17251101940e1729110194051
:100b500013402173637303b00cbc90469946f0bdfb
:100b6000f0b5c646002300b582b001ad2b80ab7056
:100b70006b46de1c04230c00337001223300762107
:100b800080460af069ff2b00070003224f214046f0
:100b90000af01eff2e222b780743934322785bb284
:100ba000002a01d0202213436278002a01d00822b3
:100bb0001343a278002a01d004221343e278002aca
:100bc00001d0022213431e222b706b7893432279ab
:100bd0005bb2002a01d0102213436279002a01d0af
:100be00002221343a279002a01d004221343e2799e
:100bf000002a01d0082213436b703923217aa87888
:100c00004a1e9141627a9843531e9a4113019c46b1
:100c1000a37a647b5a1e9341621e9441624640b29d
:100c20002043490101430a43db001343ab70032215
:100c30002b004f2140460af00fff0023074333707b
:100c400001223300762140460af006ff384302b005
:100c500004bc9046f0bdc046f0b5d6464f46464669
:100c60000023c0b582b001ae0c003380b370022205
:100c70003300652180460af0abfe6b46df1c04237f
:100c800005003b7001223b00762140460af0e4fe5d
:100c90006b460543063301224d2140460af098fe7b
:100ca0004e2233780543934322785bb2002a01d069
:100cb000402213436278002a01d008221343a2780d
:100cc000002a01d004221343e278002a01d0022234
:100cd000134333700f2372789a43237952b2591e0b
:100ce0008b416179db00481e81410a431343a2799d
:100cf000002a01d002221343e279002a01d0042203
:100d0000134373703f23b078984343b2207a9946d7
:100d1000411e88414301607a9c46411e8841a17a68
:100d200000014a1e9141e27ac900531e9a415300c4
:100d30009a46237b647b5a1e9341621e94414a4625
:100d40001443624614435246204301430a439b0026
:100d50001343b3706b46012206334d2140460af01f
:100d60007bfe002305433b7001223b007621404679
:100d70000af072fe330005430222652140460af064
:100d80006bfe284302b01cbc90469946a246f0bdbb
:100d9000f0b5d6464f4646460023c0b582b001aef8
:100da0000c003380b37002223300682180460af0c1
:100db0000ffe6b46df1c042305003b7001223b0045
:100dc000762140460af048fe6b4605430633012271
:100dd0004e2140460af0fcfd4e22337805439343f2
:100de00022785bb2002a01d0402213436278002aa5
:100df00001d008221343a278002a01d00422134311
:100e0000e278002a01d00222134333700f23727854
:100e10009a43237952b2591e8b416179db00481ef7
:100e200081410a431343a279002a01d002221343cd
:100e3000e279002a01d00422134373703f23b07873
:100e4000984343b2207a9946411e88414301607a13
:100e50009c46411e8841a17a00014a1e9141e27ad6
:100e6000c900531e9a4153009a46237b647b5a1e45
:100e70009341621e94414a461443624614435246cb
:100e8000204301430a439b001343b3706b46012286
:100e900006334e2140460af0dffd002305433b7038
:100ea00001223b00762140460af0d6fd330005437f
:100eb0000222682140460af0cffd284302b01cbc44
:100ec00090469946a246f0bd70b58eb06b460122a1
:100ed00006332d2105000af07bfd041e03d16b466d
:100ee0009b791b0702d420000eb070bd02ab02221a
:100ef0001d2128000af06cfd3f4b0400eb5c102b19
:100f000040d06a46128907ab5a8203ab06221f21e2
:100f100028000af05dfd384e0443ab5d102b4cd029
:100f20006a46928907abda806a46d2891a816a4694
:100f3000128a5a8105ab0622252128000af048fdb5
:100f40002d4e0443ab5d102b22d06a46928a07ab2c
:100f50009a816a46d28ada816a46128b1a826b6a51
:100f6000002b01d007a8984702232a7e9a43bad1c2
:100f70006b4607331a707521013228000af06cfda8
:100f80000443b0e72e2102a86944fff7cdf8bce77f
:100f90000aa905a8fff7c8f8ab5d102b23d12a21b9
:100fa000162069446844fff7bff8ab5d102b20d1d1
:100fb0000ba906a8fff7b8f8d1e7222103a86944d6
:100fc000fff7b2f8ab5d102b11d10e2009a96844d0
:100fd000fff7aaf8ab5d102b07d1262104a86944be
:100fe000fff7a2f8a6e707abb3e707ab9fe707abae
:100ff0009ae707abb0e7c0466808000001380e2842
:1010000003d8034b8000c05870470248fce7c04635
:10101000b4e0000000c40900f0b5c64600b582b0d7
:101020006b46dc1d230001220f004e2105000af053
:10103000cffc0323227880461340022b1fd0114b94
:10104000eb5801330f4a5021ab506b469e1d3300c5
:10105000012228000af0bcfc0f22337804009343dd
:101060001f430e3a33005021280037700af0f4fc79
:1010700043462043184302b004bc9046f0bd002311
:10108000e0e7c0466c080000f0b583b06b46dc1d9d
:1010900023000e0001224f2107000af099fc0f22c5
:1010a0002378050093431e430e3a23004f21380056
:1010b00026700af0d1fc284303b0f0bdf0b583b030
:1010c0006b46dc1d23000e000122502107000af0b0
:1010d0007ffc1f232278050013401e4301222300ba
:1010e0005021380026700af0b7fc284303b0f0bd49
:1010f000f0b583b06b46dc1d23000e0001224f21aa
:1011000007000af065fc1f232278050013401e43e8
:10111000012223004f21380026700af09dfc28434d
:1011200003b0f0bd30b50d4b83b0c35c0d00002b98
:1011300003d00b4bc35c012b0cd06b46dc1d230092
:10114000012250210af044fc1f22237893432b7084
:1011500003b030bd002300200b70f9e769080000e0
:101160006a08000030b50d4b83b0c35c0d00002b46
:1011700003d00b4bc35c012b0cd06b46dc1d230052
:1011800001224f210af024fc1f22237893432b7065
:1011900003b030bd002300200b70f9e769080000a0
:1011a0006a080000f0b5c64600b582b06b46dc1d8b
:1011b0000e0023000122522105000af009fc0f272e
:1011c0008046237801223b40334323705221230081
:1011d00028000af041fc43460343181e02d1034b8a
:1011e000be43ee5402b004bc9046f0bd720800004d
:1011f000f0b5c64600b582b06b46dc1d0e0023007c
:101200000122522105000af0e3fb0f2780462378d4
:1012100001223b40334323705221230028000af06f
:101220001bfc43460343181e02d1034bbe43ee543e
:1012300002b004bc9046f0bd74080000f0b5c6468c
:1012400000b582b06b46dc1d0f0023000122522145
:1012500005000af0bdfb0f26804623780122b34328
:101260003b4323705221230028000af0f5fb43463c
:101270000343181e02d1034b3e40ee5402b004bc9f
:101280009046f0bd75080000f0b5c64600b582b0c6
:101290006b46dd1d01222b004e2106000af098fb53
:1012a0002a780700130703d003231340022b28d109
:1012b0006b4601220633162130000af089fb052314
:1012c0006b4498460023424604001370162143469f
:1012d000012230000af0c0fb6b46044306330122b2
:1012e000162130000af0b8fb3c4304434346012278
:1012f000752130000af06cfb204302b004bc90461c
:10130000f0bd6b46022205331a704b21013a3000c2
:101310000af0a2fb3843f0e7f0b583b06b469d1da1
:101320002b0001224e2104000af052fb0c222b78e4
:101330001a421bd1224e093a9343a25d002a17d0cc
:101340000121204a2b70a1542b0001224d31200095
:101350000af082fb002105002000fef7c1ffa35d1b
:101360000543002b12d1280003b0f0bd03229343a4
:101370002b7001222b004e2120000af06dfb002172
:1013800005002000fef7acff0543ece76b46df1dd0
:101390003b0001225f2120000af01afb13223b7858
:1013a000060093433b70123a3b005f2120000af095
:1013b00053fb06432000fff767ff35430543d2e7a1
:1013c0006a0800006b080000f0b583b06b469d1df5
:1013d0002b0001224e2104000af0fafa03232a7896
:1013e0000600134034d1404f0c339a43e35d002b89
:1013f00032d001213d4b2a70e15401222b004d31a6
:1014000020000af029fb3043050009f037ff384b74
:10141000e31818605960e35d002b2dd06b46df1d8b
:101420003b0001225f2120000af0d2fa13223b7810
:10143000060093433b70123a3b005f2120000af004
:101440000bfb304305432000fff71eff054313e06d
:10145000022b14d00c239a432b002a704e21012218
:1014600020000af0f9fa3043050009f007ff204b8d
:101470009c46644420606160280003b0f0bd0821f0
:101480002000fef72dff0c2207002b784e219343fe
:101490002b700b3a2b0020000af0defa3d000543ca
:1014a00009f0ecfe124b0122e318186059606b46fc
:1014b000df1d3b00502120000af08afa0f233a7802
:1014c00035431340013b05430e2b0bd8094a9b00c3
:1014d0009858400009f0d6fe00212000fef700ffda
:1014e0000543c9e70448f5e76a0800006b080000f7
:1014f00078080000b4e0000000881300f0b5de4674
:10150000574645464e46e0b58fb004aa9446072399
:1015100063449a4600235246137063460122063301
:101520002d2104000af054fa051e04d1062204ab52
:101530009b791a4207d128000fb03cbc90469946cf
:10154000a246ab46f0bd06ab043a2e2120000af0bd
:101550003ffa002800d054e104ab1b890093002b14
:10156000e9d0d94be35c002b00d04ce11023984626
:101570009946237e022b00d096e1009b27004d4622
:101580000026994644373b002a00302120000af00b
:101590001ffa002800d0c6e10136b6b247444e45d6
:1015a000f1d10023002507ae1f0017e1911c1000a8
:1015b000029144318b46111d039144316118019110
:1015c000c24944308846615c2018a344102900d1e8
:1015d00031e1a21840784432127800020243f280ce
:1015e0005a465178029a0902a218443212780a43e4
:1015f0003281019a5178039a0902a2184432127872
:101600000a4372810735adb29a062cd5aa1c443222
:10161000a21801922a1d2800029244329046ab4a39
:1016200044309346a25c2018a044102a00d120e147
:10163000621941784432127809020a43b281019a50
:101640005178aa1ca2184432127809020a43f28186
:10165000424651782a1da2184432127809020a43e0
:1016600032820635adb260221a421dd0503a1a427b
:1016700000d1cce02800954a4430a25c2018102a02
:1016800000d12be1621941784432127809020a43f1
:1016900072828f4a1220315e0235adb2914203d080
:1016a000102231680a4332600c221a421dd02800f1
:1016b000864a4430a25c2018102a00d1b5e0621995
:1016c00041784432127809020a43b280042202357a
:1016d000adb21a4206d07f49615c002902d131685f
:1016e0000a43326000217b4aa15410221a409346db
:1016f00059062ad576490622b05e884225d00822ae
:10170000b05e884221d00a22b05e88421dd05a467f
:10171000002a0ed0611908004430007800093075a5
:1017200008004631453000780978000909097075cc
:10173000b175862212019046a044424612680132d9
:1017400000d1dce05a0700d40ee199062cd560499f
:101750000c22b05e884227d00e22b05e884223d091
:101760001022b05e88421fd05a46002a11d060195c
:10177000010044310a780f210a40f275452294464f
:1017800084446246127846300a403276007801403e
:101790007176514a9046a04442461268013200d107
:1017a000b7e05b0700d4c3e05b46002b01d00335f4
:1017b000adb2636a002b01d0300098470222237e2d
:1017c000934305d15346013a752120000af044f9ac
:1017d0000137009bbfb2bb4200d188e000233360d9
:1017e0002b0044339946a1444b461b786a1c59b2de
:1017f00092b2002900da7ce0590600d5d6e6150041
:1018000002e7050097e6142398469946b1e6611968
:1018100044310978013549b27182adb2803100d1cd
:1018200042e731680a4332603ee708a9fef77cfcd4
:101830004b461b784ae704ab9c4602316144fef7f5
:1018400073fc4346e35c102b00d0ace009a958467a
:10185000fef76afc4346e35c102b00d0a0e004ab2b
:101860009c46162101986144fef75efc4b461b78ae
:10187000c8e60aa9fef758fc5b46e35c102b00d0d3
:1018800097e004ab9c461a2101986144fef74cfc9a
:101890005b46e35c102b00d088e00ba94046fef7c6
:1018a00043fc4b461b78dce64246009b30215a4302
:1018b0002300200044330af08bf8051e00d170e6a7
:1018c0002000fff7e1fc36e6690800006808000028
:1018d0000080ffff6b0800005808000004ab9c4626
:1018e0001e216144fef720fc4b461b78d1e61d000b
:1018f00021e601252000fff7c7fc6d421be64246aa
:101900005268002a00d01de701213268114331607e
:101910001be742465268002a00d042e702233268a1
:101920001343336040e705002000fff7adfc02e6fb
:1019300009f0a4fc43461a685b68801a99410029a3
:1019400002d11d4b984209d901220023414652423f
:101950000a604b6002233268134333604b46102207
:101960001b781a4093461fe709f088fc43461a6823
:101970005b68801a9941002902d1104b984209d91d
:1019800001220023414652420a604b600123326823
:10199000134333604b4610221b781a409346d4e61b
:1019a0004b461b7825e64b461b7819e64b461b78c1
:1019b0004ee64b461b7842e65fea00001f4e0000f1
:1019c000f0b5134e83b0835d04000025002b05d0d5
:1019d00028000f4a0133a35403b0f0bd6b46df1d4e
:1019e0003b000122542109f0f3ff10223b7805004f
:1019f000934313433b7001223b00542120000af023
:101a00002bf80543c82009f03dfca35de0e7c04684
:101a100054080000f0b5114e0400835d83b000202f
:101a2000002b04d00d4a013ba35403b0f0bd6b461c
:101a3000df1d3b0001225421200009f0c9ff1022c4
:101a40003b78050093433b700f3a3b005421200044
:101a50000af002f8a35d2843e4e7c04654080000fa
:101a6000f0b5c646042300b582b001ad0e002b7060
:101a700001222b004b21804609f0eeff6b46df1c54
:101a8000012304003b7001223b007621404609f00f
:101a9000e3ff2b00044303226221404609f098ff34
:101aa000002304433b7001223b007621404609f0ad
:101ab000d3fff0216b782a781b029b18aa780903c0
:101ac00012040a409b182043336002b004bc9046c5
:101ad000f0bdc046f0b5c64600b582b005006b4605
:101ae000002946d0df1d012301223b7076213b00f7
:101af00009f0b2ff6b469e1d0400330001227b21da
:101b0000280009f065ff062233780443934304223a
:101b10009046424613433370012233007b21280054
:101b200009f09aff002304433b7001223b00762119
:101b3000280009f091ff3300044301224d212800c1
:101b400009f046ff0422337804439343424613438b
:101b50003370012233004d21280009f07dff082158
:101b600004432800fef7cafe204302b004bc90469e
:101b7000f0bd9e1d330001224d2109f029ff0422f2
:101b80003378040093433370033a33004d21280027
:101b900009f062ff2043e8e710b582b06b46dc1d18
:101ba000230001224d2109f013ff20784007c00fc8
:101bb00002b010bd0122024bc25400207047c04643
:101bc000690800000022024bc25400207047c04642
:101bd00069080000f0b5c646002200b586b00023b3
:101be00090466a460293039304939382484b050000
:101bf0000f1ec15460d001295bd1d61d33000122d4
:101c00004c2109f0e5fe2022337804009343402262
:101c100013433370012233004c21280009f01cffcc
:101c2000802304433370012233001621280009f079
:101c300013ff3300044301225421280009f0c8fe99
:101c400001223378044313433370012233005421bb
:101c5000280009f001ff3300044301225f2128001e
:101c600009f0b6fe03223378044393432c22134336
:101c70003370012233005f21280009f0edfe3300ac
:101c80000122044360212800377009f0e5fe02a913
:101c900004432800fef7a0fe6b464246044302a917
:101ca00028005a72fef7d8ff204306b004bc9046c5
:101cb000f0bd01204042f8e74346d61d33700122b3
:101cc0003300162109f0c8fe3300040001225f2111
:101cd000280009f07dfe03223378044393430c224d
:101ce00013433370012233005f21280009f0b4fe52
:101cf00002a904432800fef76ffe01236a4604434d
:101d000002a928005372fef7a7ff2043cde7c04683
:101d10006a080000f0b5de46454657464e46e0b537
:101d200017008822040089b012010d0000210cf078
:101d30002fff230007cd07c307cd07c32a68e74855
:101d40001a6009f09ffa04ab9846012342467621b7
:101d5000137020004346012209f07efe237e060018
:101d6000012b1ad0002b00d1e3e1022b00d1c5e1f9
:101d7000002342467621137020004346012209f0d9
:101d80006bfe30430b2676420643300009b03cbc64
:101d900090469946a246ab46f0bd03ab9946022356
:101da0004a467a21137020004b46012209f054fe66
:101db0000643002342467621137020004346012249
:101dc00009f04afe0643e0d14246c54b67623c3308
:101dd00023cb23c21b8820001380fef7b9f902af82
:101de0003b00050001224f21200009f0f1fd0543d1
:101df000ab4609256d442b0001225021200009f03b
:101e0000e7fd5b4603439b461f233a784f211a4068
:101e10003a702a7820001340402213432b7001228d
:101e20003b0009f019fe5f462b00074301225021b9
:101e3000200009f011fe6b46dd1d2b000743012237
:101e4000162120002e7009f007fe2b000743012207
:101e50006221200009f0bcfd70222b7807439343d8
:101e60002b706f3a2b006221200009f0f5fd07432b
:101e7000bb460a276f443b0001225421200009f091
:101e8000a7fd5b46022203439b463b789246934361
:101e90003b70013a3b005421200009f0ddfd5f4614
:101ea000082107432000fef729fd012107432000f8
:101eb000fff790fe2b00074301221421200009f0b8
:101ec00087fd03222b78074313432b7001222b003d
:101ed0001421200009f0c0fd414607432000fef711
:101ee000bbfe4246012341460743200053709670d3
:101ef000fef736fe2b00074301226421200009f083
:101f000067fd10222b78074393432b700f3a2b0069
:101f10006421200009f0a0fd2b000743012251217c
:101f2000200009f055fd0c222b78904693430422a3
:101f300013432b7007432b0001225121200009f08d
:101f40008bfd2b00074301225321200009f040fda7
:101f500018222b7807439343082213432b70012246
:101f60002b005321200009f077fd5e4b4a46e654d2
:101f700004230743137076214b460122200009f009
:101f80006bfd4a46584b074313800d234a2193703b
:101f900020004b46032209f05ffd0743b9460b279b
:101fa0006f443b000122762120003e7009f054fd71
:101fb0004b4603439946434601222b7057212b0081
:101fc000200009f049fd4b46882203439846474bc1
:101fd0005200e25260239b465a46454b7621e2541a
:101fe000032326643b705f3a3b00200009f034fd78
:101ff00043460343984601222b002e21200009f07e
:10200000e7fc43465246034398462b782e219343e0
:102010002b70013a2b00200009f01efd43460343bc
:10202000984601222b003221200009f0d1fc4346c2
:102030005a46034398462b78322193432b705f3adc
:102040002b00200009f008fd434603439846012277
:102050002b003721200009f0bbfc43465a460343be
:1020600098462b78372193432b705f3a2b00200042
:1020700009f0f2fc43460343984601222b003c2121
:10208000200009f0a5fc43465a46034398462b78a6
:102090003c2193432b705f3a2b00200009f0dcfcbd
:1020a00045463b0005430122762120003e7009f0a1
:1020b000d3fc104b0122e118002352420a604b600e
:1020c0008621090161180a604b600b4905438c4663
:1020d00064442e002260636057e6c046b80b0000df
:1020e000b4e00000690800000d0d00007408000055
:1020f00072080000580800007808000003ab9946f9
:1021000001227c21200009f063fc4b460c221b7845
:10211000050013434a467c21137020004b460122e0
:1021200009f09afc28430643e368200098470643d9
:102130003fe603ab994601227c21200009f048fcd0
:102140004b4603221b78050093434a467c211370bb
:1021500020004b46012209f07ffc2843064328e675
:10216000f0b5de46454657464e46e0b591b002aa68
:102170000623944663441980090b9b460b03804653
:10218000029366d104af3900fef726fc08ae0400c6
:1021900031004046fef782fc0cad04432900404666
:1021a000fef7c6fbbb7804439a46b378524699467d
:1021b000ab7801934b46012a39d0012b41d0ab7843
:1021c000012b2cd05b4602226021404609f044fce2
:1021d000bb780443534506d0534639004046bb7094
:1021e000fef73afd0443b3784b4506d04b46310029
:1021f0004046b370fef7ccfd0443ab78019a93429e
:1022000005d029004046aa70fef7aafc044320002e
:1022100011b03cbc90469946a246ab46f0bd0023a7
:1022200029004046ab70fef79bfc0443cae7029bc3
:1022300039004046bb70fef70ffdb3780443012b15
:10224000bdd1002331004046b370fef7a1fd044329
:10225000b5e70b246442dae770b582b06b46012221
:1022600006335421050009f0b3fb002830db6b4630
:1022700008269b7928001e40fdf732ff002812d067
:1022800080246404002e0bd06b46de1d3300012237
:102290004d21280009f09cfb337824015b071ad4f8
:1022a000200002b070bd6b46dc1d230001224d21d1
:1022b000280009f08dfb237804241c4063425c4114
:1022c000064b64421c4080235b049c466444d9e76f
:1022d00001246442e4e7024ce2e7c0461111110018
:1022e0000080841e30b583b06b46dc1d23000122c4
:1022f0004d21050009f06cfb23785b0702d50748e8
:1023000003b030bd2800fdf7ebfe431e9841044b9f
:1023100040421840034b9c466044f1e70080841e15
:10232000efeeeeff111111010048704798ec00002c
:020000040000fa
:10233000002820d00378002b1dd02123c35c013b53
:102340000d2b18d84123c35c002b0cd03f23c35c5a
:10235000012b13d0022b0ed12133c35c0020083b8c
:10236000382b0dd870474233c35c002beed143337a
:10237000c35c002bead10c204042f3e70020f1e7d8
:102380000c38efe7f0b514009bb02c2862d01b2866
:1023900000d16fe0062800d17ce00e2858d032280a
:1023a00000d187e03d2800d194e02f2800d1a1e0a2
:1023b000342800d1c5e0112800d1d4e0132800d181
:1023c000e7e0042800d1f6e0652800d105e10928fe
:1023d00000d1a4e02a2800d111e1272800d120e172
:1023e000202800d12fe11d2832d100230422694684
:1023f000200005f0e3fe00282ad16b46a04e5f883e
:102400001a88b36801ad6a80002b21d0f368002bd5
:102410001ed0338a002b1bd00de02b886a88df1971
:10242000d21a6a80f1682a001d30b36898476a881a
:10243000bfb2002a0cd0318a0123914201d20a0096
:1024400000233819f1682a8005f0b8fe0028e4d08e
:102450001bb0f0bd0023042201a9200005f0aefe50
:102460000028f5d1864b1b68002bf1d001a92c3038
:102470009847ede70023082201a9200005f09efe01
:102480000028e5d17e4b1b68002be1d001a91b3051
:102490009847dde70123302201a9200005f08efed8
:1024a0000028d5d1764b1b68002bd1d001a906306e
:1024b0009847cde70023182201a9200005f07efef1
:1024c0000028c5d16e4b1b68002bc1d001a932304a
:1024d0009847bde7012300220021200005f06efe91
:1024e0000028b5d1664b1b68002bb1d000213d30d0
:1024f0009847ade76422002101a80cf049fb0023b6
:10250000642201a9200005f059fe0028a0d15c4bef
:102510001b68002b9cd001a92f30984798e7012316
:10252000642201a9200005f049fe002800d08fe7b1
:10253000534b1b68002b00d18ae701a9093098474b
:1025400086e70023042201a9200005f037fe0028b9
:1025500000d07de74a4b1b68002b00d178e70021b3
:102560003430984774e70023454e01ad042229001a
:102570002000337105f022fe002800d068e72b7898
:1025800073713368002b00d162e72900113098473e
:102590005ee700232c2201a9200005f00ffe002891
:1025a00000d055e7364b1b68002b00d150e701a93e
:1025b000133098474ce70023042201a9200005f0be
:1025c000fdfd002800d043e72d4b1b68002b00d1f8
:1025d0003ee701a9043098473ae70023042201a905
:1025e000200005f0ebfd002800d031e7244b1b68ec
:1025f000002b00d12ce701a96530984728e701237b
:10260000042201a9200005f0d9fd002800d01fe711
:102610001b4b1b68002b00d11ae701a92a309847f1
:1026200016e70023042201a9200005f0c7fd0028b9
:1026300000d00de7124b1b68002b00d108e701a961
:102640002730984704e70023082201a9200005f05d
:10265000b5fd002800d0fbe66b4620001a89083043
:102660000123019905f0aafd002800d0f0e6044bf3
:102670001b68002b00d1ebe601a920309847e7e664
:10268000d0190020f0b5c6462c3200b580460f00a8
:102690001d00069c96b2002b14d05b68002b11d055
:1026a0002b7a202b0ed8002c3ad0a01c2e220021f1
:1026b0000cf06efa43462680012b2fd0002b0dd054
:1026c000022b05d00f256d42280004bc9046f0bdba
:1026d0000222a378134301221343a3706b7aff2bca
:1026e00003d0013bdbb20d2becd8e3707b1e032b38
:1026f000e8d82c23e7542a7a601d227169680cf00f
:102700003dfa296800250029ded02523012220007a
:10271000e254263005320cf031fad5e7a378dae737
:102720000c256d42d0e7c04610b508f0b9f8041e7c
:1027300004d104f02bf90122014b9a74200010bd42
:10274000d0190020002300b585b00293ab239b0075
:1027500001930090002300228321052005f07efbd9
:1027600005b000bd10b508f0b5f8002802d101226f
:10277000014b9a7410bdc046d019002070b58cb0c2
:1027800001236a46d37100282fd0194c03682360b7
:102790008368a360c368e360038a2382837c002b81
:1027a0000bd1002323716b46d81d08f09ff805005c
:1027b000061e05d028000cb070bd0423d371f0e7cd
:1027c00002230020a37405f01ffb051e04d0002087
:1027d000a67408f0bdf8ede70649012005f018fde4
:1027e00002a807f0a7ff0500e4e70c256d42e1e72a
:1027f000d01900208523000010b5040008f06af805
:10280000002805d10122034b20009a74fff7b6ff80
:1028100010bdc046d0190020002210b5044b002086
:102820009a7405f007fb002008f092f8002010bd14
:10283000d019002010b505f021fc10bd10b58eb0e8
:1028400005ac2422002120000cf0a2f9ff23237004
:1028500000232200029301930093272124330120b7
:1028600005f0fcfa0eb010bd002300b585b0029350
:102870000193009300222921012005f0effa05b011
:1028800000bdc04610b590b004ac0b00009400220f
:102890000121fff7f7fe002801d010b010bd029013
:1028a00001900090302322003b21013005f0d6fa40
:1028b000f3e7c046102040427047c046f0b5454699
:1028c000de4657464e46e0b5150091b0002a00d1cd
:1028d00080e004ae0b0000966c220221fff7d2fece
:1028e000041e07d0200011b03cbc90469946a24679
:1028f000ab46f0bd01216c200cf0adf8071e0bd0eb
:102900002c686968002c0ad000291ed00f2464426c
:1029100038000bf04ffde5e703246442e2e70029ad
:10292000f4d02a7a402af1d8027001300cf026f94e
:10293000302302933c33019300973c3b3200bb2190
:10294000012005f08bfa0400e2e740230370431cea
:102950009b4621239c462023220059469a468444c4
:102960001378303bdbb2092b0ad955462b4331256e
:102970006d42a84698444546052dc7d8273bdbb293
:102980001b01dbb20b705578a84630256d42a94675
:10299000c8444546edb2a846092d0fd945465046d4
:1029a0000543a84631256d424544052daed827255f
:1029b0006d42a946c8444546edb2a84643440b7053
:1029c000013102328c45cbd13a78210058460cf0c7
:1029d000d5f8ade70f24644284e7c04610b500295e
:1029e0001ad001284ad000281dd0022829d0032857
:1029f00016d1012a14d10b78012b57d0002b5cd0b3
:102a0000022b0dd108232e4a0020116899430b0098
:102a100004210b43136005e0002a01d1022820d0d5
:102a20000f20404210bd042afad10b68002b33d08e
:102a3000012bf5d1224a013311680020994311601e
:102a4000f0e7002a0dd0142aead140231c4a10686e
:102a500003431c481360143014220cf08ff800203c
:102a6000e0e74023164908689843086015490020ac
:102a70004a618a61ca610a624a62d3e7042acfd1f5
:102a80000b68002b0fd0012bcad10d4a0f331168f0
:102a900000200b431360c5e70223094a0020116898
:102aa0000b431360bee7064a1023c5e70c23044a14
:102ab000002011680b431360b4e7014a0c23bbe705
:102ac0006c1b0020d019002010b50b1e16d0012859
:102ad00017d0002821d002282cd003280ed111684d
:102ae00000290bd0012010601f4a116804220a40ff
:102af00033d00a0730d51870002001e00f20404283
:102b000010bd11680329f9d904211160164a126811
:102b10001209104018600020f2e711680329edd96e
:102b200004211160104a00201168012249088a43db
:102b30001a60e5e740200c490968014010d011688f
:102b40001329dbd91421116008491422143118000b
:102b50000cf014f80020d3e702221a700020cfe70f
:102b600011600020cce7c0466c1b0020d01900206b
:102b7000f0b5d6464f464646c0b5140090b0002a80
:102b800000d17fe01268002a00d176e06368002b54
:102b900000d177e0a368002b00d173e0a589e2891a
:102ba000ad18642d00d96de08023228a5b009a4223
:102bb00068d82c35551904abadb2009398462a005d
:102bc0000b000421fff75efd061e06d0300010b09a
:102bd0001cbc90469946a246f0bd012128000bf08e
:102be0003aff071e4bd0012306000370a37c2c364e
:102bf000b246002b01d081230370e37c002b03d06d
:102c000040223b7813433b702c233a00fb701f4b50
:102c10000c321b68d1467b621d4b143343cb43c23d
:102c200003cb03c2002321687b70002907d0237bdc
:102c3000504699461a007b700bf0a0ffd144a27b4e
:102c400061684846ba700bf099ff5346b878228afb
:102c50004844c61aa168be80fa800bf08fff30236b
:102c60000195029300974246bb21012005f0f6f83a
:102c7000060038000bf09efba8e7a28186e703263a
:102c80007642a3e70f267642a0e7c0466c1b0020e1
:102c9000d0190020f0b5de4657464e464546e0b511
:102ca000140093b0002a00d1afe01368002b37d096
:102cb0006368002b00d1a8e0a368002b00d1a4e03a
:102cc000e368002b00d1a0e02369002b00d19ce039
:102cd000a68ae28ab618642e00d996e08023278b54
:102ce0005b009f4200d990e0c623628bdb009a42d2
:102cf00000d98ae02c3692197d005519adb206ae86
:102d00000b0000962a000421fff7bcfc071e09d027
:102d1000380013b03cbc90469946a246ab46f0bd85
:102d20009382c5e7638b0121ed1a9946abb2180077
:102d30009a460bf090fe051e64d002230497059777
:102d400007000370237f2c37bb46002b01d0822362
:102d50000370637f002b03d040222b7813432b702a
:102d60002c232a00eb70314b0c321b68d8466b6267
:102d70002f4b143383cb83c203cb03c200232168c0
:102d80006b70002907d0237d584698466b701a0057
:102d90000bf0f4fed844a27d6168aa7040460bf0a7
:102da000edfeab785a46984443469b1aab80228b83
:102db000a168ea8040460bf0e1feea88e1689044b1
:102dc00040460bf0dbfe5a46eb88694643449b1aab
:102dd0004a466a8101229bb20a748b822b814a4641
:102de0000823ca82029323690192009304aa08234c
:102df000bc21012005f032f8071e09d028000bf095
:102e0000d9fa85e703277f4282e70f277f427fe7d2
:102e10003023029353460095019332003023bb21a7
:102e2000012005f01bf80700e8e7c0466c1b0020f6
:102e3000d0190020f0b5002689b000966e461c001f
:102e40000eab1d880fab1b7875725d426b41019014
:102e500031725d00202912d80f0000260139c9b255
:102e6000ff2908d0435c002bf8d10f000139c9b20b
:102e70000126ff29f6d1002e01d06b461f72022acf
:102e80001dd022d9032a27d0042a1ad1002c18d009
:102e9000270000231537200003930693079304941b
:102ea00005970bf003fe03aef08138000bf0fefd3a
:102eb0003200308269462800fff75afe03e0002cfa
:102ec0000ed10f20404209b0f0bd012af9d1694668
:102ed0002800fff7d7fcf6e7604260411038f2e7c0
:102ee00000236a4620000393049313750bf0defd64
:102ef00083b2402b08d06b460494187503aa694628
:102f00002800fff7dbfcdee70394f7e730b5002588
:102f100083b006ac248801950094fff78bff03b0c3
:102f200030bdc046002300b585b0029301930093e5
:102f300000222b21012004f091ff05b000bdc04606
:102f400000b587b00100062204a80bf017fe00238d
:102f500004aa02930193009302210833012004f094
:102f60007dff07b000bdc046002300b585b002005c
:102f70000293019300930a211833022004f06eff9c
:102f800005b000bd00234142414100b585b00b3181
:102f90000293019300930022022004f05fff05b02a
:102fa00000bdc046002300b585b002000293019326
:102fb000009339210433012004f050ff05b000bd17
:102fc00000b585b000280ed00378fa2b0bd800226c
:102fd00001330292019200928f210200012004f03d
:102fe0003dff05b000bd0c204042fae700b585b0ba
:102ff00000281ad00378002b17d043780a3bdbb2a5
:10300000f02b12d88378013b012b0ed8c3787f2b8d
:103010000bd900230200029301930093142104337f
:10302000012004f01bff05b000bd0c204042fae770
:10303000002300b587b0059301280cd86a466b21a0
:10304000107502930193009305aa0433012004f044
:1030500005ff07b000bd0f204042fae7002300b58e
:1030600087b005aa108015210293019300930120d7
:10307000043304f0f3fe07b000bdc04610b5104c99
:1030800086b02379002b18d1431e0d2b01d9ff28c0
:1030900010d1002305aa1070102102930193009310
:1030a0000120043304f0dafe002801d1012323714a
:1030b00006b010bd0f204042fae70e204042f7e76d
:1030c000d019002010b5114c86b02379002b19d1ee
:1030d000431e0d2b01d9ff2811d1002305aa107022
:1030e000518001200293019300932321043304f0c3
:1030f000b5fe002801d10123237106b010bd0f20b9
:103100004042fae70e204042f7e7c046d0190020bf
:1031100030b51c4d87b02b79002b2fd1431e0d2bc2
:1031200024d8002924d00b78042b21d8002b23d0bd
:103130004a78202a1cd8012402e00a5d202a17d8e8
:103140000132013ba418dbb2a4b2002bf5d1042359
:1031500005aa1070009102930194a121012004f0ae
:103160007dfe002806d101232b7103e0ff28d8d073
:103170000f20404207b030bd0124e8e70e20404256
:10318000f8e7c046d0190020002210b50b4b88b0dc
:1031900005ac1a712070002804d11530083268443b
:1031a0000bf0ecfc002322000293019300932f21eb
:1031b0000c33012004f052fe08b010bdd0190020dd
:1031c000002300b585b002930193009300223121c2
:1031d000012004f043fe05b000bdc046002070474a
:1031e0000020704700b587b00b2810d8094a01238a
:1031f000c24093430bd105aa10705b210293019347
:1032000000930120043304f029fe07b000bd0c2018
:103210004042fae742080000002300b585b002935f
:103220000193009300225c21012004f017fe05b0f9
:1032300000bdc04610b584b00400fff779f800283f
:103240000bd1942302900193009400230022c62105
:10325000013004f003fe04b010bd0c204042fae738
:1032600030b50400a7b001ad010041348822280028
:103270000bf084fc2100042223a80bf07ffc21002a
:10328000042224a80bf07afc902300222800ea54a0
:10329000fff7d0ff27b030bd00b585b000280bd0b8
:1032a00000230200029301930093222104330120a2
:1032b00004f0d4fd05b000bd0c204042fae7c04642
:1032c000002300b585b002930193009300224721ab
:1032d000012004f0c3fd05b000bdc046002300b5c9
:1032e00085b002930193009300220321012004f092
:1032f000b5fd05b000bdc04600b587b0002810d0b0
:1033000000290ed00e2305aa53800c33118002939e
:1033100001910090163b9c21012004f09ffd07b015
:1033200000bd01204042fae770b504000d0004f032
:1033300031fd002800d070bd2900200003f016feea
:103340000028f8d104f04afdf5e7c04610b50400a6
:1033500004f020fd002800d010bd200003f042fe44
:103360000028f9d104f03afdf6e7c046002300b585
:1033700087b005aa107012210293019300930120d7
:10338000043304f06bfd07b000bdc046014b587913
:10339000c0b27047d019002010b504f00dfd10bd6b
:1033a000002330b587b005aa107051700400029355
:1033b000019300932d210433012004f04ffd0500fb
:1033c000200004f0f3fc280007b030bd10b586b033
:1033d000040004f0f1fc03000020042b01d006b02f
:1033e00010bd02900190009005aa3a210130059489
:1033f00004f034fdf3e7c04600b50a1c91b0302953
:1034000000d9302201320100d2b204a80bf0b6fb81
:10341000002304aa02930193009307213033012073
:1034200004f01cfd11b000bd70b50d008eb016008b
:10343000202914d805ac0a00010020000bf09efbe7
:10344000002321226355a654252102930193009362
:1034500022002433012004f001fd0eb070bd0c20c9
:103460004042fae710b503f00ffb10bd70b5050040
:1034700004f090fc041e01d0200070bd280007f06d
:1034800059f9040004f0aafcf6e7c046f0b50400c0
:10349000bbb00e001700002827d0fef749ff051e1d
:1034a00023d18822210004a80bf068fb2100d92039
:1034b00088310c2268440bf061fb3378002b14d068
:1034c0003100402226a80bf059fb6a461021c82380
:1034d0005218d754074b78311d7101200295019580
:1034e0000095d82304f0bafc01e00c2040423bb028
:1034f000f0bdc046d0190020f0b50400a7b001ad62
:103500000e00170001004134882228000bf036fb22
:103510002100042223a80bf031fb2100042224a85f
:103520000bf02cfb902300223100ea5428003a00d3
:10353000fff7acff27b0f0bd002300b585b00293c4
:103540000193009300220a21012004f087fc05b0ba
:1035500000bdc046002300b585b0029301930093df
:1035600000220521012004f079fc05b000bdc04611
:10357000002300b587b0059002930193009305aa3c
:1035800008330b21012004f069fc07b000bdc046e0
:10359000002300b585b002930193009300221a2105
:1035a000012004f05bfc05b000bdc0460023414291
:1035b000414100b585b00c31029301930093002284
:1035c000012004f04bfc05b000bdc046002300b54f
:1035d00087b005aa10701621029301930093012071
:1035e000043304f03bfc07b000bdc046002300b527
:1035f00087b005aa10701721029301930093012050
:10360000043304f02bfc07b000bdc046002300b516
:1036100087b005aa10702621029301930093012020
:10362000043304f01bfc07b000bdc046002300b506
:1036300087b005aa1070192102930193009301200d
:10364000043304f00bfc07b000bdc046002300b5f6
:1036500087b005aa5380108018210293019300932c
:103660000120043304f0fafb07b000bd002300b5cd
:103670000b4a87b0059391420fd800280dd06a46b7
:1036800004909182012002930193009304aa0833cd
:103690009f2104f0e3fb07b000bd0c204042fae795
:1036a0002c060000002300b585b0020002930193b0
:1036b000009324210c33012004f0d0fb05b000bda1
:1036c00010b586b0002812d004aca171062201000a
:1036d00020000bf053fa0023220002930193009381
:1036e0001e210833012004f0b9fb06b010bd0c20e8
:1036f0004042fae7002804d0034bd860002019822a
:1037000070470c204042fbe7d0190020002310b581
:10371000074c0020a37404f08dfb002007f018f97b
:1037200007f0d8f8002801d10123a37410bdc046ca
:10373000d019002010b50400fff7e8ff002800d0e2
:1037400010bd2000fff71af8fae7c04610b5fff7e2
:1037500015f810bd014b987cc0b27047d0190020fd
:1037600000b587b001236a46137501280cd80023e1
:103770005075692102930193009305aa0433012037
:1037800004f06cfb07b000bd0f204042fae7c046d2
:10379000002300b587b005aa137069210293019335
:1037a00000930120043304f059fb07b000bdc0466c
:1037b00000b587b001280cd8002305aa10706a2133
:1037c0000293019300930120043304f047fb07b0f8
:0837d00000bd0f204042fae7a2
:020000040000fa
:1037d800f0b50c009db0002907d0244d6b68002b74
:1037e80003d001280dd0062801d01db0f0bdcc2291
:1037f8009b58002bf9d00a682800039203a9984720
:10380800f3e7d0229e58002eefd04b680f78019333
:103818008b686c3a002103a802930bf0b5f9052fc9
:10382800e3d8134abb00d3589f46e368039303ab1e
:1038380001aa39002800b047d7e70023f8e721009c
:1038480020220c3103a80bf095f9210020222c31fd
:103858000ba80bf08ff92100e36c5031202214a83b
:1038680013930bf087f903abe2e7c0466813002017
:10387800c0cf0000f0b5ce46474680b50c00ebb08f
:10388800002923d0c84e7568002d1fd0031fdbb256
:103898002e2b1bd8c54a9b00d3589f46eb7b002b89
:1038a80014d000230122eb738a56002a00d04ae183
:1038b8000b786b74002b00d06be18823ec58002c3c
:1038c80004d00023002200213000a0476bb00cbcbc
:1038d80090469946f0bd2b7b002b02d10122a133e3
:1038e800ea54637821781b020b43a17809040b433f
:1038f800e17809061943a423e9501433eb58002b47
:10390800e4d030009847e1e700224e2398248a56f5
:10391800ea542b59002bd9d03100300098470022a7
:1039280073681a51d2e7212120000bf0c7f87522dd
:103938007568c3b20700ab54202bc7d855239846e7
:10394800a844553a002140460bf01ef9ff222100f9
:103958003a4040460bf00ef921232100e75c63331f
:10396800ef5422314a780b7812021a438b781b04e1
:103978001a43cb7804311b061343ab677c23994663
:10398800a944062248460bf0f5f801238222ab54dd
:103998002e3aab549333ed58002d97d0683be3563d
:1039a8004246019300974b4631003000a8478de707
:1039b800c023eb58002b00d188e7212120000bf011
:1039c8007df82022c3b203ad0700ab54202b00d9e9
:1039d8007ce7002128000bf0d7f8ff2221003a40ad
:1039e80028000bf0c7f86223e35c0eaf3b70022b94
:1039f80000d1dfe06323e35cc0245a42534172687c
:103a0800dbb212592900904630003a00c047002224
:103a180073681a515ae728000431062234300bf033
:103a2800a9f801273a23ef54303b98462800a044d0
:103a38002022414613300bf09df8212140460bf01f
:103a48003df8332388257168c85462780a33ca540c
:103a5800a2780133ca54e2784c59033bca548f7494
:103a6800002c00d132e70b004a7c097c133301316a
:103a7800c9b23000a0477368002866d1585125e7bd
:103a8800080008f05bfb002800d11fe7902372684c
:103a9800d358002b00d119e7010032e78c23ed58e9
:103aa800002d00d112e70a78853b1732d2b2032adb
:103ab80001d83f4b9b5c002231003000a84705e746
:103ac8000a78012a33d0002a02d15423aa73ea546f
:103ad8008c23ed58002d00d1f8e6637831003000d2
:103ae800a847f3e69c239846eb58002b00d1ede657
:103af80003ada71c280008f039f8212138000af086
:103b0800ddff3900c2b2280008f048f861782800c3
:103b180008f098f82378012b36d0022b21d04246a2
:103b2800736800219b58300000229847cee6a223f4
:103b3800aa73eb5c002bcbd1a433eb58002bc7d076
:103b4800a123ea54c4e76b74c0e61c7c0134e4b2d8
:103b58001c74fff717fc736884421ed300225a5165
:103b6800b4e62334412120000af0a8ff0eafc2b208
:103b78002100380007f0a2f89c2372682900d35866
:103b880030003a009847a1e60eaf380007f08ef8eb
:103b9800f2e7287cfff7e6fb98e6187cfff7e2fbe4
:103ba800002273689a7491e668130020d8cf000049
:103bb80094d000001f339846a04440460af072ff94
:103bc8003d236b44814638714022002118000af0d9
:103bd800dbff3d236b444a46414618000af0caff02
:103be80008e7c046f0b545465746de464e46e0b5be
:103bf8005e4d85b06c6888461700002c0cd02600f6
:103c0800d43600280fd0f823e458002c04d0030041
:103c1800022231002800a04705b03cbc90469946d6
:103c2800a246ab46f0bd0af01ff8d422a35c002bd5
:103c380002d10af01df8efe7013ba3540af018f887
:103c4800f06900286ad07369bb4267d3002f44d05b
:103c5800326ab946974235d9002a7cd1d4239a468c
:103c68000023f3613362f8339b465a466b689b58ce
:103c7800002b5ad009f0f8ff53465246e35c013353
:103c8800a35409f0f5ff5a466b6831009b58280089
:103c98009b4604220023d84709f0e6ff5346e35c1d
:103ca800002bc6d05246013ba35409f0e1fff0694e
:103cb80000283ad0326a002a37d04b46002b0cd065
:103cc8004a45c9d34a4641460af054ff4a46f36971
:103cd8004b44f361336a9b1a3362d42332699846a2
:103ce80094467369db1b674473613761002b1ed0f0
:103cf80009f0baff43464246e35c0133a35409f096
:103d0800b7fff8236a683100d358280002930023cc
:103d180000220193009305f0f5ff7de709f0a4ff69
:103d2800d422a35c0133a35483e70023736109f011
:103d38009bffd422a35c0133a35409f099fff82315
:103d48006a68d458002c00d166e7002302223100ab
:103d58002800a04760e74146f0690af00bff4a4691
:103d6800336a9844d31a994678e7c0466813002006
:103d780010b5114c6368002b0fd001280ed0002815
:103d88000bd0032809d8c8229a58002a02d020004c
:103d980090476368c8220021995010bdc4229a58e0
:103da800002a02d02000904763680022a0215a54bc
:103db80024315a50f1e7c04668130020f8b5474649
:103dc800ce46214d80b56c68070089469046002c88
:103dd80007d009f049ffd422a35c002b05d109f0d4
:103de80047ff0cbc90469946f8bd013ba35409f027
:103df8003fff002f20d02600ff23d4367370002306
:103e0800b361d4239846002333617361f36133624d
:103e180009f02aff43464246e35c0133a35409f004
:103e280027fff8236a68d458002cdad03b00012217
:103e380031002800a047d4e726004b46d4367370db
:103e48004346b361dde7c04668130020f8b5144d5a
:103e58006c68002c12d0f822a658002e0ed027002d
:103e680003002800d425d437f53a3900b04709f0c3
:103e7800fbfe635d002b02d109f0fafef8bd013ba1
:103e8800635509f0f5feff237b700023bb6109f041
:103e9800ebfe635d0133635509f0eafeeee7c046c9
:103ea80068130020f8b50e0000281ad10e4c2378ac
:103eb8002700002b13d101220c4d2361aa80fc326c
:103ec8002b65ab54002904d0086808f049f87368da
:103ed800ab600223ff33238000236560a3703800a2
:103ee800f8bd01277f42fae7681300207c13002001
:103ef800431e70b50400033306d8002343700e4bed
:103f0800834202d00023a37070bdfd234568eb5c9b
:103f1800002bf7d009f0a8fefc22ab5c0133ab54b0
:103f280009f0a6fe656809f09ffed422ab5c013358
:103f3800ab5409f09dfee5e7681300207047c046c2
:103f4800431e033307d80388012b02d0407840b2c0
:103f580070470120fce701204042f9e7421e0300b8
:103f6800033209d84268002a06d0052010560028d6
:103f780001d101201856704701204042fbe7c04696
:103f8800f0b5431e87b00400033311d80125455707
:103f9800002d25d00edd012d11d0022d0cd1fc25d0
:103fa800466809f061fe735d002b3ed109f060fea2
:103fb80007b0f0bd6b1cfbd0ff236370f8e74368c4
:103fc800002b2fd007f094ff0028f5d0fef7c6fb92
:103fd800061e41d0f523626853710a336370e7e720
:103fe8000378002be4d0fd224368995c002900d0b7
:103ff8009d5401229a80fff7a9fb02280ed001f0f8
:1040080031fb07f0bdff636898680af047fc0af0c7
:10401800a5f90af08bf900232370c9e70020fef701
:10402800f7fbece7ff334370c2e7013b735509f038
:104038001ffe0123e356022bbad163681b791b07c5
:10404800b6d4fef7f3fb0028b2d0646809f00cfe82
:10405800635d01336355a9e7fff700fa000c1528e3
:10406800b8d1676809f000fefc23fe5409f000fe91
:104078006368200099680af003fc374b01a8029690
:104088000396049605960193fef774fb071e05d068
:10409800f423626853710b33637089e701f0c8fa3f
:1040a8002e4804f04bfe3f232d4e2e4af5542e4b3e
:1040b800f760336496235b007364de3bf754063382
:1040c800f7543433f7500433f7500433f7500433bc
:1040d800f7500433f7500433f7500433f7520233e0
:1040e800f5540233f7500433f7500433f7500433d0
:1040f800f7500433f250ff220433f7500433f750db
:104108000433f7500433f7500433f7500433f750af
:104118000933f254154a1b33f750183bf250b77461
:10412800376513490433f15012490433f1501248ea
:1041380018330021f75004f01bf909f095fdd4233a
:10414800f55409f095fdfd236068c5544830fff724
:10415800f9f8022363702be77d380000d937000097
:104168007c130020c0a80a01021e02d3c53d00002e
:10417800ed3b0000553e0000793d0000014b186101
:104188007047c0466813002070b500280dd1374825
:104198004368002b09d00278002a06d08278002aca
:1041a80007d01b7904008b4201d00124644220000f
:1041b80070bd827a002a11d00400186019710b07ab
:1041c80002d401238370f2e70020fef721fbfef7fb
:1041d800a7fa0028e9d10123a370e8e701243f25c5
:1041e800da609a745c55224d1d6496256d005d64f5
:1041f800de3d5a5506351a655a5534355a51043537
:104208005a5104355a5104355a5104355a51043516
:104218005a5104355a5302355c55a3341a510434a3
:104228001a5104341a51134d04341a5104341d51cf
:10423800ff2504341a5104341a5104341a51043431
:104248001a5104341a5104341a5109341d550a4daf
:104258001b341a51183c1d51084d04341d51084d8a
:1042680004341d5118341a51a6e7c04668130020bb
:10427800021e02d3c0a80a01c53d0000ed3b0000a4
:10428800553e0000431e03330bd84368002b08d06b
:104298001a68824203d10022a1219a735a5400233a
:1042a80083707047013810b50b00c21c09d800296b
:1042b80007d018000121fff7fff9431e9841c000fd
:1042c80010bd0220fce7c046013810b50b00c21c27
:1042d80009d8002907d018000021fff7edf9431e7f
:1042e8009841c00010bd0220fce7c046421e10b530
:1042f8000b0003320bd84168002908d0002b06d0e8
:104308004831062218000af035fc002010bd0220b2
:10431800fce7c046431e03330ad84368002b07d086
:104328001a7b002a06d0587b431e984102307047fa
:104338000020fce70120fae7431e03330ad843684c
:10434800002b07d08278002a02d000201965704718
:104358000120fce70220fae7431e033307d843682d
:10436800002b04d08278002a01d0186d00e00020cc
:104378007047c046431e033314d8002912d08378ef
:104388000120002b00d1704700238b71cb710b7279
:104398004b728b72cb7213330b800c3b4b808b8030
:1043a8000020f0e70220eee730b5431e8bb0140082
:1043b80003332ad8002a28d08378002b22d06d46d0
:1043c8002800002923d0fff74df8002823d11c220c
:1043d8000021a01d0af0d8fb20000a212b790c220d
:1043e80023806b7969446380ab790c30a3800af031
:1043f800c1fb200016211830092269440af0bafbd3
:10440800002000e001200bb030bd0220fbe704f0e3
:1044180071f80028dbd00820f5e7c046431e10b528
:10442800033307d883780020002b00d110bdfff795
:1044380015f8fbe70020f9e700b5431e83b0033306
:1044480016d8002a14d08378002b0ed0002911d05a
:104458006b461000d91dfef763ff002803d16b4699
:10446800db79002b02d1082000e0012003b000bd59
:104478000220fbe71000fef765ff431e9841c000cd
:10448800f4e7c046431e10b50c00033312d80029c8
:1044980010d083780120002b00d110bd30212000de
:1044a8000af00cfbc1b22000fef7a2ff431e9841a0
:1044b800c000f2e70220f0e7431e10b503330bd823
:1044c80083780120002b00d110bd0800fff79af86f
:1044d800431e9841c000f7e70220f5e700b5431ee8
:1044e80085b003331ad8152a18d88378002b18d02a
:1044f8000f4b684601930f4b029303230373002964
:1045080011d1012a0ad00c4b9a181379037201a809
:10451800fff7c4f8431e9841c00000e0022005b030
:1045280000bd0120fbe7044b9a1813794372eee7ac
:1045380005000100ffff0a0594d000004368002b26
:1045480006d00278002a03d0fc215a5c01325a5462
:044558007047c046a2
:020000040000fa
:10455c0070b5c26ac56d04002b7801320bd0026baa
:10456c00013208d0002b1fd00420285609f082fb02
:10457c003e23e05470bd002b06d00420285609f0d1
:10458c0079fb5b23e054f5e709f06cfb06006868e7
:10459c00431c2ed1a868431c22d1e868431c16d1b9
:1045ac00300009f063fbe5e709f05cfb0600102026
:1045bc00285609f05ffb3d23e0541420285609f0df
:1045cc0059fb3c23e054300009f050fbd2e740b2d9
:1045dc0009f050fb5a23e054300009f047fbc9e7bf
:1045ec0040b209f047fb5923e054e868431cd7d08c
:1045fc00ede740b209f03efb5823e054a868431c99
:10460c00cbd0ede770b5c26ac56d04002b780132d2
:10461c000bd0026b013208d0002b1fd03e23c15ca3
:10462c000420285609f042fb70bd002b06d05b23fa
:10463c000420e15c285609f039fbf5e709f012fb80
:10464c0006006868431c2ed1a868431c22d1e86878
:10465c00431c16d1300009f009fbe5e709f002fb19
:10466c003d2306001020e15c285609f01ffb3c237b
:10467c001420e15c285609f019fb300009f0f6fa19
:10468c00d2e75a2340b2e15c09f010fb300009f08c
:10469c00edfac9e7592340b2e15c09f007fbe86881
:1046ac00431cd7d0ede7582340b2e15c09f0fefa89
:1046bc00a868431ccbd0ede7f8b54746ce4680b58d
:1046cc00ff277423050080694f4c020a3a405a4375
:1046dc003840a2188700d2683f18ff00bf183a88ec
:1046ec002969534390460022e3185a649a64ea6895
:1046fc00914200d27ae08a1a5a64434674265e4389
:10470c00a619f36a2a00d8b2404904f0e5fd336bd0
:10471c002a00d8b23e4904f0dffdbb69002b68d0fb
:10472c00306b8021082b38d9890009f0a9fd802134
:10473c00f06a890009f0a4fd434674265e432b6998
:10474c00a719386b9946002b43d10022002109f0a0
:10475c0085fd4a46bb6cba643200386b4032a218f5
:10476c00b96bc0b204f0d8fc742643465e43ef68c4
:10477c00a619f06a0022002f18d1002109f06efd55
:10478c002100f06a736c726b77647431c0b204f000
:10479c00c3fc0cbc90469946f8bd490009f070fd6d
:1047ac008021f06a490009f06bfdc5e78021c90042
:1047bc0009f054fdb36c002b24d02b6942467421b4
:1047cc0051436418e06a626ba968c0b204f0a4fc9f
:1047dc00dfe780220021120109f040fd386bb96b34
:1047ec002b696a68c0b204f097fcbde7521a9a6450
:1047fc0083e7306b002109f043fdf06a002109f0da
:10480c003ffd99e7eb68d9e7b41700202148000079
:10481c004d4a0000ff2270b574248969104d0b0ab3
:10482c00134063430a40eb18d96893009b18db00d4
:10483c005b5a5c432c19636c002b00d170bd0022b9
:10484c000021e06a09f00afd2900e36a7431d8b24c
:10485c00626b636c04f060fc00236364eee7c0469b
:10486c00b4170020ff22010002400a4883689a42d4
:10487c000dd293009b18c068db001818436a99424c
:10488c0005d1c3785a1e93415b42184070470020f3
:10489c00fce7c046b4170020f0b502680600ff2004
:1048ac0074272c4bc6469846130a03407b43104092
:1048bc0043448400db682418e400e418238800b522
:1048cc009c467b4343449b6a86b09a423dd001a8e8
:1048dc00230002000c33a2cba2c222cb22c263461d
:1048ec0074255d43636945442a6d9b009b586a6d32
:1048fc008360236900219b009b58ea6c4360a36989
:10490c009b009b58c3606b691b68984733680022f7
:10491c00ab622023e2541c23e3565a1c0ed00e4ae1
:10492c00012194461f2298b2134040099940637f9d
:10493c006044c001002b05d107f0b2fb06b004bceb
:10494c009046f0bd07f0aafbf8e72023e35c002bb0
:10495c00e1d0bce7b417002088008200f8b50378da
:10496c000400002b39d01023c356022b35d1ff2560
:10497c007421066ab269130a2b404b432e49c9189d
:10498c002b0013409d00ed18cb68ed00ed181c2397
:10499c00eb56591c0fd0294a012194461f2298b27c
:1049ac001340400999406b7f6044c001002b15d126
:1049bc0007f074fbb269696a236a914215d0002b27
:1049cc0005d01a6a226200225a751a621a70256a78
:1049dc00002d02d06b7d012b20d0f8bd07f060fbc1
:1049ec00b269696a236a9142e9d10122f16932758f
:1049fc00002b05d01a6a226200225a751a621a70ac
:104a0c006f68002fe3d02626a35d01200133a35548
:104a1c00aa68b847a35d013ba355d8e72800183016
:104a2c00fff73aff022364696b756a682b69e968c2
:104a3c00a8686468a047d0e7b417002088008200fb
:104a4c00f8b557464e464546de46ff24e0b574257c
:104a5c0088468969534f0b0a23406b432140fb184e
:104a6c008c00db686418e400e418238882469946bd
:104a7c006b43fd189b46ab6c2e00002b56d1736913
:104a8c009b6898470028fad11c23e3565a1c0ed079
:104a9c00454a012194461f2298b21340400999407f
:104aac00637f6044c001002b5bd107f0f7fa4246ec
:104abc005b46616a9269fd182b6a914213d0002bf8
:104acc0005d01a6a2a6200225a751a621a702c6a68
:104adc00002c02d0637d012b53d03cbc90469946f0
:104aec00a246ab46f8bd5246012a45d0022a52d006
:104afc004246142010564246d169002b05d01a6a42
:104b0c002a6200225a751a621a706668002eded06c
:104b1c004b4674225a43bf1826373b78a2680133a0
:104b2c003b70b0473b78013b3b70d0e70022002143
:104b3c00286b09f093fb5a462b6b4032ba18d8b24b
:104b4c00a96bab6c04f0e8fa434699681b696a6b75
:104b5c00c918eb6ad8b2ab6c04f0defa0023ab6474
:104b6c00bbe707f09dfa42465b46616a9269fd1805
:104b7c002b6a9142a3d1b6e74246514601201175ea
:104b8c00b9e720001830fff787fe02232000637579
:104b9c00fff792fda1e7ff22414601200a75404232
:104bac00a9e7c046b417002088008200f8b5002899
:104bbc0040d1224c2378002b3cd102207022ff30b4
:104bcc00a0526f3a8f382254c86a0e68a061886a66
:104bdc00cf68e06148692270e0608869a284a060b7
:104bec00012025328d68a3544a6867630f694042df
:104bfc00a763cf696661e7640f6a236227654f6a12
:104c0c006360a0626370e26225636765096b60672d
:104c1c00e1656421a3666354e366531c05d06b1ce9
:104c2c0003d0022300202374f8bdf368210004484c
:104c3c009847f6e701204042f6e7c046b41700203b
:104c4c0069490000002803d11020024b1856704708
:104c5c000020fce7b4170020f0b5002804d1702226
:104c6c002a4b9c5c012c02d001204042f0bd985490
:104c7c0010229a56022a1bd11a78002a18d05a7878
:104c8c00002a15d15f68002f18d19e68002e0fd016
:104c9c00da6800201400d5782834002d05d112e0f4
:104cac002200d5782834002d0bd00130b042f7d13a
:104cbc0070220121012099544042d7e70a07e4d51c
:104ccc00f6e7ff3505400120d0700c0700d5587071
:104cdc009c8c01372004284301345062a0b20c4c48
:104cec005f60a04200d101209884012470201c54e4
:104cfc00042319439170ff2100231177df3953608e
:104d0c009360506a53541380b0e7c046b417002028
:104d1c00ffff0000f0b5d6464f464646431ec0b5d1
:104d2c000400033312d803041b0e9a460ed1fff76e
:104d3c0099fd061e0ad074250388344f5d439846ae
:104d4c007b19994670331a78012a04d01cbc904602
:104d5c009946a246f0bd52461a704a3b1b78002b6e
:104d6c0009d171224946895c0129efd1494648464f
:104d7c008b54fff7edfb424674235343fb181a6e1a
:104d8c00a24209d11900002264319a660a70013ad4
:104d9c001a66723302321a70002020357d192b6886
:104dac00002b08d09969746a1a6aa1421cd020336e
:104dbc001d00131ef6d1424674335343fb182633a1
:104dcc001b78002b19d0424674235343ff187b6881
:104ddc000122013b7b60002352427b70f3707037e1
:104dec00013372623b70b1e7597d0129dfd12a6032
:104dfc009982186218702b68d2e74846fff702fcbc
:104e0c00712301224946ca54dde7c046b41700207d
:104e1c00f0b54f464646d646431ec0b50f001600a9
:104e2c00033318d803041b0e15d1fff71bfd051e09
:104e3c0011d0742403885c43144b1c192623984608
:104e4c00a04443461b78002b0ad171229146a25ce8
:104e5c009246012a07d01cbc90469946a246f0bd4a
:104e6c0047608660f7e74a462000a354fff770fbc3
:104e7c0043461b786f60ae60002becd12000fff72f
:104e8c00c1fb4b465246e254e5e7c046b41700203e
:104e9c00431e70b50c00033313d803041b0e10d142
:104eac00fff7e0fc00280cd0002c0ad003000c33d8
:104ebc0026cc26c306cc06c320230122c2540120d3
:104ecc0000e0002070bdc046f0b54546de464e46bb
:104edc005746e0b585b09b460f9b050088461600eb
:104eec00002b35d001230f9a5b421360c318033398
:104efc002ed803041b0e2bd1fff7b4fc071e27d0b2
:104f0c00002e2cd04346002b29d074233a880192d2
:104f1c0002925a4313009c460392774a6244130050
:104f2c0064331b789146002b02d0136eab420fd129
:104f3c007424714b019a9c466243624413002633dd
:104f4c001b78002b63d171224946895c01290dd055
:104f5c0005b03cbc90469946a246ab46f0bd0e9bb4
:104f6c00002bf5d05b46002bcfd1f1e749464846e4
:104f7c008b54fff7edfa3b885c4301935e4b9c46e8
:104f8c006444a369e1699c46e36e00292dd0604618
:104f9c000022ac46b2460be0dc00e418a4001d0075
:104fac00041901332678002e38d001328a421cd2e3
:104fbc009942f1d8040000250123f3e74b46200069
:104fcc001c62022318306375fff766fc7423029a87
:104fdc005343494a94466344da6a01327bd01b6bd3
:104fec00013378d02000fff767fb7423029a5343f8
:104ffc00414a9446634426331b78002ba8d148467b
:10500c00fff700fb712301224946ca54a0e79369bc
:10501c00d1699c46d36e0029b9d199e730000122a1
:10502c00206235485646aa46654684460199227048
:10503c0073324a436244908cc9b202040902114390
:10504c008c46ff2251460a4061460130114382b220
:10505c002a488a46e16182423bd074200199484338
:10506c0025498c466044c3665b4682846360434634
:10507c00a36080235b00a382bb69a561002b1ad1be
:10508c000e9be660236152460f9b1a604b461b6acf
:10509c00002b93d0184a039b944663441b6a002b45
:1050ac00a3d01a6a002a01d123e01a00136a002b3c
:1050bc00fbd1146299e7082b05d80e9b76005b0098
:1050cc00e6602361dfe70e9bb6009b00e660236180
:1050dc00d9e70122c1e723696268e168a0687424fa
:1050ec00029d6c43044dac46644464696468a047fb
:1050fc007be71a00146278e7b4170020ffff00006a
:10510c0000b583b0019300230093fff7ddfe03b0dd
:10511c0000bdc04600b583b0019300920b00002285
:10512c000021fff7d1fe03b000bdc046ff23020ae9
:10513c000100134210d103400948c2699a420bd9ad
:10514c00da00d31882699b00d318da6902208a42ec
:10515c0001d114201856704702204042fbe7c0468c
:10516c00b4170020431e70b504000d00033315d88e
:10517c0003041b0e12d1fff775fb00280ed074230d
:10518c0002885a43194b9b18002d09d01a0064321f
:10519c001078002819d01a6e944223d0002070bdcc
:1051ac001a6e00209442fad19a6e002a0bd0013a62
:1051bc009a66002a07d1013a1a661a0064321070f6
:1051cc00012272331a700120e9e71e007236317821
:1051dc000129e4d111709a6e307001321c669a6606
:1051ec002800dce79a6e01329a66d8e7b4170020e3
:020000040000fa
:1051fc00f0b54646d6464f46c0b5804696b00f0031
:10520c0092461e00062834dc2f4b040199461b19cc
:10521c00db7adb072dd5042e2ed0022927d00529c9
:10522c0027d1202e25d84022002106a809f0aafc5f
:10523c00434604ad4c442b70e388002432005146a5
:10524c0006a86b806f706e6009f092fc4823029484
:10525c00019400942a005121022002f0f9fdc31c94
:10526c0021d016b01cbc90469946a246f0bd3f2eec
:10527c00d9d906204042f4e7012923d0032907d0cd
:10528c004022042905d00229cdd00529cbd0f0e746
:10529c00102253461b684c44002b0ed0e37a00209e
:1052ac001a43e272dde702940194009448232a0029
:1052bc00d121053002f0ccfdd3e7e37a00209343f3
:1052cc00e372cee70222e4e77c150020f0b54646f7
:1052dc00d6464f46c0b5140096b00e0041283fd0bc
:1052ec0054283dd0422852d0432800d194e0442881
:1052fc0064d04b2862d0572800d1e9e04a2800d16d
:10530c0010e1462800d1e9e0482800d1ade04d2855
:10531c0000d1e3e0452800d118e1472800d13be15a
:10532c004c2800d112e1522814d105ad01231422ce
:10533c002900200002f03cff00280bd1b94b6a6811
:10534c00d9688a4206d11b69002b03d02a7ca96834
:10535c002868984716b01cbc90469946a246f0bdea
:10536c000023042205a9200002f022ff0028f1d11d
:10537c006b465b7d01aa1370aa4b19680029e9d012
:10538c00694614201b68085601219847e2e7002360
:10539c00042205a9200002f00bff0028dad16b468d
:1053ac005b7d01aa13709f4b19680029d2d0694606
:1053bc0014201b68085602219847cbe700230422cf
:1053cc0005ad05936b6000232900200002f0f0fe70
:1053dc000028bfd100202856c3b20a2bbad8924f4e
:1053ec000301fb18198901224c426141042401aece
:1053fc003070aa564942a14372700a31002a2dd04e
:10540c00aa789a73ea78da73864b1a68002aa1d0c4
:10541c001b68320098479de701ae00230c22310037
:10542c00200002f0c5fe002800d093e70921715638
:10543c00cbb20a2b55d97b48022305aa1170938055
:10544c007388d380736893600368002b00d181e765
:10545c00036808200421305698477be76a88083a8d
:10546c0092b21a812a795a73cee7092399460023fe
:10547c00102201a9200002f09bfe002800d069e751
:10548c006b461b7c5bb29846dbb20a2b00d961e7fa
:10549c006b465b8a6a469c464346634f1b019a46a1
:1054ac00fb1818730c21525e6946c889c98805ad72
:1054bc0069810299e960d9888c456fd0102e00d88b
:1054cc0048e7012300220021002002f071fe41e791
:1054dc00002305ad05936b60082274e706239946fb
:1054ec00c5e70823f356504f1b01fb18da7a0b0162
:1054fc00f818d2b2c272012282727289083a92b240
:10550c00028148488288013292b282808288002ac5
:10551c0003d18288013292b282808288fb1892b2c7
:10552c00da8089e705ad002344222900200002f02f
:10553c003ffe002800d00de73a488368002b00d1cd
:10554c0008e78368296c2800984703e707250023a0
:10555c00082205a9200002f02bfe002800d0f9e655
:10556c006b4614201856c3b20a2b00d9f2e66b46d0
:10557c00198bdb8a01aa13802b4b04011b19db88c6
:10558c00994200d0e6e6274b1968002900d1e1e6e4
:10559c001b6829009847dde60825d8e7002a01ddbd
:1055ac00b2420ddb002305931e4baa801a68002a19
:1055bc0000d1cfe61b682a00494640469847c9e609
:1055cc0096b25246ba58ee80002a00d1c2e69a88aa
:1055dc00002a00d1bee69a7a012a00d0bae69a884f
:1055ec00b21a12b2002a01dd9e88b6b253460019d7
:1055fc00f9583200012302f0dbfd002800d0a9e6a7
:10560c005346fb58ae8005935346fb18ea889880a6
:10561c005346f850034b921bea801a68002ac9d1f2
:10562c0098e6c046601500207c15002070b5094d29
:10563c002c7de4b2002c00d070bdb02200210648b5
:10564c0009f0a0fa0549022002f0dcfd01232b75bc
:10565c00ac80f1e7601500207c150020d9520000c9
:10566c0010b5b0220021064809f08cfa0021022066
:10567c0002f0c8fd0022034b1a609a601a7510bd27
:10568c007c15002060150020014b18609960704754
:10569c0060150020014b18607047c0466015002053
:1056ac00014b98607047c04660150020f0b54f461e
:1056bc004646d646c0b5904686b00f00022817d194
:1056cc0001291ed0022913d104220321344d35485f
:1056dc00ae7dac7dab7d240101330b400419ab7561
:1056ec00a37af6b2002b28d0013ad2b2002aefd11d
:1056fc0001267642300006b01cbc90469946a24664
:10570c00f0bd07239946284b254d9a466e7d6c7d3e
:10571c00687d0721013008f037f8e4b2c9b22401e2
:10572c0069755444a37af6b2002b07d04b46013b63
:10573c00dbb29946002be9d1dae7073676b2002eb8
:10574c00d8db0023a36023606360e3600133a372a2
:10575c00ab8801339bb2ab80ab88002b03d1ab88f9
:10576c0001339bb2ab80ab889bb2e380012fc1d1dc
:10577c004346002bbed0002305aa1670502102937d
:10578c00019300930220043302f062fb2123e372a5
:10579c004346022baed18022e37a1343e372a9e78e
:1057ac0060150020ec1500207c15002070b588b029
:1057bc0000292bd0c3b20a2b28d8164d0301ed18a3
:1057cc00ac7ae4b2012c21d1002a1fd0eb7a05aec1
:1057dc001c4063425c411223307208226442300048
:1057ec009c4309f0c5f9eb885434738100233200d3
:1057fc0002930193009321000c33022002f028fb4a
:10580c00002801d00920404208b070bd062040425b
:10581c00fae7c0467c15002000b5c3b287b00a2b4e
:10582c0019d80e4b02019b189a7a012a13d1db88e6
:10583c0005aa53800023107051700220029301932b
:10584c0000934221043302f003fb002801d009200d
:10585c00404207b000bd06204042fae77c1500200c
:10586c00c3b20a2b0ad8074b00011818807a0138ea
:10587c00431e9841052340429843704706204042fe
:10588c00fbe7c0467c150020f0b5c3b289b00a2beb
:10589c002cd800292ad0174d0601ac19a37adbb2fb
:1058ac00012b23d1002a21d0e27a134219d14427ab
:1058bc0005ac207208222000ad1909f059f9eb88cb
:1058cc00220063810023390002930193009302208c
:1058dc000c3302f0bdfa002801d00920404209b077
:1058ec00f0bde37a05ac63724b27e2e70620404239
:1058fc00f5e7c0467c15002030b5c3b289b00a2b41
:10590c002bd8174a0301d3189a7ad2b2012a24d180
:10591c00d97a0a4221d0da7a52b2002a1dda1a89cf
:10592c00002a1ad07f240021dd7a05aa2c40dc72d3
:10593c00dc7adb8810725381547205910c23516010
:10594c000220029101910091563102f081fa002857
:10595c0001d00920404209b030bd06204042fae790
:10596c007c15002070b5c3b288b00a2b30d8002942
:10597c002ed0af23db009a422ad8174b06019d1973
:10598c00ac7a012c24d1ed8804aca5812070628006
:10599c005025062800dd0c3d9b19de7ac520f60744
:1059ac0006d5de7a76b2002e02db1d890730adb249
:1059bc00102301920091029501002200022002f0b6
:1059cc0047fa431e98410d234042984308b070bdde
:1059dc0006204042fae7c0467c15002070b5c3b2e1
:1059ec0088b00c9e0a2b2fd800292dd0af23db00ba
:1059fc009a4229d8164b04011b199c7a012c23d1ed
:105a0c009c7a002c20d00025db8804ac0495e56042
:105a1c006560a56020706280a381002e03d073683e
:105a2c00a360336805934423019202930091343ba5
:105a3c002200c721022002f00bfa431e98410d23cd
:105a4c004042984308b070bd06204042fae7c04679
:105a5c007c150020f0b59c46c3b289b007000a2b18
:105a6c0038d8002936d0002a34d01c4e0301f41843
:105a7c00a57aedb2012d2dd1f150a280217b002011
:105a8c00002925d12573e07a4631054205d0062040
:105a9c00e17a49b2c91781434d316046002801d1e2
