:020000040000fa
:10000000f07f0020e9d70000b1e60000b5e600006f
:1000100000000000000000000000000000000000e0
:10002000000000000000000000000000cfa200005f
:100030000000000000000000cfa2000029b5000071
:10004000cfa20000cfa20000cfa20000cfa20000ec
:10005000f5af0000cfa20000cfa20000cfa20000a9
:10006000cfa20000cfa20000cfa20000cfa20000cc
:10007000cfa20000cfa20000dd720000cfa20000de
:10008000cfa20000cfa20000fdad0000cfa2000073
:10009000cfa200000000000000000000cfa200007e
:1000a000cfa20000cfa20000cfa20000cfa200008c
:020000040000fa
:1000b000f8b5c046f8bc08bc9e467047c9d70000da
:1000c000f8b5c046f8bc08bc9e467047a1d70000f2
:020000040000fa
:1000d000e4a90000010000004cb60000010000008f
:020000040000fa
:1000e00070b582b06b469d1d2b0001224e2106008b
:1000f00009f0f4fd6b46dc1d01224d212300300088
:1001000009f0ecfd2a7821780020130703d403239b
:100110001340022b01d002b070bd0120c90841403c
:1001200001200840f7e7c046437802781b021343da
:100130005bba0b807047c04600b583b06b4607338f
:1001400019700122762109f00dfe03b000bdc046f2
:10015000f0b5d64646464f46c0b582b06b46dd1d6b
:100160000123012298462b7076212b00070009f00d
:10017000f9fd6b460400053301227a21380009f0ad
:10018000adfd6b460443063301227c21380009f0a3
:10019000a5fd002304432b7001222b00762138009b
:1001a00009f0e0fd434601ae044333700122330001
:1001b0001121380009f0d6fd044306d0200002b01a
:1001c0001cbc90469946a246f0bdfa20800008f07b
:1001d000e9fc434601222b7076212b00380009f000
:1001e000c1fd6b468146053301227a21380009f0b2
:1001f000b9fd4b460343994601222b007621380076
:100200002c7009f0affd4b460343994601223300a1
:100210002d21380009f062fd4b4610220343994618
:10022000337892461a424ed0380009f01ffd4346fb
:1002300001222b7076212b00380009f093fd4b46ec
:10024000034399466b46012206337c21380009f0ae
:1002500089fd4b4603439946012233007b21380038
:1002600009f03cfd4b4606220343994633787b2137
:10027000934302221343337001223300380009f004
:1002800071fd4b460343994601222b00762138002d
:100290002c7009f067fd4c463300044301224c21c9
:1002a000380009f01bfd5246337804431a4013000e
:1002b000064abb543b7e022b00d07fe7fb68380028
:1002c000984704437ae70c24644277e76808000003
:1002d00010b50b000122752109f000fd10bdc046cc
:1002e000f0b583b06b46dc1d23000f0001224d21c9
:1002f000060009f0f3fc23780500002f0bd108223b
:1003000093432370012223004d21300009f02afd80
:10031000284303b0f0bd08221343f2e7f0b5454689
:10032000de4657464e46e0b583b06b465e1d330051
:1003300001224e210400032709f0d0fc3378050088
:1003400098461f40022f01d01b0755d50023994620
:1003500001ab9a46534601225221200009f0befc0f
:1003600053461a780f2313406c4a0543a25c52216e
:1003700013435246200013705346012209f0f2fc49
:100380003300054301224e21200009f0a7fc03227f
:100390003378054393430222134333700122330021
:1003a0004e21200009f0defc0543c82008f0fafbce
:1003b000022f00d181e043461b0708d44b46c82bcf
:1003c00000d98ae000212000fff78aff0543544b43
:1003d000e358072b43d80022514be250002f03d1a2
:1003e000504be35c002b6fd1280003b03cbc90461f
:1003f0009946a246ab46f0bd06236b4499460122be
:100400005021200009f06afc4b461a780f23134054
:10041000013b05430e2b54d8434a9b009b589946f9
:1004200008212000fff75cff434605431b0700d06f
:100430008ee73c4b01aae35c9246002b52d1072386
:100440006b449b4601224c21200009f047fc5b468f
:100450001a7810231340354a0543a3547ae76b46b4
:100460009e1d502133000122200009f037fc0f238c
:10047000994632780543134098460e3b591e8b41ee
:1004800049460d338a431343413101223370200022
:10049000330009f067fc0543c82008f083fb4a4697
:1004a0003378502193434246134333700122330083
:1004b000200009f057fc05438de70022184be2505d
:1004c00092e71b4b9946abe708f068fb86231b01bc
:1004d0009c4664442060616086e74846c83808f05e
:1004e00061fb6fe713005f210122200009f0f6fb9a
:1004f00053461a780323514613430b700d4b0543a3
:10050000e35c002b02d013231a430a7053460122e6
:100510005f21200009f026fc054390e772080000e7
:100520006c0800006a08000008d700006808000096
:1005300000c4090069080000f0b54746ce4680b502
:1005400083b06b469d1d2b0001224e21040009f053
:10055000c5fb052203262b786a4407001e409046ff
:10056000022e4ed01b0738d04346012252212000d4
:1005700009f0b4fb43461a780f231340464a074359
:10058000a25c5221134342462000137043460122cd
:1005900009f0e8fb2b00074301224e21200009f05f
:1005a0009dfb03222b780743934313432b700122b7
:1005b0002b004e21200009f0d5fb0743c82008f08e
:1005c000f1fa002e03d1354be35c002b3bd1380010
:1005d00003b00cbc90469946f0bd304be35c002b59
:1005e0003ad107236b44994601224c21200009f09f
:1005f00075fb4b461a7810231340294a0743a3542e
:10060000b2e71b07b0d407236b4498460122502160
:10061000200009f063fb43461a780f231340013b87
:1006200007430e2b34d81f4a9b009b58984608213d
:100630002000fff755fe0743404608f0b3fa0523b4
:100640006b44984690e708f0a9fa86231b019c4664
:10065000644420606160bae713005f21012220003a
:1006600009f03cfb43461a780323414613430b70c1
:100670000d4b0743e35c002b02d013231a430a708f
:10068000434601225f21200009f06cfb0743a8e7e5
:10069000064b9846cbe7c046740800006a08000085
:1006a0006808000008d700006908000000c40900bd
:1006b000f0b5ce4647466f4b80b5c418236883b06b
:1006c0000600013300d176e008f068fa226863681a
:1006d000994252d9801a9941002900d1c2e06b4653
:1006e0009c1d230001224e21300009f0f7fa0c2551
:1006f00003232278804615401340022b60d06b46be
:100700005f1d130741d03b0001225221300009f048
:10071000e5fa43460f22034398463b785221934320
:10072000554a3000b25c13433b7001223b0009f094
:1007300019fb47462300074301224e21300009f0f0
:10074000cdfa0c22237807439343134323700122ed
:1007500023004e21300009f005fb0743c82008f0b4
:1007600021fa002d03d1454bf35c002b51d1380009
:1007700003b00cbc90469946f0bd994245d0012487
:100780000025644200196941a4e73c4bf35c002b4f
:1007900047d1072301226b444c213000994609f0d0
:1007a0009dfa4346034398464b461a78102313405c
:1007b000334ab354a7e76368002b00d084e78ee781
:1007c0006b465f1d13079ed407236b449946012295
:1007d0005021300009f082fa4b461a780f23474621
:1007e0001340013b07430e2b39d8264a9b009b58e8
:1007f000994608213000fff773fd0743484608f08b
:10080000d1f96b46b8465f1d7de7904200d961e79c
:10081000b5e708f0c3f91c4b9c4666443060716034
:10082000a5e73b0001225f21300009f057fa43465b
:100830000343984603233a7813433b70134bf35c0e
:10084000002b02d013231a433a703b0001225f2190
:10085000300009f087fa43460343984699e70c4b6a
:100860009946c6e70b4b984200d938e70a277f42e2
:100870007de7c04678080000750800006a0800009f
:100880006808000008d70000580800006908000048
:1008900000c40900f049020070b582b06b46dc1d4f
:1008a000230001225421060009f018fa02222378bd
:1008b0000500934313432370012223005421300089
:1008c00009f050fa284302b070bdc04670b582b03e
:1008d0006b46dc1d230001225421060009f0fef9bd
:1008e00002222378050093432370013a2300542108
:1008f000300009f037fa284302b070bdf0b583b07c
:100900006b46dc1d23000e0001225421070009f074
:10091000e5f908222378050093431e43073a230094
:1009200054213800267009f01dfa284303b0f0bda9
:100930000023f0b5ce4647469946002380b583b0e4
:1009400001ad2b804b46ab706b46df1c04230c00c3
:100950003b7001223b007621804609f003fa2b0010
:10096000060003224f21404609f0b8f94b460643e2
:100970003b7001223b007621404609f0f3f9012348
:100980002a783043511119402170d11019406170fb
:10099000911052101a40e2706a781940a17011113a
:1009a000194021715110194061719110d2101a40f3
:1009b000e271aa781940a1715111194021721111e7
:1009c00019406172d11019401340a172637303b0d2
:1009d0000cbc90469946f0bd0023f0b5ce46474684
:1009e0009946002380b583b001ad2b804b460c00a7
:1009f000ab7002222b006521804609f06ff96b462f
:100a0000df1c042306003b7001223b007621404698
:100a100009f0a8f96b460643063301224d214046f2
:100a200009f05cf94b4606433b7001223b007621fe
:100a3000404609f097f901232a7830439111194073
:100a40002170d11019406170911052101a40e2705b
:100a50006a781940a170d110194021711900114014
:100a60006171511092101a40e271aa781940a17177
:100a7000511119402172111119406172d1101940a0
:100a8000a17251101940e172911019401340217365
:100a9000637303b00cbc90469946f0bd0023f0b5db
:100aa000ce4647469946002380b583b001ad2b80e2
:100ab0004b460c00ab7002222b006821804609f0e7
:100ac0000df96b46df1c042306003b7001223b003e
:100ad0007621404609f046f96b460643063301226b
:100ae0004e21404609f0faf84b4606433b7001227e
:100af0003b007621404609f035f901232a7830433e
:100b0000911119402170d11019406170911052104b
:100b10001a40e2706a781940a170d1101940217111
:100b2000190011406171511092101a40e271aa78b7
:100b30001940a171511119402172111119406172ae
:100b4000d1101940a17251101940e1729110194051
:100b500013402173637303b00cbc90469946f0bdfb
:100b6000f0b5c646002300b582b001ad2b80ab7056
:100b70006b46de1c04230c00337001223300762107
:100b8000804609f0eff82b00070003224f21404672
:100b900009f0a4f82e222b780743934322785bb206
:100ba000002a01d0202213436278002a01d00822b3
:100bb0001343a278002a01d004221343e278002aca
:100bc00001d0022213431e222b706b7893432279ab
:100bd0005bb2002a01d0102213436279002a01d0af
:100be00002221343a279002a01d004221343e2799e
:100bf000002a01d0082213436b703923217aa87888
:100c00004a1e9141627a9843531e9a4113019c46b1
:100c1000a37a647b5a1e9341621e9441624640b29d
:100c20002043490101430a43db001343ab70032215
:100c30002b004f21404609f095f8002307433370fd
:100c4000012233007621404609f08cf8384302b087
:100c500004bc9046f0bdc046f0b5d6464f46464669
:100c60000023c0b582b001ae0c003380b370022205
:100c700033006521804609f031f86b46df1c042300
:100c800005003b7001223b007621404609f06af8de
:100c90006b460543063301224d21404609f01ef8fc
:100ca0004e2233780543934322785bb2002a01d069
:100cb000402213436278002a01d008221343a2780d
:100cc000002a01d004221343e278002a01d0022234
:100cd000134333700f2372789a43237952b2591e0b
:100ce0008b416179db00481e81410a431343a2799d
:100cf000002a01d002221343e279002a01d0042203
:100d0000134373703f23b078984343b2207a9946d7
:100d1000411e88414301607a9c46411e8841a17a68
:100d200000014a1e9141e27ac900531e9a415300c4
:100d30009a46237b647b5a1e9341621e94414a4625
:100d40001443624614435246204301430a439b0026
:100d50001343b3706b46012206334d21404609f020
:100d600001f8002305433b7001223b0076214046f9
:100d700008f0f8ff3300054302226521404608f0e1
:100d8000f1ff284302b01cbc90469946a246f0bd34
:100d9000f0b5d6464f4646460023c0b582b001aef8
:100da0000c003380b370022233006821804608f0c3
:100db00095ff6b46df1c042305003b7001223b00be
:100dc0007621404608f0ceff6b46054306330122ec
:100dd0004e21404608f082ff4e223378054393436c
:100de00022785bb2002a01d0402213436278002aa5
:100df00001d008221343a278002a01d00422134311
:100e0000e278002a01d00222134333700f23727854
:100e10009a43237952b2591e8b416179db00481ef7
:100e200081410a431343a279002a01d002221343cd
:100e3000e279002a01d00422134373703f23b07873
:100e4000984343b2207a9946411e88414301607a13
:100e50009c46411e8841a17a00014a1e9141e27ad6
:100e6000c900531e9a4153009a46237b647b5a1e45
:100e70009341621e94414a461443624614435246cb
:100e8000204301430a439b001343b3706b46012286
:100e900006334e21404608f065ff002305433b70b2
:100ea00001223b007621404608f05cff33000543f9
:100eb00002226821404608f055ff284302b01cbcbe
:100ec00090469946a246f0bd70b58eb06b460122a1
:100ed00006332d21050008f001ff041e03d16b46e7
:100ee0009b791b0702d420000eb070bd02ab02221a
:100ef0001d21280008f0f2fe3f4b0400eb5c102b94
:100f000040d06a46128907ab5a8203ab06221f21e2
:100f1000280008f0e3fe384e0443ab5d102b4cd0a4
:100f20006a46928907abda806a46d2891a816a4694
:100f3000128a5a8105ab06222521280008f0cefe30
:100f40002d4e0443ab5d102b22d06a46928a07ab2c
:100f50009a816a46d28ada816a46128b1a826b6a51
:100f6000002b01d007a8984702232a7e9a43bad1c2
:100f70006b4607331a7075210132280008f0f2fe23
:100f80000443b0e72e2102a86944fff7cdf8bce77f
:100f90000aa905a8fff7c8f8ab5d102b23d12a21b9
:100fa000162069446844fff7bff8ab5d102b20d1d1
:100fb0000ba906a8fff7b8f8d1e7222103a86944d6
:100fc000fff7b2f8ab5d102b11d10e2009a96844d0
:100fd000fff7aaf8ab5d102b07d1262104a86944be
:100fe000fff7a2f8a6e707abb3e707ab9fe707abae
:100ff0009ae707abb0e7c0466808000001380e2842
:1010000003d8034b8000c05870470248fce7c04635
:1010100008d7000000c40900f0b5c64600b582b08c
:101020006b46dc1d230001220f004e21050008f055
:1010300055fe0323227880461340022b1fd0114b0c
:10104000eb5801330f4a5021ab506b469e1d3300c5
:101050000122280008f042fe0f2233780400934357
:101060001f430e3a330050212800377008f07afef3
:1010700043462043184302b004bc9046f0bd002311
:10108000e0e7c0466c080000f0b583b06b46dc1d9d
:1010900023000e0001224f21070008f01ffe0f223f
:1010a0002378050093431e430e3a23004f21380056
:1010b000267008f057fe284303b0f0bdf0b583b0aa
:1010c0006b46dc1d23000e0001225021070008f0b2
:1010d00005fe1f232278050013401e430122230032
:1010e00050213800267008f03dfe284303b0f0bdc3
:1010f000f0b583b06b46dc1d23000e0001224f21aa
:10110000070008f0ebfd1f232278050013401e4363
:10111000012223004f213800267008f023fe2843c7
:1011200003b0f0bd30b50d4b83b0c35c0d00002b98
:1011300003d00b4bc35c012b0cd06b46dc1d230092
:101140000122502108f0cafd1f22237893432b70ff
:1011500003b030bd002300200b70f9e769080000e0
:101160006a08000030b50d4b83b0c35c0d00002b46
:1011700003d00b4bc35c012b0cd06b46dc1d230052
:1011800001224f2108f0aafd1f22237893432b70e0
:1011900003b030bd002300200b70f9e769080000a0
:1011a0006a080000f0b5c64600b582b06b46dc1d8b
:1011b0000e00230001225221050008f08ffd0f27a9
:1011c0008046237801223b40334323705221230081
:1011d000280008f0c7fd43460343181e02d1034b05
:1011e000be43ee5402b004bc9046f0bd720800004d
:1011f000f0b5c64600b582b06b46dc1d0e0023007c
:1012000001225221050008f069fd0f27804623784e
:1012100001223b403343237052212300280008f071
:10122000a1fd43460343181e02d1034bbe43ee54b7
:1012300002b004bc9046f0bd74080000f0b5c6468c
:1012400000b582b06b46dc1d0f0023000122522145
:10125000050008f043fd0f26804623780122b343a2
:101260003b43237052212300280008f07bfd4346b6
:101270000343181e02d1034b3e40ee5402b004bc9f
:101280009046f0bd75080000f0b5c64600b582b0c6
:101290006b46dd1d01222b004e21060008f01efdcd
:1012a0002a780700130703d003231340022b28d109
:1012b0006b46012206331621300008f00ffd05238e
:1012c0006b4498460023424604001370162143469f
:1012d0000122300008f046fd6b460443063301222c
:1012e0001621300008f03efd3c43044343460122f2
:1012f0007521300008f0f2fc204302b004bc904697
:10130000f0bd6b46022205331a704b21013a3000c2
:1013100008f028fd3843f0e7f0b583b06b469d1d1b
:101320002b0001224e21040008f0d8fc0c222b785f
:101330001a421bd1224e093a9343a25d002a17d0cc
:101340000121204a2b70a1542b0001224d31200095
:1013500008f008fd002105002000fef7c1ffa35d95
:101360000543002b12d1280003b0f0bd03229343a4
:101370002b7001222b004e21200008f0f3fc0021ed
:1013800005002000fef7acff0543ece76b46df1dd0
:101390003b0001225f21200008f0a0fc13223b78d3
:1013a000060093433b70123a3b005f21200008f097
:1013b000d9fc06432000fff767ff35430543d2e71a
:1013c0006a0800006b080000f0b583b06b469d1df5
:1013d0002b0001224e21040008f080fc03232a7810
:1013e0000600134034d1404f0c339a43e35d002b89
:1013f00032d001213d4b2a70e15401222b004d31a6
:10140000200008f0affc3043050007f0c7fb384b65
:10141000e31818605960e35d002b2dd06b46df1d8b
:101420003b0001225f21200008f058fc13223b788a
:10143000060093433b70123a3b005f21200008f006
:1014400091fc304305432000fff71eff054313e0e6
:10145000022b14d00c239a432b002a704e21012218
:10146000200008f07ffc3043050007f097fb204b7d
:101470009c46644420606160280003b0f0bd0821f0
:101480002000fef72dff0c2207002b784e219343fe
:101490002b700b3a2b00200008f064fc3d00054344
:1014a00007f07cfb124b0122e318186059606b4671
:1014b000df1d3b005021200008f010fc0f233a787c
:1014c00035431340013b05430e2b0bd8094a9b00c3
:1014d0009858400007f066fb00212000fef700ff4f
:1014e0000543c9e70448f5e76a0800006b080000f7
:1014f0007808000008d7000000881300f0b5de4629
:10150000574645464e46e0b58fb004aa9446072399
:1015100063449a4600235246137063460122063301
:101520002d21040008f0dafb051e04d1062204abcd
:101530009b791a4207d128000fb03cbc90469946cf
:10154000a246ab46f0bd06ab043a2e21200008f0bf
:10155000c5fb002800d054e104ab1b890093002b8d
:10156000e9d0d94be35c002b00d04ce11023984626
:101570009946237e022b00d096e1009b27004d4622
:101580000026994644373b002a003021200008f00d
:10159000a5fb002800d0c6e10136b6b247444e454f
:1015a000f1d10023002507ae1f0017e1911c1000a8
:1015b000029144318b46111d039144316118019110
:1015c000c24944308846615c2018a344102900d1e8
:1015d00031e1a21840784432127800020243f280ce
:1015e0005a465178029a0902a218443212780a43e4
:1015f0003281019a5178039a0902a2184432127872
:101600000a4372810735adb29a062cd5aa1c443222
:10161000a21801922a1d2800029244329046ab4a39
:1016200044309346a25c2018a044102a00d120e147
:10163000621941784432127809020a43b281019a50
:101640005178aa1ca2184432127809020a43f28186
:10165000424651782a1da2184432127809020a43e0
:1016600032820635adb260221a421dd0503a1a427b
:1016700000d1cce02800954a4430a25c2018102a02
:1016800000d12be1621941784432127809020a43f1
:1016900072828f4a1220315e0235adb2914203d080
:1016a000102231680a4332600c221a421dd02800f1
:1016b000864a4430a25c2018102a00d1b5e0621995
:1016c00041784432127809020a43b280042202357a
:1016d000adb21a4206d07f49615c002902d131685f
:1016e0000a43326000217b4aa15410221a409346db
:1016f00059062ad576490622b05e884225d00822ae
:10170000b05e884221d00a22b05e88421dd05a467f
:10171000002a0ed0611908004430007800093075a5
:1017200008004631453000780978000909097075cc
:10173000b175862212019046a044424612680132d9
:1017400000d1dce05a0700d40ee199062cd560499f
:101750000c22b05e884227d00e22b05e884223d091
:101760001022b05e88421fd05a46002a11d060195c
:10177000010044310a780f210a40f275452294464f
:1017800084446246127846300a403276007801403e
:101790007176514a9046a04442461268013200d107
:1017a000b7e05b0700d4c3e05b46002b01d00335f4
:1017b000adb2636a002b01d0300098470222237e2d
:1017c000934305d15346013a7521200008f0cafa27
:1017d0000137009bbfb2bb4200d188e000233360d9
:1017e0002b0044339946a1444b461b786a1c59b2de
:1017f00092b2002900da7ce0590600d5d6e6150041
:1018000002e7050097e6142398469946b1e6611968
:1018100044310978013549b27182adb2803100d1cd
:1018200042e731680a4332603ee708a9fef77cfcd4
:101830004b461b784ae704ab9c4602316144fef7f5
:1018400073fc4346e35c102b00d0ace009a958467a
:10185000fef76afc4346e35c102b00d0a0e004ab2b
:101860009c46162101986144fef75efc4b461b78ae
:10187000c8e60aa9fef758fc5b46e35c102b00d0d3
:1018800097e004ab9c461a2101986144fef74cfc9a
:101890005b46e35c102b00d088e00ba94046fef7c6
:1018a00043fc4b461b78dce64246009b30215a4302
:1018b00023002000443308f011fa051e00d170e621
:1018c0002000fff7e1fc36e6690800006808000028
:1018d0000080ffff6b0800005808000004ab9c4626
:1018e0001e216144fef720fc4b461b78d1e61d000b
:1018f00021e601252000fff7c7fc6d421be64246aa
:101900005268002a00d01de701213268114331607e
:101910001be742465268002a00d042e702233268a1
:101920001343336040e705002000fff7adfc02e6fb
:1019300007f034f943461a685b68801a9941002918
:1019400002d11d4b984209d901220023414652423f
:101950000a604b6002233268134333604b46102207
:101960001b781a4093461fe707f018f943461a6898
:101970005b68801a9941002902d1104b984209d91d
:1019800001220023414652420a604b600123326823
:10199000134333604b4610221b781a409346d4e61b
:1019a0004b461b7825e64b461b7819e64b461b78c1
:1019b0004ee64b461b7842e65fea00001f4e0000f1
:1019c000f0b5134e83b0835d04000025002b05d0d5
:1019d00028000f4a0133a35403b0f0bd6b46df1d4e
:1019e0003b000122542108f079f910223b780500d0
:1019f000934313433b7001223b005421200008f025
:101a0000b1f90543c82007f0cdf8a35de0e7c04673
:101a100054080000f0b5114e0400835d83b000202f
:101a2000002b04d00d4a013ba35403b0f0bd6b461c
:101a3000df1d3b0001225421200008f04ff9102245
:101a40003b78050093433b700f3a3b005421200044
:101a500008f088f9a35d2843e4e7c0465408000075
:101a6000f0b5c646042300b582b001ad0e002b7060
:101a700001222b004b21804608f074f96b46df1cd5
:101a8000012304003b7001223b007621404608f010
:101a900069f92b00044303226221404608f01ef935
:101aa000002304433b7001223b007621404608f0ae
:101ab00059f9f0216b782a781b029b18aa78090340
:101ac00012040a409b182043336002b004bc9046c5
:101ad000f0bdc046f0b5c64600b582b005006b4605
:101ae000002946d0df1d012301223b7076213b00f7
:101af00008f038f96b469e1d0400330001227b215b
:101b0000280008f0ebf806223378044393430422bc
:101b10009046424613433370012233007b21280054
:101b200008f020f9002304433b7001223b0076219a
:101b3000280008f017f93300044301224d21280042
:101b400008f0ccf80422337804439343424613430d
:101b50003370012233004d21280008f003f90821d9
:101b600004432800fef7cafe204302b004bc90469e
:101b7000f0bd9e1d330001224d2108f0aff8042274
:101b80003378040093433370033a33004d21280027
:101b900008f0e8f82043e8e710b582b06b46dc1d9a
:101ba000230001224d2108f099f820784007c00f4a
:101bb00002b010bd0122024bc25400207047c04643
:101bc000690800000022024bc25400207047c04642
:101bd00069080000f0b5c646002200b586b00023b3
:101be00090466a460293039304939382484b050000
:101bf0000f1ec15460d001295bd1d61d33000122d4
:101c00004c2108f06bf820223378040093434022e3
:101c100013433370012233004c21280008f0a2f84e
:101c2000802304433370012233001621280008f07a
:101c300099f83300044301225421280008f04ef89b
:101c400001223378044313433370012233005421bb
:101c5000280008f087f83300044301225f212800a0
:101c600008f03cf803223378044393432c221343b7
:101c70003370012233005f21280008f073f833002d
:101c80000122044360212800377008f06bf802a994
:101c900004432800fef7a0fe6b464246044302a917
:101ca00028005a72fef7d8ff204306b004bc9046c5
:101cb000f0bd01204042f8e74346d61d33700122b3
:101cc0003300162108f04ef83300040001225f2192
:101cd000280008f003f803223378044393430c22ce
:101ce00013433370012233005f21280008f03af8d3
:101cf00002a904432800fef76ffe01236a4604434d
:101d000002a928005372fef7a7ff2043cde7c04683
:101d10006a080000f0b5de46454657464e46e0b537
:101d200017008822040089b012010d0000210cf078
:101d3000f7fb230007cd07c307cd07c32a68e74891
:101d40001a6006f02fff04ab984601234246762125
:101d5000137020004346012208f004f8237e060099
:101d6000012b1ad0002b00d1e3e1022b00d1c5e1f9
:101d7000002342467621137020004346012207f0db
:101d8000f1ff30430b2676420643300009b03cbcdd
:101d900090469946a246ab46f0bd03ab9946022356
:101da0004a467a21137020004b46012207f0daffe1
:101db0000643002342467621137020004346012249
:101dc00007f0d0ff0643e0d14246c54b67623c3383
:101dd00023cb23c21b8820001380fef7b9f902af82
:101de0003b00050001224f21200007f077ff05434b
:101df000ab4609256d442b0001225021200007f03d
:101e00006dff5b4603439b461f233a784f211a40e0
:101e10003a702a7820001340402213432b7001228d
:101e20003b0007f09fff5f462b0007430122502134
:101e3000200007f097ff6b46dd1d2b0007430122b2
:101e4000162120002e7007f08dff2b000743012282
:101e50006221200007f042ff70222b780743934352
:101e60002b706f3a2b006221200007f07bff0743a5
:101e7000bb460a276f443b0001225421200007f093
:101e80002dff5b46022203439b463b7892469343d9
:101e90003b70013a3b005421200007f063ff5f468e
:101ea000082107432000fef729fd012107432000f8
:101eb000fff790fe2b00074301221421200007f0ba
:101ec0000dff03222b78074313432b7001222b00b5
:101ed0001421200007f046ff414607432000fef78b
:101ee000bbfe4246012341460743200053709670d3
:101ef000fef736fe2b00074301226421200007f085
:101f0000edfe10222b78074393432b700f3a2b00e2
:101f10006421200007f026ff2b00074301225121f6
:101f2000200007f0dbfe0c222b789046934304221e
:101f300013432b7007432b0001225121200007f08f
:101f400011ff2b00074301225321200007f0c6fe9a
:101f500018222b7807439343082213432b70012246
:101f60002b005321200007f0fdfe5e4b4a46e6544d
:101f700004230743137076214b460122200007f00b
:101f8000f1fe4a46584b074313800d234a219370b4
:101f900020004b46032207f0e5fe0743b9460b2716
:101fa0006f443b000122762120003e7007f0dafeec
:101fb0004b4603439946434601222b7057212b0081
:101fc000200007f0cffe4b46882203439846474b3c
:101fd0005200e25260239b465a46454b7621e2541a
:101fe000032326643b705f3a3b00200007f0bafef3
:101ff00043460343984601222b002e21200007f080
:102000006dfe43465246034398462b782e21934358
:102010002b70013a2b00200007f0a4fe4346034337
:10202000984601222b003221200007f057fe43463c
:102030005a46034398462b78322193432b705f3adc
:102040002b00200007f08efe4346034398460122f2
:102050002b003721200007f041fe43465a46034338
:1020600098462b78372193432b705f3a2b00200042
:1020700007f078fe43460343984601222b003c219b
:10208000200007f02bfe43465a46034398462b7820
:102090003c2193432b705f3a2b00200007f062fe37
:1020a00045463b0005430122762120003e7007f0a3
:1020b00059fe104b0122e118002352420a604b6086
:1020c0008621090161180a604b600b4905438c4663
:1020d00064442e002260636057e6c046b80b0000df
:1020e00008d70000690800000d0d0000740800000a
:1020f00072080000580800007808000003ab9946f9
:1021000001227c21200007f0e9fd4b460c221b78c0
:10211000050013434a467c21137020004b460122e0
:1021200007f020fe28430643e36820009847064353
:102130003fe603ab994601227c21200007f0cefd4b
:102140004b4603221b78050093434a467c211370bb
:1021500020004b46012207f005fe2843064328e6ef
:10216000f0b5de46454657464e46e0b591b002aa68
:102170000623944663441980090b9b460b03804653
:10218000029366d104af3900fef726fc08ae0400c6
:1021900031004046fef782fc0cad04432900404666
:1021a000fef7c6fbbb7804439a46b378524699467d
:1021b000ab7801934b46012a39d0012b41d0ab7843
:1021c000012b2cd05b4602226021404607f0cafd5d
:1021d000bb780443534506d0534639004046bb7094
:1021e000fef73afd0443b3784b4506d04b46310029
:1021f0004046b370fef7ccfd0443ab78019a93429e
:1022000005d029004046aa70fef7aafc044320002e
:1022100011b03cbc90469946a246ab46f0bd0023a7
:1022200029004046ab70fef79bfc0443cae7029bc3
:1022300039004046bb70fef70ffdb3780443012b15
:10224000bdd1002331004046b370fef7a1fd044329
:10225000b5e70b246442dae770b582b06b46012221
:1022600006335421050007f039fd002830db6b46aa
:1022700008269b7928001e40fdf732ff002812d067
:1022800080246404002e0bd06b46de1d3300012237
:102290004d21280007f022fd337824015b071ad472
:1022a000200002b070bd6b46dc1d230001224d21d1
:1022b000280007f013fd237804241c4063425c418e
:1022c000064b64421c4080235b049c466444d9e76f
:1022d00001246442e4e7024ce2e7c0461111110018
:1022e0000080841e30b583b06b46dc1d23000122c4
:1022f0004d21050007f0f2fc23785b0702d5074863
:1023000003b030bd2800fdf7ebfe431e9841044b9f
:1023100040421840034b9c466044f1e70080841e15
:10232000efeeeeff1111110100487047b8e6000012
:020000040000fa
:10233000402700201c00000000000000942700201f
:102340000400000000000000f4250020c000000090
:10235000000000006c2700200c00000000000000be
:10236000842700200800000000000000aa270020a9
:102370000100000001000000010000000811002021
:10238000e00a000000000000a82700200200000072
:1023900000000000b8350020280000000100000007
:1023a0000100000084050020140500201405002011
:1023b000f3ded1be6c9b4d1a84aa209c9f73c0cbc8
:1023c000010000001405002000000020081100009a
:1023d000000000007c3100207003000001000000bc
:1023e0002c2700200a000000042700200a0000001b
:1023f00000000000001023c500005f430100000042
:1024000000806dc50000cac30200000000b00bc50b
:102410000000a842030000000020f0c4004039443e
:10242000040000000020ecc400209d4405000000d2
:102430006008fd4016202245060000007127e44395
:10244000650d304507000000db000f4f8dd9db51d3
:1024500008000000fd3cd54e70e95d510900000008
:10246000a2c58543f2d2fe440a000000000000002d
:102470000000d0410b00000000000000000060429e
:102480000c00000000002c42008c25460d000000ce
:102490008c2e8a41ba9c1f460e00000070d1254147
:1024a0002e9aae4518000000acc4f44c11c1db52aa
:1024b0001b000000c889f34cebda735242000000a5
:1024c0000000204100d0674544000000c8b842c465
:1024d000f76a1a454500000045001bbf5f858d3e29
:1024e00047000000aae791c15057964148000000fc
:1024f000b16a65c419c7fc44490000007c0379bf78
:102500009634ff3e4b000000001c91478050df478f
:102510004d000000801b8b478051dd4762000000aa
:102520000034944700bdd74763000000804a9047bd
:10253000805eda477e00000080908b470088eb4782
:102540007f00000080ff8b470088eb479000000071
:1025500080b69d4780eddd479200000080ca974716
:1025600000b2dc47ad00000000b289478050d6477a
:10257000ae00000000e48b470044d647be000000d8
:102580000000803f0000c040bf00000000009041fc
:1025900000d8f645c00000000000803f0000c040a9
:1025a000c10000000010efc50000c0c0c200000064
:1025b000006052c500009cc2c30000000000000083
:1025c00083c04a3fc4000000000000000000803fbc
:1025d000c500000028530c42d5579f45d500000088
:1025e00084e3644281df3045e5000000001393433b
:1025f00077419545f5000000dbe1834187af474512
:1026000005010000f5a150c0df5341400601000064
:102610000e58873fa31310400701000038dd883fa4
:10262000854f0b4008010000241d3e3fc4120340ab
:1026300009010000009018c433b316440a010000d9
:10264000a435dd4324bf1f450b0100008a49db4050
:10265000cfe6e0440c010000ac9c4ec4d5f8d54454
:102660000d0100001d6a04c5d90e61440e01000071
:102670007513a44312a322450f0100000cc21ec40f
:1026800089e1c74410010000007006c54676684421
:10269000110100007dff04c508ec60441201000038
:1026a000b80e26c58776924413010000983e30c5c7
:1026b000a09aadc314010000a69b08c5fc6916448e
:1026c0001501000000a002c5004060441601000092
:1026d00000403fc50000ffc317010000009010c577
:1026e0000080474418010000000040c200009e42e4
:1026f00019010000000048c2000092421a010000c7
:10270000000048c2000098421b01000000e872c6a9
:1027100000d8bd451c01000000100ec500e0934527
:102720001d01000000c0a9c400d02a461e010000ff
:10273000007025c5000034451f0100002089874234
:102740002e1fec4a20010000627cd0426e52914a5a
:10275000042700203c000000000000005c2700204f
:102760001000000000000000ac270020ce0900008f
:102770000100000007001900b4270020603100208c
:102780004431002034310020183100200031002075
:10279000e8300020dc300020c4300020b0300020c1
:1027a0009c300020903000207c30002064300020dd
:1027b0004c30002040300020283000201030002015
:1027c000f82f0020ec2f0020d42f0020b82f00205d
:1027d0009c2f00208c2f0020702f00205c2f0020c9
:1027e000482f00203c2f0020282f0020102f0020f1
:1027f000f82e0020ec2e0020d42e0020c02e002029
:10280000ac2e0020a02e00208c2e0020742e002044
:102810005c2e0020502e0020382e00201c2e002080
:10282000002e0020f02d0020d42d0020c02d0020ef
:10283000ac2d0020a02d00208c2d0020702d00201c
:10284000542d0020442d0020282d0020102d002084
:10285000f82c0020ec2c0020d42c0020b82c0020d8
:102860009c2c00208c2c0020702c0020542c00204c
:10287000382c0020282c00200c2c0020f82b0020c5
:10288000e42b0020d82b0020c42b0020b02b0020ec
:102890009c2b0020902b00207c2b0020682b0020fc
:1028a000542b0020482b0020342b00201c2b002010
:1028b000042b0020f82a0020e02a0020cc2a002047
:1028c000b82a0020ac2a0020982a0020802a002064
:1028d000682a00205c2a0020442a00202c2a00209c
:1028e000142a0020082a0020f0290020d4290020e2
:1028f000b8290020a82900208c2900207829002050
:1029000064290020582900204429002004002800c0
:102910000300300001002c00040002000000000051
:10292000b91b0046004e0000000000000800030034
:10293000000005000000070000000000000000008b
:10294000010002000000040000000600000000007a
:1029500000000000260046000300040003000500fc
:1029600006001200010002003e000300000000000b
:102970007702005b5100003800008c00000000006e
:102980000a00030000000700060000000000090024
:10299000000000000c000000000000000100020028
:1029a0000000040005000000000008000000000016
:1029b0000b000000000000002f001a004700030079
:1029c0000f00020004003a000000020006000000b0
:1029d00095c41f001e000070000000000a000700e0
:1029e00004000000060000000000090000000000d4
:1029f00000000000010002000300000005000000cc
:102a000000000800000000000000000000001c00a2
:102a1000000006002b00030005000a00050002006c
:102a20000600000061d7000040009f130000000076
:102a30000400030000000000060000000a00090076
:102a40000000000000000000010002000000000083
:102a50000500000007000800000000000000000062
:102a60001a001b002f0003003200050004000600be
:102a700000000000dccd2800cb00000000000000ba
:102a8000080007000400000006000000000000002d
:102a9000000000000100020003000000050000002b
:102aa00000000000000000001700150044000500b1
:102ab00002004200060006000300010000000000c2
:102ac000d0462e0000930085000000000a0005009b
:102ad00004000000000007000000090000000000e2
:102ae00000000000010002000300000000000600da
:102af000000008000000000000000000110020009d
:102b0000290003003e00040002000600000000004f
:102b1000acd71b008a00000000000000080007007e
:102b2000040000000600000000000000000000009b
:102b3000010002000300000005000000000000008a
:102b40000000000017000d00030022003f000200fb
:102b50000100060000000000d02000767a0000008e
:102b6000000000000800030000000700060000004d
:102b7000000000000000000001000200000004004e
:102b8000050000000000000000000000130000002d
:102b900042002b00020004000100060005000000b6
:102ba0004100d0a749000000000000000200000022
:102bb0000800070006000000000000000000000000
:102bc00001000000030004000500000000000000f8
:102bd0000000000039000000000003001d00060096
:102be00005001b00030005003e000100020000007c
:102bf0003699000055004f6b00008a00000000006d
:102c00000400030000000000060000000a000900a4
:102c1000000000000c0000000000000001000200a5
:102c20000000000005000000070008000000000090
:102c30000b00000000000000110032001300000033
:102c400003002d001700020001000d000600050022
:102c500000000000ad3759000082b10000590000ab
:102c6000000000000c000500040000000000090046
:102c70000800000000000b00000000000000000041
:102c80000100020003000000000006000700000031
:102c900000000a0000000000000000002b000300fc
:102ca0001d0039002400010005002a000600040070
:102cb000000000004000c2b5ad000062000000004e
:102cc000020000000a0007000600000000000900e2
:102cd00000000000000000000100000003000400ec
:102ce00005000000000008000000000000000000d7
:102cf0001700170012000300060029004000020020
:102d0000030046000500060000000000d048420015
:102d1000005c420000080000000000000c000500fc
:102d200004000000000009000800000000000b0083
:102d3000000000000000000001000200030000008d
:102d4000000006000700000000000a00000000006c
:102d500000000000190042000600020004001800f4
:102d60000300010000000000c38500300090000057
:102d7000000000000800030000000500000007003c
:102d8000000000000000000001000200000004003c
:102d90000000060000000000000000003e003000bf
:102da0000c000100040015000500420006000300ad
:102db00037000000020000008c53b200003d00b25a
:102dc0000000ba00000000000a0005000400000036
:102dd0000000070000000900000000000c000000d7
:102de00000000000010002000300000000000600d7
:102df00000000800000000000b00000000000000c0
:102e00002d0000000900060011003000040005003c
:102e10004000020001000000270022003e64000084
:102e20004700000002000000040000000800070046
:102e3000000000000a000000000000000100000087
:102e4000030000000500060000000000090000006b
:102e5000000000000d0003002a0006000600040028
:102e6000000000000100000020003a00740064002f
:102e70000000000002000000040000000600000046
:102e80000800000000000000010000000300000036
:102e900005000000070000000000000039000000ed
:102ea000360025000100030020004100020004005c
:102eb000060000002b0093b00000d6420000000086
:102ec0000200000006000500000000000a000900e2
:102ed00000000000000000000100000003000400ea
:102ee00000000000070008000000000000000000d3
:102ef0002800030002003e0014000100050002004b
:102f0000000000001b00a08aa400000000000000d8
:102f1000020000000800070006000000000000009a
:102f20000000000001000000030004000500000094
:102f300000000000000000000400390022001b0017
:102f4000030001004000020005000c000600040020
:102f500000000000b4b13c7e0000490000690000a0
:102f6000000000000c000900060005000000000041
:102f70000800000000000b0000000000000000003e
:102f80000100020003000400000000000700000030
:102f900000000a0000000000000000001a0002000b
:102fa0000e0002003d0005000400030002000200c4
:102fb00000000000c4bb44009a000000880000002c
:102fc00008000700040000000600000000000000e8
:102fd0000a000000000000000100020003000000e1
:102fe00005000000000000000900000000000000d3
:102ff00001000500020000000d0003001b0043005b
:103000000100040006000000328d00002300d84ab1
:1030100000000000040003000000000006000000a3
:103020000a0009000000000000000000010002008a
:10303000000000000500000007000800000000007c
:1030400000000000040020004000020029000500ec
:103050000400060000000000b1d43300d5000000d9
:103060000000000008000700040000000600000047
:10307000000000000000000001000200030000004a
:103080000500000000000000000000002a004000d1
:1030900003000600120042000000020001000500cb
:1030a000000000004e500000b0ce8f000000000075
:1030b00004000300000000000a00090008000000ee
:1030c00000000000000000000100020000000000fd
:1030d00005000600070000000000000000000000de
:1030e0001e0042000600030025002e00060001001d
:1030f000020014000400050000000000a895000074
:10310000b832d500008e000000000000040003006b
:10311000000000000c0009000800000000000b0087
:10312000000000000000000001000200000000009c
:10313000050006000700000000000a000000000073
:1031400000000000f01f0020040600000000000046
:10315000982700200800000000000000b42600208e
:103160005000000000000000ec3400206c00000063
:1031700001000000f8340020f4340020f83400206e
:103180000000000025000000f01b002000040000eb
:10319000000000000000000000000000000000002f
:1031a000000000000000000000000000000000001f
:1031b000f9e6000000000000000000000000000030
:1031c00000000000c9d00000000000000000000066
:1031d00000000000000000000000000000000000ef
:1031e000e81b00200804000000000000e03500207b
:1031f00020000000010000000100000003000000aa
:1032000000000000000000000000000000000000be
:10321000000000008c2700208c2700200800000000
:1032200000000000a02700200400000000000000b3
:10323000583500206000000001000000010000007f
:10324000030000000000000000000000000000007b
:103250000000000000000000cdd3000000000000ce
:103260000000000000000000a5e60000d7ca000032
:10327000000000000000000000000000000000004e
:10328000000000000000000000000000000000003e
:1032900000000000000000000000000000360020d8
:1032a000040000000100000001000000a42700202d
:1032b0000400000000000000782700200c0000003f
:1032c0000000000000000000000000006666666666
:020000040000fa
:1032d000002370b50024074d2b606b6821019c46cc
:1032e000ab68614418198022103405f05df8702c29
:1032f000f3d170bdb8350020642343430248c018a1
:10330000436b18787047c046000000206423434395
:103310000248c018436b58887047c0460000002020
:10332000642343430148c018406b704700000020ed
:10333000642343430248c018436b5b680b607047cb
:10334000000000206423434330b50e48c018436b8f
:103350005c6858881b78012b0ad0002807d000230e
:103360000022e5580132cd5004339042f9dc30bde3
:1033700000230028fbd0e25cca5401339842fadcf7
:10338000f5e7c046000000206423434330b50e48f3
:10339000c018436b5c6858881b78012b0ad0002842
:1033a00007d000230022cd580132e550043390426b
:1033b000f9dc30bd00230028fbd0ca5ce2540133a5
:1033c0009842fadcf5e7c04600000020034b10b538
:1033d0001b68002b01d0fff77bff10bdb835002024
:1033e000314b7d2270b501241d005a66223a9a663f
:1033f00011329c546c35243a6a801a0074321a6770
:103400002a4a072110004430d06360201454002061
:10341000506610003c30906625489167106725483b
:103420001164d066244880268168dc8051670021c1
:103430009151c6680134d66706001c8110364e349f
:103440001e601971196159619961197719551b4ce1
:103450005d6304341c621a4cdc631a4c1c641a4c05
:103460005c641a4c9c641a4cdc6414007c345c620e
:10347000140074349c621c006434dc6214006032fa
:103480009a6320226c341c63845c002c01d0d960c8
:1034900081540368002b01d0fff71aff00210d486b
:1034a00006f04afe70bdc0460000002080000020eb
:1034b000840c002021010001b8350020000100200b
:1034c000ad3f0000294000007d400000354b00006a
:1034d0006d4b0000ac270020f0b564273b00c646ca
:1034e00043431d4d00b5eb181b7906005f4398461a
:1034f000eb199b6a5a68002a0bdd00241868220128
:10350000801804f0bfffeb199b6a01345a68a2428d
:10351000f4dc434664275f43eb195b6a5a68002a70
:103520000bdd002418682201801804f0abffeb19b2
:103530005b6a01345a68a242f4dc64235e430023d0
:10354000ad192a6b2b616b61ab612b7701209370f6
:1035500004bc9046f0bdc04600000020002070472b
:1035600070b5051e074c07d0642068432418a36a71
:10357000186804f09dff70bde16a20000af052fe59
:10358000f2e7c0460000002010b5fff7e9ff012078
:1035900010bdc046642343430348c0180023026b98
:1035a000037793707047c0460000002064234343b4
:1035b0000248c018036b98787047c046000000208e
:1035c0006423434370b50e4deb181c6b1a7f2188a2
:1035d0004a43002908d0930062680024d2180023cf
:1035e000013310c29942fbdc642358432d18ab6aa7
:1035f00000221868002101230af01af970bdc046a4
:1036000000000020642242430a4930b58a18137f23
:10361000146b0133dbb21377e278551eab4201d154
:103620000125a570934204d364235843002309184d
:103630000b7730bd0000002064234343034810b5de
:10364000c018c36c984780b210bdc046000000206f
:1036500064234343034810b5c018836c984780b275
:1036600010bdc04600000020002300b583b00193c8
:1036700064334343034801a9c018436c984703b01f
:1036800000bdc046000000206423534310b5010074
:103690000248c018c36b984710bdc0460000002008
:1036a00070b5010064244c4306480419236c984704
:1036b0000500012801d0280070bda36a186804f035
:1036c000f3fef8e70000002030b5134c83b02379f7
:1036d000984201d003b030bd0028fbd00020fff796
:1036e000dfff05000128f5d10020fff769ff002367
:1036f00001a901932000636c9847237f216b01335c
:10370000dbb22377ca78501e834200d18d7093427a
:10371000e0d300232377dde700000020642242434a
:10372000044b10b59b181b79834202d11800fff798
:10373000cbff10bd0000002010b5642460430b4c8b
:1037400024182000a36c984780b201280bd1e36ca9
:1037500020009847064b0004000cc3185a1e9341e2
:103760005b42184010bd01204042fbe700000020f2
:103770000100fffff0b564245443284e83b0341990
:103780000100e36b200015009847002837d028007f
:10379000fff786ff012832d100272800fff710ff2e
:1037a000019701a92000636c984701282dd12000c2
:1037b000a36c984780b2012824d1e36c200098477d
:1037c000174b0004000cc3185a1e93415b4218406b
:1037d00064226a43b218137f116b0133dbb2137793
:1037e000ca78541ea34201d101248c70934204d3a1
:1037f00064235d4300237619337703b0f0bd0120c5
:103800004042fae701204042e2e7236b2777280095
:103810009f70fff7a5fe02204042eee70000002067
:103820000100ffff70b5642454433b4e82b034194d
:103830000100e36b200015009847002866d028009f
:10384000fff72eff012861d12800fff7b9fe002302
:1038500001a901932000636c9847012833d1236ba1
:103860009b78002b2fd02000a36c984780b20128b2
:103870004fd1e36c20009847284b0404240ce31834
:103880005a1e93415b421c4064236b43f3181b791f
:103890009d4202d12800fff717ff64226a43b21845
:1038a000137f116b0133dbb21377ca78501e83424a
:1038b00001d101208870934225d364235d43002306
:1038c000761933771fe023799d4202d12800fff754
:1038d000fbfe64226a43b218137f116b0133dbb223
:1038e0001377ca78501e834201d101208870934219
:1038f00004d364236b43f618002333772800022493
:10390000fff72efe6442200002b070bd0124644225
:10391000f9e701246442b7e7000000200100ffff3f
:1039200070b564245443424e82b034190100e36bf5
:10393000200015009847002838d02800fff7b0fe77
:10394000012833d12800fff73bfe002301a9019392
:103950002000636c984701282ed1236b9a78002aa7
:103960004bd02000a36c984780b2012821d1e36c92
:10397000200098472f4b0404240ce3185a1e93414f
:103980005b421c4064236b43f3181b799d4209d0b2
:1039900064235d43002375192a6b2b7793702000f5
:1039a00002b070bd2800fff78ffef1e701246442ea
:1039b000f5e701246442e5e723799d4202d128001e
:1039c000fff782fe64226a43b218137f116b013342
:1039d000dbb21377ca78501e834201d10120887070
:1039e000934204d364236b43f618002333770224f5
:1039f0002800fff7b5fd6442d1e7227f0132d2b241
:103a00002277d9784c1ea24200d198708a4204d302
:103a1000642300226b43f3181a7764236b43f61870
:103a200033799d42e3d12800fff74efedfe7c04621
:103a3000000000200100fffff8b5de4657464e4665
:103a400045469246e0b59b46002a20dd8bb298465b
:103a50004b009946070000255b4664245c430f4bee
:103a600040469c466444a26a2b0116680135f6184c
:103a700004f084fc434682b23900300004f0c6fcf6
:103a800000234f4423616361a361aa45e4d13cbc98
:103a900090469946a246ab46f8bdc04600000020bd
:103aa00070b582b00500fff7fbfd012836d1642414
:103ab0002800fff785fd00236c431b4e019334194a
:103ac00001a92000636c9847012827d12000a36c2e
:103ad000984780b2012824d1e36c20009847134b0b
:103ae0000004000cc3185a1e93415b421840642224
:103af0006a43b218137f116b0133dbb21377ca78b4
:103b0000541ea34201d101248c70934204d3642338
:103b10005d4300237619337702b070bd0120404227
:103b2000fae701204042e2e7000000200100ffff29
:103b3000f0b583b00500fff7b3fd0700012836d1cb
:103b400064242800fff73cfd00236c432c4e0193b6
:103b5000341901a92000636c984701282ad120005c
:103b6000a36c984780b2012844d1e36c20009847a9
:103b7000244b0004000cc3185a1e93415b421840aa
:103b800064226a43b218137f116b0133dbb21377df
:103b9000ca78541ea34201d101248c70934204d3ed
:103ba00064235d4300237619337703b0f0bd012011
:103bb0004042fae7237f216b0133dbb22377ca78d7
:103bc000501e834200d18f70934204d3642300229d
:103bd0006b43f3181a772800fff7c2fc64236b438a
:103be000f61833799d4208d12800fff76dfd0220b9
:103bf0004042dae701204042c2e702204042d4e7d7
:103c0000000000200100fffff0b583b00500fff7c2
:103c100047fd012839d164242800fff7d1fc002397
:103c20006c432c4e0193341901a92000636c984712
:103c300001282ad1276b237ffa78511e8b4227d186
:103c40002000a36c984780b201283dd1e36c20008e
:103c50009847214b0404240ce3185a1e93415b42fd
:103c60001c4064236b43f3181b799d4209d06423e5
:103c70005d43002375192a6b2b779370200003b0e6
:103c8000f0bd2800fff720fdf1e701246442f5e7cd
:103c90000133dbb22377994200d1b8709a4204d83d
:103ca000642300226b43f3181a772800fff758fcaf
:103cb00064236b43f61833799d4208d1022428000f
:103cc000fff702fd6442d9e701246442c9e70224f8
:103cd0006442d3e7000000200100ffff002070478e
:103ce0000020704700207047002070470020704778
:103cf0000020704700207047002804dc64235843ec
:103d0000024bc05870470020fce7c046000000206e
:103d1000642343430348c018036b1a88d878504380
:103d20007047c046000000206423434330b5084874
:103d3000c018036b1a88d8785043002807d05c68f5
:103d400000238200cd58e55004339342fad130bdb0
:103d500000000020642343430248c018036b5868e6
:103d60007047c04600000020642343430248c01847
:103d7000036bd8787047c04600000020642343439b
:103d800030b50848c018036b1a88d878504300280b
:103d900007d05c6800238200e558cd50043393427d
:103da000fad130bd0000002064234343074ac0001d
:103db000d3181218906e1a69196b9446c978db886b
:103dc00001394843604458437047c0460000002012
:103dd000642343430148c018006970470000002075
:103de000642343430248c018836a58687047c0463a
:103df00000000020f0b5de4657464e464546e0b589
:103e000085b00393214b02929846642300224343da
:103e100043449b6a924601925a6881468b46002a27
:103e20002cdd5a46002a23dd52461701019a0299d9
:103e30005500039a0c0094460a005a446544160043
:103e400004e064234a46534343449b6a18682100b4
:103e5000c01904f011fb013428800235b442f0d1be
:103e6000019b4a465b4401936423534343449b6a4a
:103e7000012294465a68e2445245d2dc05b03cbc6b
:103e800090469946a246ab46f0bdc04600000020d1
:103e900064234343034810b5c018c36c984700041b
:103ea000000c10bd00000020642343430148c018eb
:103eb000806b704700000020642343430148c01812
:103ec000406970470000002064234343064ac00055
:103ed000d318196b1218c978906e013948435a6982
:103ee000121ad888504370470000002064234343cf
:103ef0000248c018503000787047c04600000020cb
:103f0000642343430a4830b5c018030050331b787c
:103f1000002b0cd0436b5c88002c08d000230022bf
:103f2000406dc5580132cd500433a242f9db30bd9b
:103f300000000020642343430a4830b5c018030042
:103f400050331b78002b0cd0436b5c88002c08d0be
:103f500000230022806dc5580132cd500433a242a7
:103f6000f9db30bd00000020642343430548c0183e
:103f7000030050331b78002b01d0c06d70470248fe
:103f8000fce7c04600000020000080bf64234343dc
:103f90000548c018030050331b78002b01d0006e79
:0c3fa00070470020fce7c0460000002035
:020000040000fa
:103fac00f0b5d6464f4646460022c0b503271a4cfc
:103fbc00924623680e001a80013291465a800132d3
:103fcc0090469a8002321a810132df805a81062390
:103fdc000500026a2100300063600af06df9524658
:103fec00236821001a804a465a8042469a802b6ade
:103ffc0042009c4630006244676009f037fcab6ab3
:10400c00296a18685a6809f09ffb01201cbc90466d
:10401c009946a246f0bdc0467c3100206423f0b521
:10402c00c6464b43c418a36a00b51868a16904f0ce
:10403c00d3fa071e15dd002300250c4e984602e02e
:10404c000135af420dd0a369e26a0133a361434647
:10405c003100200073600af0d5f80028f0d0012060
:10406c0001e00120404204bc9046f0bd7c310020b0
:10407c00f8b5de4657464e464546e0b5026b0500a0
:10408c001388007ffe4c43439a4600239946e36015
:10409c0002339b460f0059462368260019800123e2
:1040ac009846636053469900536808365b18320093
:1040bc002100280008f06cff4b4622683860e36052
:1040cc000333138042468244626052462b6b92004b
:1040dc005b6821009b182800320008f059ff4a4603
:1040ec0021683860e26004320a8041468244616093
:1040fc0051462b6b8a005b6821009b18280032000c
:10410c0008f046ff494603233860e1602168824489
:10411c000b804146616051462b6b8a005b68210025
:10412c009b182800320008f065ff494604223860cd
:10413c0082442068e16002804046606050462b6bf0
:10414c0082005b6821009b182800320008f052ffa7
:10415c00a36838605a468244ca48cb49186058460e
:10416c005960e26022682b6b1080424662605246b6
:10417c005b6892009b1821003200280008f01afaa4
:10418c00a36838605a468244bf49be4859601860db
:10419c000323e2602268210013804246626052468b
:1041ac002b6b92005b6828009b18320008f002fa17
:1041bc00a368386082444246b24821001860032349
:1041cc00e2602268280013804346524663602b6be2
:1041dc0092005b689b18320008f038faa3683860cc
:1041ec008244a848226818604346e3600433138075
:1041fc004246626052462b6b92005b6821009b1812
:10420c002800320008f022fa4a4605233860e260a2
:10421c002268824413804246626052462b6b9200a5
:10422c005b6821009b182800320008f00ffd00226b
:10423c00a36838601a604246434621688244e260b3
:10424c0002320a80514663602b6b8a005b68210046
:10425c009b182800320006f0effe386082440020e4
:10426c00a368216818604346e36004330b8043461f
:10427c00514663602b6b8a005b6821009b182800f9
:10428c00320006f0d9fe4b4621683860e3600533f6
:10429c000b8043468244514663602b6b8a005b68fb
:1042ac0021009b182800320008f09effa368764975
:1042bc003860196043464946e3602368824419809c
:1042cc004346514663602b6b8a005b6821009b1848
:1042dc002800320009f018f8a3686b49386019609f
:1042ec0043460421e36023688244198043465246c6
:1042fc0063602b6b92005b6821009b1828003200d6
:10430c0009f002f8a36860493860196043465a46c0
:10431c00e360236882441a804346524663602b6be9
:10432c0092005b6821009b182800320005f076fd96
:10433c004b4603223860e360236882441a8043466c
:10434c00524663602b6b92005b6821009b1828001f
:10435c00320008f035fb4b464a463860e360236870
:10436c0082441a804346524663602b6b92005b6812
:10437c0021009b182800320004f06efa4b4622688c
:10438c003860e360053313804346824452466360d1
:10439c002b6b92005b6821009b182800320004f004
:1043ac005bfaa368394a38601a6043464946e360b1
:1043bc002368824419804346514663602b6b8a0004
:1043cc005b6821009b182800320006f0b9fea36838
:1043dc002e4a38601a6043464146e36023688244a3
:1043ec001980616051462b6b8a005b6821009b1819
:1043fc002800320006f0a4fea368244a38601a6034
:10440c0043465946e360236882441980434651462b
:10441c0063602b6b8a005b6821009b1828003200bc
:10442c0006f08efea368194a38601a60434621686c
:10443c00e36004330b8043468244514663602b6b2c
:10444c008a005b6821009b182800320006f078fe79
:10445c00a3680e4a38601a6043462268e36005334d
:10446c00138043468244524663602b6b92005b6818
:10447c0021009b182800320006f062fe08e0c046be
:10448c007c3100200000c8420000a0400000b84170
:10449c004b464a463860e360236882441a804246a1
:1044ac005a805a4603219a8004200522d98018810b
:1044bc005a810623524663602b6b92005b68210085
:1044cc009b18280032000af07bf84b4642463860b5
:1044dc00e360236882441a80626052462b6b920020
:1044ec005b6821009b18280032000af079f84b46d3
:1044fc004a463860e360236882441a8042465a80f8
:10450c005a4603219a8004200522d98018815a81a9
:10451c000623524663602b6b92005b6821009b184c
:10452c002800320007f052fc4b464a463860e360e4
:10453c00236882441a804346524663602b6b920078
:10454c005b6821009b18280032000af051f84b469a
:10455c00386082440420e360236852461880434646
:10456c0063602b6b92005b6821009b182800320063
:10457c000af03ef84b46386082440420e36023681e
:10458c0052461880434663602b6b92005b68210097
:10459c009b18280032000af033f84b46052238608d
:1045ac00e360236882441a804346524663602b6b57
:1045bc0092005b6821009b18280032000af020f85a
:1045cc008322a368d20538601a6000225a605b46c9
:1045dc004946e36023688244198043465146636030
:1045ec002b6b8a005b6821009b182800320006f0b8
:1045fc00b9f88322a368d20538601a6000225a6089
:10460c005b4682440420e36023685146188043468d
:10461c0063602b6b8a005b6821009b1828003200ba
:10462c0006f0a0f88322a368d20538601a60002235
:10463c005a605b460522e360236882441a80434635
:10464c00514663602b6b8a005b6821009b18280025
:10465c00320006f087f88322a368d20538601a600e
:10466c0000225a605b462268e360043313804346a1
:10467c008244524663602b6b92005b6821009b184e
:10468c002800320006f06ef84b464a463860e3606c
:10469c00236882441a804346524663602b6b920017
:1046ac005b6821009b182800320007f031ff4b4655
:1046bc0042463860e360236882441a806260524646
:1046cc002b6b92005b6821009b182800320005f0d0
:1046dc0065ff4b465a463860e360236882441a8073
:1046ec004346524663602b6b92005b6821009b181b
:1046fc002800320005f052ff4b4605223860e3607b
:10470c00236882441a804346524663602b6b9200a6
:10471c005b6821009b182800320005f03fffa3685e
:10472c0038608244fb48424618604346e360236885
:10473c0021001a80626052462b6b92005b68280045
:10474c009b18320009f034ffa36838608244f249a8
:10475c00f048596018605b460321e36023685246b9
:10476c001980434663602b6b92005b6821009b1899
:10477c002800320007f0b6ffa36838608244e6498f
:10478c00e448596018605b460420e3602368524695
:10479c001880434663602b6b92005b6821009b186a
:1047ac002800320007f09eff4b46386082444a4690
:1047bc000420e360236821001a8058805b4652462f
:1047cc0063602b6b92005b6828009b18320009f029
:1047dc0095f84b464a463860e360236882441a8059
:1047ec0005325a805b46524663602b6b92005b68c5
:1047fc0021009b182800320009f080f84b464246f5
:10480c0003213860e360236882441a8059805b4638
:10481c00524663602b6b92005b6821009b1828004a
:10482c00320009f06bf84b46386082444246042053
:10483c00e360236821001a8058805b46524663600f
:10484c002b6b92005b6828009b18320009f056f81d
:10485c004b4642463860e360236882441a80043237
:10486c005a805b46524663602b6b92005b6821005a
:10487c009b182800320009f041f84b465a46386024
:10488c00e360236882441a8003325a805b465246a6
:10489c0063602b6b92005b6821009b182800320030
:1048ac0009f02cf84b463860824403210420e36065
:1048bc0023685246198058805b4663602b6b9200cc
:1048cc005b6821009b182800320009f017f84b4652
:1048dc00032105223860e3602368824419805a80e2
:1048ec005b46524663602b6b92005b6821009b1801
:1048fc002800320009f002f84b4638608046052249
:10490c000420e3602368d04418805a805b464246fa
:10491c0063602b6b92005b6821009b1828003200af
:10492c0008f0ecff4b465a463860e360236880443d
:10493c001a8003325a805b46424663602b6b9200ae
:10494c005b6821009b182800320008f07dfc4b4668
:10495c00032105223860e3602368804419805a8063
:10496c005b46424663602b6b92005b6821009b1890
:10497c002800320008f068fc4b4638608044052261
:10498c000420e3602368210018805a805b4642466d
:10499c0063602b6b92005b6828009b18320008f058
:1049ac0053fc4b464a4603213860e360236880443d
:1049bc001a8059805b46424663602b6b92005b68a1
:1049cc0021009b182800320008f06efc4b46386022
:1049dc0080444a460420e360236821001a805880f2
:1049ec005b46424663602b6b92005b6828009b1809
:1049fc00320008f059fc00231a003860e360236889
:104a0c0080441a8005325a800223404663602b6b27
:104a1c0082005b6821009b182800320008f044fcdf
:104a2c00002302211a00804438604046e36023686a
:104a3c001a8059802b6b82005b6861609b18210087
:104a4c003200280009f0c4fd0023386080440321a3
:104a5c000120e3602368424618805980022363607a
:104a6c002b6b92005b6821009b182800320009f028
:104a7c00affd002338608044022104204246e360ed
:104a8c0023689200198058802b6b61605b68210051
:104a9c009b182800320009f09bfd002338608044ed
:104aac0004200321e3602368588002381980606079
:104abc0040462b6b82005b6821009b18280032005b
:104acc0009f086fd00230321386080442068e360f0
:104adc000180414601202b6b8a005b6860609b184b
:104aec0021003200280006f0adfb002305222168ce
:104afc003860e36001330a8063602b6b40445b6871
:104b0c0080001b1832002100280006f09bfb386047
:104b1c00012003e00000c8420000a0403cbc9046cd
:104b2c009946a246ab46f8bd70b5416b056b0a4e73
:104b3c0084b02c88037f4a8868680396074e01333b
:104b4c00029600260196ed7863436c43009406f0c0
:104b5c00c3fe012004b070bd8c31002000007f43e7
:104b6c0010b5826b416b407a05f066fa10bdc046f9
:020000040000fa
:104b7c000104060a0d11151a1f252b323a434d5705
:104b8c0063717f90a2b6cc000506070708090a0bd3
:104b9c000c0d0f111314161a1c1f23262a2f340068
:104bac0000100c2996411d59276f4183039510a4c1
:104bbc0018b0dfb835be00c035bedfb818b010a4d1
:104bcc0003954183276f1d5996410c290010000055
:104bdc000008000800080008000800080008000889
:104bec000008000800080008000800080008000879
:104bfc000008000800080008000800080008fb076f
:104c0c00d5078a071a078906d9050c05280430032d
:104c1c00290217010000e9fed7fdd0fcd8fbf4fafd
:104c2c0027fa77f9e6f876f82bf805f8ed0756072a
:104c3c0035069d04ae028c005ffe52fc8afa2af9fe
:104c4c004cf800f84cf82af98afa52fc5ffe8c00fa
:104c5c00ae029d0435065607ed07d50789062804d4
:104c6c001701d7fdf4fae6f805f876f827fad0fc28
:104c7c0000003003d9058a07fb071a070c05290227
:104c8c00e9fed8fb77f92bf8b4077605a10152fda4
:104c9c00cbf913f8aaf863fb74ffae03d606000831
:104cac00d606ae0374ff63fbaaf813f8cbf952fdda
:104cbc00a1017605b4078a072804e9fe27fa05f84e
:104ccc0077f9d7fd30031a07d5070c050000f4fa65
:104cdc002bf8e6f8d0fc29028906fb07d905170149
:104cec00d8fb76f85607ae0252fc4cf82af95ffe58
:104cfc009d04ed0735068c008afa00f88afa8c00c0
:104d0c003506ed079d045ffe2af94cf852fcae0205
:104d1c0056071a07170127fa2bf8d0fc2804fb07b3
:104d2c000c05d7fd76f877f9000089068a07290269
:104d3c00f4fa05f8d8fb3003d507d905e9fee6f8f7
:104d4c00d60674ffaaf8cbf9a101b407760552fd7b
:104d5c0013f863fbae030008ae0363fb13f852fdbc
:104d6c007605b407a101cbf9aaf874ffd60689061b
:104d7c00d7fd05f8d0fcd9051a07e9fe2bf8d8fbae
:104d8c000c058a07000076f8f4fa2804d5071701f9
:104d9c00e6f827fa3003fb07290277f9350652fcaf
:104dac004cf88c00ed07ae022af98afa9d045607de
:104dbc005ffe00f85ffe56079d048afa2af9ae02e0
:104dcc00ed078c004cf852fc3506d905f4fa77f94e
:104ddc0028041a07d0fc76f82902d507e9fe05f855
:104dec000000fb0717012bf8d7fd8a073003e6f804
:104dfc00d8fb89060c0527fa7605cbf963fbd6069a
:104e0c00ae03aaf852fdb407a10113f874ff000811
:104e1c0074ff13f8a101b40752fdaaf8ae03d6062d
:104e2c0063fbcbf976050c05e6f8d7fdfb07e9fe2d
:104e3c0076f82804d90577f9d0fcd50700002bf8b3
:104e4c003003890627fad8fb8a07170105f82902cf
:104e5c001a07f4fa9d044cf88c0056078afa52fc97
:104e6c00ed075ffe2af93506ae0200f8ae023506f4
:104e7c002af95ffeed0752fc8afa56078c004cf8b3
:104e8c009d04280405f830030c052bf82902d905dc
:104e9c0076f817018906e6f800001a0777f9e9fe9b
:104eac008a0727fad7fdd507f4fad0fcfb07d8fb05
:104ebc00ae0313f87605a101aaf8d60674ffcbf958
:104ecc00b40752fd63fb000863fb52fdb407cbf93a
:104edc0074ffd606aaf8a101760513f8ae033003c9
:104eec0076f81a07d7fdd8fbd50777f917010c050b
:104efc0005f8d905000027fafb07f4fae9fe890644
:104f0c002bf828042902e6f88a07d0fcae022af90d
:104f1c00ed078afa8c009d044cf8560752fc5ffe94
:104f2c00350600f835065ffe52fc56074cf89d041a
:104f3c008c008afaed072af9ae02290227fad50766
:104f4c0076f80c05e9fed0fc890605f81a07d8fba3
:104f5c0000002804e6f8fb0777f930031701f4fa90
:104f6c008a072bf8d905d7fda10163fbd60613f8e8
:104f7c00b407cbf9ae0374ff52fd7605aaf800080e
:104f8c00aaf8760552fd74ffae03cbf9b40713f8fb
:104f9c00d60663fba1011701d0fc0c0577f98a0733
:104fac0005f8d507e6f8d905d8fb29020000d7fd8e
:104fbc00280427fa1a072bf8fb0776f88906f4fa67
:104fcc003003e9fe8c005ffeae0252fc9d048afaaf
:104fdc0035062af956074cf8ed0700f8ed074cf8a2
:104fec0056072af935068afa9d0452fcae025ffe7a
:104ffc008c0000006402d708070f060b4b05fa045f
:10500c00b50ac50f6f0a48054b003b009105b80a5d
:10501c00b50f760bc7063b028a043909c50dd10db5
:10502c008609590548012f027a06a70ab80e510db8
:10503c007509b0050202af028b06500afe0d6b0e0d
:10504c00e80a79071e04d500950118058708e20bbc
:10505c002b0f9d0d760a60075904600163028a05c7
:10506c00a008a70ba00e770e9b0bcc080a065503c5
:10507c00ac00890165043407f609ab0c540f0e0e15
:10508c007b0bf308760603049901f20185040d07e6
:10509c008a09fd0b670e3a0fe30c950a50081406ab
:1050ac00df03b301c6001d036b05b007ec09210c2f
:1050bc004d0e8e0f710d5b0b4c09450744054903d2
:1050cc00550172008f02a504b406bb08bc0ab70ccc
:1050dc00ab0e670f800d9e0bc209ec071b0650042c
:1050ec008a02c9009900800262043e061408e50990
:1050fc00b00b760d370f0d0f570da50bf7094f0899
:10510c00ab060b056f03d8014500f300a9025b0445
:10511c000906b1075509f50a910c280ebb0fb60efe
:10512c002c0da50b210aa2082607ae053a04c902cc
:10513c005b014a01d4025b04df055e07da08520a00
:10514c00c60b370da50ef10f8a0e260dc50b680a7e
:10515c000e09b60762061005c20376022d010f0078
:10516c007601da023b049805f2064a089e09f00a19
:10517c003e0c8a0dd30ee70fa30e620d240ce80a29
:10518c00ae09780843071106e104b40389026001f3
:10519c00390019005d019e02dc03180552068807d0
:1051ac00bd08ef091f0b4c0c770da00ec70f150f88
:1051bc00f30dd30cb40b980a7e09660850073c0615
:1051cc002a051a040c03ff01f400eb000d022d0359
:1051dc004c04680582069a07b008c409d60ae60b87
:1051ec00f40c010e0c0feb0fe40edf0ddb0cd90be6
:1051fc00d90ada09dd08e107e806ef05f90403042a
:10520c0010031e022d013e0015001c012102250376
:10521c0027042705260623071f081809110a070b60
:10522c00fd0bf00ce20dd30ec20f500f630e780d78
:10523c008f0ca70bc00ada09f608130832075106bf
:10524c0072059504b803dd0203022a015200b00076
:10525c009d01880271035904400526060a07ed07d3
:10526c00ce08af098e0a6b0b480c230dfd0dd60e24
:10527c00ae0f7c0fa60ed20dff0c2d0c5c0b8d0a05
:10528c00be09f008240858078e06c505fc04350431
:10529c006e03a902e50121015f0084005a012e0270
:1052ac000103d303a404730542061007dc07a80806
:1052bc0072093b0a040bcb0b920c570d1b0edf0e25
:1052cc00a10f9d0fdd0e1d0e5f0da10ce40b280b25
:1052dc006d0ab309fa0841088a07d3061d0668054a
:1052ec00b40400044e039c02eb013b018b006300f1
:1052fc002301e301a1025f031c04d80493054d06ae
:10530c000607bf0776082d09e309980a4c0b000c19
:10531c00b20c640d150ec50e750fdd0f2f0f820e1e
:10532c00d50d2a0d7f0cd50b2b0b830adb0933090a
:10533c008d08e70742079e06fa055705b4041304c7
:10534c007103d10231029201f40056002300d10006
:10535c007e012b02d60281032b04d5047d05250684
:10536c00cd0673071908be086209060aa90a4c0b78
:10537c00ed0b8f0c2f0dcf0d6e0e0c0faa0fb90f5e
:10538c001c0f800ee50d4a0db00c160c7d0be50aba
:10539c004d0ab6091f098908f3075f07ca063606c6
:1053ac00a30510057e04ed035c03cb023b02ab01ad
:1053bc001c018e00000004000e001c002e00430097
:1053cc005b0077009500b600d900ff00280153015f
:1053dc008001b001e20116024c028402be02fb0203
:1053ec0039037903bb03fe0344048b04d4041f0567
:1053fc006b05b90509065a06ac0600075607ad073a
:10540c0005085f08ba0817097509d409340a950a02
:10541c00f80a5c0bc00b260c8d0cf60c5f0dc90d3d
:10542c00340ea00e0c0f7a0fe90f5810c81039115a
:10543c00ab111d12901204137813ed136214d814cf
:10544c004f15c6153e16b5162e17a7172018991806
:10545c0013198d19071a811afc1a771bf21b6d1c74
:10546c00e81c631ddf1d5a1ed51e501fcc1f472084
:10547c00c2203c21b7213122ac2226239f231924a0
:10548c0092240b258325fb257326ea266127d72733
:10549c004d28c2283629aa291e2a902a032b742ba0
:1054ac00e52b552cc42c332da02d0d2e792ee42e4e
:1054bc004f2fb82f21308830ef305531b9311d3294
:1054cc008032e1324233a133ff335d34b9341335ca
:1054dc006d35c6351d367336c7361b376d37be373f
:1054ec000e385c38a938f4383e398739ce39143a3d
:1054fc00593a9c3add3a1d3b5c3b993bd53b0f3c02
:10550c00473c7e3cb43ce83c1a3d4b3d7a3da83dc3
:10551c00d33dfe3d263e4d3e733e973eb93ed93eb1
:10552c00f83e153f303f4a3f623f783f8d3fa03fea
:10553c00b13fc13fce3fdb3fe53fee3ff43ffa3f8b
:04554c00fd3fff3fe1
:020000040000fa
:1055500000005c00b6000f016601bd011202650289
:10556000b8020a035a03a903f80345049104dc04b2
:1055700027057005b905000647068d06d2061607f1
:105580005a079d07df0720086108a008e0081e09e8
:105590005c099909d609120a4d0a880ac20afc0a4e
:1055a000350b6e0ba60bdd0b140c4a0c800cb60ce5
:1055b000eb0c1f0d540d870dba0ded0d1f0e510e86
:1055c000830eb40ee40e150f440f740fa30fd20f09
:1055d000b1b1b0b0afafaeaeadadacacacababaaf1
:1055e000aaa9a9a8a8a7a7a6a6a5a5a4a4a3a3a25b
:1055f000a2a1a1a1a0a09f9f9e9e9d9d9c9c9b9bc4
:105600009b9a9a9999989897979796969595949426
:10561000939393929291919090908f8f8e8e8d8d87
:105620008d8c8c8b8b8a8a8a8989888888878786e3
:10563000868685858484838383828281818180803c
:10564000807f7f7e7e7e7d7d7c7c7c7b7b7b7a7a8f
:1056500079797978787777777676767575757474e1
:105660007373737272727171717070706f6f6e6e2e
:105670006e6d6d6d6c6c6c6b6b6b6a6a6a69696977
:1056800068686867676766666665656564646463bd
:105690006363626262616161606060605f5f5f5e00
:1056a0005e5e5d5d5d5c5c5c5c5b5b5b5a5a5a593f
:1056b000595959585858575757575656565555557a
:1056c00055545454535353535252525251515150b2
:1056d0005050504f4f4f4f4e4e4e4e4d4d4d4d4ce6
:1056e0004c4c4b4b4b4b4a4a4a4a4949494948481a
:1056f0004848474747474746464646454545454447
:105700004444444343434343424242424141414172
:1057100040404040403f3f3f3f3f3e3e3e3e3d3d9c
:105720003d3d3d3c3c3c3c3c3b3b3b3b3b3a3a3ac1
:105730003a3a3939393939383838383837373737e4
:105740003736363636363535353535343434343407
:105750003433333333333232323232323131313126
:1057600031313030303030302f2f2f2f2f2f2e2e41
:105770002e2e2e2e2d2d2d2d2d2d2c2c2c2c2c2c5b
:105780002b2b2b2b2b2b2b2a2a2a2a2a2a29292975
:10579000292929292828282828282827272727278a
:1057a000272726262626262626252525252525259e
:1057b00025242424242424242323232323232323b0
:1057c00022222222222222222121212121212121c1
:1057d0002020202020202020201f1f1f1f1f1f1fd0
:1057e0001f1f1e1e1e1e1e1e1e1e1e1d1d1d1d1ddc
:1057f0001d1d1d1d1c1c1c1c1c1c1c1c1c1c1b1be7
:105800001b1b1b1b1b1b1b1b1a1a1a1a1a1a1a1af0
:105810001a1a1919191919191919191919181818f9
:105820001818181818181818171717171717171700
:105830001717171716161616161616161616161604
:10584000151515151515151515151515151414140b
:10585000141414141414141414141313131313130e
:105860001313131313131313121212121212121210
:105870001212121212121211111111111111111111
:105880001111111111111010101010101010101012
:10589000101010101010100f0f0f0f0f0f0f0f0f11
:1058a0000f0f0f0f0f0f0f0f0e0e0e0e0e0e0e0e10
:1058b0000e0e0e0e0e0e0e0e0e0e0e0d0d0d0d0d0d
:1058c0000d0d0d0d0d0d0d0d0d0d0d0d0d0d0d0c09
:1058d0000c0c0c0c0c0c0c0c0c0c0c0c0c0c0c0c08
:1058e0000c0c0c0c0c0b0b0b0b0b0b0b0b0b0b0b03
:1058f0000b0b0b0b0b0b0b0b0b0b0b0b0b0a0a0afb
:105900000a0a0a0a0a0a0a0a0a0a0a0a0a0a0a0af7
:105910000a0a0a0a0a0a0a090909090909090909f0
:1059200009090909090909090909090909090909e7
:1059300009090909080808080808080808080808e3
:1059400008080808080808080808080808080808d7
:1059500008080808070707070707070707070707d3
:1059600007070707070707070707070707070707c7
:1059700007070707070707070707060606060606bd
:1059800006060606060606060606060606060606b7
:1059900006060606060606060606060606060606a7
:1059a00006060606060505050505050505050505a2
:1059b0000505050505050505050505050505050597
:1059c0000505050505050505050505050505050587
:1059d000050505050505050505040404040404047e
:1059e0000404040404040404040404040404040477
:1059f0000404040404040404040404040404040467
:105a00000404040404040404040404040404040456
:105a1000040404040404040404040303030303034c
:105a20000303030303030303030303030303030346
:105a30000303030303030303030303030303030336
:105a40000303030303030303030303030303030326
:105a50000303030303030303030303030303030316
:105a60000303030303030303030303030303030306
:105a70000202020202020202020202020202020206
:105a800002020202020202020202020202020202f6
:105a900002020202020202020202020202020202e6
:105aa00002020202020202020202020202020202d6
