:020000040000fa
:10000000f07f00203daf000049bd00004dbd000065
:1000100000000000000000000000000000000000e0
:100020000000000000000000000000009f800000b1
:1000300000000000000000009f8000001d8d0000f7
:100040009f8000009f8000009f8000009f80000034
:10005000f58900009f8000009f8000009f800000c5
:100060009f8000009f8000009f8000009f80000014
:100070009f8000009f800000215b00009f800000a7
:100080009f8000009f800000fd8700009f8000008f
:100090009f80000000000000000000009f80000022
:1000a0009f8000009f8000009f8000009f800000d4
:020000040000fa
:1000b000f8b5c046f8bc08bc9e4670471daf0000ae
:1000c000f8b5c046f8bc08bc9e467047f5ae0000c7
:020000040000fa
:1000d00004850000010000005c8d000001000000ac
:020000040000fa
:1000e00070b582b06b469d1d2b0001224e2106008b
:1000f00007f06afe6b46dc1d01224d212300300013
:1001000007f062fe2a7821780020130703d4032326
:100110001340022b01d002b070bd0120c90841403c
:1001200001200840f7e7c046437802781b021343da
:100130005bba0b807047c04600b583b06b4607338f
:1001400019700122762107f083fe03b000bdc0467e
:10015000f0b5d64646464f46c0b582b06b46dd1d6b
:100160000123012298462b7076212b00070007f00f
:100170006ffe6b460400053301227a21380007f038
:1001800023fe6b460443063301227c21380007f02e
:100190001bfe002304432b7001222b007621380024
:1001a00007f056fe434601ae04433370012233008c
:1001b0001121380007f04cfe044306d0200002b0a5
:1001c0001cbc90469946a246f0bdfa20800006f07d
:1001d0004dff434601222b7076212b00380007f09b
:1001e00037fe6b468146053301227a21380007f03d
:1001f0002ffe4b460343994601222b0076213800ff
:100200002c7007f025fe4b4603439946012233002c
:100210002d21380007f0d8fd4b46102203439946a4
:10022000337892461a424ed0380007f095fd434687
:1002300001222b7076212b00380007f009fe4b4677
:10024000034399466b46012206337c21380007f0b0
:10025000fffd4b4603439946012233007b213800c2
:1002600007f0b2fd4b4606220343994633787b21c3
:10027000934302221343337001223300380007f006
:10028000e7fd4b460343994601222b0076213800b7
:100290002c7007f0ddfd4c463300044301224c2155
:1002a000380007f091fd5246337804431a4013009a
:1002b000064abb543b7e022b00d07fe7fb68380028
:1002c000984704437ae70c24644277e76808000003
:1002d00010b50b000122752107f076fd10bdc04658
:1002e000f0b583b06b46dc1d23000f0001224d21c9
:1002f000060007f069fd23780500002f0bd10822c6
:1003000093432370012223004d21300007f0a0fd0c
:10031000284303b0f0bd08221343f2e7f0b5454689
:10032000de4657464e46e0b583b06b465e1d330051
:1003300001224e210400032707f046fd3378050013
:1003400098461f40022f01d01b0755d50023994620
:1003500001ab9a46534601225221200007f034fd9a
:1003600053461a780f2313406c4a0543a25c52216e
:1003700013435246200013705346012207f068fdd4
:100380003300054301224e21200007f01dfd03220a
:100390003378054393430222134333700122330021
:1003a0004e21200007f054fd0543c82006f05efef4
:1003b000022f00d181e043461b0708d44b46c82bcf
:1003c00000d98ae000212000fff78aff0543544b43
:1003d000e358072b43d80022514be250002f03d1a2
:1003e000504be35c002b6fd1280003b03cbc90461f
:1003f0009946a246ab46f0bd06236b4499460122be
:100400005021200007f0e0fc4b461a780f231340e0
:10041000013b05430e2b54d8434a9b009b589946f9
:1004200008212000fff75cff434605431b0700d06f
:100430008ee73c4b01aae35c9246002b52d1072386
:100440006b449b4601224c21200007f0bdfc5b461b
:100450001a7810231340354a0543a3547ae76b46b4
:100460009e1d502133000122200007f0adfc0f2318
:10047000994632780543134098460e3b591e8b41ee
:1004800049460d338a431343413101223370200022
:10049000330007f0ddfc0543c82006f0e7fd4a46bf
:1004a0003378502193434246134333700122330083
:1004b000200007f0cdfc05438de70022184be250e9
:1004c00092e71b4b9946abe706f0ccfd86231b0158
:1004d0009c4664442060616086e74846c83806f060
:1004e000c5fd6fe713005f210122200007f06cfcbf
:1004f00053461a780323514613430b700d4b0543a3
:10050000e35c002b02d013231a430a7053460122e6
:100510005f21200007f09cfc054390e77208000073
:100520006c0800006a08000010ae000068080000b7
:1005300000c4090069080000f0b54746ce4680b502
:1005400083b06b469d1d2b0001224e21040007f055
:100550003bfc052203262b786a4407001e40904688
:10056000022e4ed01b0738d04346012252212000d4
:1005700007f02afc43461a780f231340464a0743e4
:10058000a25c5221134342462000137043460122cd
:1005900007f05efc2b00074301224e21200007f0ec
:1005a00013fc03222b780743934313432b70012240
:1005b0002b004e21200007f04bfc0743c82006f01b
:1005c00055fd002e03d1354be35c002b3bd13800a9
:1005d00003b00cbc90469946f0bd304be35c002b59
:1005e0003ad107236b44994601224c21200007f0a1
:1005f000ebfb4b461a7810231340294a0743a354b8
:10060000b2e71b07b0d407236b4498460122502160
:10061000200007f0d9fb43461a780f231340013b13
:1006200007430e2b34d81f4a9b009b58984608213d
:100630002000fff755fe0743404606f017fd05234f
:100640006b44984690e706f00dfd86231b019c46ff
:10065000644420606160bae713005f21012220003a
:1006600007f0b2fb43461a780323414613430b704d
:100670000d4b0743e35c002b02d013231a430a708f
:10068000434601225f21200007f0e2fb0743a8e771
:10069000064b9846cbe7c046740800006a08000085
:1006a0006808000010ae00006908000000c40900de
:1006b000f0b5ce4647466f4b80b5c418236883b06b
:1006c0000600013300d176e006f0ccfc22686368b6
:1006d000994252d9801a9941002900d1c2e06b4653
:1006e0009c1d230001224e21300007f06dfb0c25dc
:1006f00003232278804615401340022b60d06b46be
:100700005f1d130741d03b0001225221300007f04a
:100710005bfb43460f22034398463b7852219343a9
:10072000554a3000b25c13433b7001223b0007f096
:100730008ffb47462300074301224e21300007f07c
:1007400043fb0c2223780743934313432370012276
:1007500023004e21300007f07bfb0743c82006f042
:1007600085fc002d03d1454bf35c002b51d13800a3
:1007700003b00cbc90469946f0bd994245d0012487
:100780000025644200196941a4e73c4bf35c002b4f
:1007900047d1072301226b444c213000994607f0d2
:1007a00013fb4346034398464b461a7810231340e5
:1007b000334ab354a7e76368002b00d084e78ee781
:1007c0006b465f1d13079ed407236b449946012295
:1007d0005021300007f0f8fa4b461a780f234746ad
:1007e0001340013b07430e2b39d8264a9b009b58e8
:1007f000994608213000fff773fd0743484606f08d
:1008000035fc6b46b8465f1d7de7904200d961e735
:10081000b5e706f027fc1c4b9c46664430607160cf
:10082000a5e73b0001225f21300007f0cdfa4346e7
:100830000343984603233a7813433b70134bf35c0e
:10084000002b02d013231a433a703b0001225f2190
:10085000300007f0fdfa43460343984699e70c4bf6
:100860009946c6e70b4b984200d938e70a277f42e2
:100870007de7c04678080000750800006a0800009f
:100880006808000010ae0000580800006908000069
:1008900000c40900f049020070b582b06b46dc1d4f
:1008a000230001225421060007f08efa0222237849
:1008b0000500934313432370012223005421300089
:1008c00007f0c6fa284302b070bdc04670b582b0ca
:1008d0006b46dc1d230001225421060007f074fa48
:1008e00002222378050093432370013a2300542108
:1008f000300007f0adfa284302b070bdf0b583b008
:100900006b46dc1d23000e0001225421070007f076
:100910005bfa08222378050093431e43073a23001d
:1009200054213800267007f093fa284303b0f0bd35
:100930000023f0b5ce4647469946002380b583b0e4
:1009400001ad2b804b46ab706b46df1c04230c00c3
:100950003b7001223b007621804607f079fa2b009c
:10096000060003224f21404607f02efa4b4606436d
:100970003b7001223b007621404607f069fa0123d3
:100980002a783043511119402170d11019406170fb
:10099000911052101a40e2706a781940a17011113a
:1009a000194021715110194061719110d2101a40f3
:1009b000e271aa781940a1715111194021721111e7
:1009c00019406172d11019401340a172637303b0d2
:1009d0000cbc90469946f0bd0023f0b5ce46474684
:1009e0009946002380b583b001ad2b804b460c00a7
:1009f000ab7002222b006521804607f0e5f96b46bb
:100a0000df1c042306003b7001223b007621404698
:100a100007f01efa6b460643063301224d2140467d
:100a200007f0d2f94b4606433b7001223b0076218a
:100a3000404607f00dfa01232a78304391111940fe
:100a40002170d11019406170911052101a40e2705b
:100a50006a781940a170d110194021711900114014
:100a60006171511092101a40e271aa781940a17177
:100a7000511119402172111119406172d1101940a0
:100a8000a17251101940e172911019401340217365
:100a9000637303b00cbc90469946f0bd0023f0b5db
:100aa000ce4647469946002380b583b001ad2b80e2
:100ab0004b460c00ab7002222b006821804607f0e9
:100ac00083f96b46df1c042306003b7001223b00c8
:100ad0007621404607f0bcf96b46064306330122f7
:100ae0004e21404607f070f94b4606433b70012209
:100af0003b007621404607f0abf901232a783043ca
:100b0000911119402170d11019406170911052104b
:100b10001a40e2706a781940a170d1101940217111
:100b2000190011406171511092101a40e271aa78b7
:100b30001940a171511119402172111119406172ae
:100b4000d1101940a17251101940e1729110194051
:100b500013402173637303b00cbc90469946f0bdfb
:100b6000f0b5c646002300b582b001ad2b80ab7056
:100b70006b46de1c04230c00337001223300762107
:100b8000804607f065f92b00070003224f214046fd
:100b900007f01af92e222b780743934322785bb291
:100ba000002a01d0202213436278002a01d00822b3
:100bb0001343a278002a01d004221343e278002aca
:100bc00001d0022213431e222b706b7893432279ab
:100bd0005bb2002a01d0102213436279002a01d0af
:100be00002221343a279002a01d004221343e2799e
:100bf000002a01d0082213436b703923217aa87888
:100c00004a1e9141627a9843531e9a4113019c46b1
:100c1000a37a647b5a1e9341621e9441624640b29d
:100c20002043490101430a43db001343ab70032215
:100c30002b004f21404607f00bf900230743337088
:100c4000012233007621404607f002f9384302b012
:100c500004bc9046f0bdc046f0b5d6464f46464669
:100c60000023c0b582b001ae0c003380b370022205
:100c700033006521804607f0a7f86b46df1c04238c
:100c800005003b7001223b007621404607f0e0f86a
:100c90006b460543063301224d21404607f094f888
:100ca0004e2233780543934322785bb2002a01d069
:100cb000402213436278002a01d008221343a2780d
:100cc000002a01d004221343e278002a01d0022234
:100cd000134333700f2372789a43237952b2591e0b
:100ce0008b416179db00481e81410a431343a2799d
:100cf000002a01d002221343e279002a01d0042203
:100d0000134373703f23b078984343b2207a9946d7
:100d1000411e88414301607a9c46411e8841a17a68
:100d200000014a1e9141e27ac900531e9a415300c4
:100d30009a46237b647b5a1e9341621e94414a4625
:100d40001443624614435246204301430a439b0026
:100d50001343b3706b46012206334d21404607f022
:100d600077f8002305433b7001223b007621404683
:100d700007f06ef83300054302226521404607f074
:100d800067f8284302b01cbc90469946a246f0bdc5
:100d9000f0b5d6464f4646460023c0b582b001aef8
:100da0000c003380b370022233006821804607f0c4
:100db0000bf86b46df1c042305003b7001223b004f
:100dc0007621404607f044f86b460543063301227e
:100dd0004e21404606f0f8ff4e22337805439343f8
:100de00022785bb2002a01d0402213436278002aa5
:100df00001d008221343a278002a01d00422134311
:100e0000e278002a01d00222134333700f23727854
:100e10009a43237952b2591e8b416179db00481ef7
:100e200081410a431343a279002a01d002221343cd
:100e3000e279002a01d00422134373703f23b07873
:100e4000984343b2207a9946411e88414301607a13
:100e50009c46411e8841a17a00014a1e9141e27ad6
:100e6000c900531e9a4153009a46237b647b5a1e45
:100e70009341621e94414a461443624614435246cb
:100e8000204301430a439b001343b3706b46012286
:100e900006334e21404606f0dbff002305433b703e
:100ea00001223b007621404606f0d2ff3300054385
:100eb00002226821404606f0cbff284302b01cbc4a
:100ec00090469946a246f0bd70b58eb06b460122a1
:100ed00006332d21050006f077ff041e03d16b4673
:100ee0009b791b0702d420000eb070bd02ab02221a
:100ef0001d21280006f068ff3f4b0400eb5c102b1f
:100f000040d06a46128907ab5a8203ab06221f21e2
:100f1000280006f059ff384e0443ab5d102b4cd02f
:100f20006a46928907abda806a46d2891a816a4694
:100f3000128a5a8105ab06222521280006f044ffbb
:100f40002d4e0443ab5d102b22d06a46928a07ab2c
:100f50009a816a46d28ada816a46128b1a826b6a51
:100f6000002b01d007a8984702232a7e9a43bad1c2
:100f70006b4607331a7075210132280006f068ffae
:100f80000443b0e72e2102a86944fff7cdf8bce77f
:100f90000aa905a8fff7c8f8ab5d102b23d12a21b9
:100fa000162069446844fff7bff8ab5d102b20d1d1
:100fb0000ba906a8fff7b8f8d1e7222103a86944d6
:100fc000fff7b2f8ab5d102b11d10e2009a96844d0
:100fd000fff7aaf8ab5d102b07d1262104a86944be
:100fe000fff7a2f8a6e707abb3e707ab9fe707abae
:100ff0009ae707abb0e7c0466808000001380e2842
:1010000003d8034b8000c05870470248fce7c04635
:1010100010ae000000c40900f0b5c64600b582b0ad
:101020006b46dc1d230001220f004e21050006f057
:10103000cbfe0323227880461340022b1fd0114b96
:10104000eb5801330f4a5021ab506b469e1d3300c5
:101050000122280006f0b8fe0f22337804009343e3
:101060001f430e3a330050212800377006f0f0fe7f
:1010700043462043184302b004bc9046f0bd002311
:10108000e0e7c0466c080000f0b583b06b46dc1d9d
:1010900023000e0001224f21070006f095fe0f22cb
:1010a0002378050093431e430e3a23004f21380056
:1010b000267006f0cdfe284303b0f0bdf0b583b036
:1010c0006b46dc1d23000e0001225021070006f0b4
:1010d0007bfe1f232278050013401e4301222300bc
:1010e00050213800267006f0b3fe284303b0f0bd4f
:1010f000f0b583b06b46dc1d23000e0001224f21aa
:10110000070006f061fe1f232278050013401e43ee
:10111000012223004f213800267006f099fe284353
:1011200003b0f0bd30b50d4b83b0c35c0d00002b98
:1011300003d00b4bc35c012b0cd06b46dc1d230092
:101140000122502106f040fe1f22237893432b708a
:1011500003b030bd002300200b70f9e769080000e0
:101160006a08000030b50d4b83b0c35c0d00002b46
:1011700003d00b4bc35c012b0cd06b46dc1d230052
:1011800001224f2106f020fe1f22237893432b706b
:1011900003b030bd002300200b70f9e769080000a0
:1011a0006a080000f0b5c64600b582b06b46dc1d8b
:1011b0000e00230001225221050006f005fe0f2734
:1011c0008046237801223b40334323705221230081
:1011d000280006f03dfe43460343181e02d1034b90
:1011e000be43ee5402b004bc9046f0bd720800004d
:1011f000f0b5c64600b582b06b46dc1d0e0023007c
:1012000001225221050006f0dffd0f2780462378da
:1012100001223b403343237052212300280006f073
:1012200017fe43460343181e02d1034bbe43ee5440
:1012300002b004bc9046f0bd74080000f0b5c6468c
:1012400000b582b06b46dc1d0f0023000122522145
:10125000050006f0b9fd0f26804623780122b3432e
:101260003b43237052212300280006f0f1fd434642
:101270000343181e02d1034b3e40ee5402b004bc9f
:101280009046f0bd75080000f0b5c64600b582b0c6
:101290006b46dd1d01222b004e21060006f094fd59
:1012a0002a780700130703d003231340022b28d109
:1012b0006b46012206331621300006f085fd05231a
:1012c0006b4498460023424604001370162143469f
:1012d0000122300006f0bcfd6b46044306330122b8
:1012e0001621300006f0b4fd3c430443434601227e
:1012f0007521300006f068fd204302b004bc904622
:10130000f0bd6b46022205331a704b21013a3000c2
:1013100006f09efd3843f0e7f0b583b06b469d1da7
:101320002b0001224e21040006f04efd0c222b78ea
:101330001a421bd1224e093a9343a25d002a17d0cc
:101340000121204a2b70a1542b0001224d31200095
:1013500006f07efd002105002000fef7c1ffa35d21
:101360000543002b12d1280003b0f0bd03229343a4
:101370002b7001222b004e21200006f069fd002178
:1013800005002000fef7acff0543ece76b46df1dd0
:101390003b0001225f21200006f016fd13223b785e
:1013a000060093433b70123a3b005f21200006f099
:1013b0004ffd06432000fff767ff35430543d2e7a3
:1013c0006a0800006b080000f0b583b06b469d1df5
:1013d0002b0001224e21040006f0f6fc03232a789c
:1013e0000600134034d1404f0c339a43e35d002b89
:1013f00032d001213d4b2a70e15401222b004d31a6
:10140000200006f025fd3043050005f02bfe384b8b
:10141000e31818605960e35d002b2dd06b46df1d8b
:101420003b0001225f21200006f0cefc13223b7816
:10143000060093433b70123a3b005f21200006f008
:1014400007fd304305432000fff71eff054313e06f
:10145000022b14d00c239a432b002a704e21012218
:10146000200006f0f5fc3043050005f0fbfd204ba5
:101470009c46644420606160280003b0f0bd0821f0
:101480002000fef72dff0c2207002b784e219343fe
:101490002b700b3a2b00200006f0dafc3d000543d0
:1014a00005f0e0fd124b0122e318186059606b460d
:1014b000df1d3b005021200006f086fc0f233a7808
:1014c00035431340013b05430e2b0bd8094a9b00c3
:1014d0009858400005f0cafd00212000fef700ffeb
:1014e0000543c9e70448f5e76a0800006b080000f7
:1014f0007808000010ae000000881300f0b5de464a
:10150000574645464e46e0b58fb004aa9446072399
:1015100063449a4600235246137063460122063301
:101520002d21040006f050fc051e04d1062204ab58
:101530009b791a4207d128000fb03cbc90469946cf
:10154000a246ab46f0bd06ab043a2e21200006f0c1
:101550003bfc002800d054e104ab1b890093002b16
:10156000e9d0d94be35c002b00d04ce11023984626
:101570009946237e022b00d096e1009b27004d4622
:101580000026994644373b002a003021200006f00f
:101590001bfc002800d0c6e10136b6b247444e45d8
:1015a000f1d10023002507ae1f0017e1911c1000a8
:1015b000029144318b46111d039144316118019110
:1015c000c24944308846615c2018a344102900d1e8
:1015d00031e1a21840784432127800020243f280ce
:1015e0005a465178029a0902a218443212780a43e4
:1015f0003281019a5178039a0902a2184432127872
:101600000a4372810735adb29a062cd5aa1c443222
:10161000a21801922a1d2800029244329046ab4a39
:1016200044309346a25c2018a044102a00d120e147
:10163000621941784432127809020a43b281019a50
:101640005178aa1ca2184432127809020a43f28186
:10165000424651782a1da2184432127809020a43e0
:1016600032820635adb260221a421dd0503a1a427b
:1016700000d1cce02800954a4430a25c2018102a02
:1016800000d12be1621941784432127809020a43f1
:1016900072828f4a1220315e0235adb2914203d080
:1016a000102231680a4332600c221a421dd02800f1
:1016b000864a4430a25c2018102a00d1b5e0621995
:1016c00041784432127809020a43b280042202357a
:1016d000adb21a4206d07f49615c002902d131685f
:1016e0000a43326000217b4aa15410221a409346db
:1016f00059062ad576490622b05e884225d00822ae
:10170000b05e884221d00a22b05e88421dd05a467f
:10171000002a0ed0611908004430007800093075a5
:1017200008004631453000780978000909097075cc
:10173000b175862212019046a044424612680132d9
:1017400000d1dce05a0700d40ee199062cd560499f
:101750000c22b05e884227d00e22b05e884223d091
:101760001022b05e88421fd05a46002a11d060195c
:10177000010044310a780f210a40f275452294464f
:1017800084446246127846300a403276007801403e
:101790007176514a9046a04442461268013200d107
:1017a000b7e05b0700d4c3e05b46002b01d00335f4
:1017b000adb2636a002b01d0300098470222237e2d
:1017c000934305d15346013a7521200006f040fbb2
:1017d0000137009bbfb2bb4200d188e000233360d9
:1017e0002b0044339946a1444b461b786a1c59b2de
:1017f00092b2002900da7ce0590600d5d6e6150041
:1018000002e7050097e6142398469946b1e6611968
:1018100044310978013549b27182adb2803100d1cd
:1018200042e731680a4332603ee708a9fef77cfcd4
:101830004b461b784ae704ab9c4602316144fef7f5
:1018400073fc4346e35c102b00d0ace009a958467a
:10185000fef76afc4346e35c102b00d0a0e004ab2b
:101860009c46162101986144fef75efc4b461b78ae
:10187000c8e60aa9fef758fc5b46e35c102b00d0d3
:1018800097e004ab9c461a2101986144fef74cfc9a
:101890005b46e35c102b00d088e00ba94046fef7c6
:1018a00043fc4b461b78dce64246009b30215a4302
:1018b00023002000443306f087fa051e00d170e6ad
:1018c0002000fff7e1fc36e6690800006808000028
:1018d0000080ffff6b0800005808000004ab9c4626
:1018e0001e216144fef720fc4b461b78d1e61d000b
:1018f00021e601252000fff7c7fc6d421be64246aa
:101900005268002a00d01de701213268114331607e
:101910001be742465268002a00d042e702233268a1
:101920001343336040e705002000fff7adfc02e6fb
:1019300005f098fb43461a685b68801a99410029b4
:1019400002d11d4b984209d901220023414652423f
:101950000a604b6002233268134333604b46102207
:101960001b781a4093461fe705f07cfb43461a6834
:101970005b68801a9941002902d1104b984209d91d
:1019800001220023414652420a604b600123326823
:10199000134333604b4610221b781a409346d4e61b
:1019a0004b461b7825e64b461b7819e64b461b78c1
:1019b0004ee64b461b7842e65fea00001f4e0000f1
:1019c000f0b5134e83b0835d04000025002b05d0d5
:1019d00028000f4a0133a35403b0f0bd6b46df1d4e
:1019e0003b000122542106f0eff910223b7805005c
:1019f000934313433b7001223b005421200006f027
:101a000027fa0543c82005f031fba35de0e7c04697
:101a100054080000f0b5114e0400835d83b000202f
:101a2000002b04d00d4a013ba35403b0f0bd6b461c
:101a3000df1d3b0001225421200006f0c5f91022d1
:101a40003b78050093433b700f3a3b005421200044
:101a500006f0fef9a35d2843e4e7c0465408000001
:101a6000f0b5c646042300b582b001ad0e002b7060
:101a700001222b004b21804606f0eaf96b46df1c61
:101a8000012304003b7001223b007621404606f012
:101a9000dff92b00044303226221404606f094f94b
:101aa000002304433b7001223b007621404606f0b0
:101ab000cff9f0216b782a781b029b18aa780903ca
:101ac00012040a409b182043336002b004bc9046c5
:101ad000f0bdc046f0b5c64600b582b005006b4605
:101ae000002946d0df1d012301223b7076213b00f7
:101af00006f0aef96b469e1d0400330001227b21e7
:101b0000280006f061f90622337804439343042247
:101b10009046424613433370012233007b21280054
:101b200006f096f9002304433b7001223b00762126
:101b3000280006f08df93300044301224d212800ce
:101b400006f042f904223378044393434246134398
:101b50003370012233004d21280006f079f9082165
:101b600004432800fef7cafe204302b004bc90469e
:101b7000f0bd9e1d330001224d2106f025f90422ff
:101b80003378040093433370033a33004d21280027
:101b900006f05ef92043e8e710b582b06b46dc1d25
:101ba000230001224d2106f00ff920784007c00fd5
:101bb00002b010bd0122024bc25400207047c04643
:101bc000690800000022024bc25400207047c04642
:101bd00069080000f0b5c646002200b586b00023b3
:101be00090466a460293039304939382484b050000
:101bf0000f1ec15460d001295bd1d61d33000122d4
:101c00004c2106f0e1f8202233780400934340226f
:101c100013433370012233004c21280006f018f9d9
:101c2000802304433370012233001621280006f07c
:101c30000ff93300044301225421280006f0c4f8b0
:101c400001223378044313433370012233005421bb
:101c5000280006f0fdf83300044301225f2128002c
:101c600006f0b2f803223378044393432c22134343
:101c70003370012233005f21280006f0e9f83300b9
:101c80000122044360212800377006f0e1f802a920
:101c900004432800fef7a0fe6b464246044302a917
:101ca00028005a72fef7d8ff204306b004bc9046c5
:101cb000f0bd01204042f8e74346d61d33700122b3
:101cc0003300162106f0c4f83300040001225f211e
:101cd000280006f079f803223378044393430c225a
:101ce00013433370012233005f21280006f0b0f85f
:101cf00002a904432800fef76ffe01236a4604434d
:101d000002a928005372fef7a7ff2043cde7c04683
:101d10006a080000f0b5de46454657464e46e0b537
:101d200017008822040089b012010d00002109f07b
:101d30004dff230007cd07c307cd07c32a68e74837
:101d40001a6005f093f904ab9846012342467621c8
:101d5000137020004346012206f07af8237e060025
:101d6000012b1ad0002b00d1e3e1022b00d1c5e1f9
:101d7000002342467621137020004346012206f0dc
:101d800067f830430b2676420643300009b03cbc6e
:101d900090469946a246ab46f0bd03ab9946022356
:101da0004a467a21137020004b46012206f050f873
:101db0000643002342467621137020004346012249
:101dc00006f046f80643e0d14246c54b67623c3315
:101dd00023cb23c21b8820001380fef7b9f902af82
:101de0003b00050001224f21200005f0edff0543d7
:101df000ab4609256d442b0001225021200005f03f
:101e0000e3ff5b4603439b461f233a784f211a406a
:101e10003a702a7820001340402213432b7001228d
:101e20003b0006f015f85f462b00074301225021c6
:101e3000200006f00df86b46dd1d2b000743012244
:101e4000162120002e7006f003f82b000743012214
:101e50006221200005f0b8ff70222b7807439343de
:101e60002b706f3a2b006221200005f0f1ff074331
:101e7000bb460a276f443b0001225421200005f095
:101e8000a3ff5b46022203439b463b789246934363
:101e90003b70013a3b005421200005f0d9ff5f461a
:101ea000082107432000fef729fd012107432000f8
:101eb000fff790fe2b00074301221421200005f0bc
:101ec00083ff03222b78074313432b7001222b003f
:101ed0001421200005f0bcff414607432000fef717
:101ee000bbfe4246012341460743200053709670d3
:101ef000fef736fe2b00074301226421200005f087
:101f000063ff10222b78074393432b700f3a2b006b
:101f10006421200005f09cff2b0007430122512182
:101f2000200005f051ff0c222b78904693430422a9
:101f300013432b7007432b0001225121200005f091
:101f400087ff2b00074301225321200005f03cffaf
:101f500018222b7807439343082213432b70012246
:101f60002b005321200005f073ff5e4b4a46e654d8
:101f700004230743137076214b460122200005f00d
:101f800067ff4a46584b074313800d234a2193703d
:101f900020004b46032205f05bff0743b9460b27a1
:101fa0006f443b000122762120003e7005f050ff77
:101fb0004b4603439946434601222b7057212b0081
:101fc000200005f045ff4b46882203439846474bc7
:101fd0005200e25260239b465a46454b7621e2541a
:101fe000032326643b705f3a3b00200005f030ff7e
:101ff00043460343984601222b002e21200005f082
:10200000e3fe43465246034398462b782e219343e2
:102010002b70013a2b00200005f01aff43460343c2
:10202000984601222b003221200005f0cdfe4346c8
:102030005a46034398462b78322193432b705f3adc
:102040002b00200005f004ff43460343984601227d
:102050002b003721200005f0b7fe43465a460343c4
:1020600098462b78372193432b705f3a2b00200042
:1020700005f0eefe43460343984601222b003c2127
:10208000200005f0a1fe43465a46034398462b78ac
:102090003c2193432b705f3a2b00200005f0d8fec3
:1020a00045463b0005430122762120003e7005f0a5
:1020b000cffe104b0122e118002352420a604b6010
:1020c0008621090161180a604b600b4905438c4663
:1020d00064442e002260636057e6c046b80b0000df
:1020e00010ae0000690800000d0d0000740800002b
:1020f00072080000580800007808000003ab9946f9
:1021000001227c21200005f05ffe4b460c221b784b
:10211000050013434a467c21137020004b460122e0
:1021200005f096fe28430643e368200098470643df
:102130003fe603ab994601227c21200005f044fed6
:102140004b4603221b78050093434a467c211370bb
:1021500020004b46012205f07bfe2843064328e67b
:10216000f0b5de46454657464e46e0b591b002aa68
:102170000623944663441980090b9b460b03804653
:10218000029366d104af3900fef726fc08ae0400c6
:1021900031004046fef782fc0cad04432900404666
:1021a000fef7c6fbbb7804439a46b378524699467d
:1021b000ab7801934b46012a39d0012b41d0ab7843
:1021c000012b2cd05b4602226021404605f040fee8
:1021d000bb780443534506d0534639004046bb7094
:1021e000fef73afd0443b3784b4506d04b46310029
:1021f0004046b370fef7ccfd0443ab78019a93429e
:1022000005d029004046aa70fef7aafc044320002e
:1022100011b03cbc90469946a246ab46f0bd0023a7
:1022200029004046ab70fef79bfc0443cae7029bc3
:1022300039004046bb70fef70ffdb3780443012b15
:10224000bdd1002331004046b370fef7a1fd044329
:10225000b5e70b246442dae770b582b06b46012221
:1022600006335421050005f0affd002830db6b4636
:1022700008269b7928001e40fdf732ff002812d067
:1022800080246404002e0bd06b46de1d3300012237
:102290004d21280005f098fd337824015b071ad4fe
:1022a000200002b070bd6b46dc1d230001224d21d1
:1022b000280005f089fd237804241c4063425c411a
:1022c000064b64421c4080235b049c466444d9e76f
:1022d00001246442e4e7024ce2e7c0461111110018
:1022e0000080841e30b583b06b46dc1d23000122c4
:1022f0004d21050005f068fd23785b0702d50748ee
:1023000003b030bd2800fdf7ebfe431e9841044b9f
:1023100040421840034b9c466044f1e70080841e15
:10232000efeeeeff111111010048704750bd0000a3
:020000040000fa
:10233000002370b50024074d2b606b6821019c467b
:10234000ab68614418198022103404f091fa702ca3
:10235000f3d170bd1c250020642343430248c018fc
:10236000436b18787047c046e00a0020642343435b
:102370000248c018436b58887047c046e00a0020e6
:10238000642343430148c018406b7047e00a0020b3
:10239000642343430248c018436b5b680b6070477b
:1023a000e00a00206423434330b50e48c018436b55
:1023b0005c6858881b78012b0ad0002807d00023be
:1023c0000022e5580132cd5004339042f9dc30bd93
:1023d00000230028fbd0e25cca5401339842fadca7
:1023e000f5e7c046e00a00206423434330b50e48b9
:1023f000c018436b5c6858881b78012b0ad00028f2
:1024000007d000230022cd580132e550043390421a
:10241000f9dc30bd00230028fbd0ca5ce254013354
:102420009842fadcf5e7c046e00a0020034b10b5fd
:102430001b68002b01d0fff77bff10bd1c2500207f
:10244000304b7d2270b501241d005a66223a9a66ef
:1024500011329c546c353e3a6a801a000421743261
:102460001a67294a2948916211002c3151623c2196
:102470005454002111641100243151642449c66868
:10248000d1642449dc8091640721516581681c81f5
:10249000116500214f349665195506001400103659
:1024a0006034d1651e60197119615961996119779c
:1024b0001c62194c5d63dc63184c1c64184c5c6432
:1024c000184c9c64184cdc64140058345c62140092
:1024d00050349c621c006434dc6214003c329a6309
:1024e000202248341c63845c002c01d0d9608154c4
:1024f0000368002b01d0fff71bff01210b4800f000
:102500002bff70bde00a0020600b00201c2500207e
:102510004014002037000001853c0000013d000010
:10252000553d00008d440000c54400007c1e002085
:10253000f0b564273b00c64643431d4d00b5eb187c
:102540001b7906005f439846eb199b6a5a68002a7c
:102550000bdd002418682201801804f0f7f9eb194c
:102560009b6a01345a68a242f4dc434664275f4305
:10257000eb195b6a5a68002a0bdd002418682201f7
:10258000801804f0e3f9eb195b6a01345a68a2423f
:10259000f4dc64235e430023ad192a6b2b616b616d
:1025a000ab612b770120937004bc9046f0bdc04610
:1025b000e00a002064235843064b10b51b181a7a12
:1025c0000020012a00d010bd587a01f03df801200a
:1025d000f9e7c046e00a002070b5051e074c07d099
:1025e000642068432418a36a186804f0c5f970bd14
:1025f000e16a200009f08af9f2e7c046e00a00200b
:1026000010b5fff7e9ff012010bdc0466423434326
:102610000348c0180023026b037793707047c046cd
:10262000e00a0020642343430248c018036b9878f3
:102630007047c046e00a00206423434370b50e4d46
:10264000eb181c6b1a7f21884a43002908d093009d
:1026500062680024d2180023013310c29942fbdcc7
:10266000642358432d18ab6a002218680021012307
:1026700008f088fc70bdc046e00a00206422424396
:102680000a4930b58a18137f146b0133dbb2137714
:10269000e278551eab4201d10125a570934204d3c7
:1026a00064235843002309180b7730bde00a00204b
:1026b00064234343034810b5c018c36c984780b2e5
:1026c00010bdc046e00a002064234343034810b510
:1026d000c018836c984780b210bdc046e00a002045
:1026e000002300b583b0019364334343034801a939
:1026f000c018436c984703b000bdc046e00a0020f4
:102700006423534310b501000248c018c36b9847b7
:1027100010bdc046e00a002070b5010064244c439f
:1027200006480419236c98470500012801d02800a9
:1027300070bda36a186804f01bf9f8e7e00a0020ee
:1027400030b5134c83b02379984201d003b030bd2b
:102750000028fbd00020fff7dfff05000128f5d19e
:102760000020fff769ff002301a901932000636c9b
:102770009847237f216b0133dbb22377ca78501e41
:10278000834200d18d709342e0d300232377dde7ad
:10279000e00a002064224243044b10b59b181b79c9
:1027a000834202d11800fff7cbff10bde00a0020e2
:1027b00010b5642460430b4c24182000a36c984788
:1027c00080b201280bd1e36c20009847064b00042f
:1027d000000cc3185a1e93415b42184010bd0120e3
:1027e0004042fbe7e00a00200100fffff0b564244f
:1027f0005443284e83b034190100e36b20001500c8
:102800009847002837d02800fff786ff012832d1eb
:1028100000272800fff710ff019701a92000636c33
:10282000984701282dd12000a36c984780b2012839
:1028300024d1e36c20009847174b0004000cc31808
:102840005a1e93415b42184064226a43b218137fb8
:10285000116b0133dbb21377ca78541ea34201d146
:1028600001248c70934204d364235d4300237619c2
:10287000337703b0f0bd01204042fae70120404227
:10288000e2e7236b277728009f70fff7a5fe022061
:102890004042eee7e00a00200100ffff70b564242b
:1028a00054433b4e82b034190100e36b2000150005
:1028b0009847002866d02800fff72eff012861d135
:1028c0002800fff7b9fe002301a901932000636ce3
:1028d0009847012833d1236b9b78002b2fd0200001
:1028e000a36c984780b201284fd1e36c2000984731
:1028f000284b0404240ce3185a1e93415b421c40ed
:1029000064236b43f3181b799d4202d12800fff723
:1029100017ff64226a43b218137f116b0133dbb2d5
:102920001377ca78501e834201d1012088709342e8
:1029300025d364235d430023761933771fe0237981
:102940009d4202d12800fff7fbfe64226a43b218c1
:10295000137f116b0133dbb21377ca78501e8342a9
:1029600001d101208870934204d364236b43f6188d
:102970000023337728000224fff72efe6442200054
:1029800002b070bd01246442f9e701246442b7e754
:10299000e00a00200100ffff70b564245443424e5a
:1029a00082b034190100e36b20001500984700281d
:1029b00038d02800fff7b0fe012833d12800fff7f8
:1029c0003bfe002301a901932000636c9847012876
:1029d0002ed1236b9a78002a4bd02000a36c984705
:1029e00080b2012821d1e36c200098472f4b0404ca
:1029f000240ce3185a1e93415b421c4064236b4332
:102a0000f3181b799d4209d064235d430023751997
:102a10002a6b2b779370200002b070bd2800fff75f
:102a20008ffef1e701246442f5e701246442e5e703
:102a300023799d4202d12800fff782fe64226a4377
:102a4000b218137f116b0133dbb21377ca78501eb3
:102a5000834201d101208870934204d364236b43e5
:102a6000f6180023337702242800fff7b5fd6442ef
:102a7000d1e7227f0132d2b22277d9784c1ea2420e
:102a800000d198708a4204d3642300226b43f31868
:102a90001a7764236b43f61833799d42e3d12800fb
:102aa000fff74efedfe7c046e00a00200100ffff0f
:102ab000f8b5de4657464e4645469246e0b59b463b
:102ac000002a20dd8bb298464b009946070000256e
:102ad0005b4664245c430f4b40469c466444a26ab8
:102ae0002b0116680135f61803f0acfe434682b29e
:102af0003900300003f0eefe00234f442361636190
:102b0000a361aa45e4d13cbc90469946a246ab4697
:102b1000f8bdc046e00a002070b582b00500fff79e
:102b2000fbfd012836d164242800fff785fd002332
:102b30006c431b4e0193341901a92000636c984724
:102b4000012827d12000a36c984780b2012824d106
:102b5000e36c20009847134b0004000cc3185a1e66
:102b600093415b42184064226a43b218137f116b91
:102b70000133dbb21377ca78541ea34201d101247a
:102b80008c70934204d364235d430023761933771a
:102b900002b070bd01204042fae701204042e2e766
:102ba000e00a00200100fffff0b583b00500fff749
:102bb000b3fd0700012836d164242800fff73cfd4f
:102bc00000236c432c4e0193341901a92000636c3f
:102bd000984701282ad12000a36c984780b2012889
:102be00044d1e36c20009847244b0004000cc31828
:102bf0005a1e93415b42184064226a43b218137f05
:102c0000116b0133dbb21377ca78541ea34201d192
:102c100001248c70934204d364235d43002376190e
:102c2000337703b0f0bd01204042fae7237f216be8
:102c30000133dbb22377ca78501e834200d18f70f4
:102c4000934204d3642300226b43f3181a772800bd
:102c5000fff7c2fc64236b43f61833799d4208d119
:102c60002800fff76dfd02204042dae701204042d4
:102c7000c2e702204042d4e7e00a00200100ffff43
:102c8000f0b583b00500fff747fd012839d1642472
:102c90002800fff7d1fc00236c432c4e019334191c
:102ca00001a92000636c984701282ad1276b237f54
:102cb000fa78511e8b4227d12000a36c984780b22e
:102cc00001283dd1e36c20009847214b0404240cdb
:102cd000e3185a1e93415b421c4064236b43f31874
:102ce0001b799d4209d064235d43002375192a6b2b
:102cf0002b779370200003b0f0bd2800fff720fd74
:102d0000f1e701246442f5e70133dbb2237799420e
:102d100000d1b8709a4204d8642300226b43f318a0
:102d20001a772800fff758fc64236b43f6183379b1
:102d30009d4208d102242800fff702fd6442d9e732
:102d400001246442c9e702246442d3e7e00a002078
:102d50000100ffff10b504000020002c00d010bdc2
:102d6000044b586b4468587a13000a00210000f0a5
:102d700017fbf4e7e00a002010b504000020002c47
:102d800000d010bd0248407a00f00afbf9e7c046c7
:102d9000e00a0020002070470020704700207047a4
:102da00070b564246043084c0d002418237a002079
:102db000012b00d070bd607a00f07cfc636b288032
:102dc0005b8801206b80f5e7e00a002010b56424e1
:102dd0004443064b1b191c7a0023012c01d0180018
:102de00010bd00f003fc0123f9e7c046e00a002013
:102df000002804dc64235843024bc058704700206d
:102e0000fce7c046e00a0020642343430348c0189f
:102e1000036b1a88d87850437047c046e00a0020f8
:102e20006423434330b50848c018036b1a88d87828
:102e30005043002807d05c6800238200cd58e5503d
:102e400004339342fad130bde00a002064234343a7
:102e50000248c018036b58687047c046e00a00205b
:102e6000642343430248c018036bd8787047c046b8
:102e7000e00a00206423434330b50848c018036bc0
:102e80001a88d8785043002807d05c680023820055
:102e9000e558cd5004339342fad130bde00a00200a
:102ea00064234343074ac000d3181218906e1a696e
:102eb000196b9446c978db8801394843604458430c
:102ec0007047c046e00a0020642343430148c0180d
:102ed00000697047e00a0020642343430248c01899
:102ee000836a58687047c046e00a0020f0b5de46a5
:102ef00057464e464546e0b585b00393214b0292b6
:102f0000984664230022434343449b6a92460192bd
:102f10005a6881468b46002a2cdd5a46002a23dd5a
:102f200052461701019a02995500039a0c009446e3
:102f30000a005a446544160004e064234a46534399
:102f400043449b6a18682100c01903f0f9fc01345e
:102f500028800235b442f0d1019b4a465b4401937c
:102f60006423534343449b6a012294465a68e244d3
:102f70005245d2dc05b03cbc90469946a246ab46d1
:102f8000f0bdc046e00a002064234343034810b567
:102f9000c018c36c98470004000c10bde00a002064
:102fa000642343430148c018806b7047e00a002047
:102fb000642343430148c01840697047e00a002079
:102fc00064234343064ac000d318196b1218c9780a
:102fd000906e013948435a69121ad8885043704795
:102fe000e00a0020642343430248c01850300078b0
:102ff0007047c046e00a0020642343430a4830b5c6
:10300000c018030050331b78002b0cd0436b5c8836
:10301000002c08d000230022406dc5580132cd504d
:103020000433a242f9db30bde00a002064234343ad
:103030000a4830b5c018030050331b78002b0cd061
:10304000436b5c88002c08d000230022806dc5589b
:103050000132cd500433a242f9db30bde00a00203a
:10306000642343430548c018030050331b78002bea
:1030700001d0c06d70470248fce7c046e00a00205e
:10308000000080bf642343430548c0180300503349
:103090001b78002b01d0006e70470020fce7c04673
:0430a000e00a002022
:020000040000fa
:1030a4007047c046f0b5ce4647460b7880b5194ff9
:1030b4009946430018183b68c0001b185b88944667
:1030c400002b1dd0002600247b685a881d89954258
:1030d4000dd9b14518d97500ad196d0065442a8024
:1030e4009a8801366a80da88f6b2aa800e703a6845
:1030f400013415186d88e4b2db68a542e5d87b601d
:103104000cbc90469946f0bd4a460a70db687b6069
:10311400f6e7c046241b002030b50c78002c0fd0f5
:103124000021084d6b68588801311080988889b255
:103134005080d888db6890800632a142f3d36b605c
:1031440030bdc046241b0020f0b50123454680460f
:103154004e46de46574699464346e0b5944683b00c
:10316400002b49d00023424600269b4601930123ad
:103174009a4600251300d3440135db68002901d0a9
:1031840043455bd0002b01d04d45f5d14f46002d72
:103194001bd0002f42d0002b40d050885c88001bed
:1031a40000283bddd868013f1c00002902d0002321
:1031b400804500d00300002e3bd0f4606046002818
:1031c40000d026612600002de3d1002f33d0002b40
:1031d400e8d1002916d06346019af260002b00d092
:1031e40016615b46012b11dd4b465b009946019b42
:1031f40098464346002bb5d10023002601939b46f5
:103204000029e8d15b46f160012beddc019803b0a5
:103214003cbc90469946a246ab46f0bdd068013d01
:103224001400002902d000228045c4d00200002ee0
:10323400c3d10194c2e71a1e99d1cae70023a5e7b6
:103244007047c0460368002b0cd000290ad0ca6816
:103254008b4208d00b69002a01d013610b69002b43
:1032640000d0da6070470260ca680b69002af4d1a2
:10327400f5e7c04640884b88c01a704710b500284f
:1032840002d0fff761ff10bd0020fce710b584b247
:103294000c48002302001188a1420dd001331432de
:1032a400122bf8d1084c6068002803d001220121b8
:1032b400fff74aff606010bd9a00d3189b00c01846
:1032c400014cf3e7701b0020241b00201b4bf0b5be
:1032d4009c4662464746ce46126880b59046002713
:1032e40043001b18db0043445d8883b299461448ad
:1032f400bd4213dd791c8b00ba005b18d219920011
:103304009b00c4188618f4604c468452002f02d0e7
:10331400283bc31833610f00bd42ebdc4b46013f31
:103324000380bb00df196346bf00c719f86007615b
:1033340058600cbc90469946f0bdc046241b002042
:10334400701b0020024b1860197200207047c046a1
:10335400241b0020024b1860197200207047c046dd
:10336400241b002010b50c4b0400197a002910d03e
:103374001b681a7882420cd01833002005e01833f9
:103384001a00183a1278a24204d00130c0b288421e
:10339400f5d1002010bdc046241b0020f0b54746df
:1033a400ce4680b5224c9c46277ac0b22368002fb3
:1033b40010d01c7884420dd01d000024183505e07f
:1033c40018352e00183e3678864226d00134e4b2f1
:1033d400bc42f5d15f88d888b84226d99e8838b2d5
:1033e4008046002e0ad02e254543d8688146002009
:1033f4004d440c5c2c540130b042fadb1869414650
:1034040080466046890041440880012001374a8093
:103414005f800cbc90469946f0bd60000419e4003e
:103424001b195f88d888b842d8d801204042f0e7f9
:10343400241b0020f8b5ce46474680b53a4bc0b2af
:103444001c7a1d68002c10d02b7883420dd02a00e2
:103454000023183205e01832110018390978814226
:1034640059d00133dbb2a342f5d16b88002b4ed087
:103474002e4b002600240027984604e06b88013474
:103484000a36a3422ddd6b6921009a5f404608f09d
:1034940099fa6b69991900228b5e002beeda2a7a6d
:1034a400002a3dd00120002384460231c85c013348
:1034b400b84202d9dfb2bc4607009342f6db62464b
:1034c40093b2994621001a4808f07cfa2a69a300ad
:1034d40094464a4663445a806b8801340a36a342b0
:1034e400d1dc002b13d000216c69287a9d00ed18e3
:1034f400a21c6d0055190023002803d0d1540133b8
:103504008342fbdb0a3221800a349542f3d10cbc9e
:1035140090469946f8bd5a00d318db00ed18a4e78d
:10352400012301229946cde7241b0020c89e0000f8
:10353400dc9e0000f0b5d6464f464646c0b5264b45
:10354400c0b21c7a1d68002c10d02b7883420dd099
:103554002a000023183205e01832110018390978be
:10356400814234d00133dbb2a342f5d16b88002b06
:1035740028d000239846194b00269a46184b9946a2
:103584006b6941469a5f504608f01cfa2b7a002b6f
:103594000ed00022134f6b69541c9b199b189a7808
:1035a4002100380008f00efa2b7a22009c42f2db4c
:1035b400484608f04ff901239c466b88e0440a36dc
:1035c4004345dddc1cbc90469946a246f0bd5a003a
:1035d400d318db00ed18c9e7241b0020fc9e000073
:1035e400109f0000149f0000f0b5154bc0b21e7a66
:1035f4001f68002e10d03b7883420dd03c0000237e
:10360400183405e018342500183d2d78854211d072
:103614000133dbb2b342f5d138698b00844663448d
:1036240058881b88508013802e234b43f968c9188f
:103634005160f0bd5800c318db00ff18ece7c0462a
:10364400241b002070b5184ec0b2347a3568002ca3
:1036540010d02b7883420dd02a000023183205e0c5
:103664001832110018390978814217d00133dbb2be
:103674009c42f5d1002000236b8073600b4b012525
:10368400190000246931ff316d421a88824201d148
:103694001d809c8014338b42f7d170bd5a0098b2c0
:1036a400d318db00ed18e6e7241b0020701b002074
:1036b40030b50f4bc0b21c7a1d68002c10d02b788b
:1036c40083420dd02a000023183205e0183211007d
:1036d40018390978814205d00133dbb2a342f5d110
:1036e400688830bd5a00d318db00ed18f8e7c046ef
:1036f400241b0020f0b5de4657464e464546e0b54d
:103704005a4e8a46317a85b004009346002900d186
:10371400a7e033681a7882420dd01833002006e0ff
:1037240018331a00183a1278a24200d194e00130fa
:10373400c0b28842f4d1002300209846fff7c6fdaa
:1037440000235a4613703368706043441c005b883e
:10375400002b53d0464b002599461be0012937d056
:103764000022022952d09a420ad2414a83889145c2
:1037740000d16ce0994503d00222594699460a705b
:10378400336814304344706001351c005b88adb26b
:10379400ab4233d92269ab00944663445a881b88f0
:1037a400828000220381c5804280e17a00270029bb
:1037b400d4d12e326a43e068a3888018514603aa04
:1037c40007f09afe039b70689ab242800389cae7a5
:1037d4006b462e20df72e36832009c46a388684360
:1037e40000930b230c3260446b44514607f034fbc6
:1037f4006b467068da7a03894280b4e7002005b02a
:103804003cbc90469946a246ab46f0bd0b236b44a4
:103814001f70677aa088390006f0e6f82e236b4300
:10382400e1680200c91800970300504608f01afa2c
:1038340033684344597a988806f0d6f8010008f0b2
:1038440013fa0200706892b2428003898be7012266
:10385400594699460a7093e743001b18db009846c3
:103864006ce700230020984668e7c046241b00202c
:10387400ffff0000f0b5174dc0b22e7a2c68002e61
:1038840010d0237883420dd022000023183205e0a3
:103894001832110018390978814216d00133dbb28d
:1038a400b342f5d16688002e0ed000226b68598889
:1038b4001889884203d9d88827698000c153013206
:1038c400db68b242f3db6b60f0bd5a00d318db0057
:1038d400e418e7e7241b0020f8b54746ce4680b538
:1038e400184d0e00297a17009846002910d02b682d
:1038f40000241a781833824206d109e018331a00da
:10390400183a1278824204d00134e4b28c42f5d1e0
:1039140000242000fff7bafc81460b4bb600eb6392
:103924000a4bae192b640a4b42466b64094b3900af
:10393400ab64f36b200098474b466b600cbc90461d
:103944009946f8bd241b0020a93000001d31000059
:10395400a530000045320000f0b54746ce4680b59c
:1039640085b06b46dd1d00232b70454b0600187a8d
:1039740090461f68002810d03b78b3420dd03b001e
:103984000024183305e018331a00183a1278b242aa
:1039940050d00134e4b2a042f5d1002406236b4494
:1039a400994601234a464968137030002a00fff7fc
:1039b400a1fe2b785a1e012a41d9002b0fd002ab4d
:1039c4005d88304b9d4233d0280008f02af84346e6
:1039d4005860280005b00cbc90469946f0bdb97af1
:1039e40001292dd00029ead1012302ad5b42200038
:1039f4006b80fff74bfc43468146c6889b683000ca
:103a04001c6808f00ef84b462060988808f009f806
:103a14003b69b6006060f05a08f003f84b46a060ba
:103a2400588807f0feffe0606d88164b9d42cbd1ad
:103a34000020cce763001b19db00ff18aee7b97a5e
:103a440002ac4a4630002300fff746ffa38899469c
:103a540043469b6848461e6807f0e3ff306065886c
:103a6400280007f0deff4b463a699b007060985ac5
:103a740007f0d7ffb060208807f0d3fff060a0e71d
:103a8400241b0020ffff0000f0b5c64600b582b03d
:103a94006b46dc1d00232370234b8c46197a0500ea
:103aa40017001e68002910d0337883420dd03200ed
:103ab4000023183205e01832100018380078a842a4
:103ac4001fd00133dbb28b42f5d106236b449846f9
:103ad400012342466146137028002200fff70afec4
:103ae40023785a1e012a11d9002b06d1b37a012b4f
:103af40013d0002b01d1013b7b8002b004bc904663
:103b0400f0bd5a00d318db00f618dee7b17a3b00ab
:103b140042462800fff7e0feefe73b004246012162
:103b24002800fff7d9fee8e7241b0020f0b547463c
:103b3400ce4680b59846254b0500c7b2187a83b0a7
:103b4400894614001e68002810d03378bb420dd07b
:103b540032000023183205e01832110018390978b0
:103b6400b9422bd00133dbb28342f5d1002c02d011
:103b7400337aa34209d2164807f024ff01204042b9
:103b840003b00cbc90469946f0bd00236a464946f2
:103b940038005380fff778ff6b460e4a5b889342e8
:103ba40004d0a3420fd02800fff764fe434622004e
:103bb40049462800fff7f2fb0120e1e75a00d31839
:103bc400db00f618d2e70020dae7c046241b002009
:103bd400209f0000ffff0000f0b5264b83b01f7a42
:103be4001600c0b21d68002f10d02b7883420dd070
:103bf4002a000023183205e018321400183c2478f7
:103c0400844227d00133dbb2bb42f5d1002e02d06f
:103c14002b7ab34204d2184807f0d4fe03b0f0bda7
:103c24006a46fff731ff6b465988b14217d09b882b
:103c34009a00d21850006a6912181088013810804e
:103c4400701e121890780130907032000b4807f003
:103c5400b9fee3e75a00d318db00ed18d6e76b464c
:103c64009b889a00d21850006a6912181088013093
:103c74001080e5e7241b0020209f0000409f0000e7
:020000040000fa
:103c8400f0b5d6464f4646460022c0b503271a4c27
:103c9400924623680e001a80013291465a800132fe
:103ca40090469a8002321a810132df805a810623bb
:103cb4000500026a21003000636007f063fe52468b
:103cc400236821001a804a465a8042469a802b6a09
:103cd40042009c4630006244676007f075f9ab6aa5
:103ce400296a18685a6807f0ddf801201cbc904660
:103cf4009946a246f0bdc046182200206423f0b5c0
:103d0400c6464b43c418a36a00b51868a16902f0fb
:103d1400cbfe071e15dd002300250c4e984602e05d
:103d24000135af420dd0a369e26a0133a361434672
:103d340031002000736007f0ddfd0028f0d0012081
:103d440001e00120404204bc9046f0bd182200204e
:103d5400f8b5de4657464e464546e0b5026b0500cb
:103d64001388007f002643439b4602239a460f0094
:103d74005146fe4c28002368e660198001239946c9
:103d840063605b469900536808229046a0445b1820
:103d94004246210006f088fc042322683860e6606d
:103da40013804a46834462605a462b6b92005b68d8
:103db40021009b182800424606f076fc49462268fa
:103dc40083443860e66011805a462b6b92005b682e
:103dd40061609b1821004246280006f097fc0423ea
:103de40021683860e6600b80494683446160594627
:103df4002b6b8a005b6821009b182800424606f062
:103e040085fca368386052468344d949d94819606f
:103e140058604b46e2602268210013805a46636072
:103e24002b6b92005b6828009b18424605f0d2fe7b
:103e3400a36838608344ce49ce481960586053461d
:103e44000521e36023685a4619804b4663602b6b57
:103e540092005b6821009b182800424605f0bafed8
:103e6400a368c349386019604b462268e360023393
:103e740013804a46834462605a462b6b92005b6807
:103e840021009b182800424605f0f0fe4a46a3682c
:103e9400b749386019604b4683442068e2600332b6
:103ea40002805a4663602b6b92005b6821009b186a
:103eb4002800424605f0dafe386083440520236872
:103ec400e66018804b465a4663602b6b92005b6831
:103ed40021009b182800424606f00afa236838603d
:103ee400e6601e804b4683445a4663602b6b920007
:103ef4005b6821009b182800424606f0b5f8236849
:103f04003860e6601e804b4683445a4663602b6be0
:103f140092005b6821009b182800424606f0f0fce2
:103f24003860834405202368e66018804b465a466f
:103f340063602b6b92005b6821009b18280042464b
:103f440006f0defca3688b4a38601a604b46834453
:103f54002068e360023303804b46584663602b6b52
:103f640082005b6821009b182800424606f028fd69
:103f74003860834448462368e66018806060584689
:103f84002b6b82005b6821009b182800424606f0d8
:103f940027f823683860e6601e804b468344584601
:103fa40063602b6b82005b6821009b1828004246eb
:103fb40005f0c0fd23683860e6601e804b468344ec
:103fc400584663602b6b82005b6821009b182800b5
:103fd400424602f0a9fe0323386083442068e66069
:103fe40003804b46584663602b6b82005b6821005c
:103ff4009b182800424602f097fe3860834405204f
:104004002368e66018804b46584663602b6b820039
:104014005b6821009b182800424602f085fe386048
:10402400834448462368e6605880504603229880bb
:1040340004210520da801e80198158810623584600
:1040440063602b6b82005b6821009b18280042464a
:1040540005f0daf9042123683860e66019804b46dc
:104064008344584663602b6b82005b6821009b1875
:104074002800424607f00efe23683860e6601e8082
:104084004b468344584663602b6b82005b68210077
:104094009b182800424605f0fbfc04212368386085
:1040a400e66019804b468344584663602b6b82005c
:1040b4005b6821009b182800424606f037fda36880
:1040c4002b49386019604b4683445046e3602368ab
:1040d400210018804b46584663602b6b82005b6856
:1040e40028009b18424607f0c5fda3682049214ad1
:1040f400386019605a6053460322e360236883449e
:104104001a804b465a4663602b6b92005b68210011
:104114009b182800424605f0f5fd4a46236838609e
:10412400e6601a80524683445a8062605a462b6b7a
:1041340092005b6821009b182800424606f08cff21
:104144004a4623683860e6601a8002325a80534631
:1041540083445a4663602b6b92005b6821009b1872
:104164002800424606f078ff4a4605e0182200205f
:104174000000c8420000a040042123683860e660c3
:104184001a805980534683445a4663602b6b9200cd
:104194005b6821009b182800424606f05dff4a46f2
:1041a4003860834405202368e6601a8058805346ab
:1041b4005a4663602b6b92005b6821009b182800b1
:1041c400424606f049ff524638608344052023687e
:1041d400e6601a80588062605a462b6b92005b68d6
:1041e40021009b182800424606f036ff03220421d2
:1041f40023683860e6601a805980534683445a46df
:1042040063602b6b92005b6821009b182800424678
:1042140006f022ff04213860834405202368e66009
:104224001980588053465a4663602b6b92005b6832
:1042340021009b182800424606f00eff0322236843
:104244003860e6601e805a80534683445a46636051
:104254002b6b92005b6821009b182800424606f0f5
:104264007ffb3860834405202368e6601e80588005
:1042740053465a4663602b6b92005b6821009b187f
:104284002800424606f06cfb0322042123683860b0
:10429400e6601a805980534683445a4663602b6b08
:1042a40092005b6821009b182800424606f058fbe8
:1042b4005246236883443860e6601e805a806260f8
:1042c4005a462b6b92005b6821009b1828004246db
:1042d40007f0d8fc032223683860e6601e805a8009
:1042e400534683445a4663602b6b92005b682100fb
:1042f4009b182800424607f0c5fc4a4623683860ec
:10430400e6601a80524683445a8062605a462b6b98
:1043140092005b6821009b182800424607f0b2fc1b
:104324004a4623683860e6601a8002325a8053464f
:1043340083445a4663602b6b92005b6821009b1890
:104344002800424607f09efc4a4638608344052014
:104354002368e6601a80588053465a4663602b6b84
:1043640092005b6821009b182800424607f08afcf3
:10437400524623683860e6601a8001325a805346f8
:1043840083445a4663602b6b92005b6821009b1840
:104394002800424607f076fc5246042123688344f1
:1043a4003860e6601a80598062605a462b6b92002e
:1043b4005b6821009b182800424607f063fc032237
:1043c400042123683860e6601a8059805346834488
:1043d400594663602b6b8a005b6821009b18280098
:1043e400424607f04ffc51463860834403220520bf
:1043f4002368e6601a805880616059462b6b8a00f6
:104404005b6821009b182800424607f03bfc2168aa
:104414003860e6600e8049468344616059462b6be0
:104424008a005b6821009b182800424604f008fbc0
:10443400032221683860e6600a804a468344626049
:104444005a462b6b92005b6821009b182800424659
:1044540004f0f6fa052322683860e66013804b46c0
:1044640063602b6b58445b6880001b184246210034
:10447400280004f0e5fa386001203cbc90469946d7
:10448400a246ab46f8bdc04670b5416b056b0a4efb
:1044940084b02c88037f4a8868680396074e0133ea
:1044a400029600260196ed7863436c43009404f071
:1044b40031fd012004b070bd2822002000007f439c
:1044c40010b5826b416b407afff746fa10bdc046c7
:020000040000fa
:1044d400241e00201c00000000000000681e0020b4
:1044e4000400000000000000d81c0020c0000000f0
:1044f40000000000401e00200c000000000000002e
:10450400581e00200800000000000000682500205c
:104514000100000001000000010000000000002074
:10452400e00a00000000000024190020000200003e
:10453400000000001c2500202800000001000000ed
:1045440001000000400d0020d00c0020d00c002001
:10455400e951517351064e68a136e2a50a04f78267
:1045640001000000d00c0020e00a00203c0a0000fa
:1045740000000000182200203802000001000000a2
:10458400101e00200a000000e81d00200a000000a0
:104594000000000000301dc500005f430100000062
:1045a40000c00ac50000a84202000000000070c15b
:1045b40000a0c044030000000020ecc400209d447f
:1045c400040000007f8d044186d0464405000000ad
:1045d400f6281041e7588f4306000000db000f4f18
:1045e4008dd9db5107000000e695264ca59c4f5160
:1045f40008000000a2c58543f2d2fe440900000071
:104604000088b4c50018c7450a00000000008242b3
:1046140000002d460b00000000002c42003c0c461c
:104624000c000000185d00422e3e05460d000000ff
:104634000000304100f01b450e00000028ab97bf7e
:104644005cba574110000000c8b842c4f76a1a4562
:104654001400000091ee10c5d0df80c317000000e5
:10466400aae791c17f1b5c411b0000000000803f52
:104674000000c0401c00000000803fc500009cc238
:104684001d000000f5a150c0df5341401e00000092
:10469400360ac2401db1cb441f000000b8a69ac41c
:1046a400d7637743200000007127e44324bf1f45ec
:1046b400210000002b872bc4f252984422000000f2
:1046c400e7fbaa43a6eb1a45230000000cc21ec454
:1046d40089e1c744240000005c3f03c54676684472
:1046e400250000007dff04c508ec6044260000009e
:1046f400b80e26c58776924427000000a69b08c5fd
:10470400fc69164428000000000040c200009e42dc
:1047140029000000000048c2000098422a0000005e
:1047240000008cc20000c2422b000000008c51c665
:1047340000d8bd452c00000000504dc50028cf45d1
:104744002d00000000742fc60060f1442e0000000c
:1047540000100ec5006067452f000000009072c570
:104764000060c445300000000000dec3009823460a
:104774003100000000c0a9c400801c4632000000c3
:10478400007025c50000344533000000000895c5bd
:1047940000c8814534000000c7182c439eba054b5d
:1047a40035000000208987422e1fec4a36000000a5
:1047b400627cd0426e52914ae81d00203c00000009
:1047c40000000000241b0020b401000000000000d1
:1047d4007c1e00209c030000010000000000120069
:1047e4002e00120008010100dc1e0020941e00208f
:1047f40000000000f5010500a002010050020600bf
:10480400510203008502010020020700fe0103009b
:10481400230204008c01020027020600c5010700e0
:10482400a90102008100040084010400d9020700e8
:104834004501010018010100d4010200e11d191312
:104844004dc227b86e25bfd720324d4a8f59002854
:1048540036a4e05b3e42dca7bcca47336380b77d25
:10486400d580201f18422961107f2cdfc9cc4383d7
:10487400cf12a56db9be20b505c72d567ace804f8f
:1048840065d3c3e64994551aa8834e36bd8dd07faf
:104894003625408943907a9ada48213446a93b7aee
:1048a40073c794bf22223a5e61e6f431c682cd908a
:1048b4006a8cd9a29ba0434a5076e7d7ecad331d4e
:1048c4001138203e096f6f867a7e4db291227e6e3a
:1048d4008e991c5714734b83998a7e44bab592c33c
:1048e400b2efcf6ab7512d41a979c98c64355da760
:1048f4006e44566234e8a8d94985c417bc6abed44c
:104904001cce03ca49227aca7e552fd9b7b9198851
:104914005016c118477ac698e39b351d2e752eace8
:1049240070d0c20f1712bd7b58c4097c6e3e611b48
:104934005342e79e7f2d86a1de165318f699a0f206
:104944002283785b534a95e7d5a5d5c1b212660890
:104954008f7f5d714dad782b7e4aa3a919401a79da
:104964005e8800866548c2b086b9b7e5cd73a852a3
:104974002743ab7bd3a357344e8850563c67e5dfbf
:104984001d8c1a075e013879020703121b3d35831b
:1049940099ed8704d1d266c163d6d23ddbb8ab486a
:1049a400ae85e0c27336232c5b0000009c7a1c7732
:1049b40036968630726aa1a41d5f10065278665539
:1049c400775ad6a239747e9db5788790c588b07819
:1049d400b2443c2956b07059566be06d1a4b4e9256
:1049e4004a4f60cf9dbf1d1a444157efff60d476f4
:1049f400d9b15aa0b0b7ba7c7c605064ecf0efcd6a
:104a04004b2b0f1b265003669808102bd59867c5af
:104a14000e597a4f9028723ad58d553d469ecb1447
:104a24005a11f4989af4237e776029086faee7b49c
:104a3400f7e8ed157908a17d06832f8c882a738009
:104a4400949c1d3b0f0d4d829968854cd6b2377ee0
:104a5400799db66f8b975550b688ae413f2c5bb3aa
:104a6400764e4e6ee9ec049300020300f9790101dd
:104a74000000213eda9099fd8200d6165a1950089a
:104a84000b900aa2300caf63d9792e1720633e0035
:104a94000000dbe90e9c332a0201fb740e0f33196c
:104aa400183ade9199f0740ebf0a640c480401931d
:104ab4000c034ef5ad4ff1934f08218251000000d5
:104ac400540a532fdcbbb7ee0e5d9b53c9426d40b5
:104ad400ac957f2147f9a3197519d69a8cde3e81ce
:104ae40063620f120327a1edf97cf820d70a0ff8af
:104af400c2df4d6af71aae73b3c31dfd00d74a4532
:104b040099cf855334f1b0c70a7f4c06c44d4a355a
:104b1400be9ad6a02a2f3f721faa9abc51adb9df04
:104b24003e7b9d239369c9b4199607dc1ec699b6ca
:104b340076743eb3e9d156802a2d871f5a97c29bbb
:104b4400dea33a2839772faf5f82ac7f01a13ee123
:104b5400a4299078a4c924400d126765994d786df5
:104b6400f7b11270517bac608691ce66ab7d951a1d
:104b74000f3564b3596470926c1e00200800000065
:104b840000000000981d00205000000000000000fc
:104b9400502400206c000000010000005c24002070
:104ba400582400205c2400200000000025000000a0
:104bb4002415002000040000000000000000000094
:104bc40000000000000000000000000000000000e1
:104bd40000000000000000008bbd00000000000089
:104be400000000000000000000000000d9a7000041
:104bf40000000000000000000000000000000000b1
:104c040000000000000000001c1500200804000043
:104c140000000000442500202000000001000000e6
:104c2400010000000300000000000000000000007c
:104c3400000000000000000000000000601e0020d2
:104c4400601e00200800000000000000741e002008
:104c54000400000000000000bc24002060000000ec
:104c6400010000000100000003000000000000003b
:104c74000000000000000000000000000000000030
:104c84007daa0000000000000000000000000000f9
:104c94003dbd0000cfa500000000000000000000a2
:104ca4000000000000000000000000000000000000
:104cb40000000000000000000000000000000000f0
:104cc4000000000064250020040000000100000032
:104cd40001000000781e0020040000000000000015
:104ce4004c1e00200c00000000000000000000002a
:104cf40000000000666666666666666666666666e8
:020000040000fa
:104d0400f0b59bb013930b6815900a938b680d91c3
:104d14000b930b694d681893cb680293136808933f
:104d240053680898069300220023069906f0bbfafc
:104d340000280dd10a9b5b073bd408200a9b034043
:104d440009930b9b0393099b002b0fd0202306e0b0
:104d5400802212069446069b634406932d23029aee
:104d640013700b9b013b039301230993069b089942
:104d74005b005b08924a00291dd193421bd1029922
:104d8400139b8c46099a413b624410008d49192bb0
:104d940000d98d4906f0caff029806f0c9fe0a9ba5
:104da4000200009302990b9b159805f01dfb1bb0a4
:104db400f0bd2b23d3e7934203d80ed1089b002bdd
:104dc4000bd00299139b8c46099a413b6244100014
:104dd4007e49192bded97e49dce70022002308989e
:104de400069906f06ffc00267a4f002400283ed175
:104df400040002e00134049e059f0022764b30003b
:104e0400390003f0a1f8089a069b0490059106f076
:104e14002bfa0028eed00023049320e06f4b9c4231
:104e240014da049b002b11d100226d4b08980699cb
:104e340003f08af86a4b089006913000390000228a
:104e440003f082f8012306000f00049330003900b8
:104e54000022614b04f09efb06000f00013c32006f
:104e64003b000898069906f01efa0028d6d113983c
:104e740006f048ffc3b20c93002d00da94e10493ca
:104e8400672b00d0b2e0002d00d189e1231d02dba5
:104e9400ac4200daa6e06523b6e0002200230e92bd
:104ea4000f9303e106960797049b2600652b00d019
:104eb4001ae1002618e1129b002b0bd1002e09da0f
:104ec400029a14992e335354039b0137013b0393e5
:104ed40001231293ea193b009446302102e0029a1e
:104ee400d15401339c45fad1039aeb19551b029a0c
:104ef40030305f1cd0546b1e0393002521e00d9bc2
:104f040014971b691093053bbb4200d8f5e0069a41
:104f1400079b08980e9904f03dfb04f0b1fc109037
:104f2400119106f01dfb092800dd092010230a9abf
:104f340013400343bfd10c9b672bbcd1002ec9daad
:104f440001358020000684460e99089a61440b00be
:104f54001098119900920193069a079b06f0cafed5
:104f640080231b06cb1808900e93069807990022fd
:104f7400194b04f00ffb013e06900791b9e00a9b20
:104f8400db0600d4bde02e23029ad3550137b8e0e6
:104f940020000a2104f072fd029b3031013d595575
:104fa40020000a2104f020fd039b0400013b03932d
:104fb400b7e0029b03991a5c5b181a540138e0e0cd
:104fc4000000f07fd8bc0000dcbc0000e0bc0000a6
:104fd400e4bc00000000f03f00002440d4feffffca
:104fe40000005043002c0eda66230493049b013521
:104ff400662b0ad1002c02da002600246d4f0c9b8c
:10500400672b00d02d1966230493089b0e960f97e7
:105014001293069b1093002314930e9a0f9b1298dd
:10502400109904f0b7fa04f02bfc1690179106f0cf
:1050340097fa19908020000684461099129a6144c8
:105044000b0016981799009201930e9a0f9b06f085
:1050540051fe80231b06cb18129010930e980f99c3
:10506400554b002204f096fa149b0e900f910133d5
:1050740014939d42d1d10022504b02f065ff0e9053
:105084000f9102000b001298109906f00cf90028f9
:1050940000d002e70e9a0f9b1298109906f012fbab
:1050a400002803d0199bdb0700d4f6e60e9a0f9b69
:1050b4000898069902f06afd002208900e913e4b72
:1050c4003000390002f040ff089a0e9b06900791c9
:1050d40006f006f8002800d1e4e6049b0134662bb0
:1050e40000d0e1e626000135731b0025099f1693c5
:1050f4001295169b9e4200d001e7129b002b00d113
:105104003de70026029bdb1906931e70049b652b6a
:105114002ad1189b5d1e029b5e55b44201da64429b
:105124000136002c00d033e7189beb1a0333002b15
:1051340000dd2de76a1e2d23002e00d1023b0299cb
:10514400023d8b54139b413b192b01d845230493f7
:10515400029b5919049b0b70039b023b0393af42c0
:1051640002da069806f0e2fd03230a9a1340022ba2
:1051740000d011e6039b002b00dc0de6029806f03c
:10518400d7fc099b834200dc13e7029a3021944642
:1051940063441800039a06f017fd00230b93fbe504
:1051a400012573e6062571e60c9b672bfad0049360
:1051b40006251be70000f03f0000244000001440d7
:020000040000fa
:1051c400f0b557464e46de4645460c00e0b51f0096
:1051d40003008db0029003911600009301940028ff
:1051e40000d13fe134003d00a4197d4121002a0093
:1051f400c64bb146ba4604910592ab4200d32ee1a8
:10520400009c019d200029000019694183468846bd
:1052140099422ed9be4b994230d9019bbd4a5b00bd
:105224005b0d013b934200d9e2e07b005b0d013b47
:10523400934200d9dce03000390006f091f9804651
:1052440006f00efc814500d19be0029803990022f0
:10525400002306f028f8002800d180e00024ae4d99
:10526400200029000db03cbc90469946a246ab46ae
:10527400f0bd002f02da2222a84b1a60019b002bfa
:10528400cbdaa34b059a9342c7d3a54a7b00944635
:105294005b0d6344332b00d9eae03422d21a9446de
:1052a400203a099200d555e1002100220691079287
:1052b4000122099952428a400792012261465242d0
:1052c4008a400692069c079d20002900802200192e
:1052d4006941340052033a438a43099984432500bf
:1052e400002900da2ae11000c8400a906046110043
:1052f400c14020200b91190040420c1800d5fde05c
:105304002a00a24011002a009a40100000184941c6
:105314000a9b0b9a03430a93069b079c1d002300d8
:105324003b400a43190080233540d2022800d20aa8
:105334005b039a4205d800d0aee00a9b002b00d153
:10534400aae0099c002c00da15e10125a5402b00f8
:1053540001246546ac402200801859419ce0009b22
:10536400019c18006300590802f022fb02000b00a4
:105374003000390002f0e8fd02f024f804000d00ca
:105384006ee78a4500d060e780231b06984500d16c
:105394005be74346002b00daace00027002b5ed02d
:1053a4003b0000244746012698465e4d3e4207d006
:1053b400029a039b2000290002f0c6fd04000d00a0
:1053c4007f080cd14746002f00d149e722002b006b
:1053d4000020544904f0def804000d0040e7029870
:1053e400039902000b0002f0affd02900391dde788
:1053f4004d4b98452bd827d00499059a4a4b934294
:105404006fd36bd0414b984555d83000390006f026
:10541400a7f8804606f024fb814500d015e78a45ad
:1054240000d012e75346002b00dae7e00022002404
:1054340000254346db0700d412e7019b0024db0f61
:10544400db0753401d000be75b46002bd4d0029cc6
:10545400039d05e7354b019a9a4200d099e0002458
:10546400304dfde62f4b019a9a4200d0bae6eee7a2
:1054740080223000d200390093420dd90498059956
:1054840000222b4b121a8b41da17264b00201a40ac
:10549400fb0fdb071a43110002000b003000390038
:1054a40006f010f9002800d0b7e621221b4b002497
:1054b4001a60194dd4e6009b002b73d04b46002b89
:1054c40060d0019b1b4a5b005b08934200d892e0ca
:1054d400009b002b08d00024174dc1e6049b002b31
:1054e40090d034003d00bbe6104b019a9a42b6d0ee
:1054f4000024f1e75b429846012751e720212c0064
:105504009a40c91acc4011002143fce6ffff1f005a
:10551400ffffdffffd0700000000f87f701e002082
:1055240001fcffff0000f03f0000e0ff0000f0bfbf
:105534000000c07fffffef3f0000f07f60462021a6
:10554400091a10008840010020006446e040084326
:105554000a90cbe662462021891a012252421000a9
:10556400c840010060468240002400250a43069496
:1055740007950792a1e62023624601249b1adc408a
:105584002300e5e6234b9a459bd1009b002b00d1d9
:1055940060e7019b204a5b005b08002493429bd98f
:1055a40000255de61d4b019a9a421ed0194b9a4282
:1055b40084d15346002b25db0023164c174d009352
:1055c400019400243000390005f0caff060006f0fb
:1055d40047fa814500d043e68a4500d040e6f30708
:1055e40000d43de6009c019d3ae653460024002b7e
:1055f400d6db0a4d34e60024002531e6074a0024b0
:10560400064d16e780240023240600930194002508
:105614000024d7e70000f0ffffffef3f0000f07f1a
:020000040000fa
:10562400f0b5ce46474680b5060083b008000c00ae
:10563400fcf79afe2d4902228046300006f0bafaa1
:105644002000fcf787fe01a901282cd02000fcf7dc
:105654009dfe43465f1e002f44dd254b002401259b
:105664009946019aa300985805f018fd02000b0012
:105674007019494606f068fa01342d18bc42f0db73
:105684001c4b019a43449b00985805f007fd020007
:105694000b007019184906f057fa401903b00cbcf6
:1056a40090469946f0bd2000fcf770fe43465f1e0d
:1056b400002f19dd114b002401259946019b701917
:1056c4001a5d494606f040fa01342d18bc42f5db58
:1056d400019b70194344013b1a78094906f034fad6
:1056e4004019dbe70125cbe70125f1e7d07700007e
:1056f400dc770000ffffff3fe0770000d477000075
:10570400d8770000f0b5c64600b50e00fdf746fc9c
:10571400070002221a49300006f04cfaba685568ac
:10572400002d26dd0024012d15d0164b01259846a9
:105734001368a200d05805f0b1fc02000b007019e8
:10574400414606f001faba68013453682d18013b4a
:10575400a342eddca4001368185905f09ffc020075
:105764000b007019084906f0eff9401904bc904683
:10577400f0bd701c0222054906f01cfa0220f5e770
:10578400d0770000dc770000e0770000e4770000c9
:10579400f0b5d64646464f460d00c0b5994608ab0f
:1057a4001b7806003849924602002800984606f005
:1057b400cbf904003000fdf7f1fb0378012b4bd04b
:1057c4002f19022b53d05346002b10d14b46002bdc
:1057d4001fd14346002b2ed1380002222b4906f05c
:1057e400e9f9601c1cbc90469946a246f0bd300005
:1057f400fdf7e4fb82463000fdf750fb5246030000
:105804002349380006f0a0f94b4624182f19002b21
:10581400dfd03000fcf7a8fd1e490200380006f076
:1058240093f9241828193100fff7fafe4346241887
:105834002f19002bd0d03000fdf7b0fb8368164938
:105844005a68380006f080f9241829193000fff747
:1058540059ff24182f19bfe7406805f043fd0f498d
:105864000200281906f070f924182f19abe74068d4
:1058740005f014fc02000b003800094906f064f935
:1058840024182f199fe7c046e87700009c78000091
:10589400247800004c78000078780000fc77000041
:1058a4001478000010b50a2006f0a2f910bdc04615
:1058b40010b5034806f086f80a2006f099f910bde1
:1058c400a0780000f8b5de4657464e464546e0b59a
:1058d400040017000e00fdf783fb2200002844d0cb
:1058e4002449300006f030f905002000fcf73cfda7
:1058f400390082462000fdf797fb2000fdf7c0fb2e
:10590400142283461c49701906f054f901235b42a2
:10591400534413359846002b0cdd184b002499464c
:10592400a3007019fa58494606f00ef901342d18ef
:105934004445f5db124b701953449b00da59114965
:1059440006f002f9451970195a460f4906f0fcf899
:105954002d18701903220d4906f02cf9a81c3cbc23
:1059640090469946a246ab46f8bd0949300006f078
:10597400ebf8f4e7f478000018790000d47700001d
:10598400ffffff3f2c790000347900004c790000c0
:10599400c8780000f8b5de4657464e464546e0b5a1
:1059a400040017000e00fdf71bfb2200002850d056
:1059b4002a49300006f0c8f805002000fcf7d4fca2
:1059c400390082462000fdf715fb2000fdf746fb59
:1059d400132283462249701906f0ecf801235b4236
:1059e400534412359846002b10dd1e4b0024994673
:1059f400a300f85805f052fb02000b007019494649
:105a040006f0a2f801342d184445f1db164b53443b
:105a14009b00d85905f042fb02000b007019134992
:105a240006f092f84519584605f038fb02000b00c1
:105a340070190f4906f088f82d18701903220d49c2
:105a440006f0b8f8a81c3cbc90469946a246ab4662
:105a5400f8bd0949300006f077f8f4e75079000002
:105a64007479000088790000ffffff3f90790000ff
:0c5a7400987900004c790000c878000010
:020000040000fa
:105a80007047c0460b4b1a6801321a605a68002ae8
