:020000040000fa
:10000000f87f002069a4000085b1000089b10000dc
:1000100000000000000000000000000000000000e0
:100020000000000000000000000000007f800000d1
:1000300000000000000000007f800000898a0000ae
:100040007f8000007f8000007f8000007f800000b4
:10005000658800007f8000007f8000007f800000b6
:100060007f8000007f8000007f8000007f80000094
:100070007f8000007f8000005d5900007f800000cd
:100080007f8000007f8000006d8600007f80000080
:100090007f80000000000000000000007f80000062
:1000a0007f8000007f8000007f8000007f80000054
:020000040000fa
:1000b000f8b5c046f8bc08bc9e46704749a400008d
:1000c000f8b5c046f8bc08bc9e46704721a40000a5
:020000040000fa
:1000d0007483000001000000c88a000001000000d5
:020000040000fa
:1000e00070b582b06b469d1d2b0001224e2106008b
:1000f00007f094fd6b46dc1d01224d2123003000ea
:1001000007f08cfd2a7821780020130703d40323fd
:100110001340022b01d002b070bd0120c90841403c
:1001200001200840f7e7c046437802781b021343da
:100130005bba0b807047c04600b583b06b4607338f
:1001400019700122762107f0adfd03b000bdc04655
:10015000f0b5d64646464f46c0b582b06b46dd1d6b
:100160000123012298462b7076212b00070007f00f
:1001700099fd6b460400053301227a21380007f00f
:100180004dfd6b460443063301227c21380007f005
:1001900045fd002304432b7001222b0076213800fb
:1001a00007f080fd434601ae044333700122330063
:1001b0001121380007f076fd044306d0200002b07c
:1001c0001cbc90469946a246f0bdfa20800006f07d
:1001d00077fe434601222b7076212b00380007f072
:1001e00061fd6b468146053301227a21380007f014
:1001f00059fd4b460343994601222b0076213800d6
:100200002c7007f04ffd4b46034399460122330003
:100210002d21380007f002fd4b461022034399467a
:10022000337892461a424ed0380007f0bffc43465e
:1002300001222b7076212b00380007f033fd4b464e
:10024000034399466b46012206337c21380007f0b0
:1002500029fd4b4603439946012233007b21380098
:1002600007f0dcfc4b4606220343994633787b219a
:10027000934302221343337001223300380007f006
:1002800011fd4b460343994601222b00762138008d
:100290002c7007f007fd4c463300044301224c212b
:1002a000380007f0bbfc5246337804431a40130071
:1002b000064abb543b7e022b00d07fe7fb68380028
:1002c000984704437ae70c24644277e76808000003
:1002d00010b50b000122752107f0a0fc10bdc0462f
:1002e000f0b583b06b46dc1d23000f0001224d21c9
:1002f000060007f093fc23780500002f0bd108229d
:1003000093432370012223004d21300007f0cafce3
:10031000284303b0f0bd08221343f2e7f0b5454689
:10032000de4657464e46e0b583b06b465e1d330051
:1003300001224e210400032707f070fc33780500ea
:1003400098461f40022f01d01b0755d50023994620
:1003500001ab9a46534601225221200007f05efc71
:1003600053461a780f2313406c4a0543a25c52216e
:1003700013435246200013705346012207f092fcab
:100380003300054301224e21200007f047fc0322e1
:100390003378054393430222134333700122330021
:1003a0004e21200007f07efc0543c82006f088fda2
:1003b000022f00d181e043461b0708d44b46c82bcf
:1003c00000d98ae000212000fff78aff0543544b43
:1003d000e358072b43d80022514be250002f03d1a2
:1003e000504be35c002b6fd1280003b03cbc90461f
:1003f0009946a246ab46f0bd06236b4499460122be
:100400005021200007f00afc4b461a780f231340b6
:10041000013b05430e2b54d8434a9b009b589946f9
:1004200008212000fff75cff434605431b0700d06f
:100430008ee73c4b01aae35c9246002b52d1072386
:100440006b449b4601224c21200007f0e7fb5b46f2
:100450001a7810231340354a0543a3547ae76b46b4
:100460009e1d502133000122200007f0d7fb0f23ef
:10047000994632780543134098460e3b591e8b41ee
:1004800049460d338a431343413101223370200022
:10049000330007f007fc0543c82006f011fd4a466b
:1004a0003378502193434246134333700122330083
:1004b000200007f0f7fb05438de70022184be250c0
:1004c00092e71b4b9946abe706f0f6fc86231b012f
:1004d0009c4664442060616086e74846c83806f060
:1004e000effc6fe713005f210122200007f096fb6d
:1004f00053461a780323514613430b700d4b0543a3
:10050000e35c002b02d013231a430a7053460122e6
:100510005f21200007f0c6fb054390e7720800004a
:100520006c0800006a08000088a30000680800004a
:1005300000c4090069080000f0b54746ce4680b502
:1005400083b06b469d1d2b0001224e21040007f055
:1005500065fb052203262b786a4407001e4090465f
:10056000022e4ed01b0738d04346012252212000d4
:1005700007f054fb43461a780f231340464a0743bb
:10058000a25c5221134342462000137043460122cd
:1005900007f088fb2b00074301224e21200007f0c3
:1005a0003dfb03222b780743934313432b70012217
:1005b0002b004e21200007f075fb0743c82006f0f2
:1005c0007ffc002e03d1354be35c002b3bd1380080
:1005d00003b00cbc90469946f0bd304be35c002b59
:1005e0003ad107236b44994601224c21200007f0a1
:1005f00015fb4b461a7810231340294a0743a3548e
:10060000b2e71b07b0d407236b4498460122502160
:10061000200007f003fb43461a780f231340013be9
:1006200007430e2b34d81f4a9b009b58984608213d
:100630002000fff755fe0743404606f041fc052326
:100640006b44984690e706f037fc86231b019c46d6
:10065000644420606160bae713005f21012220003a
:1006600007f0dcfa43461a780323414613430b7024
:100670000d4b0743e35c002b02d013231a430a708f
:10068000434601225f21200007f00cfb0743a8e747
:10069000064b9846cbe7c046740800006a08000085
:1006a0006808000088a300006908000000c4090071
:1006b000f0b5ce4647466f4b80b5c418236883b06b
:1006c0000600013300d176e006f0f6fb226863688d
:1006d000994252d9801a9941002900d1c2e06b4653
:1006e0009c1d230001224e21300007f097fa0c25b3
:1006f00003232278804615401340022b60d06b46be
:100700005f1d130741d03b0001225221300007f04a
:1007100085fa43460f22034398463b785221934380
:10072000554a3000b25c13433b7001223b0007f096
:10073000b9fa47462300074301224e21300007f053
:100740006dfa0c222378074393431343237001224d
:1007500023004e21300007f0a5fa0743c82006f019
:10076000affb002d03d1454bf35c002b51d138007a
:1007700003b00cbc90469946f0bd994245d0012487
:100780000025644200196941a4e73c4bf35c002b4f
:1007900047d1072301226b444c213000994607f0d2
:1007a0003dfa4346034398464b461a7810231340bc
:1007b000334ab354a7e76368002b00d084e78ee781
:1007c0006b465f1d13079ed407236b449946012295
:1007d0005021300007f022fa4b461a780f23474683
:1007e0001340013b07430e2b39d8264a9b009b58e8
:1007f000994608213000fff773fd0743484606f08d
:100800005ffb6b46b8465f1d7de7904200d961e70c
:10081000b5e706f051fb1c4b9c46664430607160a6
:10082000a5e73b0001225f21300007f0f7f94346be
:100830000343984603233a7813433b70134bf35c0e
:10084000002b02d013231a433a703b0001225f2190
:10085000300007f027fa43460343984699e70c4bcc
:100860009946c6e70b4b984200d938e70a277f42e2
:100870007de7c04678080000750800006a0800009f
:100880006808000088a300005808000069080000fc
:1008900000c40900f049020070b582b06b46dc1d4f
:1008a000230001225421060007f0b8f90222237820
:1008b0000500934313432370012223005421300089
:1008c00007f0f0f9284302b070bdc04670b582b0a1
:1008d0006b46dc1d230001225421060007f09ef91f
:1008e00002222378050093432370013a2300542108
:1008f000300007f0d7f9284302b070bdf0b583b0df
:100900006b46dc1d23000e0001225421070007f076
:1009100085f908222378050093431e43073a2300f4
:1009200054213800267007f0bdf9284303b0f0bd0c
:100930000023f0b5ce4647469946002380b583b0e4
:1009400001ad2b804b46ab706b46df1c04230c00c3
:100950003b7001223b007621804607f0a3f92b0073
:10096000060003224f21404607f058f94b46064344
:100970003b7001223b007621404607f093f90123aa
:100980002a783043511119402170d11019406170fb
:10099000911052101a40e2706a781940a17011113a
:1009a000194021715110194061719110d2101a40f3
:1009b000e271aa781940a1715111194021721111e7
:1009c00019406172d11019401340a172637303b0d2
:1009d0000cbc90469946f0bd0023f0b5ce46474684
:1009e0009946002380b583b001ad2b804b460c00a7
:1009f000ab7002222b006521804607f00ff96b4691
:100a0000df1c042306003b7001223b007621404698
:100a100007f048f96b460643063301224d21404654
:100a200007f0fcf84b4606433b7001223b00762161
:100a3000404607f037f901232a78304391111940d5
:100a40002170d11019406170911052101a40e2705b
:100a50006a781940a170d110194021711900114014
:100a60006171511092101a40e271aa781940a17177
:100a7000511119402172111119406172d1101940a0
:100a8000a17251101940e172911019401340217365
:100a9000637303b00cbc90469946f0bd0023f0b5db
:100aa000ce4647469946002380b583b001ad2b80e2
:100ab0004b460c00ab7002222b006821804607f0e9
:100ac000adf86b46df1c042306003b7001223b009f
:100ad0007621404607f0e6f86b46064306330122ce
:100ae0004e21404607f09af84b4606433b700122e0
:100af0003b007621404607f0d5f801232a783043a1
:100b0000911119402170d11019406170911052104b
:100b10001a40e2706a781940a170d1101940217111
:100b2000190011406171511092101a40e271aa78b7
:100b30001940a171511119402172111119406172ae
:100b4000d1101940a17251101940e1729110194051
:100b500013402173637303b00cbc90469946f0bdfb
:100b6000f0b5c646002300b582b001ad2b80ab7056
:100b70006b46de1c04230c00337001223300762107
:100b8000804607f08ff82b00070003224f214046d4
:100b900007f044f82e222b780743934322785bb268
:100ba000002a01d0202213436278002a01d00822b3
:100bb0001343a278002a01d004221343e278002aca
:100bc00001d0022213431e222b706b7893432279ab
:100bd0005bb2002a01d0102213436279002a01d0af
:100be00002221343a279002a01d004221343e2799e
:100bf000002a01d0082213436b703923217aa87888
:100c00004a1e9141627a9843531e9a4113019c46b1
:100c1000a37a647b5a1e9341621e9441624640b29d
:100c20002043490101430a43db001343ab70032215
:100c30002b004f21404607f035f80023074333705f
:100c4000012233007621404607f02cf8384302b0e9
:100c500004bc9046f0bdc046f0b5d6464f46464669
:100c60000023c0b582b001ae0c003380b370022205
:100c700033006521804606f0d1ff6b46df1c04235c
:100c800005003b7001223b007621404607f00af840
:100c90006b460543063301224d21404606f0beff58
:100ca0004e2233780543934322785bb2002a01d069
:100cb000402213436278002a01d008221343a2780d
:100cc000002a01d004221343e278002a01d0022234
:100cd000134333700f2372789a43237952b2591e0b
:100ce0008b416179db00481e81410a431343a2799d
:100cf000002a01d002221343e279002a01d0042203
:100d0000134373703f23b078984343b2207a9946d7
:100d1000411e88414301607a9c46411e8841a17a68
:100d200000014a1e9141e27ac900531e9a415300c4
:100d30009a46237b647b5a1e9341621e94414a4625
:100d40001443624614435246204301430a439b0026
:100d50001343b3706b46012206334d21404606f023
:100d6000a1ff002305433b7001223b007621404652
:100d700006f098ff3300054302226521404606f045
:100d800091ff284302b01cbc90469946a246f0bd94
:100d9000f0b5d6464f4646460023c0b582b001aef8
:100da0000c003380b370022233006821804606f0c5
:100db00035ff6b46df1c042305003b7001223b001e
:100dc0007621404606f06eff6b460543063301224e
:100dd0004e21404606f022ff4e22337805439343ce
:100de00022785bb2002a01d0402213436278002aa5
:100df00001d008221343a278002a01d00422134311
:100e0000e278002a01d00222134333700f23727854
:100e10009a43237952b2591e8b416179db00481ef7
:100e200081410a431343a279002a01d002221343cd
:100e3000e279002a01d00422134373703f23b07873
:100e4000984343b2207a9946411e88414301607a13
:100e50009c46411e8841a17a00014a1e9141e27ad6
:100e6000c900531e9a4153009a46237b647b5a1e45
:100e70009341621e94414a461443624614435246cb
:100e8000204301430a439b001343b3706b46012286
:100e900006334e21404606f005ff002305433b7014
:100ea00001223b007621404606f0fcfe330005435c
:100eb00002226821404606f0f5fe284302b01cbc21
:100ec00090469946a246f0bd70b58eb06b460122a1
:100ed00006332d21050006f0a1fe041e03d16b464a
:100ee0009b791b0702d420000eb070bd02ab02221a
:100ef0001d21280006f092fe3f4b0400eb5c102bf6
:100f000040d06a46128907ab5a8203ab06221f21e2
:100f1000280006f083fe384e0443ab5d102b4cd006
:100f20006a46928907abda806a46d2891a816a4694
:100f3000128a5a8105ab06222521280006f06efe92
:100f40002d4e0443ab5d102b22d06a46928a07ab2c
:100f50009a816a46d28ada816a46128b1a826b6a51
:100f6000002b01d007a8984702232a7e9a43bad1c2
:100f70006b4607331a7075210132280006f092fe85
:100f80000443b0e72e2102a86944fff7cdf8bce77f
:100f90000aa905a8fff7c8f8ab5d102b23d12a21b9
:100fa000162069446844fff7bff8ab5d102b20d1d1
:100fb0000ba906a8fff7b8f8d1e7222103a86944d6
:100fc000fff7b2f8ab5d102b11d10e2009a96844d0
:100fd000fff7aaf8ab5d102b07d1262104a86944be
:100fe000fff7a2f8a6e707abb3e707ab9fe707abae
:100ff0009ae707abb0e7c0466808000001380e2842
:1010000003d8034b8000c05870470248fce7c04635
:1010100088a3000000c40900f0b5c64600b582b040
:101020006b46dc1d230001220f004e21050006f057
:10103000f5fd0323227880461340022b1fd0114b6d
:10104000eb5801330f4a5021ab506b469e1d3300c5
:101050000122280006f0e2fd0f22337804009343ba
:101060001f430e3a330050212800377006f01afe55
:1010700043462043184302b004bc9046f0bd002311
:10108000e0e7c0466c080000f0b583b06b46dc1d9d
:1010900023000e0001224f21070006f0bffd0f22a2
:1010a0002378050093431e430e3a23004f21380056
:1010b000267006f0f7fd284303b0f0bdf0b583b00d
:1010c0006b46dc1d23000e0001225021070006f0b4
:1010d000a5fd1f232278050013401e430122230093
:1010e00050213800267006f0ddfd284303b0f0bd26
:1010f000f0b583b06b46dc1d23000e0001224f21aa
:10110000070006f08bfd1f232278050013401e43c5
:10111000012223004f213800267006f0c3fd28432a
:1011200003b0f0bd30b50d4b83b0c35c0d00002b98
:1011300003d00b4bc35c012b0cd06b46dc1d230092
:101140000122502106f06afd1f22237893432b7061
:1011500003b030bd002300200b70f9e769080000e0
:101160006a08000030b50d4b83b0c35c0d00002b46
:1011700003d00b4bc35c012b0cd06b46dc1d230052
:1011800001224f2106f04afd1f22237893432b7042
:1011900003b030bd002300200b70f9e769080000a0
:1011a0006a080000f0b5c64600b582b06b46dc1d8b
:1011b0000e00230001225221050006f02ffd0f270b
:1011c0008046237801223b40334323705221230081
:1011d000280006f067fd43460343181e02d1034b67
:1011e000be43ee5402b004bc9046f0bd720800004d
:1011f000f0b5c64600b582b06b46dc1d0e0023007c
:1012000001225221050006f009fd0f2780462378b0
:1012100001223b403343237052212300280006f073
:1012200041fd43460343181e02d1034bbe43ee5417
:1012300002b004bc9046f0bd74080000f0b5c6468c
:1012400000b582b06b46dc1d0f0023000122522145
:10125000050006f0e3fc0f26804623780122b34305
:101260003b43237052212300280006f01bfd434618
:101270000343181e02d1034b3e40ee5402b004bc9f
:101280009046f0bd75080000f0b5c64600b582b0c6
:101290006b46dd1d01222b004e21060006f0befc30
:1012a0002a780700130703d003231340022b28d109
:1012b0006b46012206331621300006f0affc0523f1
:1012c0006b4498460023424604001370162143469f
:1012d0000122300006f0e6fc6b460443063301228f
:1012e0001621300006f0defc3c4304434346012255
:1012f0007521300006f092fc204302b004bc9046f9
:10130000f0bd6b46022205331a704b21013a3000c2
:1013100006f0c8fc3843f0e7f0b583b06b469d1d7e
:101320002b0001224e21040006f078fc0c222b78c1
:101330001a421bd1224e093a9343a25d002a17d0cc
:101340000121204a2b70a1542b0001224d31200095
:1013500006f0a8fc002105002000fef7c1ffa35df8
:101360000543002b12d1280003b0f0bd03229343a4
:101370002b7001222b004e21200006f093fc00214f
:1013800005002000fef7acff0543ece76b46df1dd0
:101390003b0001225f21200006f040fc13223b7835
:1013a000060093433b70123a3b005f21200006f099
:1013b00079fc06432000fff767ff35430543d2e77a
:1013c0006a0800006b080000f0b583b06b469d1df5
:1013d0002b0001224e21040006f020fc03232a7872
:1013e0000600134034d1404f0c339a43e35d002b89
:1013f00032d001213d4b2a70e15401222b004d31a6
:10140000200006f04ffc3043050005f055fd384b39
:10141000e31818605960e35d002b2dd06b46df1d8b
:101420003b0001225f21200006f0f8fb13223b78ed
:10143000060093433b70123a3b005f21200006f008
:1014400031fc304305432000fff71eff054313e046
:10145000022b14d00c239a432b002a704e21012218
:10146000200006f01ffc3043050005f025fd204b51
:101470009c46644420606160280003b0f0bd0821f0
:101480002000fef72dff0c2207002b784e219343fe
:101490002b700b3a2b00200006f004fc3d000543a6
:1014a00005f00afd124b0122e318186059606b46e3
:1014b000df1d3b005021200006f0b0fb0f233a78df
:1014c00035431340013b05430e2b0bd8094a9b00c3
:1014d0009858400005f0f4fc00212000fef700ffc2
:1014e0000543c9e70448f5e76a0800006b080000f7
:1014f0007808000088a3000000881300f0b5de46dd
:10150000574645464e46e0b58fb004aa9446072399
:1015100063449a4600235246137063460122063301
:101520002d21040006f07afb051e04d1062204ab2f
:101530009b791a4207d128000fb03cbc90469946cf
:10154000a246ab46f0bd06ab043a2e21200006f0c1
:1015500065fb002800d054e104ab1b890093002bed
:10156000e9d0d94be35c002b00d04ce11023984626
:101570009946237e022b00d096e1009b27004d4622
:101580000026994644373b002a003021200006f00f
:1015900045fb002800d0c6e10136b6b247444e45af
:1015a000f1d10023002507ae1f0017e1911c1000a8
:1015b000029144318b46111d039144316118019110
:1015c000c24944308846615c2018a344102900d1e8
:1015d00031e1a21840784432127800020243f280ce
:1015e0005a465178029a0902a218443212780a43e4
:1015f0003281019a5178039a0902a2184432127872
:101600000a4372810735adb29a062cd5aa1c443222
:10161000a21801922a1d2800029244329046ab4a39
:1016200044309346a25c2018a044102a00d120e147
:10163000621941784432127809020a43b281019a50
:101640005178aa1ca2184432127809020a43f28186
:10165000424651782a1da2184432127809020a43e0
:1016600032820635adb260221a421dd0503a1a427b
:1016700000d1cce02800954a4430a25c2018102a02
:1016800000d12be1621941784432127809020a43f1
:1016900072828f4a1220315e0235adb2914203d080
:1016a000102231680a4332600c221a421dd02800f1
:1016b000864a4430a25c2018102a00d1b5e0621995
:1016c00041784432127809020a43b280042202357a
:1016d000adb21a4206d07f49615c002902d131685f
:1016e0000a43326000217b4aa15410221a409346db
:1016f00059062ad576490622b05e884225d00822ae
:10170000b05e884221d00a22b05e88421dd05a467f
:10171000002a0ed0611908004430007800093075a5
:1017200008004631453000780978000909097075cc
:10173000b175862212019046a044424612680132d9
:1017400000d1dce05a0700d40ee199062cd560499f
:101750000c22b05e884227d00e22b05e884223d091
:101760001022b05e88421fd05a46002a11d060195c
:10177000010044310a780f210a40f275452294464f
:1017800084446246127846300a403276007801403e
:101790007176514a9046a04442461268013200d107
:1017a000b7e05b0700d4c3e05b46002b01d00335f4
:1017b000adb2636a002b01d0300098470222237e2d
:1017c000934305d15346013a7521200006f06afa89
:1017d0000137009bbfb2bb4200d188e000233360d9
:1017e0002b0044339946a1444b461b786a1c59b2de
:1017f00092b2002900da7ce0590600d5d6e6150041
:1018000002e7050097e6142398469946b1e6611968
:1018100044310978013549b27182adb2803100d1cd
:1018200042e731680a4332603ee708a9fef77cfcd4
:101830004b461b784ae704ab9c4602316144fef7f5
:1018400073fc4346e35c102b00d0ace009a958467a
:10185000fef76afc4346e35c102b00d0a0e004ab2b
:101860009c46162101986144fef75efc4b461b78ae
:10187000c8e60aa9fef758fc5b46e35c102b00d0d3
:1018800097e004ab9c461a2101986144fef74cfc9a
:101890005b46e35c102b00d088e00ba94046fef7c6
:1018a00043fc4b461b78dce64246009b30215a4302
:1018b00023002000443306f0b1f9051e00d170e684
:1018c0002000fff7e1fc36e6690800006808000028
:1018d0000080ffff6b0800005808000004ab9c4626
:1018e0001e216144fef720fc4b461b78d1e61d000b
:1018f00021e601252000fff7c7fc6d421be64246aa
:101900005268002a00d01de701213268114331607e
:101910001be742465268002a00d042e702233268a1
:101920001343336040e705002000fff7adfc02e6fb
:1019300005f0c2fa43461a685b68801a994100298b
:1019400002d11d4b984209d901220023414652423f
:101950000a604b6002233268134333604b46102207
:101960001b781a4093461fe705f0a6fa43461a680b
:101970005b68801a9941002902d1104b984209d91d
:1019800001220023414652420a604b600123326823
:10199000134333604b4610221b781a409346d4e61b
:1019a0004b461b7825e64b461b7819e64b461b78c1
:1019b0004ee64b461b7842e65fea00001f4e0000f1
:1019c000f0b5134e83b0835d04000025002b05d0d5
:1019d00028000f4a0133a35403b0f0bd6b46df1d4e
:1019e0003b000122542106f019f910223b78050032
:1019f000934313433b7001223b005421200006f027
:101a000051f90543c82005f05bfaa35de0e7c04645
:101a100054080000f0b5114e0400835d83b000202f
:101a2000002b04d00d4a013ba35403b0f0bd6b461c
:101a3000df1d3b0001225421200006f0eff81022a8
:101a40003b78050093433b700f3a3b005421200044
:101a500006f028f9a35d2843e4e7c04654080000d7
:101a6000f0b5c646042300b582b001ad0e002b7060
:101a700001222b004b21804606f014f96b46df1c37
:101a8000012304003b7001223b007621404606f012
:101a900009f92b00044303226221404606f0bef8f8
:101aa000002304433b7001223b007621404606f0b0
:101ab000f9f8f0216b782a781b029b18aa780903a1
:101ac00012040a409b182043336002b004bc9046c5
:101ad000f0bdc046f0b5c64600b582b005006b4605
:101ae000002946d0df1d012301223b7076213b00f7
:101af00006f0d8f86b469e1d0400330001227b21be
:101b0000280006f08bf8062233780443934304221e
:101b10009046424613433370012233007b21280054
:101b200006f0c0f8002304433b7001223b007621fd
:101b3000280006f0b7f83300044301224d212800a5
:101b400006f06cf80422337804439343424613436f
:101b50003370012233004d21280006f0a3f808213c
:101b600004432800fef7cafe204302b004bc90469e
:101b7000f0bd9e1d330001224d2106f04ff80422d6
:101b80003378040093433370033a33004d21280027
:101b900006f088f82043e8e710b582b06b46dc1dfc
:101ba000230001224d2106f039f820784007c00fac
:101bb00002b010bd0122024bc25400207047c04643
:101bc000690800000022024bc25400207047c04642
:101bd00069080000f0b5c646002200b586b00023b3
:101be00090466a460293039304939382484b050000
:101bf0000f1ec15460d001295bd1d61d33000122d4
:101c00004c2106f00bf82022337804009343402245
:101c100013433370012233004c21280006f042f8b0
:101c2000802304433370012233001621280006f07c
:101c300039f83300044301225421280005f0eeff57
:101c400001223378044313433370012233005421bb
:101c5000280006f027f83300044301225f21280002
:101c600005f0dcff03223378044393432c22134313
:101c70003370012233005f21280006f013f833008f
:101c80000122044360212800377006f00bf802a9f6
:101c900004432800fef7a0fe6b464246044302a917
:101ca00028005a72fef7d8ff204306b004bc9046c5
:101cb000f0bd01204042f8e74346d61d33700122b3
:101cc0003300162105f0eeff3300040001225f21ee
:101cd000280005f0a3ff03223378044393430c222a
:101ce00013433370012233005f21280005f0daff2f
:101cf00002a904432800fef76ffe01236a4604434d
:101d000002a928005372fef7a7ff2043cde7c04683
:101d10006a080000f0b5de46454657464e46e0b537
:101d200017008822040089b012010d00002109f07b
:101d300089f9230007cd07c307cd07c32a68e74801
:101d40001a6005f0bdf804ab98460123424676219f
:101d5000137020004346012205f0a4ff237e0600f5
:101d6000012b1ad0002b00d1e3e1022b00d1c5e1f9
:101d7000002342467621137020004346012205f0dd
:101d800091ff30430b2676420643300009b03cbc3d
:101d900090469946a246ab46f0bd03ab9946022356
:101da0004a467a21137020004b46012205f07aff43
:101db0000643002342467621137020004346012249
:101dc00005f070ff0643e0d14246c54b67623c33e5
:101dd00023cb23c21b8820001380fef7b9f902af82
:101de0003b00050001224f21200005f017ff0543ad
:101df000ab4609256d442b0001225021200005f03f
:101e00000dff5b4603439b461f233a784f211a4040
:101e10003a702a7820001340402213432b7001228d
:101e20003b0005f03fff5f462b0007430122502196
:101e3000200005f037ff6b46dd1d2b000743012214
:101e4000162120002e7005f02dff2b0007430122e4
:101e50006221200005f0e2fe70222b7807439343b5
:101e60002b706f3a2b006221200005f01bff074307
:101e7000bb460a276f443b0001225421200005f095
:101e8000cdfe5b46022203439b463b78924693433a
:101e90003b70013a3b005421200005f003ff5f46f0
:101ea000082107432000fef729fd012107432000f8
:101eb000fff790fe2b00074301221421200005f0bc
:101ec000adfe03222b78074313432b7001222b0016
:101ed0001421200005f0e6fe414607432000fef7ee
:101ee000bbfe4246012341460743200053709670d3
:101ef000fef736fe2b00074301226421200005f087
:101f00008dfe10222b78074393432b700f3a2b0042
:101f10006421200005f0c6fe2b0007430122512159
:101f2000200005f07bfe0c222b7890469343042280
:101f300013432b7007432b0001225121200005f091
:101f4000b1fe2b00074301225321200005f066fe5d
:101f500018222b7807439343082213432b70012246
:101f60002b005321200005f09dfe5e4b4a46e654af
:101f700004230743137076214b460122200005f00d
:101f800091fe4a46584b074313800d234a21937014
:101f900020004b46032205f085fe0743b9460b2778
:101fa0006f443b000122762120003e7005f07afe4e
:101fb0004b4603439946434601222b7057212b0081
:101fc000200005f06ffe4b46882203439846474b9e
:101fd0005200e25260239b465a46454b7621e2541a
:101fe000032326643b705f3a3b00200005f05afe55
:101ff00043460343984601222b002e21200005f082
:102000000dfe43465246034398462b782e219343b8
:102010002b70013a2b00200005f044fe4346034399
:10202000984601222b003221200005f0f7fd43469f
:102030005a46034398462b78322193432b705f3adc
:102040002b00200005f02efe434603439846012254
:102050002b003721200005f0e1fd43465a4603439b
:1020600098462b78372193432b705f3a2b00200042
:1020700005f018fe43460343984601222b003c21fd
:10208000200005f0cbfd43465a46034398462b7883
:102090003c2193432b705f3a2b00200005f002fe99
:1020a00045463b0005430122762120003e7005f0a5
:1020b000f9fd104b0122e118002352420a604b60e7
:1020c0008621090161180a604b600b4905438c4663
:1020d00064442e002260636057e6c046b80b0000df
:1020e00088a30000690800000d0d000074080000be
:1020f00072080000580800007808000003ab9946f9
:1021000001227c21200005f089fd4b460c221b7822
:10211000050013434a467c21137020004b460122e0
:1021200005f0c0fd28430643e368200098470643b6
:102130003fe603ab994601227c21200005f06efdad
:102140004b4603221b78050093434a467c211370bb
:1021500020004b46012205f0a5fd2843064328e652
:10216000f0b5de46454657464e46e0b591b002aa68
:102170000623944663441980090b9b460b03804653
:10218000029366d104af3900fef726fc08ae0400c6
:1021900031004046fef782fc0cad04432900404666
:1021a000fef7c6fbbb7804439a46b378524699467d
:1021b000ab7801934b46012a39d0012b41d0ab7843
:1021c000012b2cd05b4602226021404605f06afdbf
:1021d000bb780443534506d0534639004046bb7094
:1021e000fef73afd0443b3784b4506d04b46310029
:1021f0004046b370fef7ccfd0443ab78019a93429e
:1022000005d029004046aa70fef7aafc044320002e
:1022100011b03cbc90469946a246ab46f0bd0023a7
:1022200029004046ab70fef79bfc0443cae7029bc3
:1022300039004046bb70fef70ffdb3780443012b15
:10224000bdd1002331004046b370fef7a1fd044329
:10225000b5e70b246442dae770b582b06b46012221
:1022600006335421050005f0d9fc002830db6b460d
:1022700008269b7928001e40fdf732ff002812d067
:1022800080246404002e0bd06b46de1d3300012237
:102290004d21280005f0c2fc337824015b071ad4d5
:1022a000200002b070bd6b46dc1d230001224d21d1
:1022b000280005f0b3fc237804241c4063425c41f1
:1022c000064b64421c4080235b049c466444d9e76f
:1022d00001246442e4e7024ce2e7c0461111110018
:1022e0000080841e30b583b06b46dc1d23000122c4
:1022f0004d21050005f092fc23785b0702d50748c5
:1023000003b030bd2800fdf7ebfe431e9841044b9f
:1023100040421840034b9c466044f1e70080841e15
:10232000efeeeeff11111101004870478cb1000073
:020000040000fa
:10233000801a00201c00000000000000d41a0020b9
:10234000040000000000000034190020c00000005c
:1023500000000000ac1a00200c000000000000008b
:10236000c41a002008000000000000006a330020aa
:10237000010000000100000001000000000000203a
:10238000e00a0000000000009c340020280000004b
:1023900001000000010000002c0d0020cc0c0020ea
:1023a000cc0c0020803256c6216a417d93ae657503
:1023b0006ec7dabc01000000cc0c0020e00a00204f
:1023c0004c08000000000000d8330020640000002a
:1023d000010000006c1a00200a000000441a0020ce
:1023e0000a000000000000000020ecc400209d4412
:1023f00001000000f6281041448d944302000000c3
:10240000a2c58543f2d2fe4403000000f5a150c0ee
:10241000df53414004000000a435dd4324bf1f45c5
:1024200005000000000048c20000984206000000bd
:1024300000100ec500606745441a00203c000000f3
:10244000000000009c1a00201000000000000000a6
:10245000e81a002082180000010000000700460072
:10246000f01a0020543300203c3300203033002089
:102470001833002000330020e8320020dc32002036
:10248000c4320020b4320020a43200209c3200204c
:102490008c32002078320020643200205832002034
:1024a000443200202c320020143200200832002058
:1024b000f0310020d8310020c0310020b43100209c
:1024c0009c3100208c3100207c31002074310020b0
:1024d0006431002054310020443100203c31002080
:1024e0002c3100201831002004310020f830002069
:1024f000e4300020cc300020b4300020a830002090
:1025000090300020783000206030002054300020cf
:102510003c300020283000201430002008300020fb
:10252000f42f0020e02f0020cc2f0020c02f00200f
:10253000ac2f0020942f00207c2f0020702f002033
:10254000582f0020402f0020282f00201c2f002073
:10255000042f0020f42e0020e42e0020dc2e00208a
:10256000cc2e0020b82e0020a42e0020982e002073
:10257000842e0020702e00205c2e0020502e002083
:102580003c2e0020242e00200c2e0020002e0020a7
:10259000e82d0020d42d0020c02d0020b42d0020d7
:1025a000a02d00208c2d0020782d00206c2d0020e7
:1025b000582d0020482d0020382d0020302d0020df
:1025c000202d0020002d0020e02c0020d02c002009
:1025d000b02c0020942c0020782c0020682c0020a7
:1025e0004c2c0020382c0020242c0020182c0020fb
:1025f000042c0020f42b0020e42b0020dc2b0020f6
:10260000cc2b0020b82b0020a42b0020982b0020de
:10261000842b0020742b0020642b00205c2b0020d6
:102620004c2b0020382b0020242b0020182b0020be
:10263000042b0020f02a0020dc2a0020d02a0020d1
:10264000bc2a0020a82a0020942a0020882a0020e2
:10265000742a0020582a00203c2a00202c2a00201e
:10266000102a0020002a0020f0290020e82900205c
:10267000d8290020c0290020a82900209c2900205a
:1026800084290020702900205c2900205029002086
:102690003c29002028290020142900200829002096
:1026a000f4280020e4280020d4280020cc28002092
:1026b000bc280020ac2800209c2800209428002062
:1026c00084280020702800205c280020502800204a
:1026d0003c2800202828002014280020082800205a
:1026e000f4270020e0270020cc270020c02700206e
:1026f000ac2700209c2700208c2700208427002066
:1027000074270020602700204c270020402700204d
:102710002c2700201c2700200c2700200427002045
:10272000f4260020e4260020d4260020cc26002019
:10273000bc260020a42600208c2600208026002015
:102740006826002058260020482600204026002029
:10275000302600201c26002008260020fc25002012
:10276000e8250020cc250020b0250020a025002051
:1027700084250020642500204425002034250020e5
:1027800014250020f8240020dc240020cc24002084
:10279000b024002094240020782400206824002005
:1027a0004c24002038240020242400201824002059
:1027b00004240020ec230020d4230020c823002080
:1027c000b02300209c230020882300207c230020ad
:1027d00068230020582300204823002040230020a5
:1027e0003023002014230020f8220020e8220020bb
:1027f000cc220020b42200209c2200209022002025
:102800007822002064220020502200204422002050
:10281000302200201822002000220020f421002075
:10282000dc210020c8210020b4210020a8210020a4
:10283000942100207c2100206421002058210020c8
:1028400040210020302100202021002018210020dc
:1028500008210020f4200020e0200020d4200020c7
:10286000c0200020ac200020982000208c200020d8
:1028700078200020682000205820002050200020d0
:1028800040200020302000202020002018200020a0
:1028900008200020f81f0020e81f0020e01f002073
:1028a000d01f0020bc1f0020a81f00209c1f00205c
:1028b000881f0020781f0020681f0020601f002054
:1028c000501f002003000400030006000100000068
:1028d000050000004600af510000000002000000ab
:1028e00006000500000000000000000001000000dc
:1028f00003000400000000000000000002000600c9
:1029000002000400040005000500000003000000b0
:1029100022008d8000005e00000000000200000028
:102920000600050000000000080000000000000094
:102930000100000003000400000000000700000088
:102940000000000000000600010005000200030076
:1029500000000000b15f005d000000000600030001
:10296000000005000000000000000000010002005f
:102970000000040000000000000000000000030050
:10298000020006000200050000000000b8a42500b7
:102990000000000006000500040000000000000028
:1029a0000000000001000200030000000000000021
:1029b0000000000002000600060001000200020004
:1029c00000000000220054008e0000000200000001
:1029d00004000000060000000000000001000000ec
:1029e00003000000050000000000000002000600d7
:1029f00005000300030002000000010000000000c9
:102a000022003e660000b500000000000200000049
:102a100006000500000000000800000000000000a3
:102a20000100000003000400000000000700000097
:102a30000000000002000200060000000500010086
:102a40000200000003000000981d00600000e50087
:102a50000000000006000300000005000000000068
:102a60000800000000000000010002000000040057
:102a7000000000000700000000000000000001004e
:102a8000030002000600020000000000aa3c003023
:102a90000000000006000300000005000000000028
:102aa000000000000100020000000400000000001f
:102ab0000000000002000400060000000500020003
:102ac0000400060001000300000000009645005cc1
:102ad0000000a05f000000000600030000000500e9
:102ae000000000000a0009000000000000000000d3
:102af00001000200000004000000000007000800c0
:102b000000000000000000000400020006000300b6
:102b100000000100030005000000000044890000df
:102b2000aa3e0000000000000400030000000000b6
:102b30000800070000000000000000000100020083
:102b4000000000000500060000000000000000007a
:102b5000050001000300020003000400030004005c
:102b600006000100000000003e4200004d38000059
:102b700054000000040003000000000008000700eb
:102b8000000000000a000000000000000100020038
:102b90000000000005000600000000000900000021
:102ba000000000000000040006000400060006000b
:102bb0000100050000000000b179b60000690000c6
:102bc00000000000080005000400000000000700ed
:102bd00000000000000000000100020003000000ef
:102be00000000600000000000000000004000600d5
:102bf00006000600030006000400040002000200b4
:102c00000000000040b23c0000007c009400000086
:102c1000060005000400000000000000080000009d
:102c20000a00000000000000010002000300000094
:102c30000000000007000000090000000000000084
:102c40000500050003000600020002000200030068
:102c50000100050002000000030000003e10009d7e
:102c60000000979a0000e600000000000600030044
:102c700000000500000000000a000900000000003c
:102c80000c00000000000000010002000000040031
:102c90000000000007000800000000000b0000001a
:102ca0000000000001000300040006000100050010
:102cb000000000004f00c6570000000002000000a6
:102cc00006000500000000000000000001000000f8
:102cd00003000400000000000000000000000300ea
:102ce00004000300040001000300010000000000d4
:102cf000b155400000590000000000000800050028
:102d000004000000000007000000000000000000b8
:102d100001000200030000000000060000000000a7
:102d2000000000000600000006000100040004008e
:102d300003000500060000000300000054440000ea
:102d4000b1770000b30000000400030000000000a1
:102d500008000700000000000a000000000000005a
:102d60000100020000000000050006000000000055
:102d7000090000000000000002000500020005003c
:102d80000500060004000300000000009542005802
:102d900000006d00000000000600030000000500b8
:102da0000000000008000000000000000100020018
:102db0000000040000000000070000000000000008
:102dc00004000500040003000400000006000300e6
:102dd000030006000100000005000000795e3800d5
:102de00000630000ab540000000000000800050074
:102df0000400000000000700000000000c000b00b1
:102e000000000000000000000100020003000000bc
:102e1000000006000000000009000a000000000099
:102e20000000000005000000030002000500000093
:102e30000500060003000600010003000100000079
:102e40005db3ab000000807900005f00000000006f
:102e50000600050004000000000000000a00090050
:102e6000000000000c000000000000000100020053
:102e70000300000000000000070008000000000040
:102e80000b00000000000000040003000400060026
:102e90000400000006000300020006000100050017
:102ea00006000100000000007e46400000640000b3
:102eb000946300004e0000000800050004000000bc
:102ec00000000700000000000c000b0000000000e4
:102ed0000e000000000000000100020003000000de
:102ee000000006000000000009000a0000000000c9
:102ef0000d000000000000000200060006000600b1
:102f000001000000040002000200050000000100b2
:102f10000300000096541d00001c0000eb5300004d
:102f20000000000008000500040000000000070089
:102f3000000000000c000b0000000000000000007a
:102f40000100020003000000000006000000000075
:102f500009000a0000000000000000000000050059
:102f6000020002000300030004000500000000004e
:102f7000b140c30000b200000000000008000500de
:102f80000400000000000700000000000000000036
:102f90000100020003000000000006000000000025
:102fa000000000000200060001000300030004000e
:102fb0000000000022004f00560000000200000048
:102fc00004000000060000000000000001000000f6
:102fd00003000000050000000000000006000000e3
:102fe00006000100050002000200030005000000c9
:102ff00003000000544400003e9800005c00000004
:1030000004000300000000000800070000000000aa
:103010000a000000000000000100020000000000a3
:10302000050006000000000009000000000000008c
:103030000000010003000400060001000000000081
:10304000aa3c004400000000060003000000050048
:103050000000000000000000010002000000040069
:103060000000000000000000010003000600010055
:10307000060000000600000052005100b6000000eb
:103080000200000004000000060000000000000034
:103090000100000003000000050000000000000027
:1030a0000000000004000600050005000200010009
:1030b00000000000b45c410000430000000000007c
:1030c00008000500040000000000070000000000e8
:1030d00000000000010002000300000000000600e4
:1030e00000000000000000000000010003000000dc
:1030f0000500020000000000aa3c00600000000083
:1031000006000300000005000000000000000000b1
:1031100001000200000004000000000000000000a8
:103120000300060000000600010003000400000088
:1031300005000000a85446000070000000000000d8
:103140000800050004000000000007000000000067
:103150000000000001000200030000000000060063
:103160000000000000000000000004000000060055
:10317000030004000400010000000000b1406200f0
:1031800000790000000000000800050004000000b5
:103190000000070000000000000000000100020025
:1031a0000300000000000600000000000000000016
:1031b00000000000040006000400030002000500f7
:1031c00000000000aa1c3a0000ad00000000000052
:1031d00008000500040000000000070000000000d7
:1031e00000000000010002000300000000000600d3
:1031f00000000000000000000000010003000600c5
:103200000100040000000000b85200570000000058
:1032100006000300000005000000000000000000a0
:103220000100020000000400000000000000000097
:10323000000001000300050002000600000000007d
:10324000b157005e0000000006000300000005000a
:103250000000000000000000010002000000040067
:10326000000000000000000000000600030006004f
:10327000010001000300060000000000b1645800d6
:1032800000520000000000000800050004000000db
:103290000000070000000000000000000100020024
:1032a0000300000000000600000000000000000015
:1032b00006000100040003000400060006000000f0
:1032c000030000005400af430000b3000000000002
:1032d00002000000060005000000000008000000d9
:1032e00000000000010000000300040000000000d6
:1032f00007000000000000000400060002000400b7
:1033000003000600020003000200050000000000a8
:1033100081b6c600000094ab000000000600050066
:1033200004000000000000000a0009000000000086
:103330000000000001000200030000000000000087
:103340000700080000000000000000000600010067
:1033500001000300000005000000000054005200be
:1033600099000000020000000400000006000000b8
:103370000000000001000000030000000500000044
:103380000000000005000000020001000300020030
:10339000060000000600010000000600000000001a
:1033a0003e840070000060440000b4000000000093
:1033b0000600030000000500000000000a000900ec
:1033c000000000000c0000000000000001000200ee
:1033d00000000400000000000700080000000000da
:1033e0000b000000000000000300040005000200c4
:1033f00002000300050000000600000046003e98a1
:1034000000005d0000000000020000000600050052
:1034100000000000080000000000000001000000a3
:10342000030004000000000007000000000000008e
:103430000000050004000300020002000600040072
:1034400000000000b0425d00002600000000000007
:103450000800050004000000000007000000000054
:103460000000000001000200030000000000060050
:103470000000000000000000000004000100030044
:10348000040006000100050000000000b87a960064
:10349000005f0000000000000800050004000000bc
:1034a0000000070000000000000000000100020012
:1034b0000300000000000600000000000000000003
:1034c00000000100030005000200010000000000f0
:1034d000b15200400000000006000300000005009b
:1034e00000000000000000000100020000000400d5
:1034f00000000000000000000100030006000200c0
:1035000006000100000004000000000052005437d3
:103510000000ac00000000000200000006000500f2
:103520000000000008000000000000000100000092
:10353000030004000000000007000000000000007d
:10354000000001000300000006000200000000006f
:10355000b152005900000000060003000000050001
:103560000000000000000000010002000000040054
:103570000000000000000000000004000000060041
:10358000030003000400050000000000b1406200d9
:1035900000a7000000000000080005000400000073
:1035a0000000070000000000000000000100020011
:1035b0000300000000000600000000000000000002
:1035c00004000000030004000600030001000500e1
:1035d000000004000200030000000000b1384d00ac
:1035e000009e0000b1c300000000000008000500bc
:1035f0000400000000000700000000000c000b00a9
:1036000000000000000000000100020003000000b4
:10361000000006000000000009000a000000000091
:103620000000000005000500060003000200000085
:103630000500000004000200060003000000040072
:1036400001000000583e7f00009c000044880000fc
:10365000450000000800050004000000000007000d
:10366000000000000c000b00000000000e00000035
:10367000000000000100020003000000000006003e
:103680000000000009000a00000000000d0000001a
:10369000000000000300020006000400010000001a
:1036a00005000000af2200da000000000600030061
:1036b0000000050000000000000000000100020002
:1036c00000000400000000000000000000000400f2
:1036d00002000600030006000100050000000000d3
:1036e000aa44880000540000000000000800050003
:1036f00004000000000007000000000000000000bf
:1037000001000200030000000000060000000000ad
:103710000000000000000600060006000100020094
:103720000600050000000000b1571600002200004e
:103730000000000008000500040000000000070071
:103740000000000000000000010002000300000073
:103750000000060000000000000000000400060059
:103760000100000004000200060002000200000048
:1037700003000000c557001c0000d16300000000da
:103780000600030000000500000000000a00090018
:103790000000000000000000010002000000040022
:1037a000000000000700080000000000000000000a
:1037b00000000000040006000400040003000100f3
:1037c00000000000b8604000005900000000000048
:1037d00008000500040000000000070000000000d1
:1037e00000000000010002000300000000000600cd
:1037f00000000000000000000500040003000200bb
:10380000010003000600010000000000405d000010
:1038100057005700000000000400030000000000f3
:103820000600000008000000000000000100020087
:10383000000000000500000007000000000000007c
:103840000000060001000300060005000000000063
:10385000a95700af000000000600030000000500ab
:103860000000000000000000010002000000040051
:10387000000000000000000005000300020002003c
:10388000000005000100030000000400010000002a
:103890005aab950000005c005a00000006000500cd
:1038a0000400000000000000080000000a00000002
:1038b0000000000001000200030000000000000002
:1038c00007000000090000000000000004000400e0
:1038d00003000600030004000000050002000100d0
:1038e000000000007e405d000000b14000000000cc
:1038f0000600050004000000000000000a000900a6
:1039000000000000000000000100020003000000b1
:103910000000000007000800000000000000000098
:103920000500050003000200000000000500010082
:10393000000000003e110000b06000000000000028
:103940000400030000000000080007000000000061
:103950000000000001000200000000000500060059
:103960000000000000000000040002000600030048
:10397000040002000200030000000000c4390055ea
:1039800000006200000000000600030000000500c7
:10399000000000000800000000000000010002001c
:1039a000000004000000000007000000000000000c
:1039b00004000300040006000400050006000100e6
:1039c0000000020000000000b1af400000006200f3
:1039d000ab0000000600050004000000000000002d
:1039e000080000000a0000000000000001000200c2
:1039f00003000000000000000700000009000000b4
:103a000000000000020005000200020006000500a0
:103a1000010003000600010000000000953e0022a6
:103a200000004f004e0000000600030000000500eb
:103a300000000000080000000a0000000000000074
:103a40000100020000000400000000000700000068
:103a50000900000000000000000000000200060055
:103a6000040006000100020000000000b1603900ff
:103a700000600000000000000800050004000000d5
:103a8000000007000000000000000000010002002c
:103a9000030000000000060000000000000000001d
:103aa0000200060000000600010003000000000004
:103ab0002200b15f000000000200000006000500c7
:103ac00000000000000000000100000003000400ee
:103ad00000000000000000000200060000000600d8
:103ae00001000200000000002200b15300000000ad
:103af00002000000060005000000000000000000b9
:103b000001000000030004000000000000000000ad
:103b1000030000000400020006000300020006008b
:103b20000000020000000000461b00840000250089
:103b3000a9000000060003000000050000000000ce
:103b4000080000000a000000000000000100020060
:103b50000000040000000000070000000900000051
:103b60000000000004000400000006000300040040
:103b7000030005000200000005000000794063001a
:103b80000000a43e00000000060005000400000044
:103b9000000000000a000900000000000000000012
:103ba0000100020003000000000000000700080000
:103bb00000000000000000000000000004000600fb
:103bc000050004000300020000000000b8607c0053
:103bd000005f000000000000080005000400000075
:103be00000000700000000000000000001000200cb
:103bf00003000000000006000000000000000000bc
:103c000000000100030000000600020000000000a8
:103c1000b15200380000000006000300000005005b
:103c2000000000000000000001000200000004008d
:103c30000000000000000000040001000300030079
:103c4000040006000300060001000000050000005b
:103c50007e5200460000ab51000000000600030049
:103c600000000500000000000a000900000000003c
:103c7000000000000100020000000400000000003d
:103c80000700080000000000000000000300010021
:103c90000300040003000000030000000100030013
:103ca0000500000046550000afba000049000000c2
:103cb00004000300000000000800070000000000ee
:103cc0000a000000000000000100020000000000e7
:103cd00005000600000000000900000000000000d0
:103ce000341700200002000000000000d81a002055
:103cf0000800000000000000f4190020500000003f
:103d0000000000006c3300206c0000000100000087
:103d10007833002074330020783300200000000046
:103d20002500000034130020000400000000000003
:103d30000000000000000000000000000000000083
:103d4000000000000000000000000000cdb10000f5
:103d50000000000000000000000000000000000063
:103d6000b59e000000000000000000000000000000
:103d70000000000000000000000000002c130020e4
:103d80000804000000000000c434002020000000ef
:103d9000010000000100000003000000000000001e
:103da0000000000000000000000000000000000013
:103db000cc1a0020cc1a00200800000000000000ef
:103dc000e01a002004000000000000003c34002045
:103dd000600000000100000001000000030000007e
:103de00000000000000000000000000000000000d3
:103df000000000009da00000000000000000000086
:103e00000000000079b10000eb9d00000000000000
:103e100000000000000000000000000000000000a2
:103e20000000000000000000000000000000000092
:103e30000000000000000000e43400200400000046
:103e40000100000001000000e41a0020040000004e
:103e500000000000b81a00200c0000000000000064
:103e60000000000000000000666666666666666622
:020000040000fa
:103e7000002370b50024074d2b606b6821019c4620
:103e8000ab68614418198022103402f00ffc602cda
:103e9000f3d170bd9c340020642343430248c01812
:103ea000436b18787047c046e00a00206423434300
:103eb0000248c018436b58887047c046e00a00208b
:103ec000642343430148c018406b7047e00a002058
:103ed000642343430248c018436b5b680b60704720
:103ee000e00a00206423434330b50e48c018436bfa
:103ef0005c6858881b78012b0ad0002807d0002363
:103f00000022e5580132cd5004339042f9dc30bd37
:103f100000230028fbd0e25cca5401339842fadc4b
:103f2000f5e7c046e00a00206423434330b50e485d
:103f3000c018436b5c6858881b78012b0ad0002896
:103f400007d000230022cd580132e55004339042bf
:103f5000f9dc30bd00230028fbd0ca5ce2540133f9
:103f60009842fadcf5e7c046e00a0020034b10b5a2
:103f70001b68002b01d0fff77bff10bd9c34002095
:103f8000f8b5304b7d221900012474311e001967e9
:103f900080215a669a66113a9c546c36653a5a509a
:103fa0007280294a2948111dd967002151621900e0
:103fb0007c31916211003431116325492025d16291
:103fc000062151658168545511650021c768dc8060
:103fd00001341c814e3497651955070014001037c1
:103fe0006034d1651f601971196159619961197740
:103ff0001c62184c5e63dc63174c1c64174c5c64d9
:10400000174c9c64174cdc64140058345c62140038
:1040100050349c621c006434dc62140020329a63c9
:10402000425d2c341c63002a01d0d96041550368dd
:10403000002b01d0fff71cff00210b4803f054ffb9
:10404000f8bdc046e00a0020600b00209c34002030
:10405000070000010969000079690000cd690000ce
:10406000296b0000656b0000e81a0020f0b564279a
:104070003b00c64643431d4d00b5eb181b790600b7
:104080005f439846eb199b6a5a68002a0bdd0024af
:1040900018682201801802f077fbeb199b6a013443
:1040a0005a68a242f4dc434664275f43eb195b6a1b
:1040b0005a68002a0bdd002418682201801802f0db
:1040c00063fbeb195b6a01345a68a242f4dc642397
:1040d0005e430023ad192a6b2b616b61ab612b77bb
:1040e0000120937004bc9046f0bdc046e00a002059
:1040f0000020704770b5051e074c07d06420684348
:104100002418a36a186802f055fb70bde16a20000c
:1041100006f054fef2e7c046e00a002010b5fff7b3
:10412000e9ff012010bdc046642343430348c01883
:104130000023026b037793707047c046e00a0020ab
:10414000642343430248c018036b98787047c04605
:10415000e00a00206423434370b50e4deb181c6b3e
:104160001a7f21884a43002908d0930062680024fe
:10417000d2180023013310c29942fbdc6423584358
:104180002d18ab6a002218680021012306f090f96f
:1041900070bdc046e00a0020642242430a4930b59f
:1041a0008a18137f146b0133dbb21377e278551e44
:1041b000ab4201d10125a570934204d36423584337
:1041c000002309180b7730bde00a00206423434325
:1041d000034810b5c018c36c984780b210bdc046e4
:1041e000e00a002064234343034810b5c018836ce1
:1041f000984780b210bdc046e00a0020002300b5f9
:1042000083b0019364334343034801a9c018436c4e
:10421000984703b000bdc046e00a00206423534322
:1042200010b501000248c018c36b984710bdc046c6
:10423000e00a002070b5010064244c4306480419cc
:10424000236c98470500012801d0280070bda36a9f
:10425000186802f0abfaf8e7e00a002030b5134c1a
:1042600083b02379984201d003b030bd0028fbd041
:104270000020fff7dfff05000128f5d10020fff740
:1042800069ff002301a901932000636c9847237ff5
:10429000216b0133dbb22377ca78501e834200d1f1
:1042a0008d709342e0d300232377dde7e00a0020fe
:1042b00064224243044b10b59b181b79834202d100
:1042c0001800fff7cbff10bde00a002010b56424f2
:1042d00060430b4c24182000a36c984780b201283f
:1042e0000bd1e36c20009847064b0004000cc31868
:1042f0005a1e93415b42184010bd01204042fbe72b
:10430000e00a00200100fffff0b564245443284e6a
:1043100083b034190100e36b200015009847002892
:1043200037d02800fff786ff012832d10027280068
:10433000fff710ff019701a92000636c984701283f
:104340002dd12000a36c984780b2012824d1e36cc2
:1043500020009847174b0004000cc3185a1e9341c5
:104360005b42184064226a43b218137f116b013319
:10437000dbb21377ca78541ea34201d101248c709a
:10438000934204d364235d4300237619337703b04b
:10439000f0bd01204042fae701204042e2e7236bf2
:1043a000277728009f70fff7a5fe02204042eee726
:1043b000e00a00200100ffff70b5642454433b4e27
:1043c00082b034190100e36b2000150098470028e3
:1043d00066d02800fff72eff012861d12800fff7e3
:1043e000b9fe002301a901932000636c98470128be
:1043f00033d1236b9b78002b2fd02000a36c9847e0
:1044000080b201284fd1e36c20009847284b040468
:10441000240ce3185a1e93415b421c4064236b43f7
:10442000f3181b799d4202d12800fff717ff642281
:104430006a43b218137f116b0133dbb21377ca786a
:10444000501e834201d101208870934225d36423fa
:104450005d430023761933771fe023799d4202d113
:104460002800fff7fbfe64226a43b218137f116b2a
:104470000133dbb21377ca78501e834201d1012089
:104480008870934204d364236b43f6180023337778
:1044900028000224fff72efe6442200002b070bd07
:1044a00001246442f9e701246442b7e7e00a0020ee
:1044b0000100ffff70b564245443424e82b03419aa
:1044c0000100e36b200015009847002838d0280031
:1044d000fff7b0fe012833d12800fff73bfe002391
:1044e00001a901932000636c984701282ed1236b0a
:1044f0009a78002a4bd02000a36c984780b20128fc
:1045000021d1e36c200098472f4b0404240ce318be
:104510005a1e93415b421c4064236b43f3181b7982
:104520009d4209d064235d43002375192a6b2b77c4
:104530009370200002b070bd2800fff78ffef1e7f6
:1045400001246442f5e701246442e5e723799d42b2
:1045500002d12800fff782fe64226a43b218137f5b
:10456000116b0133dbb21377ca78501e834201d13d
:1045700001208870934204d364236b43f618002310
:10458000337702242800fff7b5fd6442d1e7227f8c
:104590000132d2b22277d9784c1ea24200d1987053
:1045a0008a4204d3642300226b43f3181a776423ee
:1045b0006b43f61833799d42e3d12800fff74efe96
:1045c000dfe7c046e00a00200100fffff8b5de4645
:1045d00057464e4645469246e0b59b46002a20ddaa
:1045e0008bb298464b009946070000255b46642431
:1045f0005c430f4b40469c466444a26a2b011668fc
:104600000135f61802f03cf8434682b2390030001a
:1046100002f07ef800234f4423616361a361aa4541
:10462000e4d13cbc90469946a246ab46f8bdc04694
:10463000e00a002070b582b00500fff7fbfd0128fd
:1046400036d164242800fff785fd00236c431b4e00
:104650000193341901a92000636c9847012827d1e0
:104660002000a36c984780b2012824d1e36c20007d
:104670009847134b0004000cc3185a1e93415b4229
:10468000184064226a43b218137f116b0133dbb206
:104690001377ca78541ea34201d101248c7093422f
:1046a00004d364235d4300237619337702b070bdd1
:1046b00001204042fae701204042e2e7e00a002000
:1046c0000100fffff0b583b00500fff7b3fd070061
:1046d000012836d164242800fff73cfd00236c43f9
:1046e0002c4e0193341901a92000636c98470128ce
:1046f0002ad12000a36c984780b2012844d1e36cf2
:1047000020009847244b0004000cc3185a1e934104
:104710005b42184064226a43b218137f116b013365
:10472000dbb21377ca78541ea34201d101248c70e6
:10473000934204d364235d4300237619337703b097
:10474000f0bd01204042fae7237f216b0133dbb249
:104750002377ca78501e834200d18f70934204d3ce
:10476000642300226b43f3181a772800fff7c2fc7a
:1047700064236b43f61833799d4208d12800fff774
:104780006dfd02204042dae701204042c2e70220ec
:104790004042d4e7e00a00200100fffff0b583b0fb
:1047a0000500fff747fd012839d164242800fff7f1
:1047b000d1fc00236c432c4e0193341901a9200035
:1047c000636c984701282ad1276b237ffa78511e02
:1047d0008b4227d12000a36c984780b201283dd19d
:1047e000e36c20009847214b0404240ce3185a1e64
:1047f00093415b421c4064236b43f3181b799d4239
:1048000009d064235d43002375192a6b2b779370bd
:10481000200003b0f0bd2800fff720fdf1e70124e0
:104820006442f5e70133dbb22377994200d1b870d7
:104830009a4204d8642300226b43f3181a772800a5
:10484000fff758fc64236b43f61833799d4208d177
:1048500002242800fff702fd6442d9e701246442e4
:10486000c9e702246442d3e7e00a00200100ffff09
:1048700000207047002070470020704700207047dc
:10488000002070470020704700207047002804dc9b
:1048900064235843024bc05870470020fce7c046d1
:1048a000e00a0020642343430348c018036b1a88be
:1048b000d87850437047c046e00a00206423434341
:1048c00030b50848c018036b1a88d87850430028c0
:1048d00007d05c6800238200cd58e5500433934232
:1048e000fad130bde00a0020642343430248c018d7
:1048f000036b58687047c046e00a002064234343b6
:104900000248c018036bd8787047c046e00a002000
:104910006423434330b50848c018036b1a88d8781d
:104920005043002807d05c6800238200e558cd5032
:1049300004339342fad130bde00a0020642343439c
:10494000074ac000d3181218906e1a69196b944662
:10495000c978db8801394843604458437047c046f2
:10496000e00a0020642343430148c01800697047ef
:10497000e00a0020642343430248c018836a586851
:104980007047c046e00a0020f0b5de4657464e4666
:104990004546e0b585b00393214b029298466423c7
:1049a0000022434343449b6a924601925a688146df
:1049b0008b46002a2cdd5a46002a23dd5246170179
:1049c000019a02995500039a0c0094460a005a4431
:1049d0006544160004e064234a46534343449b6afb
:1049e00018682100c01901f0c9fe01342880023581
:1049f000b442f0d1019b4a465b4401936423534384
:104a000043449b6a012294465a68e2445245d2dcf0
:104a100005b03cbc90469946a246ab46f0bdc046a8
:104a2000e00a002064234343034810b5c018c36c58
:104a300098470004000c10bde00a002064234343a3
:104a40000148c018806b7047e00a0020642343438c
:104a50000148c01840697047e00a002064234343be
:104a6000064ac000d318196b1218c978906e013924
:104a700048435a69121ad88850437047e00a002008
:104a8000642343430248c018503000787047c04642
:104a9000e00a0020642343430a4830b5c0180300ed
:104aa00050331b78002b0cd0436b5c88002c08d053
:104ab00000230022406dc5580132cd500433a2427c
:104ac000f9db30bde00a0020642343430a4830b5d7
:104ad000c018030050331b78002b0cd0436b5c884c
:104ae000002c08d000230022806dc5580132cd5023
:104af0000433a242f9db30bde00a002064234343c3
:104b00000548c018030050331b78002b01d0c06d3e
:104b100070470248fce7c046e00a0020000080bf62
:104b2000642343430548c018030050331b78002b0f
:104b300001d0006e70470020fce7c046e00a00206c
:020000040000fa
:104b4000f0b59bb013930b6815900a938b680d9189
:104b50000b930b694d681893cb6802931368089305
:104b600053680898069300220023069905f011fe69
:104b700000280dd10a9b5b073bd408200a9b034009
:104b800009930b9b0393099b002b0fd0202306e076
:104b9000802212069446069b634406932d23029ab4
:104ba00013700b9b013b039301230993069b089908
:104bb0005b005b08924a00291dd193421bd10299e8
:104bc000139b8c46099a413b624410008d49192b76
:104bd00000d98d4906f0cafa029806f0f1f90a9b4d
:104be0000200009302990b9b159805f015f81bb075
:104bf000f0bd2b23d3e7934203d80ed1089b002ba3
:104c00000bd00299139b8c46099a413b62441000d9
:104c10007e49192bded97e49dce700220023089863
:104c2000069905f0abff00267a4f002400283ed1fc
:104c3000040002e00134049e059f0022764b300000
:104c4000390003f073f9089a069b0490059105f06a
:104c500081fd0028eed00023049320e06f4b9c429e
:104c600014da049b002b11d100226d4b0898069991
:104c700003f05cf96a4b089006913000390000227d
:104c800003f054f9012306000f00049330003900ab
:104c90000022614b04f000fa06000f00013c3200d4
:104ca0003b000898069905f074fd0028d6d11398aa
:104cb00006f04efac3b20c93002d00da94e104938f
:104cc000672b00d0b2e0002d00d189e1231d02db6b
:104cd000ac4200daa6e06523b6e0002200230e9283
:104ce0000f9303e106960797049b2600652b00d0df
:104cf0001ae1002618e1129b002b0bd1002e09dad5
:104d0000029a14992e335354039b0137013b0393aa
:104d100001231293ea193b009446302102e0029ae3
:104d2000d15401339c45fad1039aeb19551b029ad1
:104d300030305f1cd0546b1e0393002521e00d9b87
:104d400014971b691093053bbb4200d8f5e0069a07
:104d5000079b08980e9904f09ff904f013fb10903c
:104d6000119105f059fe092800dd092010230a9a47
:104d700013400343bfd10c9b672bbcd1002ec9da73
:104d800001358020000684460e99089a61440b0084
:104d90001098119900920193069a079b06f0d0f99a
:104da00080231b06cb1808900e93069807990022c3
:104db000194b04f071f9013e06900791b9e00a9b86
:104dc000db0600d4bde02e23029ad3550137b8e0ac
:104dd00020000a2104f0d4fb029b3031013d5955db
:104de00020000a2104f082fb039b0400013b039393
:104df000b7e0029b03991a5c5b181a540138e0e093
:104e00000000f07f20b1000024b1000028b10000b4
:104e10002cb100000000f03f00002440d4feffff52
:104e200000005043002c0eda66230493049b0135e6
:104e3000662b0ad1002c02da002600246d4f0c9b51
:104e4000672b00d02d1966230493089b0e960f97ad
:104e50001293069b1093002314930e9a0f9b1298a3
:104e6000109904f019f904f08dfa1690179105f0d5
:104e7000d3fd19908020000684461099129a61444f
:104e80000b0016981799009201930e9a0f9b06f04b
:104e900057f980231b06cb18129010930e980f9988
:104ea000554b002204f0f8f8149b0e900f9101333b
:104eb00014939d42d1d10022504b03f037f80e904d
:104ec0000f9102000b001298109905f062fc002867
:104ed00000d002e70e9a0f9b1298109905f04efe33
:104ee000002803d0199bdb0700d4f6e60e9a0f9b2f
:104ef0000898069902f076fd002208900e913e4b2c
:104f00003000390003f012f8089a0e9b06900791c2
:104f100005f05cfb002800d1e4e6049b0134662b1d
:104f200000d0e1e626000135731b0025099f16938a
:104f30001295169b9e4200d001e7129b002b00d1d8
:104f40003de70026029bdb1906931e70049b652b30
:104f50002ad1189b5d1e029b5e55b44201da644261
:104f60000136002c00d033e7189beb1a0333002bdb
:104f700000dd2de76a1e2d23002e00d1023b029991
:104f8000023d8b54139b413b192b01d845230493bd
:104f9000029b5919049b0b70039b023b0393af4286
:104fa00002da069806f0e2f803230a9a1340022b6d
:104fb00000d011e6039b002b00dc0de6029805f003
:104fc000ffff099b834200dc13e7029a30219446dd
:104fd00063441800039a06f035f800230b93fbe5b1
:104fe000012573e6062571e60c9b672bfad0049326
:104ff00006251be70000f03f00002440000014409d
:020000040000fa
:10500000f0b557464e46de4645460c00e0b51f005b
:1050100003008db0029003911600009301940028c4
:1050200000d13fe134003d00a4197d4121002a0058
:10503000c64bb146ba4604910592ab4200d32ee16d
:10504000009c019d20002900001969418346884683
:1050500099422ed9be4b994230d9019bbd4a5b0083
:105060005b0d013b934200d9e2e07b005b0d013b0d
:10507000934200d9dce03000390005f0cdfc8046d9
:1050800005f036ff814500d19be00298039900228c
:10509000002305f07efb002800d180e00024ae4d07
:1050a000200029000db03cbc90469946a246ab4674
:1050b000f0bd002f02da2222a84b1a60019b002bc0
:1050c000cbdaa34b059a9342c7d3a54a7b009446fb
:1050d0005b0d6344332b00d9eae03422d21a9446a4
:1050e000203a099200d555e100210022069107924d
:1050f0000122099952428a40079201226146524296
:105100008a400692069c079d2000290080220019f3
:105110006941340052033a438a4309998443250084
:10512000002900da2ae11000c8400a906046110008
:10513000c14020200b91190040420c1800d5fde021
:105140002a00a24011002a009a401000001849418c
:105150000a9b0b9a03430a93069b079c1d0023009e
:105160003b400a43190080233540d2022800d20a6e
:105170005b039a4205d800d0aee00a9b002b00d119
:10518000aae0099c002c00da15e10125a5402b00be
:1051900001246546ac402200801859419ce0009be8
:1051a000019c18006300590802f02efb02000b005e
:1051b0003000390002f0bafe02f030f804000d00b1
:1051c0006ee78a4500d060e780231b06984500d132
:1051d0005be74346002b00daace00027002b5ed0f3
:1051e0003b0000244746012698465e4d3e4207d0cc
:1051f000029a039b2000290002f098fe04000d0093
:105200007f080cd14746002f00d149e722002b0030
:105210000020544903f040ff04000d0040e70298cd
:10522000039902000b0002f081fe02900391dde77a
:105230004d4b98452bd827d00499059a4a4b934259
:105240006fd36bd0414b984555d83000390005f0ed
:10525000e3fb804605f04cfe814500d015e78a450a
:1052600000d012e75346002b00dae7e000220024ca
:1052700000254346db0700d412e7019b0024db0f27
:10528000db0753401d000be75b46002bd4d0029c8c
:10529000039d05e7354b019a9a4200d099e000241e
:1052a000304dfde62f4b019a9a4200d0bae6eee768
:1052b00080223000d200390093420dd9049805991c
:1052c00000222b4b121a8b41da17264b00201a4072
:1052d000fb0fdb071a43110002000b0030003900fe
:1052e00005f04cfc002800d0b7e621221b4b00241f
:1052f0001a60194dd4e6009b002b73d04b46002b4f
:1053000060d0019b1b4a5b005b08934200d892e08f
:10531000009b002b08d00024174dc1e6049b002bf6
:1053200090d034003d00bbe6104b019a9a42b6d0b3
:105330000024f1e75b429846012751e720212c0029
:105340009a40c91acc4011002143fce6ffff1f0020
:10535000ffffdffffd0700000000f87fdc1a0020e0
:1053600001fcffff0000f03f0000e0ff0000f0bf85
:105370000000c07fffffef3f0000f07f604620216c
:10538000091a10008840010020006446e0400843ec
:105390000a90cbe662462021891a0122524210006f
:1053a000c840010060468240002400250a4306945c
:1053b00007950792a1e62023624601249b1adc4050
:1053c0002300e5e6234b9a459bd1009b002b00d19f
:1053d00060e7019b204a5b005b08002493429bd955
:1053e00000255de61d4b019a9a421ed0194b9a4248
:1053f00084d15346002b25db0023164c174d009318
:10540000019400243000390005f006fb060005f089
:105410006ffd814500d043e68a4500d040e6f307a2
:1054200000d43de6009c019d3ae653460024002b43
:10543000d6db0a4d34e60024002531e6074a002475
:10544000064d16e7802400232406009301940025ce
:105450000024d7e70000f0ffffffef3f0000f07fe0
:020000040000fa
:10546000f0b5ce46474680b5060083b008000c0074
:10547000fef71cfd2d4902228046300005f0d8fdc4
:105480002000fef709fd01a901282cd02000fef71d
:105490001ffd43465f1e002f44dd254b00240125e0
:1054a0009946019aa300985805f06ef802000b0087
:1054b0007019494605f090fd01342d18bc42f0db0f
:1054c0001c4b019a43449b00985805f05df802007c
:1054d0000b007019184905f07ffd401903b00cbc92
:1054e00090469946f0bd2000fef7f2fc43465f1e51
:1054f000002f19dd114b002401259946019b7019dd
:105500001a5d494605f068fd01342d18bc42f5dbf3
:10551000019b70194344013b1a78094905f05cfd71
:105520004019dbe70125cbe70125f1e724760000f0
:1055300030760000ffffff3f347600002876000041
:105540002c760000f0b5c64600b50e00fff776fadf
:10555000070002221a49300005f06afdba68556852
:10556000002d26dd0024012d15d0164b012598466f
:105570001368a200d05805f007f802000b0070195c
:10558000414605f029fdba68013453682d18013be6
:10559000a342eddca4001368185904f0f5ff0200e3
:1055a0000b007019084905f017fd401904bc90461e
:1055b000f0bd701c0222054905f03afd0220f5e716
:1055c0002476000030760000347600003876000043
:1055d000f0b5d64646464f460d00c0b5994608abd5
:1055e0001b7806003849924602002800984605f0cc
:1055f000f3fc04003000fff721fa0378012b4bd0b5
:105600002f19022b53d05346002b10d14b46002ba1
:105610001fd14346002b2ed1380002222b4905f022
:1056200007fd601c1cbc90469946a246f0bd3000a8
:10563000fff714fa82463000fff780f95246030064
:105640002349380005f0c8fc4b4624182f19002bbd
:10565000dfd03000fef72afc1e490200380005f0ba
:10566000bbfc241828193100fff7fafe4346241822
:105670002f19002bd0d03000fff7e0f983681649ce
:105680005a68380005f0a8fc241829193000fff7e3
:1056900059ff24182f19bfe7406805f099f80f4902
:1056a0000200281905f098fc24182f19abe7406870
:1056b00004f06aff02000b003800094905f08cfc79
:1056c00024182f199fe7c0463c760000f0760000b2
:1056d00078760000a0760000cc76000050760000be
:1056e0006876000010b50a2005f0c0fc10bdc04669
:1056f00010b5034805f0aefb0a2005f0b7fc10bd5d
:10570000f4760000f8b5de4657464e464546e0b50d
:10571000040017000e00fff7b3f92200002844d060
:105720002449300005f058fc05002000fef7befbc0
:10573000390082462000fff7c7f92000fff7f0f993
:10574000142283461c49701905f072fc01235b4248
:10575000534413359846002b0cdd184b0024994612
:10576000a3007019fa58494605f036fc01342d188b
:105770004445f5db124b701953449b00da5911492b
:1057800005f02afc451970195a460f4905f024fc0a
:105790002d18701903220d4905f04afca81c3cbcc9
:1057a00090469946a246ab46f8bd0949300005f03f
:1057b00013fcf4e7487700006c77000028760000bf
:1057c000ffffff3f8077000088770000a077000090
:1057d0001c770000f8b5de4657464e464546e0b514
:1057e000040017000e00fff74bf92200002850d0ec
:1057f0002a49300005f0f0fb05002000fef756fbbb
:10580000390082462000fff745f92000fff776f9be
:10581000132283462249701905f00afc01235b42da
:10582000534412359846002b10dd1e4b0024994638
:10583000a300f85804f0a8fe02000b0070194946b6
:1058400005f0cafb01342d184445f1db164b5344d7
:105850009b00d85904f098fe02000b007019134900
:1058600005f0bafb4519584604f08efe02000b0005
:1058700070190f4905f0b0fb2d18701903220d495e
:1058800005f0d6fba81c3cbc90469946a246ab4608
:10589000f8bd0949300005f09ffbf4e7a47700004c
:1058a000c8770000dc770000ffffff3fe4770000cf
:0c58b000ec770000a07700001c770000df
:020000040000fa
:1058bc007047c0460b4b1a6801321a605a68002aae
:1058cc0003d09a6859688a4202d900229a607047bc
:1058dc00596801329a608a42f9d18021024a090141
:1058ec00d161f2e70000002000440041f0b5144cf7
:1058fc00144d83b06359002b03d1134e337b002b13
:10590c0001d003b0f0bd3700103701a9380001f009
:10591c004dfe019b002b02d101333373f1e70100e3
:10592c00200001f055fb60510028ead1074b1b7891
:10593c00002be6d00121380001f05cfee1e7c04607
:10594c00c00100209c080000000000206a330020e9
:10595c0030b50c4c83b0283401a9200001f026fe90
:10596c00050000f079fe002802d0019b002b01d12c
:10597c0003b030bd044b01211b8d20002b7001f0b6
:10598c0039fef5e700000020001c004210b50c00a9
:10599c0000f0dcfd431e984140420440200010bd45
:1059ac0010b5044b0a0028330100180001f056fd15
:1059bc0010bdc04600000020014b00211868704744
:1059cc0000000020064b10b51c6802f013fe6301aa
:1059dc001b1b9b001b19db001818002110bdc046b7
:1059ec0000000020f8b50700fff7e6ff00260025b1
:1059fc000400fff7e1ff001ba9418e4201d1874251
:105a0c00f7d8f8bdf8b50700fff7dcff0026002536
:105a1c000400fff7d7ff001ba9418e4201d187423a
:105a2c00f7d8f8bdf0b5de4657464e464546e0b5cc
:105a3c00002083b004f05afb0021844802f00afed7
:105a4c0002f0b0fd0a2005f00bfb814c0c2320006a
:105a5c00202210307f4901f0e1fc002800d0b6e094
:105a6c0020000123283080227b4901f0d7fc00283c
:105a7c0000d0ace00423794a794e917d30000b4381
:105a8c00937501f01bfa002800d0d2e0300001f031
:105a9c0069fa051e00d0d2e07249734805f0d4f9ba
