:020000040000fa
:10000000f07f0020ad0a0100a9140100ab1401002b
:1000100000000000000000000000000000000000e0
:10002000000000000000000000000000bbe1000034
:100030000000000000000000bbe10000bbe1000088
:10004000bbe10000bbe10000bbe10000bbe1000040
:100050006deb0000bbe1000025af0000bbe100003c
:10006000bbe10000bbe10000bbe1000051aa0000c1
:10007000bbe10000bbe100007d7a0000bbe10000b5
:10008000bbe10000bbe10000e1e60000bbe10000d5
:10009000bbe100000000000000000000bbe1000028
:1000a000bbe10000bbe10000bbe10000bbe10000e0
:020000040000fa
:1000b000f8b5c046f8bc08bc9e4670478d0a0100e2
:1000c000f8b5c046f8bc08bc9e467047650a0100fa
:020000040000fa
:1000d0009ee8000001000000f8f5000001000000ab
:020000040000fa
:1000e000f0b59fb0040015002c2836d01b2845d051
:1000f000062853d00e283fd032285fd03d2800d1ab
:100100006ce02f2800d179e0342800d18be0112851
:1001100000d1ade0132800d1c2e0042800d1d1e025
:10012000652800d1e0e0092800d1efe02a2800d1bd
:10013000fee0272800d10de1202800d11ce11d2878
:1001400000d136e110f076fb002815d010f060fbee
:100150002200b8490cf08cfa0ee00023042203a917
:10016000280006f0dbfc002806d1b34b1b68002bef
:1001700002d003a92c3098471fb0f0bd00230822fd
:1001800003a9280006f0cafc0028f5d1aa4b1b6879
:10019000002bf1d003a91b309847ede70123302253
:1001a00003a9280006f0bafc0028e5d1a24b1b6881
:1001b000002be1d003a906309847dde70023182281
:1001c00003a9280006f0aafc0028d5d19a4b1b6889
:1001d000002bd1d003a932309847cde7012300226c
:1001e0000021280006f09afc0028c5d1924b1b681c
:1001f000002bc1d000213d309847bde7642200218b
:1002000003a811f0bbf80023642203a9280006f01c
:1002100085fc0028b0d1884b1b68002bacd003a90b
:100220002f309847a8e70023042203a9280006f0ee
:1002300075fc0028a0d110f0fdfa012807d87e4bec
:100240001b68002b98d000213420984794e710f0c9
:10025000dffa03990b0ccb3423400a0e25000d4026
:100260000195090a2140009174490cf001fae6e772
:10027000714b00221a710023043203a9280006f0f2
:100280004dfc002800d077e703ab1a786a4b5a710f
:100290001b68002b00d16fe703a9113098476be76b
:1002a00000232c2203a9280006f038fc002800d0e7
:1002b00062e7614b1b68002b00d15de703a9133097
:1002c000984759e7002304221ca9280006f026fcc1
:1002d000002800d050e7584b1b68002b00d14be79b
:1002e0001ca90430984747e7002304221ca92800d2
:1002f00006f014fc002800d03ee74f4b1b68002b93
:1003000000d139e71ca96530984735e701236422fd
:1003100003a9280006f002fc002800d02ce7464b79
:100320001b68002b00d127e703a90930984723e772
:100330000123042203a9280006f0f0fb002800d0c6
:100340001ae73d4b1b68002b00d115e703a92a30a3
:10035000984711e70023042203a9280006f0defbda
:10036000002800d008e7344b1b68002b00d103e7be
:1003700003a927309847ffe60023082203a9280095
:1003800006f0ccfb002800d0f6e603ab9a882800e4
:1003900008300123039906f0c1fb002800d0ebe6ea
:1003a000254b1b68002b00d1e6e603a920309847b7
:1003b000e2e60023042202a9280006f0affb002891
:1003c00000d0d9e602ab5f881a8803ab5a801a4b7b
:1003d0009b68002b00d1cfe6174bdb68002b00d1c8
:1003e000cae6154b1b8a002b00d1c5e603ac124ea2
:1003f00018e022801049c968781906f08ffb0028a0
:1004000000d0b9e623886288d21a6280df19bfb2b1
:10041000094bd9689b6822001d3098476388002be0
:1004200000d1a9e66188328a00239142e1d80a000e
:100430000133dee77cba0000b01100205cba000096
:10044000f0b5c64600b5070088461d00069c2c3254
:1004500096b2002b41d05b68002b41d02b7a202b29
:1004600041d8002c42d0a01c2e22002110f086ff83
:100470002680012f07d0002f09d0022f39d1a37871
:1004800002221343a370a37801221343a3706b7a53
:10049000ff2b20d0013bdbb20d2b2fd8e37043465e
:1004a000013b032b2dd82c234246e2542a7a227199
:1004b000601d696810f058ff00202b68002b1ad0cf
:1004c00025230122e254200026302968053210f04d
:1004d0004bff00200fe0e370e1e70f2040420ae00d
:1004e0000f20404207e00f20404204e00c20404231
:1004f00001e00f20404204bc9046f0bd0f20404276
:10050000f9e70f204042f6e710b5002822d0037823
:10051000002b2ed02123c35c013b0d2b38d8412367
:10052000c35c002b07d14233c35c002b03d14333a0
:10053000c35c002b3bd03f23c35c012b64d0032b57
:1005400064d0022b51d12133c35c083b0020382bef
:100550003cd810bd10f06ef9002802d10c204042aa
:10056000f7e710f055f92b490cf082f80c204042c7
:10057000efe710f05ff9002802d10c204042e8e7d5
:1005800010f046f924490cf073f80c204042e0e7e3
:1005900010f050f9002802d10c204042d9e710f0a9
:1005a00037f91e490cf064f80c204042d1e710f0f6
:1005b00041f9002802d10c204042cae710f028f986
:1005c00017490cf055f80c204042c2e710f032f900
:1005d000002802d10c204042bbe710f019f9114964
:1005e0000cf046f80c204042b3e710f023f9002845
:1005f00002d10c204042ace710f00af90a490cf095
:1006000037f80c204042a4e70020a2e70c2040422b
:100610009fe7c04694ba0000a8ba0000b8ba00002c
:10062000c8ba0000e4ba0000fcba000010b509f036
:10063000d1ff041e01d0200010bd05f0e3fa024beb
:1006400001229a74f7e7c046b011002000b585b0ca
:1006500000230293ab239b00019300900023002210
:100660008321052005f064ff05b000bd10b509f039
:10067000e9ff002802d1024b01229a7410bdc04646
:10068000b011002030b58fb00f236b4401221a70d7
:10069000002800d190e04a4b02681a6082689a6094
:1006a000c268da60028a1a82837c002b03d00f238f
:1006b0006b4404221a70424b00221a710f206844c6
:1006c00009f0f8ff041e02d020000fb030bd3c4bf3
:1006d00002229a74002006f0c1fa041e06d0384b9c
:1006e00000229a7400200af01ef8ede73549012037
:1006f00006f07afa04a809f0a1fe040010f09af8b6
:10070000012820d810f096f8012822d810f092f88d
:1007100001282bd810f08ef8012831d810f08af873
:10072000012838d810f086f801283dd823000d3371
:10073000cad110f07ff80028c6d010f069f822491d
:100740000bf096ffc0e710f063f820490bf090ff24
:10075000d8e710f05df804a94b790a790d8c019562
:10076000897900911a490bf083ffcfe710f050f818
:1007700026236b441a226a4416490bf079ffc9e715
:1007800010f046f804a90b7aca79497a0091124907
:100790000bf06effc2e710f03bf807230093132223
:1007a0000e490bf065ffbde710f032f80c4b0d4a17
:1007b0000d490bf05dffb9e70c24644284e7c046a5
:1007c000b0110020e1000000f0bb00001cbb0000e5
:1007d00038bb00005cbb00007cbb0000a0bb00007d
:1007e000b8bb0000c4bb0000d0bb000010b50400c3
:1007f000fff73cff002800d010bd2000fff742ffac
:10080000fae710b5054b00229a74002005f082fe2d
:10081000002009f088ff002010bdc046b011002064
:1008200010b505f0cbff10bd10b58eb005ac24227d
:100830000021200010f0a2fdff232370002302936b
:1008400001930093243322002721012005f070fe3c
:100850000eb010bd00b585b0002302930193009344
:1008600000222921012005f063fe05b000bd00b57e
:1008700091b00b0004aa009200220121fff7e0fdd5
:10088000002801d011b000bd002302930193009312
:10089000303304aa3b21013005f04afef2e7102074
:1008a00040427047f0b5ce46474680b591b0151e20
:1008b00000d179e004ab00930b006c220221fff71a
:1008c000bffd041e05d0200011b00cbc9046994617
:1008d000f0bd6c200ff02cff061e62d06c220021b0
:1008e00010f04cfd296800293ed06b68002b05d024
:1008f0000f246442300010f0cbf9e4e7403333704a
:10090000731c9c460c003000213081461a002027c1
:1009100019e0273bdbb21b01dbb213706d78303d71
:10092000edb2092d09d93d43312040428046a8440b
:100930004046052815d8273dedb25b1913700132ea
:100940000234914533d025002378303bdbb2092bac
:10095000e1d93b4331204042804698444046052837
:10096000d7d90f246442c5e76968002916d02a7ace
:10097000402a02d90f246442bce73270701c10f088
:10098000f3fc302302933c33019300963c3b04aad2
:10099000bb21012005f0ccfd0400abe70f2464422d
:1009a000a8e7032464428ee70f2464428be7327881
:1009b000604610f0d9fce4e710b500290ad0012800
:1009c0004cd0002811d002285dd0032822d00f205f
:1009d000404210bd002a74d1022854d0032819d0f7
:1009e00001283bd00f204042f3e7042a6cd10b686a
:1009f000002b08d0012b6ad13c4a0133116899437e
:100a000011600020e5e7394a022311680b431360a7
:100a10000020dee7012a5dd10b78012b0dd0002be1
:100a200004d0022b10d00f204042d2e72f4a0c23d3
:100a30001168994311600020cbe72c4a0c23116800
:100a40000b4313600020c4e7284a08231168994328
:100a50000b0004210b4313600020bae7042a3cd1a9
:100a60000b68002b08d0012b3ad1204a0f331168b4
:100a70000b4313600020ace71c4a10231168994314
:100a800011600020a5e7002a0dd0142a2bd1174aa7
:100a9000402310680343136015481422143010f0eb
:100aa00063fc002095e7114a4023116899431160c7
:100ab0000f4900234b618b61cb610b624b620020bd
:100ac00087e70f20404284e70f20404281e70f2054
:100ad00040427ee70f2040427be70f20404278e70c
:100ae0000f20404275e70f20404272e76412002059
:100af000b011002010b50b1e4fd001282cd00028bb
:100b000006d0022834d003280fd00f20404210bd59
:100b10001168032944d904211160274a1168490842
:100b200001228a431a600020f1e7116800293ad0b7
:100b300001211160204a1268510703d400221a7063
:100b40000020e4e7120703d501221a700020dee737
:100b500002221a700020dae71168032926d904213d
:100b60001160154a1268d206d20f1a600020cee733
:100b70001149096849060cd51168132919d914219e
:100b800011600e4914221431180010f0edfb002002
:100b9000bde7002313600020b9e70f204042b6e70d
:100ba0000f204042b3e70f204042b0e70f20404201
:100bb000ade70f204042aae764120020b0110020e8
:100bc000f0b5c64600b590b0141e00d17fe01368a2
:100bd000002b25d06368002b00d17be0a368002b9d
:100be00000d17ae0a589e389ea18642a00d977e080
:100bf000228a80267600b24200d974e0ed182c35a6
:100c00005519adb204ab00930b002a000421fff785
:100c100017fc061e06d0300010b004bc9046f0bd94
:100c20009381d7e728000ff083fd071e4cd02c23bb
:100c3000984680442a00002110f0a0fb01233b705d
:100c4000a37c002b01d081233b70e37c002b03d0dd
:100c50003b78402213433b702c23fb70234b1b68d3
:100c60007b623a000c32224b143343cb43c203cb9a
:100c700003c200237b7021684646002906d0267bec
:100c80007e703200404610f06ffb4644a27bba7083
:100c90006168300010f068fbb87830184346c31a1a
:100ca000bb80228afa80a16810f05efb3023029399
:100cb0000195009704aabb21012005f039fc06002c
:100cc00038000ff0e5ffa6e703267642a3e70f26dc
:100cd0007642a0e70f2676429de70f2676429ae7f6
:100ce0000f26764297e70f26764294e7641200209b
:100cf000b0110020f0b5ce46474680b593b0141e23
:100d000000d1bae01368002b36d06368002b00d105
:100d1000b6e0a368002b00d1b5e0e368002b00d15a
:100d2000b4e02369002b00d1b3e0a38ae58a5a1905
:100d3000642a00d9b0e0268b80225200964200d966
:100d4000ade0628bc627ff00ba4200d9aae05b196a
:100d50002c33d21875005519adb206ab00930b00b9
:100d60002a000421fff76cfb061e07d0300013b0e9
:100d70000cbc90469946f0bd9382c6e7638b9846bb
:100d8000ed1aadb228000ff0d3fc071e72d000237d
:100d9000049305932c33994681442a00002110f0d6
:100da000edfa02233b70237f002b01d082233b709e
:100db000637f002b03d03b78402213433b702c23ee
:100dc000fb703a4b1b687b623a000c32384b143391
:100dd00043cb43c203cb03c200237b7021684e4642
:100de000002906d0267d7e703200484610f0bcfafd
:100df0004e44a27dba706168300010f0b5fabb783d
:100e0000f6184b46f31abb80228bfa80a16830009b
:100e100010f0aafafa88b618e168300010f0a4fac7
:100e2000fb88f6184b46f61ab6b23e8143467b81e4
:100e300004aa0123137096804346d38008230293ab
:100e400043460193236900930823bc21012005f048
:100e50006ffb061e03d038000ff01aff86e7302321
:100e600002930195009706aabb21012005f060fbc3
:100e70000600f0e70326764278e70f26764275e70c
:100e80000f26764272e70f2676426fe70f267642ec
:100e90006ce70f26764269e70f26764266e70f2653
:100ea000764263e70f26764260e7c0466412002070
:100eb000b0110020f0b589b01c000eab1e880fab3e
:100ec0001d7805ab00270597069019725e726b427c
:100ed0005d416d00202920d9022a3dd02ed9032a58
:100ee00052d0042a35d1002c55d00023009303930f
:100ef00004930194260015360296200010f0b6f9ee
:100f00006b46d881300010f0b1f96b4618826a4602
:100f100005a92800fff754fe19e00f00002601394b
:100f2000c9b2ff2905d0435c002bf8d10f00012680
:100f3000f5e7002ed0d005ab1f72cde7012a04d112
:100f400005a92800fff793fc01e00f20404209b0fb
:100f5000f0bd0f204042fae7002c19d00023009387
:100f600001936a461372200010f080f983b2402b7f
:100f700008d001946b4618726a4605a92800fff74d
:100f800091fce4e70094f7e7604260411038dee747
:100f90000f204042dbe70f204042d8e730b583b056
:100fa00006ac2488002501950094fff783ff03b069
:100fb00030bd00b585b00023029301930093002259
:100fc0002b21012005f0b4fa05b000bd00b587b0b3
:100fd0000100062204a810f0c7f900230293019330
:100fe0000093083304aa0221012005f0a1fa07b0fa
:100ff00000bd00b585b00200002302930193009369
:1010000018330a21022005f093fa05b000bd00b59f
:1010100085b0414241410b3100230293019300937b
:101020000022022005f084fa05b000bd00b585b0ad
:10103000020000230293019300930433392101201d
:1010400005f076fa05b000bd00b585b000280ed0d9
:101050000378fa2b0ed801330022029201920092fb
:1010600002008f21012005f063fa05b000bd0c20bd
:101070004042fae70c204042f7e710b584b0041e66
:101080001ad00378002b21d043780a3bdbb2f02b37
:1010900027d88378013b012b2ed8c3787f2b36d9f4
:1010a00000230293019300930433020014210120d2
:1010b00005f03efa04b010bd0ff0bcfb00282ad0aa
:1010c0000ff0a6fb19490bf0d3fa24e00ff0b2fba6
:1010d000002820d00ff09cfb227815490bf0c8faad
:1010e00019e00ff0a7fb002815d00ff091fb6278f4
:1010f00010490bf0bdfa0ee00ff09cfb00280ad05f
:101100000ff086fba2780c490bf0b2fa03e00ff067
:1011100091fb002802d10c204042cbe70ff078fb76
:101120000322a25605490bf0a3faf4e794ba000093
:101130000cbc00002cbc00004cbc00007cbc0000bf
:1011400010b586b00023059301281ed805aa10709b
:1011500002930193009304336b21012005f0e8f919
:1011600004000ff067fb012802d8200006b010bd74
:101170000ff04efb05ab1b78002b04d1044a054948
:101180000bf076faf1e7044af9e70f246442ece742
:101190009cbc0000a0bc000098bc000000b587b05b
:1011a00005aa1080002302930193009304331521b4
:1011b000012005f0bdf907b000bd00b587b0104ba8
:1011c0001b79002b16d1431e0d2b01d9ff2814d1fa
:1011d00005aa107000230293019300930433102199
:1011e000012005f0a5f9002802d1054b01221a7152
:1011f00007b000bd0e204042fae70f204042f7e75b
:10120000b011002000b587b0104b1b79002b17d10f
:10121000431e0d2b01d9ff2815d105aa107051804e
:10122000002302930193009304332321012005f04e
:101230007ff9002802d1054b01221a7107b000bdc9
:101240000e204042fae70f204042f7e7b01100209d
:1012500010b586b01f4b1b79002b31d1431e0d2bcf
:1012600001d9ff282fd1002930d00b78042b23d8a7
:10127000002b10d04a78202a0ad801240132a41861
:10128000a4b2013bdbb2002b06d00a5d202af5d9bf
:101290000f20404212e0012405aa1070042302939b
:1012a00001940091a121012005f042f9002805d107
:1012b000084b01221a7101e00f20404206b010bd18
:1012c0000e204042fae70f204042f7e70f2040424d
:1012d000f4e7c046b011002000b589b00b4b0022e6
:1012e0001a7105ab1870002804d108321530684413
:1012f00010f03af800230293019300930c3305aaef
:101300002f21012005f014f909b000bdb011002013
:1013100000b585b000230293019300930022312190
:10132000012005f005f905b000bd10b50ff082faf7
:10133000002801d1002010bd0ff06afa01490bf01e
:1013400097f9f7e7c8bc000010b50ff073fa002852
:1013500001d1002010bd0ff05bfa02490bf088f9b3
:10136000f7e7c046c8bc000000b587b00b2803d81b
:101370000f4bc340db0706d40ff05cfa00280fd1f7
:101380000c2040420ae005aa10700023029301934a
:10139000009304335b21012005f0caf807b000bdbb
:1013a0000ff036fa03490bf063f90c204042f5e7e1
:1013b00042080000e8bc000000b585b0002302939d
:1013c0000193009300225c21012005f0b1f805b0e3
:1013d00000bd10b584b00400fff796f800280cd1ca
:1013e0000023029394330193009400230022c6212a
:1013f000013005f09df804b010bd0c204042fae722
:1014000030b5a7b0040001ad8822010028000ff01c
:10141000abff41340422210023a80ff0a5ff0422d2
:10142000210024a80ff0a0ff90230022ea542800f6
:10143000fff7cfff27b030bd00b585b000280bd037
:101440000023029301930093043302002221012020
:1014500005f06ef805b000bd0c204042fae700b57b
:1014600085b00023029301930093002247210120bd
:1014700005f05ef805b000bd00b585b0002302930d
:101480000193009300220321012005f051f805b0db
:1014900000bd00b587b0002810d0002911d005aae2
:1014a00011800e2353800c33029301910090163b60
:1014b0009c21012005f03cf807b000bd012040420e
:1014c000fae701204042f7e770b504000d0004f090
:1014d000cfff002800d070bd2900200004f026ffb7
:1014e0000028f8d104f0fcfff5e710b5040004f083
:1014f000bfff002800d010bd200004f071ff0028bd
:10150000f9d104f0edfff6e700b587b005aa107039
:10151000002302930193009304331221012005f06c
:1015200007f807b000bd024b5879c0b27047c046fb
:10153000b011002010b504f0bfff10bd30b587b06a
:10154000040005aa107051700023029301930093c8
:1015500004332d21012004f0ebff05000ff06af9a0
:10156000012805d8200004f0a1ff280007b030bdf5
:101570000ff04ef9220002490bf07af8f2e7c0466c
:101580001cbd000010b586b0040004f095ff0023d8
:10159000042802d0180006b010bd059402930193f0
:1015a0000093043305aa3a21033804f0c1ff030075
:1015b000f0e700b591b00a1c302900d93022013281
:1015c000d2b2010004a80ff0cffe002302930193d2
:1015d0000093303304aa0721012004f0a9ff11b0c1
:1015e00000bd70b58eb00d001600202914d805acd2
:1015f0000a00010020000ff0b7fe002363552122ee
:10160000a654029301930093243322002521012044
:1016100004f08eff0eb070bd0c204042fae710b50a
:1016200004f070fb10bd70b5050004f021ff041e2e
:1016300001d0200070bd280008f000ff040004f075
:101640004ffff6e770b5bab004000d001600002891
:1016500038d0fef759ff002830d18822210004a895
:101660000ff082fe210088310c22d92068440ff04f
:101670007bfe2b78002b14d004ac4022290026a836
:101680000ff072fec823e6540023104a1371029330
:1016900001930093d83322008821012004f048fff1
:1016a0000ee00ff0c7f8002802d10c20404207e0fe
:1016b0000ff0aef806490af0dbfff6e70c204042d7
:1016c0003ab070bd0c204042fae7c046b01100208d
:1016d0002cbd0000f0b5a7b004000d00160001af4e
:1016e0008822010038000ff03ffe4134042221001f
:1016f00023a80ff039fe0422210024a80ff034fea5
:1017000090230022fa54320029003800fff79aff94
:1017100027b0f0bd00b585b000230293019300937c
:1017200000220a21012004f003ff05b000bd00b52e
:1017300085b000230293019300930022052101202c
:1017400004f0f6fe05b000bd00b587b0059000239b
:10175000029301930093083305aa0b21012004f0a2
:10176000e7fe07b000bd00b585b0002302930193ea
:10177000009300221a21012004f0dafe05b000bd1a
:1017800000b585b0414241410c31002302930193e1
:1017900000930022012004f0cbfe05b000bd00b58f
:1017a00087b005aa107000230293019300930433bd
:1017b0001621012004f0bcfe07b000bd00b587b0c3
:1017c00005aa10700023029301930093043317219c
:1017d000012004f0adfe07b000bd00b587b005aa3a
:1017e00010700023029301930093043326210120fb
:1017f00004f09efe07b000bd00b587b005aa1070ca
:10180000002302930193009304331921012004f073
:101810008ffe07b000bd00b587b005aa0023538036
:10182000108002930193009304331821012004f0e7
:101830007ffe07b000bd10b586b00c0000230493f6
:101840000593114b99420ed800280cd004aa918020
:101850000490002302930193009308339f210120f9
:1018600004f066fe05e00ef0e5ff002803d10c2031
:10187000404206b010bd0ef0cbff220003490af033
:10188000f7fe0c204042f4e72c06000044bd0000a7
:1018900000b585b0020000230293019300930c333e
:1018a0002421012004f044fe05b000bd10b586b02f
:1018b000031e26d004a88171062219000ff054fde2
:1018c0000ef0b8ff03280bd8002302930193009376
:1018d000083304aa1e21012004f02afe06b010bd20
:1018e0000ef096ff04a94b780a784c7903940c7992
:1018f0000294cc7801948978009103490af0b8feeb
:10190000e2e70c204042e9e77cbd000010b500286a
:1019100004d00a4bd8601982002010bd0ef08aff57
:10192000002802d10c204042f7e70ef071ff044975
:101930000af09efe0c204042efe7c046b0110020a6
:10194000a0bd000010b50020fef75bfffef78efe85
:1019500010bd10b50400fff7f5ff002800d010bd42
:101960002000fef78ffefae710b5fef78bfe10bde4
:10197000014b987cc0b27047b011002000b587b011
:1019800005ab01221a7001280cd81a0058700023e8
:1019900002930193009304336921012004f0c8fdf0
:1019a00007b000bd0f204042fae700b587b005aa96
:1019b00000231370029301930093043369210120e3
:1019c00004f0b6fd07b000bd00b587b001280cd803
:1019d00005aa1070002302930193009304336a2137
:1019e000012004f0a5fd07b000bd0f204042fae73a
:020000040000fa
:1019f00010b5124b5b68002b1ed001280fd00028b9
:101a00001ad0032818d8c8229b58002b01d00b48a5
:101a100098470a4b5a68c8230021d1500ce0c422d1
:101a20009b58002b01d005489847044b5b68002267
:101a3000a0215a5424315a5010bdc046700a0020cb
:101a4000f0b59db00c1e10d0294b5b68002b0cd05c
:101a500001280cd0062808d1cc229b58002b04d09a
:101a60000a68039203a9224898471db0f0bdd0220e
:101a70009d58002df9d00e784b6801938b68029326
:101a80006c3a002103a80ff079fc052eedd8b300c5
:101a9000184ad3589f4603af21000c31202238004a
:101aa0000ff062fc21002c3120220ba80ff05cfc0f
:101ab0004c23e25a0c3bfa520e33e25a0c3bfa52d8
:101ac00021005031202214a80ff04efc3b000ae008
:101ad00003aba2891a80e2895a8004e0e368039389
:101ae00003ab00e0002301aa31000148a847bce78e
:101af000700a0020fcf40000f0b5edb00c1e00d11f
:101b00008de0c94b5d68002d00d188e00438c3b278
:101b10002e2b00d983e09800c44b1b589f46eb7bcb
:101b2000002b7cd00023eb730123cb56002b11d16b
:101b30000b786b74002b09d18823ec58002c6ed0e5
:101b4000002300220021b848a04768e0287cfff766
:101b5000dbfc64e000236b7461e028003430043166
:101b600006220ff001fc01263a23ee5427000a3723
:101b700028001330202239000ff0f6fb2121380015
:101b80000ff080fba84b59683323c8540122a2569a
:101b90000a33ca54a2780133ca54e278033bca54c8
:101ba0008e744d33cc58002c39d00b0013334a7c43
:101bb000097c0131c9b29c48a047002805d19a4b45
:101bc0005a6888230021d15029e0974b5b681c7c20
:101bd0000134e4b21c74fff7a6fc844205d3924b97
:101be0005a6888230021d15019e08f4c6368187c13
:101bf000fff78afc636800229a7410e00b78012bcf
:101c00000fd0002b02d1ab735422ab548c23ed5870
:101c1000002d04d08448637822780100a8476db075
:101c2000f0bdab73a133eb5c002befd1a433eb58c9
:101c3000002bebd0a1230122ea54e7e78c23ed58d7
:101c4000002decd000228a561300163318d0130052
:101c5000163309dd0123110015310cd013001433a4
:101c60005a1e9341063306e01732534253415b42fa
:101c70000122934307336c4800220100a847cee7b6
:101c80000323f8e72b7b002b02d1a1330122ea5476
:101c9000e1780906a3781b04194323781943637874
:101ca0001b021943a423e9501433eb58002bb6d080
:101cb0005d489847b3e708000bf066ff0028aed0f8
:101cc000594b5a689023d358002ba8d0010056488e
:101cd0009847a4e7c023eb58002ba0d02121200077
:101ce0000ff0d0fa0500c3b205a920228b54202b97
:101cf00000d994e7002105a80ff040fbff222a40fd
:101d0000210005a80ff030fb6223e35c10aa1370da
:101d1000022b10d06323e35c5a425341dbb2424ca6
:101d2000c0256268565910aa05a92000b04763680b
:101d300000225a5173e72500213528000ff096fa4a
:101d4000060010ab1871402200213d2302a88446f2
:101d5000634418000ff012fb320029003d2302a853
:101d60008446634418000ff0fffad3e721212000d6
:101d70000ff088fa07002c4b5d68c3b27522ab5494
:101d8000202b00d94be72e005536553a0021300064
:101d90000ff0f4faff223a40210030000ff0e4fa8d
:101da0002123e75c6333ef545f3be35c1b06242293
:101db000a25c120413432222a25c13432322a25cde
:101dc00012021343ab677c239c46ac446346062255
:101dd00021002631039360460ff0c6fa01238222c8
:101de000ab542e3aab549333ed58002d00d116e787
:101df0000d48683be35601930097039b32000100b6
:101e0000a8470ce700228a564e23ea544a33eb587f
:101e1000002b00d103e7044c2100200098476268a2
:101e200098230021d150fae6700a002014f5000032
:101e30009c23eb58002b00d1f1e605a80cf02ef9fd
:101e4000a51c212128000ff01dfac2b2290005a807
:101e50000cf03cf9617805a80cf084f92378012b8b
:101e600009d0022b12d00f489c234268d35800227d
:101e700000219847d3e610a80af010fe09489c23d9
:101e80004268d35810aa05a99847c8e623344121cf
:101e900020000ff0f7f9c2b2210010a80af006fee8
:101ea000ece7c046700a0020f0b5d6464f464646dd
:101eb000c0b584b00e0015006a4b5c68002c0cd0d5
:101ec0002700d43700280ed0f823e458002c04d083
:101ed0000300022239006348a04704b01cbc9046ae
:101ee0009946a246f0bd0ef0e3fad423e35c002b42
:101ef00002d10ef0e1faf0e7013bd422a3540ef038
:101f0000dbfafb69002b04d02300d4335b69ab42be
:101f10006dd20ef0cdfad422a35c0133a3540ef09f
:101f2000cbfadae7d4239946a14431004b46d8696d
:101f30000ff01afa4b461b6af6184246d31a984617
:101f400015e0013bd422a3540ef0b6fa2300d4339b
:101f5000db69002b32d02300d4331a6a002a2dd03b
:101f60004346002b5ed0424549d2002adad12300f5
:101f7000d4330022da611a623a4b5a68f823d358f4
:101f8000002b1bd00ef094fad4239946e35c013366
:101f90004a46a3540ef090fa3248f8234268d358c8
:101fa0009a46002304223900d0470ef081fa4b46ae
:101fb000e35c002bc5d10ef07ffa8ee72300d4330b
:101fc00000225a610ef074fad422a35c0133a354a8
:101fd0000ef072fa234b5a68f823d458002c00d123
:101fe0007be70023022239001e48a04775e7002d39
:101ff00018d02300d4331a6aa8469542b5d8d42302
:102000009946a144424631004b46d8690ff0acf9dd
:102010004b46db6943444a46d361136a42469b1ae6
:102020004a4613622200d43253695b1b5361116923
:102030008c4665441561002bc4d00ef039fad422c9
:10204000a35c0133a3540ef037fa06484268f82324
:10205000d35802930023019300930022390007f024
:10206000b1fd3ae7700a002070b5154a5468002c9b
:1020700011d0f822a558002d0dd02100d431030035
:10208000f53a0f48a8470ef013fad423e35c002b6f
:1020900002d10ef011fa70bdd425013b63550ef04c
:1020a0000bfa2300d433ff225a7000229a610ef0fb
:1020b000fff9635d013363550ef0fef9ebe7c046af
:1020c000700a0020f8b505000f0016001d4b5c6873
:1020d000002c07d00ef0ecf9d423e35c002b02d1e6
:1020e0000ef0eaf9f8bd013bd422a3540ef0e4f956
:1020f000002d06d02300d433ff225a7000229a61ab
:1021000003e02300d4335f709e61d4262300d433d0
:1021100000221a615a61da611a620ef0c9f9a35df0
:102120000133a3550ef0c8f9064b5a68f823d65868
:10213000002ed7d02100d4312b0001220148b04716
:10214000d0e7c046700a002010b50c0000281ed150
:10215000104b1b78002b18d10f4b01221a71002253
:102160001a655a71fd215a54002c05d020680bf0d5
:10217000ddfc6268084b9a60064801230370002268
:1021800082704370044b436010bd0248fce701209d
:102190004042f9e7700a0020800a002070b5040070
:1021a000431e033306d8002343700f4b834202d0f3
:1021b0000023a37070bd5d68fd23eb5c002bf7d09e
:1021c0000ef076f9fc22ab5c0133ab540ef074f9df
:1021d000054b5d680ef06cf9d422ab5c0133ab5457
:1021e0000ef06af9e4e7c046700a00207047431e0b
:1021f000033305d80388012b05d0407840b27047df
:1022000001204042fbe70120f9e70300421e0332b0
:1022100009d84268002a09d005201056002801d1ab
:1022200001201856704701204042fbe70120404240
:10223000f8e7f0b587b00400431e033317d8012335
:10224000c356002b15d00fdd012b3ad0022b00d046
:102250002fe145680ef02cf9fc23eb5c002b00d03d
:1022600009e10ef029f902e0013300d021e107b0c5
:10227000f0bd0378002bfad04368fd229a5c002a57
:1022800002d0fd22002199540123626813710023ba
:1022900062685371fff76cfb02280ed000f0c0fd9e
:1022a0000bf054fc636898680ef02aff0ef0e8fc0f
:1022b0000ef0cefc00232370d9e70020fef7a1fa30
:1022c000ece74368002b0ad00ef0b4fa012809d8d5
:1022d0000bf0dcfb00280bd1ff236370c7e7ff3353
:1022e0004370c4e70ef094fa73490af0c1f9efe7be
:1022f000fef7bcf900280fd00ef09cfa002805d19b
:10230000f523626853710a336370b0e70ef080fa08
:102310006a490af0adf9f3e7fff781f9000c1528d7
:1023200005d0f523626853710a3363709fe76668ce
:102330000ef0bef80025fc23f5540ef0bdf86368de
:10234000996820000ef0cefe029503950495059540
:102350005b4b019301a8fef795f900287bd100f0b3
:1023600043fd584806f0a6fa574d002300222b7370
:102370006b73ab73eb73ab7401263f216e54022772
:1023800001316f5401311e20685401316f54013105
:10239000b530685401315930685202316b52002017
:1023a000083168542b6506316a5434316b5004315e
:1023b0006b5004316b5004316b5004316b5004315d
:1023c0006b5004316a5401316a54a222ae54023275
:1023d000ab500432ab500432ab500432ab50043239
:1023e0003a49a9500432ab500432ab500432ab50de
:1023f0000432ab500432ab500432ab500932ff21ef
:10240000a9541b32ab50324a27396a500431314843
:10241000685004313048685018316b5000212f4803
:1024200005f056ff0ef044f8d423ee540ef044f8b5
:10243000fd236268d65460684830fff756f867702d
:102440000ef0f8f9012800d811e70ef0e1f924495f
:102450000af00ef90be70ef0edf9a84205d1f423ce
:10246000626853710b33637001e70ef0d1f91d49b7
:102470000af0fef8f3e7013bfc22ab540ef01cf827
:102480000123e356022b00d0f1e663681b791b079a
:1024900000d5ece6fef7c4f9002800d1e7e6646851
:1024a0000ef006f8fc22a35c0133a3540ef004f8ee
:1024b000dde6ff236370dae6340401004c0401001a
:1024c000f91a0000411a0000800a0020c0a80a0181
:1024d000c5200000a91e000069200000f1190000bd
:1024e0008804010068040100f8b5002800d089e0e4
:1024f0004b4b5b68002b00d188e0494a1278002ad8
:1025000000d186e0464a9278002a07d01b798b4298
:1025100002d00124644277e0414c75e0404a927a4f
:10252000002a0bd03e4c1c606368197163681b79ec
:102530001b075cd43a4b01229a7065e000201a73a5
:102540005a739a73da739a7401243f255c553d3da2
:1025500040269d5501361e279f5501369d55413514
:1025600091365e55013559365e5302355a53002671
:1025700008355e551a650635585534355a510435b7
:102580005a5104355a5104355a5104355a510435bb
:102590005a510435585501355855a2201c54023063
:1025a0001a5004301a5004301a5004301a500430b3
:1025b0001c4c1c5004301a5004301a5004301a506d
:1025c00004301a5004301a5004301a500930ff24d5
:1025d0001c541b301a501838134c1c500430134c28
:1025e0001c500430124c1c5018301a509ae700202e
:1025f000fef707f9fef71af800280dd1084b012263
:102600009a7001e0012464422000f8bd0124644274
:10261000fae701246442f7e701246442f4e7c04684
:10262000700a0020c0a80a01c5200000a91e0000f1
:1026300069200000431e033307d84368002b04d0f1
:102640001a68824202d000238370704700229a7376
:10265000a1234168ca54f6e710b50b000138c21c2b
:1026600009d8002909d001211800fff71ff9431ede
:102670009841c00010bd0220fce70220fae710b527
:102680000b000138c21c09d8002909d0002118000c
:10269000fff70cf9431e9841c00010bd0220fce773
:1026a0000220fae710b50b00421e03320bd8416836
:1026b00000290ad0002b0ad04831062218000ef05b
:1026c00053fe002010bd0220fce70220fae70220a2
:1026d000f8e7431e03330ad84368002b09d01a7b5e
:1026e000002a08d0587b431e9841023000e00020a9
:1026f00070470020fce70120fae7431e033308d8a7
:102700004368002b07d08278002a06d01965002084
:1027100070470220fce70220fae70120f8e7431e99
:10272000033307d84368002b06d08278002a05d0ef
:10273000186d00e0002070470020fce70020fae759
:10274000431e033314d8002914d083780120002bb2
:1027500000d17047002200208871ca710a724a7243
:102760008a72ca7213230b800c3b4b808b80f0e77c
:102770000220eee70220ece710b58ab01400431ef9
:10278000033331d8002a31d08378002b30d0002990
:1027900023d06846fef747ff00282bd1a01d1c223e
:1027a00000210ef0ebfd6b461b7923806b465b79b5
:1027b00063806b469b79a38020000c300c220a2199
:1027c00069440ef0d1fd2000183009221621694419
:1027d0000ef0cafd00200ab010bd684605f02dfebf
:1027e0000028dbd00820f6e70220f4e70220f2e719
:1027f0000120f0e70820eee710b5431e033306d8aa
:1028000083780020002b03d0fef709ff00e00020b2
:1028100010bd00b583b0431e03331bd8002a1cd063
:102820008378002b1bd000290dd06b46d91d1000da
:10283000fef74afe002804d16b4607331b78002bb5
:1028400009d1082007e01000fef74ffe431e984113
:10285000c00000e0022003b000bd0220fbe7012021
:10286000f9e710b50c00431e033312d8002912d02b
:1028700083780120002b00d110bd302120000ef004
:1028800001fdc1b22000fef794fe431e9841c00036
:10289000f2e70220f0e70220eee710b5431e033313
:1028a0000bd883780120002b00d110bd0800fef763
:1028b00094ff431e9841c000f7e70220f5e700b5fa
:1028c00085b0431e033327d8152a27d88378002bd9
:1028d00026d001ab0520188004385880fe301871ce
:1028e0005871f53898710520d871032018720029a5
:1028f0000bd00d4b9a5c01ab5a7101a8fef7c8ffd3
:10290000431e9841c00005b000bd012a0ad0064b05
:102910009a5c01ab1a71f0e70220f4e70220f2e7bb
:102920000120f0e70220eee7d0f500004368002b1d
:1029300006d00278002a03d0fc215a5c01325a5496
:042940007047c046d6
:020000040000fa
:10294400f0b5d6464f464646c0b598b00d001400c3
:1029540041283fd054283dd0422859d0432800d1a3
:102964006fe0442800d1f5e14b2800d1f2e157286b
:1029740000d12ae24a2800d1c6e0462800d1d9e095
:10298400482800d113e106274d2800d1d3e045287b
:1029940000d197e1472800d1c2e107254c2800d196
:1029a40091e152282ed10123142207a9200004f01a
:1029b400b3f8002826d1bd4bdb68089a9a4221d18e
:1029c400ba4b1b69002b1dd007a90a7c09990798eb
:1029d400984717e00023042207a9200004f09cf87c
:1029e40000280fd107ab5a7803ab1a70af4b1b68a2
:1029f400002b07d0ad4b1b6807aa0020105603aa72
:102a04000121984718b01cbc90469946a246f0bdd7
:102a14000023042207a9200004f07ef80028f1d145
:102a240007ab5a7803ab1a70a04b1b68002be9d094
:102a34009e4b1b6807aa0020105603aa0221984740
:102a4400e0e700230c2203a9200004f065f8002825
:102a5400d8d103ab5b7a5bb2dab20a2a28d803a8ce
:102a640008214156924a09015118c97ac9b21c0178
:102a74001219d172012191724189083989b21181e7
:102a84008a498a88013292b28a808a8892b2002a5c
:102a940003d18a88013292b28a80844a918889b2a9
:102aa4001b01834ad318d9800df0c2fe032816d81f
:102ab40007ab03aa517a1970022199805188d980f1
:102ac400049a0992794b1b68002b9bd0774b1b68a7
:102ad40003aa0820105607aa0421984792e70df08c
:102ae40095fe724b9b889bb203aa527a52b27149eb
:102af40009f0bcfddce707aca57802016c4b9b1820
:102b04009d73e278da7356e10023442207a920007a
:102b140004f002f8002800d074e7644b9b68002b93
:102b240000d16fe7614b9b68179a0192110007a8c7
:102b3400984767e706270023102203a9200003f023
:102b4400ebff002800d05de703ab0c269e57f3b2e1
:102b54000a2b00d956e703abda8990463101544a6f
:102b64005218002111730821585e824659898946fa
:102b740007a958884881049b0a93d3889bb243458c
:102b84006cd15346002b01ddaa4512db07ab52463c
:102b94009a8000230793454b1b68002b00d131e733
:102ba400424b1b6807aa3900300098472ae70927d7
:102bb400c1e79bb29846cb8033013d4a9b58002b1a
:102bc40000d11fe732013a4b9b189b889bb2002b24
:102bd40000d117e7364b9b189b7a012b00d011e7e5
:102be400334b9b189b884246d31a1bb24546002b95
:102bf40004dd32012e4b9b189d88adb233012c4a63
:102c040099582000484401232a0003f085ff002836
:102c140018d1274b3201d05807a907908d80c88856
:102c2400451bcd80981800218180d1501f4b1b6813
:102c34008b4200d1e6e61d4b1b6807aa3900300021
:102c44009847dfe60df0f4fd002800d1dae60df038
:102c5400ddfd4246184909f009fdd3e60df0e8fd13
:102c6400032816d8102d00d8cce601230022002119
:102c7400002003f051ff002800d1c3e60df0d8fd79
:102c8400002800d1bee60df0c1fd0c4909f0eefcb0
:102c9400b8e60df0bbfd3601054b9e19f3889bb2d7
:102ca4004246074909f0e2fcdce7c046380d002043
:102cb400540d00200cf4000028f4000058f4000027
:102cc40038f4000007250023082207a9200003f098
:102cd40023ff002800d095e607ab00241c57e3b27d
:102ce4000a2b00d98ee607ab9e880df0a1fd0328c0
:102cf40018d807ab5a8803ab1a802201354b9b18ae
:102d0400db889bb2b34214d1334b1b68002b00d138
:102d140078e6314b1b6803aa29002000984771e626
:102d24000825d0e70df072fd32002c4909f09efc15
:102d3400dfe70df07dfd032800d863e60df066fda6
:102d44002401244b1c19e3889bb23200244909f066
:102d54008dfc57e60023079308930422002307a958
:102d6400200003f0d9fe002800d04be607ab00207a
:102d74001856c3b20a2b00d944e603ab187007aa4d
:102d8400012414575c700201124b9b18198989b2f3
:102d94004b4259414942042399430a31002c00d043
:102da400a9e607ac6388083b9bb21500094a52198f
:102db400138123795373084b1b68002b00d121e640
:102dc400054b1b6803aa98471ce600230793089346
:102dd4000822c3e7540d0020380d002070f40000d1
:102de40090f4000010b50a4b1b7d002b00d010bde1
:102df400b022002107480ef0bffa0749022003f071
:102e0400f1fe034b01221a7500229a80efe7c046b7
:102e1400380d0020540d00204529000010b5b022c3
:102e2400002106480ef0a8fa0021022003f0dafe81
:102e3400034b00221a609a601a7510bd540d0020cd
:102e4400380d0020014b186099607047380d002040
:102e5400014b18607047c046380d0020014b986044
:102e64007047c046380d0020f0b5d646474680b5b9
:102e740089b088460592022800d0a9e001292dd006
:102e8400022900d0a7e0554b9d7dedb29c7d240125
:102e9400534aa418997d013103220a409a75a37af2
:102ea400002b4fd003224d494d4e03208d7dedb2b2
:102eb4008c7d2401a4198b7d013303408b75a37a87
:102ec400002b3fd0013ad2b2002aefd101256d4246
:102ed400280009b00cbc90469a46f0bd3f4c657d75
:102ee400edb2667df6b2607d013007210df030f859
:102ef400c9b2617532013b4b9b189b7a0624002ba7
:102f040017d0364f374b9a467d7dedb27e7df6b2b3
:102f1400787d013007210df01bf8c9b279753301b2
:102f240053449b7a002b08d0013ce4b2002cebd133
:102f3400cce734012b4be41802e03401294be418ac
:102f44006db201e007356db2002dc1db00232360b3
:102f54006360a360e3600133a372204a9388013362
:102f64009bb2938093889bb2002b03d19388013347
:102f74009bb29380194b9b889bb2e3800df058fc65
:102f840001281bd84346012ba2d1059b002b9fd0bf
:102f940007aa157000230293019300930433502170
:102fa400022003f0c3fa2123e372059b022b00d015
:102fb4008ee7e37a80221343e37289e70df026fc5f
:102fc400064b9b889bb22a00074909f04ffbd9e7bf
:102fd40001256d427ce701256d4279e7380d00201b
:102fe400c40d0020540d00200cf4000070b588b00e
:102ff4000600002930d0c3b20a2b30d800011c4b84
:103004001b189b7a012b2dd1002a2ed0184b1b188c
:10301400dc7a01231c4063425c41644212239c43da
:10302400543405ad2e72082228000ef09bf93001ad
:103034000f4b1818c3886b810023029301930093ec
:103044000c332a002100022003f070fa002801d07a
:103054000920404208b070bd06204042fae706202d
:103064004042f7e706204042f4e706204042f1e7f9
:10307400540d002000b587b0c3b20a2b1cd802013e
:10308400104b9b189b7a012b19d105aa1070517013
:1030940000010c4b1818c38853800023029301933a
:1030a400009304334221022003f040fa002801d0a7
:1030b4000920404207b000bd06204042fae706203e
:1030c4004042f7e7540d0020c3b20a2b0ad800018e
:1030d400064b1818807a0138431e98414042052354
:1030e4009843704706204042fbe7c046540d002039
:1030f40070b588b00400c3b20a2b30d8002931d08f
:1031040000011d4b1b189b7a012b2ed1002a2fd0b6
:10311400194b1b18db7a4426db0705d5164b1b1805
:10312400da7a05ab5a72073605ad2c7208222800ec
:103134000ef018f92401104b1c19e3886b8100234d
:103144000293019300930c332a003100022003f010
:10315400edf9002801d00920404208b070bd0620d6
:103164004042fae706204042f7e706204042f4e7ef
:1031740006204042f1e7c046540d002030b589b026
:10318400c3b20a2b34d80201214b9b189b7a012b22
:1031940031d11f4b9b18db7adb072fd51c4b9b18b7
:1031a400db7a5bb2002b2cda194b9b181b899bb280
:1031b400002b29d005aa0021059151600401144b6c
:1031c4001b19dc7a7f252c40dc72dc7a5472107275
:1031d400db8853810291019100910c235631022026
:1031e40003f0a4f9002801d00920404209b030bd01
:1031f40006204042fae706204042f7e70620404214
:10320400f4e706204042f1e706204042eee7c046dc
:10321400540d002030b589b00d00c3b20a2b3dd83f
:1032240000293ed0af23db009a423dd80401214b54
:103234001b199b7a012b3ad104ab18705a801d4993
:103244000919c98899815024062800dd0c3c010124
:10325400184b5b18d97a4523c9070dd50101154bc5
:103264005b18d97a49b24523002905db0001114bcb
:1032740018180489a4b24c238021194302940192a2
:103284000095102304aa022003f050f94342584148
:1032940043420e2018400e3809b030bd062040428b
:1032a400fae706204042f7e706204042f4e706200a
:1032b4004042f1e7540d002030b589b00c9dc3b2f3
:1032c4000a2b37d8002938d0af23db009a4237d8ed
:1032d4000401204b1b199b7a012b34d11d4b1b1964
:1032e4009b7a002b32d004ab0024049405940694fa
:1032f400079418705a800001164c2018c0889881d1
:10330400002d05d0288898806888d88068689860df
:103314004423029301920091343b04aac721022062
:1033240003f004f94342584143420e2018400e383a
:1033340009b030bd06204042fae706204042f7e7d4
:1033440006204042f4e706204042f1e706204042ce
:10335400eee7c046540d002030b589b00400c0b279
:103364000a283ed800293fd0002a40d0250123480e
:103374004019807a01283dd1204829504019828083
:10338400017b002000292ad11c4949190120087316
:10339400c87a4621c00707d518494919c97a49b2dc
:1033a400c917062081434d31002b00d1013b05ade7
:1033b40005932c71240111480419e388eb802a81b8
:1033c40000230293019300930c332a00022003f09c
:1033d400adf84342584143420e2018400e3809b01c
:1033e40030bd06204042fae706204042f7e70620b7
:1033f4004042f4e706204042f1e7c046540d002065
:1034040010b586b004000df013fa01282ed8e3b2eb
:103414000a2b32d822011c4b9b189b7a012b2fd1eb
:1034240005a90c70184b9b18da884a80d97a0123b5
:1034340019404b4259414942042399434e310023d8
:10344400029301930093043305aa022003f06ef85b
:10345400002801d00920404224010b4be41800232a
:1034640023606360a360e36006b010bd0df0cef985
:103474002200064909f0faf8c9e706204042f3e7ba
:1034840006204042f0e7c046540d0020b0f400008e
:1034940030b589b00400c0b20a283ad800293bd01c
:1034a400002a3cd0250121484019807a012839d1cd
:1034b4001e484019857a0020002d28d01b4825017c
:1034c400295040198280017b002000291fd117490f
:1034d400491901200873002b00d1013b05a905936c
:1034e4000c71240111480419e388cb800a8100235c
:1034f4000293019300930c330a004821022003f045
:1035040015f84342584143420e2018400e3809b082
:1035140030bd06204042fae706204042f7e7062085
:103524004042f4e706204042f1e7c046540d002033
:1035340010b584b004000df097fec3b2402b0bd835
:103544000133002202920192009222004a210220b9
:1035540002f0ecff04b010bd06204042fae7f0b5db
:1035640097b0040017001d001cab1e88c3b20a2bc1
:1035740000d9a6e0002d00d1a6e002015a4b9b1809
:103584009b7a012b00d0a2e002291ed0012900d091
:10359400a3e0042e00d0a3e004aa577110712b6895
:1035a40004930401504b1c19e388d3800023029335
:1035b4000193009308334e31022002f0b7ff002834
:1035c40001d00920404217b0f0bd062800dd81e09b
:1035d400454b9b18db7adb0764d5042e0cd0022ff5
:1035e4002ad0052f01d1202e28d90df021f9002849
:1035f4004fd106204042e6e7012f0ad0032f07d01f
:103604003e31042f05d0022f18d0052f16d0ece739
:1036140010212b68002b07d02401334b1c19e37aab
:103624001943e1720020cee724012f4b1c19e37ae1
:103634008b43e3720020c6e73f2ed6d840220021f8
:1036440006a80df099fe6b461c742401264b1c1928
:10365400e3886a465382577405963200290006a807
:103664000df080fe0023029301930093483304aad3
:103674005121022002f05affc31ca4d1002302935b
:1036840001930093483304aad121053002f04eff80
:1036940099e70df0bbf83a00144908f0e7ff06205b
:1036a400404290e70df0c4f8002802d106204042c1
:1036b40089e70df0abf80e4908f0d8ff0620404228
:1036c40081e7062040427ee7062040427be7062051
:1036d400404278e70620404275e70620404272e700
:1036e400062040426fe7c046540d0020c8f4000095
:1036f400e8f4000006204042704710b588b0002866
:1037040018d0002a19d005ac0123238105900c4858
:10371400c3680133c3600693a1720261002302935c
:10372400019300930c3322005221022002f0fefe8a
:1037340008b010bd0f204042fae70f204042f7e7df
:10374400380d0020f0b58db003900e00c3b2062be7
:1037540044d8002903d1062040420db0f0bd080032
:103764000df082fd0500c4b2631e1c2b39d804afd2
:103774002022002138000df0fffdff222a400b23f8
:1037840002a98c4663449d1831000b23634418003e
:103794000df0e8fd631c7b702023bb702a00002021
:1037a4000021edb208e00638d7e70130c0b2531c5f
:1037b400e318dbb2ab4208d0013a1378202bf4d1e2
:1037c4000028f0d010700800f1e72023009304ab28
:1037d400052202210398fff7c2febee706204042fd
:1037e400bbe706204042b8e7c3b2062b0fd802015c
:1037f4000b4b9b18db7adb070cd5094b9b189b7a88
:10380400002b0ad0064b9818407b40b27047062024
:103814004042fbe706204042f8e706204042f5e735
:10382400540d002000b587b0059000230293019346
:103834000093043305aa5521022002f077fe07b055
:1038440000bd024b187dc0b27047c046380d002041
:10385400c3b2062b0fd8002910d002010a4b9b18c3
:103864009b7a002b0dd0084b9818837b0b70c37b7d
:103874004b700020704706204042fbe70620404280
:0c388400f8e706204042f5e7540d002054
:020000040000fa
:103890000200431e033317d803041b0e16d1ff206a
:1038a00010400d4b9b68984212d283001b18db001e
:1038b0000949c8681818436a93420bd1c3785a1e45
:1038c00093415b42184070470020fce70020fae774
:1038d0000020f8e70020f6e7940f0020036a002b91
:1038e00005d01a6a026200225a751a621a7070476d
:1038f000f0b587b0050082692f48130aff210b40fd
:1039000074277b43c31811408c006418e400db6803
:10391000e41823889c465f43c019836a9a4239d0d1
:1039200001a823000c330200c2cbc2c242cb42c268
:10393000742663465e43204b9e19326d63699b007b
:103940009b588360726d23699b009b584360f26ca7
:10395000a3699b009b58c36073691b68002198474b
:10396000ab69b36220230022e2541c202056431c82
:103970000ed0627f002a12d11f32024001219140f5
:1039800080b240090d4b9c466044c0010bf070fab8
:1039900007b0f0bd2023e35c002be6d0c0e71f2278
:1039a00002400121914080b24009044b9c46604492
:1039b000c0010bf05bfaebe7940f00208800820057
:1039c00070b504002623c35c0125002b04d171339c
:1039d000c35c0025012b01d0280070bd703300228c
:1039e000c254c66dc36a013320d0036b01331dd0ae
:1039f0003578002d06d0042030560cf061fd3e23b2
:103a0000e054e9e70cf054fd0500102030560cf0ae
:103a100057fd3d23e054142030560cf051fd3c235b
:103a2000e05428000cf048fd0125d5e73578002d3d
:103a300006d0042030560cf043fd5b23e054cbe766
:103a40000cf036fd05007068431c0ad1b068431cb9
:103a50000dd1f068431c10d128000cf02dfd01257c
:103a6000bae740b20cf02cfd5823e054eee740b228
:103a70000cf026fd5923e054ebe740b20cf020fd9a
:103a80005a23e054e8e770b504002623c35c002bfa
:103a900000d070bdc56dc36a01331fd0036b013305
:103aa0001cd02b78002b06d03e23c15c0420285666
:103ab0000cf024fd1be00cf0fbfc06003d23e15c58
:103ac000102028560cf01afd3c23e15c14202856e7
:103ad0000cf014fd30000cf0effc08e02b78002b0c
:103ae00009d05b23e15c042028560cf007fd71230c
:103af0000122e254cde70cf0dbfc06006868431cb1
:103b000009d1a868431c0cd1e868431c0fd13000d0
:103b10000cf0d2fcebe75823e15c40b20cf0eefc79
:103b2000efe75923e15c40b20cf0e8fcece75a23e4
:103b3000e15c40b20cf0e2fce9e7f0b5c64600b546
:103b400004008669614a330aff252b4074204343f1
:103b5000d3182e40b500ad19ed00db68ed182e88a6
:103b600003007343d31800225a649a642269e368fd
:103b70009a425ad3704355490918d31a4b64742397
:103b80007343524fff18fb6ad8b22200504907f026
:103b900023f9386bc0b222004e4907f01df9ab691a
:103ba000002b49d0082b54d880277f0074237343ff
:103bb000464ded183900286b0cf0f6ffe86a390025
:103bc0000cf0f2ff2369002b52d1404b984674272a
:103bd0003d007543454400220021286b0cf0d2ffc4
:103be000ab6c0022aa6477433a0040324244a96b8e
:103bf000286bc0b207f010f8e368002b4ad1334cb1
:103c000074335e43a61900220021f06a0cf0baff5b
:103c1000736c00227264726b21007431f06ac0b25e
:103c200006f0faff04bc9046f0bd742070432749ab
:103c300009189b1a8b64a2e774337343234ded1864
:103c40000021286b0cf0b0ffe86a00210cf0acfffb
:103c5000b8e78027bf00742373431c4ded1839006b
:103c6000286b0cf0a1ffe86a39000cf09dffa9e772
:103c7000802274237343154ded1812010021286b27
:103c80000cf080ffa96b286bc0b22369626806f054
:103c9000c3ffb1e78021742373430c4ded1800225c
:103ca000c900e86a0cf06effab6c002b0bd02369e7
:103cb00074227243054eb618726ba168f06ac0b2e6
:103cc00006f0aaffaee7e368f2e7c046940f0020d3
:103cd000d93c00002d3d000070b58c691249230ac3
:103ce000ff22134074204343cb182240dc6893002a
:103cf0009b18db001b5b584309184a6c002a00d153
:103d000070bd094d0c0000220021e06a0cf03aff62
:103d100029007431e36ad8b2636c626b06f07cfff1
:103d200000236364ece7c046940f0020f0b5c6465c
:103d300000b582b001900c008969514a0b0aff2539
:103d40002b4074204343d31829408d006d18ed009b
:103d5000db68ed182f8878431218926c002a41d145
:103d6000474e361873699b6898470028fad11c2083
:103d70002856431c0ed06a7f002a55d11f320240bc
:103d80000121914080b240093e4b9c466044c001f5
:103d90000bf06cf874207843394b18186b6aa269e1
:103da000934253d1019b012b4bd0019b022b4ad054
:103db0001426a657e3699846fff790fd6b68002b21
:103dc00046d074237b432e4ce418263423780133e9
:103dd0002370aa686b684146300098472378013bfe
:103de000237035e0264e742398461d007d437519d7
:103df00000220021286b0cf0c5fe43465f433a00c9
:103e00004032b2182b6bd8b2ab6ca96b06f004ff32
:103e1000a1682369c918eb6ad8b2ab6c6a6b06f06b
:103e2000fbfe0023ab641de01f22024001219140f4
:103e300080b24009134b9c466044c0010bf018f857
:103e4000a8e72375b4e7fd332375b1e7fff746fd17
:103e500074227a430a4fbf183c6a002c02d0637d5b
:103e6000012b03d002b004bc9046f0bd2000fff748
:103e70003ffd022363752000fff75ffef2e7c046b7
:103e8000940f002088008200f8b504000378002b0e
:103e900032d01023c356022b2ed1066ab369190af9
:103ea000ff252940742251432c4a52182b409d0073
:103eb000ed18ed00d368ed181c202856431c0ed0d9
:103ec0006a7f002a19d11f3202400121914080b23d
:103ed0004009234b9c466044c0010af0c7ff6b6a4f
:103ee000b269934216d02000fff7f8fc256a002d36
:103ef00002d06b7d012b23d0f8bd1f22024001218f
:103f0000914080b24009164b9c466044c0010af0c3
:103f1000afffe4e701233375f7692000fff7defc0c
:103f20006b68002be2d02626a35d0133a355aa6857
:103f30006b68390001209847a35d013ba355d5e785
:103f40002800fff7d5fc02236b752b696a68e968c6
:103f5000a86864696468a047cee7c046940f002053
:103f600088008200f8b5002848d1334b1b78002b1d
:103f700053d1314b012070229854013298540132b0
:103f8000985418700e685e61ca6a9a618a6ada612a
:103f900000221a624c69dc608c699c605a609884cb
:103fa000012464429c6225301a545a704868d862d1
:103fb0008d681d63cf685f630f699f63cf69df649e
:103fc0000f6a1f654f6a5f65096bd96564215a5492
:103fd0009a66da66ff3210315c5474335a709a7004
:103fe000da70431c01d06b1c03d1f36812491348eb
:103ff0009847114b02221a740020f8bd0cf01afced
:10400000002802d101204042f7e70cf001fc0c49e6
:1040100008f064fb01204042efe70cf00bfc0028a5
:1040200002d101204042e8e70cf0f2fb054908f01c
:1040300055fb01204042e0e7940f0020893e00003c
:1040400010ef000028ef000010b5002803d1084b46
:104050001020185610bd0cf0edfb03000020002bc3
:10406000f8d00cf0d5fb034908f038fb0020f1e74d
:10407000940f002040ef000070b5002807d1484a97
:104080007023d35c012b11d00120404270bd0cf095
:10409000d1fb002802d101204042f7e70cf0b8fb29
:1040a000404908f01bfb01204042efe7130070225b
:1040b000002098541b7c5bb2022b47d1384b1b78f5
:1040c000002b43d0364b5b78002b50d1344b5b68d0
:1040d000002b53d1324b9d68002d5ad0db6818005d
:1040e000dc7828330022002c07d00132aa4250d0bd
:1040f00018002833c478002cf7d10123c3700b07b4
:1041000002d5274b01245c70254c63680133636042
:10411000a38c1b04ff252a401a434262a38c01335f
:104120009bb2214a934232d01d4a938470230124ca
:10413000d454042319438170002343608360ff2219
:104140000277df3a83540380406a9fe70cf072fbea
:10415000002806d1124a70230121d1540120404287
:1041600094e70cf055fb114908f0b8faf2e70c4a55
:1041700070230121d1540120404287e70b07a9d5c4
:10418000074a70230121d154012040427ee70123d8
:10419000cae7034a70230121d1540120404275e748
:1041a000940f002060ef0000ffff000078ef000098
:1041b000f0b583b00400fff76bfb051e0ed0078837
:1041c00074227a433b4b9b1870331b78012b0fd022
:1041d0000cf030fb002827d103b0f0bd0cf02afb17
:1041e0000028f9d00cf014fb334908f077faf3e714
:1041f000742216007e432f4b9819019003007033f0
:1042000000221a70fff7dcfb002813d074227a43d7
:10421000284b9b181b6ea34216d033002033254a2f
:10422000d2180020012420e00cf0f2fa234908f013
:1042300055fad1e70cf0fefa0028cdd00cf0e8fae0
:104240001f4908f04bfac7e774227a43194b9b18b1
:104250001900643100220a709a66013a1a667233b4
:1042600002321a70d9e720331a001368002b0dd0e0
:1042700099696e6ab142f6d1597d0129f3d1196a63
:10428000116058751c7518621870eee70198fff7f9
:10429000fafb74237b43074fff187b68013b7b606d
:1042a00000237b70012252426a62eb707037013347
:1042b0003b7091e7940f002094ef0000acef0000fa
:1042c000ccef0000f8b50f001600fff7e1fa041e6e
:1042d0000fd0038874255d43104b5d192800fff74c
:1042e0006ffb00280fd06760a6602800fff7cbfbac
:1042f000f8bd0cf09ffa0028fad00cf089fa0849b2
:1043000008f0ecf9f4e70cf095fa0028f0d00cf086
:104310007ffa044908f0e2f9eae7c046940f00206a
:1043200094ef0000ccef000070b50c00fff7b0fa7e
:1043300000280cd0002c0cd003000c3326cc26c354
:1043400006cc06c320230122c254012070bd0020e8
:10435000fce70020fae7f0b5de4657464e464546f4
:10436000e0b585b001900c000391904602930f9b3d
:10437000002b00d1e3e001235b420f9a1360fff7ab
:1043800087fa061e00d1dae04346002b41d0002c0c
:104390003fd0378874227a436e4b9b1864331b7866
:1043a000002b08d074227a436a4b9b181b6e019a2b
:1043b000934200d0c3e074237b439b46654b5b4430
:1043c0009a461800fff7fcfa00282ad0338899464d
:1043d00074234a4653435f4ad2189069d36ed16919
:1043e00000290ed000228b42a4412340dc00e418b7
:1043f000a40004192578002d1ed0013201338a4211
:10440000f1d10cf017fa00284ed15046fff73bfbd4
:1044100095e00e9b002b00d191e0029b002bb8d1c0
:104420008de00cf007fa002800d188e00cf0f0f9dc
:10443000494908f053f982e00122227000222262e9
:1044400074214a465143434a5118888c00043278fb
:1044500012020243ff2018400243e261898c0131bd
:1044600089b23e4a91421dd074204a465043394a8f
:10447000121891840133d366029b6360039ba3608f
:104480000123637500232375019ba361b369002b8e
:1044900010d0082b23d843465b00e3600e9b5b00e3
:1044a00023610be00121dfe70cf0b2f92c4908f0a1
:1044b00015f9aae74346e3600e9b23610f9be2696f
:1044c0001a6053461b6a002b10d0224b5b441b6ab8
:1044d000002b31d01a6a002a2ad11a002be0434659
:1044e0009b00e3600e9b9b002361e7e753461c6241
:1044f000022363752000fff7fbf974227a43154b02
:104500009b18db6a013306d074227a43114b9b1847
:104510001b6b01331ad123696268e168a0687425b6
:104520007d430c4c641964696468a04704e01a0078
:10453000136a002bfbd114625046fff7a4fa05b0b2
:104540003cbc90469946a246ab46f0bd2000fff722
:10455000f4faf1e7940f0020ccef0000ffff000019
:10456000e8ef000000b583b0019300230093fff74c
:10457000f2fe03b000bd00b583b0019300920b00c2
:1045800000220021fff7e7fe03b000bd10b50304d1
:104590001b0e11d1ff230340184ad2699a421ad93f
:1045a000da00d3189b00154a9269d3180222d96900
:1045b00081421fd0100010bd0cf03cf9002802d140
:1045c00002225242f6e70cf023f90d4908f086f872
:1045d00002225242eee70cf02df9002802d102220d
:1045e0005242e7e70cf014f9054908f077f8022287
:1045f0005242dfe714229a56dce7c046940f0020af
:1046000004f0000070b504000d00fff741f9002828
:1046100054d00288002d2dd074215143284b5b18b3
:104620006433187800280ed074215143244b5b1852
:104630001b6e9c4201d0002041e0214a5218936e2b
:10464000013393663be0742151431d4b5b18723379
:104650001b78012b33d11a4a5218130072330021f0
:1046600019700e3b013119701466936e0133936615
:10467000280024e074215143114b5b181b6e280065
:104680009c421cd1742151430d4b5b189b6e012041
:10469000002b14d0013b0800094909188b66012042
:1046a000002b0cd10a0001235b420b660b00643324
:1046b0000021197072320123137000e0002070bdd8
:0446c000940f002033
:020000040000fa
:1046c400431e033314d803041b0c042b13d85901c1
:1046d4000a4a5218d169002281420ad15a01074973
:1046e400515c0022002904d05b01044a9a1800e0be
:1046f4000022100070470022fbe7c046c00b0020d8
:10470400f0b5c64600b52a4b5a6b59691961002a9f
:1047140042d09168274b994234d9254b5b690025d7
:104724001c00244a0023a4185d41214b98465b6871
:104734009b6998470027060043461b69834203d9b7
:104744001d4a0023b6185f41194b196a00230a0059
:1047540092197b41ab4202d827d1a24225d98e19a6
:10476400134bde61124bdb691b0402d1104b012297
:10477400da610f4bd86980b25b685b69984704bc07
:104784009046f0bd91680a4b5b6900251c0000232c
:104794000a00a4185d41c8e7054b5b6900251c00ad
:1047a400044a0023a4185d41bfe7014bdc61d9e74b
:1047b400800b0020ff7f0000ffff000010b5164ba8
:1047c4005a6b002a24d0824205d18369002b17d06a
:1047d400002208e01a009369002b1bd09842f9d1fb
:1047e4008369002b05d08468996809199960002aa7
:1047f40008d083699361002300228261180010bdf0
:104804001a00f4e7044b5a6b92695a630123f3e7e5
:104814000023f3e70023f1e7800b0020f0b5de4628
:1048240057464e464546e0b585b08146002853d0ec
:10483400304b596b83689a4600290cd08b685246da
:104844000392002290469a4548d3002200238b46c7
:104854000092019305e08360264b5863012034e005
:10486400e3465e46b66834000025009a019b12199f
:104874006b41009201935e46b669b446002e12d095
:104884006646b66800210f00009a019bb6185f4186
:10489400474529d8e4d1039b9e42e1d96046594655
:1048a400009a019b01e0300059464c46a0618c619e
:1048b400002051468a1a4b469a609b69002b04d00b
:1048c4004a4691689a68521a9a6005b03cbc904670
:1048d4009946a246ab46f0bd0020f6e7054b586367
:1048e400816100220120e4e760465946009a019b59
:1048f400dbe7c046800b0020054b1b69834201d2d5
:10490400c01a7047c01a80235b029c466044f8e7d3
:10491400800b00200c4b5b6b002b11d000280fd0b8
:10492400002107e09a68801a99609b69002b07d0e0
:10493400002805d09a688242f4d39a68101a9860c5
:10494400014b5a691a617047800b0020f0b583b09f
:104954000190134c63689b69984760616069fff735
:10496400cbff0500fff7d6ff0bf0a0fda66ae76ab0
:1049740000232a0092197b41a262e3620bf09afda4
:104984000198fff74bff002801d103b0f0bd0bf0f5
:104994008dfd0400fff7b4fe20000bf08bfdf4e75f
:1049a400800b002010b50c4a3023d35c0120002b6f
:1049b40004d13833d35c0020012b00d010bd140087
:1049c40037330022e254082020560bf077fd3123c0
:1049d400e0540120f2e7c046800b002010b5084cdb
:1049e4003123e15c082020560bf086fd3023e35c84
:1049f400002b03d1024a38330121d15410bdc046e3
:104a0400800b0020f0b583b006000d0001921f005a
:104a140008ab1c78fff7c6ff002845d0244b1b7851
:104a24005bb2022b06d001246442fff7d7ff2000bb
:104a340003b0f0bd002d31d0b54232d31d4b1b78ed
:104a4400002b0bd01c4b01221978002908d001320d
:104a54002033052af8d101246442e6e70022154bed
:104a64000121197000215970197559759c705d6088
:104a74000199d9601f61ad1b9d6010490988140418
:104a8400240c0a041443dc61013189b20c4a9142ba
:104a940002d00a4a1180c8e70121fae701246442de
:104aa400c3e701246442c0e701246442bfe7c0466f
:104ab400800b0020c00b0020e00b002056110020ca
:104ac400ffff000070b50d1e46d0002847d1254ccd
:104ad40038230122e2540b686360db689847e06086
:104ae4000026c822002300210cf08ef81e4a002361
:104af4000cf00cf90222002380185941206204238f
:104b0400eb5623722661194ba361194be361002212
:104b14000023a262e36266633023e65463681b6881
:104b240000211448984763681b69002b02d00d4a82
:104b3400108b98470b4ce06980b263685b699847b7
:104b440063685b689847a02200210b480cf014fcb2
:104b540002232370200070bd01204042fbe70120a6
:104b64004042f8e7800b0020006cdc02ffff0000ed
:104b7400ff7f0000c54d0000c00b002010b5094b9d
:104b8400834200d010bd1c005b689b689847a0223c
:104b9400002105480cf0f0fb4022002120000cf01d
:104ba400ebfbefe7800b0020c00b0020044a00233e
:104bb400824201d01800704713785bb2fae7c0460e
:104bc400800b0020014bd8687047c046800b002042
:104bd400f8b50bf06bfc0400084d6b689b699847b3
:104be400fff78afeae6aef6a00230200b6185f413f
:104bf40020000bf05ffc30003900f8bd800b002072
:104c040010b5fff7e5ff10bd10b504000bf04efc26
:104c14000023220002498a62cb620bf04bfc10bdd8
:104c2400800b002070b500230200c10e4001801ae1
:104c34009941c60d4d0235434402a4185d41a60ea8
:104c4400a9013143a001001ba94180185941034b1c
:104c5400da6800230cf05af870bdc046800b0020bf
:104c640010b5fa229200002300210bf0cdff034b74
:104c7400da6800230cf04af810bdc046800b00200f
:104c840010b50200054bd868002300210bf0bcffcf
:104c9400034a00230cf03af810bdc046800b0020f4
:104ca40040420f0010b50200054bd86800230021d4
:104cb4000bf0aafffa22920000230cf027f810bd93
:104cc400800b002010b582b004ac2478002c01d1f4
:104cd400002a04d00094fff795fe02b010bd012015
:104ce4004042fae7f0b5c64600b582b00400009130
:104cf40017001d00019308ab04cb90461e78fff704
:104d040051fe002838d0002e01d1002d24d02000df
:104d1400fff7d6fc051e27d00124002f25d0009bc9
:104d24009f4222d3fff74afd00232b756b75ae70ab
:104d34006f60009bfe1aae60019beb6043462b61e3
:104d44000e4a3023d35c002b0ad12800fff7fefd66
:104d540001236b70002408e0fff740fe012406e005
:104d64002800fff75bfdf3e70124fff737fe20007f
:104d740002b004bc9046f0bd0124f8e7800b00208b
:104d840010b50400fff70efe002817d02000fff72f
:104d940097fc041e10d04378002b08d10023237500
:104da400637523700024fff719fe200010bdfff780
:104db40005fd00236370f1e70124f4e70124f4e71f
:104dc400f8b5374c656b63689b69984760616069a7
:104dd400fff792fda66ae76a0023020092197b415d
:104de400a262e362002d51d02d4c3022a35c01332a
:104df400a354fff78ffd646b002c06d0a368002b2f
:104e040003d101250027264e11e0264d00242e0053
:104e140021e0e069fff7b4ffe368002b01d02069cb
:104e24009847746b002cf0d0a368002bedd1257546
:104e34006575a378002b02d1e368002be9d120002b
:104e4400fff7bcfca378002be6d16770e4e70134dc
:104e54002035052c15d06301f3185b7d002bf6d0ab
:104e64006201104b9b1800225a75ab78012beed1ce
:104e740061010c4b59186b688b602800fff7cefc5e
:104e8400e5e7074930228b5c013b8b540bf00efbaa
:104e94000400fff735fc20000bf00cfbf8bdc04606
:104ea400800b0020c00b002070b50400fff77afdd2
:104eb400002825d02000fff703fc041e1ed04378f1
:104ec4000025002b12d18368002b01d14368836035
:104ed4000c4a3023d35c002b0cd12000fff736fda5
:104ee400002323756375013363700025fff776fd96
:104ef400280070bd2000fff791fcf1e70125f5e7dc
:104f04000125f5e7800b002070b50400fff74afd8a
:104f1400002817d02000fff7d3fb041e10d04378dd
:104f24000025002b03d1fff759fd280070bdfff7c2
:104f340045fc00232375637563706368a360f2e71f
:104f44000125f0e70125f0e770b504000d00fff737
:104f540029fd002834d0002d30d02000fff7b0fb0d
:104f64000124002822d043780022002b1cd0174ba8
:104f74005c6b002c1ed0a0421ed00023a2689b189c
:104f8400a469002c01d0a042f8d1a668f6180f4bf2
:104f94005b689b699847fff7affc864212d3301acf
:104fa4006168002288420fd92a600024fff716fda9
:104fb400200070bd0023e8e70023e6e70124f5e7bd
:104fc4000124f5e7616800200a1aede7800b002050
:104fd40070b50500fff7e6fc041e0ad02800fff7b1
:104fe4006ffb002807d0047de4b200230375fff7ac
:104ff400f5fc200070bd0024f9e710b582b0020072
:105004000c1e1ed00123002802d1180002b010bdce
:105014000d4bd868002300210bf0f6fd0b4a00234a
:105024000bf074fe01000023009300220020fff720
:10503400e9fc20600123421ce7d0fff735ff002381
:10504400e3e70123e1e7c046800b002040420f0064
:1050540010b582b002000c1e1fd00123002802d11b
:10506400180002b010bd0e4bd868002300210bf0cd
:10507400cbfdfa22920000230bf048fe010000232e
:10508400009300220020fff7bdfc20600123421c96
:10509400e6d0fff709ff0023e2e70123e0e7c0467b
:1050a400800b002070b50500fff792ff041e01d1ac
:1050b400200070bd2800fff763fef9e770b582b0e9
:1050c40005000e001c1e01d100281dd0002a04d1a9
:1050d40001246442200002b070bd0d4bd868002347
:1050e40000210bf091fd0b4a00230bf00ffe010091
:1050f400009433002a000020fff784fc0400431cc2
:10510400e8d0fff7d1fee5e701246442e2e7c046b8
:10511400800b002040420f0070b582b005000e00e5
:105124001c1e01d100281ed0002a04d1012464428f
:10513400200002b070bd0d4bd868002300210bf095
:1051440063fdfa22920000230bf0e0fd01000094bd
:1051540033002a000020fff755fc0400431ce7d06d
:10516400fff7a2fee4e701246442e1e7800b00209c
:020000040000fa
:1051740070b584b008ac257801ac20703d30c4b261
:105184000c2c00d986e0a000444c2058874601ab83
:105194000a0c5a700a0a9a70d9700521404b1b7880
:1051a400002b65d14e1e01aa6b46033358187f238a
:1051b4003c4d5b0014786340eb5c01328242f8d1d1
:1051c4005b0001aa935501a808f016fc00230028ef
:1051d40051d0180004b070bd0b0adbb2002d07d10a
:1051e40001aa537001ab99700022da700521d5e74a
:1051f40080225242134301aa5370f3e701abff220a
:105204005a709a70da700521c8e701aa080c507028
:10521400080a9070d170190c1171190a51719371a7
:105224000821bbe70b0adbb2002d0cd101a84370a7
:1052340001ab9970110ed970110c1971110a5971c1
:105244009a710821aae780204042034301a84370d1
:10525400eee701ab080c5870080a9870d970110e6b
:105264001971110c5971110a9971da71092195e7b3
:105274000139c9b2a7e70bf0dbfa002802d10123f8
:105284005b42a6e70bf0c2fa074907f0eff90123e6
:105294005b429ee701235b429be7c04608e70000b0
:1052a400050e00203ce70000d07a0000f0b583b082
:1052b40006000f00cf2818d00a246b46dd1d0121fb
:1052c400280008f0b9fb002819d02b78b34225d068
:1052d400002f23d1013c64b2631cf0d10bf0a8fa77
:1052e400002836d1012040424de001216b46d81df3
:1052f40008f0a2fb0028dfd10120404243e00bf07c
:1053040097fa002802d1012040423ce00bf07efadb
:10531400224907f0abf90120404234e00a256b46ec
:10532400de1d002cdadb0121300008f085fb0028ab
:1053340017d03378002b23d0002f21d1013d6db23b
:105344006b1cf0d10bf074fa00281ed101204042ee
:1053540019e00bf05bfa124907f088f9012040428a
:1053640011e00bf065fa002802d1012040420ae066
:105374000bf04cfa094907f079f90120404202e0a8
:105384000020002ddedb03b0f0bd0bf03ffa044932
:1053940007f06cf901204042f5e7c046fc7a0000b2
:1053a400347b0000f0b5de4657464e464546e0b530
:1053b40083b083468846924600262ae00bf038faea
:1053c400002807d1013803b03cbc90469946a24658
:1053d400ab46f0bd0bf01afa3c4907f047f901203f
:1053e4004042f0e7002c2fdd5b469819494608f04f
:1053f40023fb002832d0364b1b78524613434dd042
:105404004e4436b243464a469b1a9bb29846002bfa
:1054140059d0434680229201904500d9131c9bb277
:1054240099460a246b46dd1c0f2701216b46d81cc4
:1054340008f002fb0028c1d02b78bb43f02bd1d05d
:10544400013c24b2631cf0d15346002b0dd05b46c3
:105454009819494608f0f0fa0028d1d10bf0e8f980
:10546400002813d101204042ade70bf0e1f90028f8
:1054740002d101204042a6e70bf0c8f96b46da7866
:10548400144907f0f3f8012040429ce70bf0bef901
:10549400114907f0ebf80120404294e7022101a8ea
:1054a40008f0cafa0028abd10bf0c2f9002802d1e7
:1054b4000120404287e70bf0a9f9084907f0d6f824
:1054c400012040427fe700207de7c046607b00006a
:1054d400050e00209c7b0000d47b00000c7c0000a7
:1054e40000b583b001200bf075fd0023009300226a
:1054f4000021cf20fff73cfe0021cf20fff7d6fe8e
:1055040001200bf067fd03b000bd10b582b00c4b59
:105514005b78012b03d00620404202b010bd084c3a
:1055240000236370009300220021cf20fff720fea8
:105534000021cf20fff7bafe012363700020ece7bf
:10554400050e0020014b01225a707047050e002001
:10555400024b00221a7000207047c046050e00203e
:10556400f0b587b006000f003a4b5b78012b02d0f0
:105574000620404242e0374b00225a70ff2809d8e7
:10558400c4231d1cebb203930024ff23b3426441e4
:1055940009250ee0ca231d1cf4e70bf049f9002885
:1055a4002ed10bf045f9002846d1fff799ff013db4
:1055b4004ad300940423002231000398fff7d8fd56
:1055c4000028ead121000398fff770fe00281ed1bd
:1055d4002200042105a8fff7e5fe002822d105aa30
:1055e40053781b02917809040b4311780b43d2784a
:1055f400120613433b60174b01225a7007b0f0bdeb
:105604000bf004f93200144907f030f8c9e70bf045
:105614000ff90028c5d00bf0f9f832000f4907f054
:1056240025f8bee70bf004f90028bad00bf0eef829
:105634000b4907f01bf8b4e70bf0e8f833002a0035
:10564400084907f013f8b0e7024b01225a7006200c
:105654004042d3e7050e0020487c00007c7c00001b
:10566400b87c0000e07c000000b583b00023019307
:1056740001a9fff775ff019803b000bdf0b583b031
:1056840004000e00304b5f78012f03d00620404207
:1056940003b0f0bd00225a7009250be00bf0c8f8e6
:1056a40000281ad10bf0c4f8002828d1fff718fffe
:1056b400013d2dd3302c31d9002300930433320023
:1056c4002100c920fff754fd0028e7d1a0235b0186
:1056d4009c4233d00021c9202ce00bf097f8220023
:1056e4001a4906f0c3ffdde70bf0a2f80028d9d071
:1056f4000bf08cf82200164906f0b8ffd2e70bf045
:1057040085f8009623002a00124906f0afffcde782
:105714000d4b01225a7006204042b9e70123009341
:10572400033332002100c320fff722fd0028b5d146
:105734003900c330fff7bafd0028d5d1024b01224e
:105744005a700020a4e7c046050e0020fc7c00002f
:10575400307d0000707d000030b583b000230093dd
:105764003d4a137069463d48fff7fafe00282bd1e5
:10577400394b1b78002b0dd17c33009999432c3b7a
:10578400194300913548fff779ff00283ed1324b89
:1057940001221a70802001a94001fff7e1fe041ed6
:1057a40043d10bf045f803284ed82c4d2800fff7c1
:1057b4005bff702301009943502001432800fff749
:1057c4005dff200003b030bd234b01221a700bf0a3
:1057d4002ff800280cd169462048fff7c1fe0028a5
:1057e400c6d00bf025f8002808d106246442e8e767
:1057f4000bf00cf81a4906f039ffece70bf006f849
:10580400184906f033ff06246442dae70bf010f877
:10581400002802d106246442d3e70af0f7ff1249b4
:1058240006f024ff06246442cbe70bf001f80028bd
:1058340002d106246442c4e70af0e8ff0b4906f0eb
:1058440015ff06246442bce70af0e0ff019a084908
:1058540006f00cffa9e7c046050e002024e800006e
:10586400907d0000e87d00001c7e0000547e000056
:10587400807e0000f0b589b003900591150007ab58
:1058840000221a705a70374b5b78012b03d0062024
:10589400404209b0f0bd334b5a70012d57d00491ea
:1058a4000927002426000be00af0c2ff002829d1b2
:1058b4000af0beff002841d1fff712fe013f4ad390
:1058c40000962b0022000399c820fff751fc002802
:1058d400ead12100c820fff7e9fc002819d12200f1
:1058e40029000498fff75efd00281dd11d4b0122fd
:1058f4005a7007ab049a9a42cbd107ab1b78059a2e
:105904001370c6e70af082ff039a174906f0aefe49
:10591400cee70af08dff0028cad00af077ff039a79
:10592400124906f0a3fec3e70af082ff0028bfd0a5
:105934000af06cff0e4906f099feb9e70af066ff1b
:105944000095039b3a000b4906f090feb4e707abc1
:1059540004930225a4e7034b01225a700620404217
:1059640097e7c046050e0020a07e0000d87e000008
:10597400187f0000487f0000f0b5de464f464646db
:10598400c0b586b003908b4602927d4b5b789846f7
:10599400012b08d006267642300006b01cbc904687
:1059a4009946a346f0bd764b00225a70029b012b08
:1059b40002d00923994689e001330293f9e70af0fa
:1059c40037ff002878d00af021ff039a6d4906f0ca
:1059d4004dfe71e00af02cff00286dd00af016ff8e
:1059e400039a694906f042fe66e000238022920190
:1059f400aa425b4102330b2002aa9446604410225f
:105a0400524213430370012107f0f6ff002821d00e
:105a14005b46d819210007f0efff00282ed0584b21
:105a24001b78002b34d0e7193fb22d1badb2002deb
:105a340000d188e02c1c80239b019d4200d91c1cb2
:105a4400a4b2002fd1d18022920103239542d2d94e
:105a54004346d0e70af0ecfe002809d10af0e8fe3c
:105a6400002829d00af0d2fe484906f0fffd23e0c1
:105a74000af0ccfe464906f0f9fdefe70af0d8fe3d
:105a84000028ebd00af0c2fe424906f0effde5e73c
:105a9400022105a807f0b0ff0028c4d10af0c8fe0f
